{
	"contracts/ACTUAL.sol": {
		"LiquidationProtocol": {
			"abi": [
				{
					"inputs": [],
					"name": "AccessControlBadConfirmation",
					"type": "error"
				},
				{
					"inputs": [
						{
							"internalType": "address",
							"name": "account",
							"type": "address"
						},
						{
							"internalType": "bytes32",
							"name": "neededRole",
							"type": "bytes32"
						}
					],
					"name": "AccessControlUnauthorizedAccount",
					"type": "error"
				},
				{
					"inputs": [],
					"name": "InvalidInitialization",
					"type": "error"
				},
				{
					"inputs": [],
					"name": "NotInitializing",
					"type": "error"
				},
				{
					"anonymous": false,
					"inputs": [
						{
							"indexed": true,
							"internalType": "uint256",
							"name": "auctionId",
							"type": "uint256"
						},
						{
							"indexed": false,
							"internalType": "address",
							"name": "collateralToken",
							"type": "address"
						},
						{
							"indexed": false,
							"internalType": "uint256",
							"name": "collateralAmount",
							"type": "uint256"
						}
					],
					"name": "AuctionStarted",
					"type": "event"
				},
				{
					"anonymous": false,
					"inputs": [
						{
							"indexed": true,
							"internalType": "uint256",
							"name": "auctionId",
							"type": "uint256"
						},
						{
							"indexed": true,
							"internalType": "address",
							"name": "buyer",
							"type": "address"
						},
						{
							"indexed": false,
							"internalType": "uint256",
							"name": "collateralAmount",
							"type": "uint256"
						}
					],
					"name": "CollateralPurchased",
					"type": "event"
				},
				{
					"anonymous": false,
					"inputs": [
						{
							"indexed": false,
							"internalType": "uint64",
							"name": "version",
							"type": "uint64"
						}
					],
					"name": "Initialized",
					"type": "event"
				},
				{
					"anonymous": false,
					"inputs": [
						{
							"indexed": true,
							"internalType": "uint256",
							"name": "loanId",
							"type": "uint256"
						},
						{
							"indexed": true,
							"internalType": "address",
							"name": "borrower",
							"type": "address"
						},
						{
							"indexed": false,
							"internalType": "address",
							"name": "collateralToken",
							"type": "address"
						},
						{
							"indexed": false,
							"internalType": "uint256",
							"name": "collateralAmount",
							"type": "uint256"
						},
						{
							"indexed": false,
							"internalType": "uint256",
							"name": "borrowedAmount",
							"type": "uint256"
						}
					],
					"name": "LoanCreated",
					"type": "event"
				},
				{
					"anonymous": false,
					"inputs": [
						{
							"indexed": true,
							"internalType": "uint256",
							"name": "loanId",
							"type": "uint256"
						},
						{
							"indexed": true,
							"internalType": "address",
							"name": "liquidator",
							"type": "address"
						},
						{
							"indexed": false,
							"internalType": "uint256",
							"name": "collateralLiquidated",
							"type": "uint256"
						}
					],
					"name": "LoanLiquidated",
					"type": "event"
				},
				{
					"anonymous": false,
					"inputs": [
						{
							"indexed": false,
							"internalType": "address",
							"name": "account",
							"type": "address"
						}
					],
					"name": "Paused",
					"type": "event"
				},
				{
					"anonymous": false,
					"inputs": [
						{
							"indexed": true,
							"internalType": "bytes32",
							"name": "role",
							"type": "bytes32"
						},
						{
							"indexed": true,
							"internalType": "bytes32",
							"name": "previousAdminRole",
							"type": "bytes32"
						},
						{
							"indexed": true,
							"internalType": "bytes32",
							"name": "newAdminRole",
							"type": "bytes32"
						}
					],
					"name": "RoleAdminChanged",
					"type": "event"
				},
				{
					"anonymous": false,
					"inputs": [
						{
							"indexed": true,
							"internalType": "bytes32",
							"name": "role",
							"type": "bytes32"
						},
						{
							"indexed": true,
							"internalType": "address",
							"name": "account",
							"type": "address"
						},
						{
							"indexed": true,
							"internalType": "address",
							"name": "sender",
							"type": "address"
						}
					],
					"name": "RoleGranted",
					"type": "event"
				},
				{
					"anonymous": false,
					"inputs": [
						{
							"indexed": true,
							"internalType": "bytes32",
							"name": "role",
							"type": "bytes32"
						},
						{
							"indexed": true,
							"internalType": "address",
							"name": "account",
							"type": "address"
						},
						{
							"indexed": true,
							"internalType": "address",
							"name": "sender",
							"type": "address"
						}
					],
					"name": "RoleRevoked",
					"type": "event"
				},
				{
					"anonymous": false,
					"inputs": [
						{
							"indexed": false,
							"internalType": "address",
							"name": "account",
							"type": "address"
						}
					],
					"name": "Unpaused",
					"type": "event"
				},
				{
					"inputs": [],
					"name": "ADMIN_ROLE",
					"outputs": [
						{
							"internalType": "bytes32",
							"name": "",
							"type": "bytes32"
						}
					],
					"stateMutability": "view",
					"type": "function"
				},
				{
					"inputs": [],
					"name": "DEFAULT_ADMIN_ROLE",
					"outputs": [
						{
							"internalType": "bytes32",
							"name": "",
							"type": "bytes32"
						}
					],
					"stateMutability": "view",
					"type": "function"
				},
				{
					"inputs": [],
					"name": "KEEPER_ROLE",
					"outputs": [
						{
							"internalType": "bytes32",
							"name": "",
							"type": "bytes32"
						}
					],
					"stateMutability": "view",
					"type": "function"
				},
				{
					"inputs": [],
					"name": "TREASURY_ROLE",
					"outputs": [
						{
							"internalType": "bytes32",
							"name": "",
							"type": "bytes32"
						}
					],
					"stateMutability": "view",
					"type": "function"
				},
				{
					"inputs": [
						{
							"internalType": "uint256",
							"name": "",
							"type": "uint256"
						}
					],
					"name": "auctions",
					"outputs": [
						{
							"internalType": "address",
							"name": "collateralToken",
							"type": "address"
						},
						{
							"internalType": "uint256",
							"name": "collateralAmount",
							"type": "uint256"
						},
						{
							"internalType": "uint256",
							"name": "startPrice",
							"type": "uint256"
						},
						{
							"internalType": "uint256",
							"name": "minimumPrice",
							"type": "uint256"
						},
						{
							"internalType": "uint256",
							"name": "startTimestamp",
							"type": "uint256"
						},
						{
							"internalType": "bool",
							"name": "isActive",
							"type": "bool"
						}
					],
					"stateMutability": "view",
					"type": "function"
				},
				{
					"inputs": [
						{
							"internalType": "address",
							"name": "collateralToken",
							"type": "address"
						},
						{
							"internalType": "address",
							"name": "priceFeed",
							"type": "address"
						},
						{
							"internalType": "uint256",
							"name": "collateralAmount",
							"type": "uint256"
						},
						{
							"internalType": "uint256",
							"name": "borrowAmount",
							"type": "uint256"
						}
					],
					"name": "borrow",
					"outputs": [],
					"stateMutability": "nonpayable",
					"type": "function"
				},
				{
					"inputs": [],
					"name": "config",
					"outputs": [
						{
							"internalType": "uint256",
							"name": "liquidationThreshold",
							"type": "uint256"
						},
						{
							"internalType": "uint256",
							"name": "maxLoanToValue",
							"type": "uint256"
						},
						{
							"internalType": "uint256",
							"name": "baseBorrowRate",
							"type": "uint256"
						},
						{
							"internalType": "uint256",
							"name": "liquidationPenalty",
							"type": "uint256"
						}
					],
					"stateMutability": "view",
					"type": "function"
				},
				{
					"inputs": [
						{
							"internalType": "bytes32",
							"name": "role",
							"type": "bytes32"
						}
					],
					"name": "getRoleAdmin",
					"outputs": [
						{
							"internalType": "bytes32",
							"name": "",
							"type": "bytes32"
						}
					],
					"stateMutability": "view",
					"type": "function"
				},
				{
					"inputs": [
						{
							"internalType": "bytes32",
							"name": "role",
							"type": "bytes32"
						},
						{
							"internalType": "address",
							"name": "account",
							"type": "address"
						}
					],
					"name": "grantRole",
					"outputs": [],
					"stateMutability": "nonpayable",
					"type": "function"
				},
				{
					"inputs": [
						{
							"internalType": "bytes32",
							"name": "role",
							"type": "bytes32"
						},
						{
							"internalType": "address",
							"name": "account",
							"type": "address"
						}
					],
					"name": "hasRole",
					"outputs": [
						{
							"internalType": "bool",
							"name": "",
							"type": "bool"
						}
					],
					"stateMutability": "view",
					"type": "function"
				},
				{
					"inputs": [
						{
							"internalType": "address",
							"name": "_stablecoin",
							"type": "address"
						},
						{
							"internalType": "address",
							"name": "_protocolToken",
							"type": "address"
						},
						{
							"internalType": "address",
							"name": "_admin",
							"type": "address"
						}
					],
					"name": "initialize",
					"outputs": [],
					"stateMutability": "nonpayable",
					"type": "function"
				},
				{
					"inputs": [
						{
							"internalType": "uint256",
							"name": "loanId",
							"type": "uint256"
						}
					],
					"name": "liquidate",
					"outputs": [],
					"stateMutability": "nonpayable",
					"type": "function"
				},
				{
					"inputs": [
						{
							"internalType": "uint256",
							"name": "",
							"type": "uint256"
						}
					],
					"name": "loans",
					"outputs": [
						{
							"internalType": "address",
							"name": "borrower",
							"type": "address"
						},
						{
							"internalType": "address",
							"name": "collateralToken",
							"type": "address"
						},
						{
							"internalType": "address",
							"name": "priceFeed",
							"type": "address"
						},
						{
							"internalType": "uint256",
							"name": "collateralAmount",
							"type": "uint256"
						},
						{
							"internalType": "uint256",
							"name": "borrowedAmount",
							"type": "uint256"
						},
						{
							"internalType": "uint256",
							"name": "interestRate",
							"type": "uint256"
						},
						{
							"internalType": "uint256",
							"name": "startTimestamp",
							"type": "uint256"
						},
						{
							"internalType": "bool",
							"name": "isActive",
							"type": "bool"
						}
					],
					"stateMutability": "view",
					"type": "function"
				},
				{
					"inputs": [],
					"name": "nextAuctionId",
					"outputs": [
						{
							"internalType": "uint256",
							"name": "",
							"type": "uint256"
						}
					],
					"stateMutability": "view",
					"type": "function"
				},
				{
					"inputs": [],
					"name": "nextLoanId",
					"outputs": [
						{
							"internalType": "uint256",
							"name": "",
							"type": "uint256"
						}
					],
					"stateMutability": "view",
					"type": "function"
				},
				{
					"inputs": [],
					"name": "pause",
					"outputs": [],
					"stateMutability": "nonpayable",
					"type": "function"
				},
				{
					"inputs": [],
					"name": "paused",
					"outputs": [
						{
							"internalType": "bool",
							"name": "",
							"type": "bool"
						}
					],
					"stateMutability": "view",
					"type": "function"
				},
				{
					"inputs": [],
					"name": "protocolToken",
					"outputs": [
						{
							"internalType": "contract IERC20",
							"name": "",
							"type": "address"
						}
					],
					"stateMutability": "view",
					"type": "function"
				},
				{
					"inputs": [
						{
							"internalType": "uint256",
							"name": "auctionId",
							"type": "uint256"
						}
					],
					"name": "purchaseCollateral",
					"outputs": [],
					"stateMutability": "nonpayable",
					"type": "function"
				},
				{
					"inputs": [
						{
							"internalType": "bytes32",
							"name": "role",
							"type": "bytes32"
						},
						{
							"internalType": "address",
							"name": "callerConfirmation",
							"type": "address"
						}
					],
					"name": "renounceRole",
					"outputs": [],
					"stateMutability": "nonpayable",
					"type": "function"
				},
				{
					"inputs": [
						{
							"internalType": "bytes32",
							"name": "role",
							"type": "bytes32"
						},
						{
							"internalType": "address",
							"name": "account",
							"type": "address"
						}
					],
					"name": "revokeRole",
					"outputs": [],
					"stateMutability": "nonpayable",
					"type": "function"
				},
				{
					"inputs": [],
					"name": "stablecoin",
					"outputs": [
						{
							"internalType": "contract IERC20",
							"name": "",
							"type": "address"
						}
					],
					"stateMutability": "view",
					"type": "function"
				},
				{
					"inputs": [
						{
							"internalType": "bytes4",
							"name": "interfaceId",
							"type": "bytes4"
						}
					],
					"name": "supportsInterface",
					"outputs": [
						{
							"internalType": "bool",
							"name": "",
							"type": "bool"
						}
					],
					"stateMutability": "view",
					"type": "function"
				},
				{
					"inputs": [],
					"name": "unpause",
					"outputs": [],
					"stateMutability": "nonpayable",
					"type": "function"
				},
				{
					"inputs": [
						{
							"internalType": "uint256",
							"name": "_liquidationThreshold",
							"type": "uint256"
						},
						{
							"internalType": "uint256",
							"name": "_maxLoanToValue",
							"type": "uint256"
						},
						{
							"internalType": "uint256",
							"name": "_baseBorrowRate",
							"type": "uint256"
						},
						{
							"internalType": "uint256",
							"name": "_liquidationPenalty",
							"type": "uint256"
						}
					],
					"name": "updateProtocolConfig",
					"outputs": [],
					"stateMutability": "nonpayable",
					"type": "function"
				},
				{
					"inputs": [
						{
							"internalType": "address",
							"name": "",
							"type": "address"
						},
						{
							"internalType": "address",
							"name": "",
							"type": "address"
						}
					],
					"name": "userCollateral",
					"outputs": [
						{
							"internalType": "uint256",
							"name": "",
							"type": "uint256"
						}
					],
					"stateMutability": "view",
					"type": "function"
				}
			],
			"devdoc": {
				"errors": {
					"AccessControlBadConfirmation()": [
						{
							"details": "The caller of a function is not the expected one. NOTE: Don't confuse with {AccessControlUnauthorizedAccount}."
						}
					],
					"AccessControlUnauthorizedAccount(address,bytes32)": [
						{
							"details": "The `account` is missing a role."
						}
					],
					"InvalidInitialization()": [
						{
							"details": "The contract is already initialized."
						}
					],
					"NotInitializing()": [
						{
							"details": "The contract is not initializing."
						}
					]
				},
				"events": {
					"Initialized(uint64)": {
						"details": "Triggered when the contract has been initialized or reinitialized."
					},
					"Paused(address)": {
						"details": "Emitted when the pause is triggered by `account`."
					},
					"RoleAdminChanged(bytes32,bytes32,bytes32)": {
						"details": "Emitted when `newAdminRole` is set as ``role``'s admin role, replacing `previousAdminRole` `DEFAULT_ADMIN_ROLE` is the starting admin for all roles, despite {RoleAdminChanged} not being emitted signaling this."
					},
					"RoleGranted(bytes32,address,address)": {
						"details": "Emitted when `account` is granted `role`. `sender` is the account that originated the contract call. This account bears the admin role (for the granted role). Expected in cases where the role was granted using the internal {AccessControl-_grantRole}."
					},
					"RoleRevoked(bytes32,address,address)": {
						"details": "Emitted when `account` is revoked `role`. `sender` is the account that originated the contract call:   - if using `revokeRole`, it is the admin role bearer   - if using `renounceRole`, it is the role bearer (i.e. `account`)"
					},
					"Unpaused(address)": {
						"details": "Emitted when the pause is lifted by `account`."
					}
				},
				"kind": "dev",
				"methods": {
					"getRoleAdmin(bytes32)": {
						"details": "Returns the admin role that controls `role`. See {grantRole} and {revokeRole}. To change a role's admin, use {_setRoleAdmin}."
					},
					"grantRole(bytes32,address)": {
						"details": "Grants `role` to `account`. If `account` had not been already granted `role`, emits a {RoleGranted} event. Requirements: - the caller must have ``role``'s admin role. May emit a {RoleGranted} event."
					},
					"hasRole(bytes32,address)": {
						"details": "Returns `true` if `account` has been granted `role`."
					},
					"paused()": {
						"details": "Returns true if the contract is paused, and false otherwise."
					},
					"renounceRole(bytes32,address)": {
						"details": "Revokes `role` from the calling account. Roles are often managed via {grantRole} and {revokeRole}: this function's purpose is to provide a mechanism for accounts to lose their privileges if they are compromised (such as when a trusted device is misplaced). If the calling account had been revoked `role`, emits a {RoleRevoked} event. Requirements: - the caller must be `callerConfirmation`. May emit a {RoleRevoked} event."
					},
					"revokeRole(bytes32,address)": {
						"details": "Revokes `role` from `account`. If `account` had been granted `role`, emits a {RoleRevoked} event. Requirements: - the caller must have ``role``'s admin role. May emit a {RoleRevoked} event."
					},
					"supportsInterface(bytes4)": {
						"details": "See {IERC165-supportsInterface}."
					}
				},
				"version": 1
			},
			"evm": {
				"assembly": "    /* \"contracts/ACTUAL.sol\":516:9897  contract LiquidationProtocol is ... */\n  mstore(0x40, 0x80)\n  callvalue\n  dup1\n  iszero\n  tag_1\n  jumpi\n  0x00\n  dup1\n  revert\ntag_1:\n  pop\n  dataSize(sub_0)\n  dup1\n  dataOffset(sub_0)\n  0x00\n  codecopy\n  0x00\n  return\nstop\n\nsub_0: assembly {\n        /* \"contracts/ACTUAL.sol\":516:9897  contract LiquidationProtocol is ... */\n      mstore(0x40, 0x80)\n      callvalue\n      dup1\n      iszero\n      tag_1\n      jumpi\n      0x00\n      dup1\n      revert\n    tag_1:\n      pop\n      jumpi(tag_2, lt(calldatasize, 0x04))\n      shr(0xe0, calldataload(0x00))\n      dup1\n      0x79502c55\n      gt\n      tag_29\n      jumpi\n      dup1\n      0xc0c53b8b\n      gt\n      tag_30\n      jumpi\n      dup1\n      0xe1ec3c68\n      gt\n      tag_31\n      jumpi\n      dup1\n      0xe1ec3c68\n      eq\n      tag_25\n      jumpi\n      dup1\n      0xe9cbd822\n      eq\n      tag_26\n      jumpi\n      dup1\n      0xfbf37739\n      eq\n      tag_27\n      jumpi\n      dup1\n      0xfc528482\n      eq\n      tag_28\n      jumpi\n      jump(tag_2)\n    tag_31:\n      dup1\n      0xc0c53b8b\n      eq\n      tag_22\n      jumpi\n      dup1\n      0xd11a57ec\n      eq\n      tag_23\n      jumpi\n      dup1\n      0xd547741f\n      eq\n      tag_24\n      jumpi\n      jump(tag_2)\n    tag_30:\n      dup1\n      0x79502c55\n      eq\n      tag_16\n      jumpi\n      dup1\n      0x7cdd1263\n      eq\n      tag_17\n      jumpi\n      dup1\n      0x8456cb59\n      eq\n      tag_18\n      jumpi\n      dup1\n      0x87c51459\n      eq\n      tag_19\n      jumpi\n      dup1\n      0x91d14854\n      eq\n      tag_20\n      jumpi\n      dup1\n      0xa217fddf\n      eq\n      tag_21\n      jumpi\n      jump(tag_2)\n    tag_29:\n      dup1\n      0x36568abe\n      gt\n      tag_32\n      jumpi\n      dup1\n      0x501ed22c\n      gt\n      tag_33\n      jumpi\n      dup1\n      0x501ed22c\n      eq\n      tag_12\n      jumpi\n      dup1\n      0x571a26a0\n      eq\n      tag_13\n      jumpi\n      dup1\n      0x5c975abb\n      eq\n      tag_14\n      jumpi\n      dup1\n      0x75b238fc\n      eq\n      tag_15\n      jumpi\n      jump(tag_2)\n    tag_33:\n      dup1\n      0x36568abe\n      eq\n      tag_9\n      jumpi\n      dup1\n      0x3f4ba83a\n      eq\n      tag_10\n      jumpi\n      dup1\n      0x415f1240\n      eq\n      tag_11\n      jumpi\n      jump(tag_2)\n    tag_32:\n      dup1\n      0x01ffc9a7\n      eq\n      tag_3\n      jumpi\n      dup1\n      0x1a465fe1\n      eq\n      tag_4\n      jumpi\n      dup1\n      0x248a9ca3\n      eq\n      tag_5\n      jumpi\n      dup1\n      0x2b92a07d\n      eq\n      tag_6\n      jumpi\n      dup1\n      0x2f2ff15d\n      eq\n      tag_7\n      jumpi\n      dup1\n      0x364bc15a\n      eq\n      tag_8\n      jumpi\n    tag_2:\n      0x00\n      dup1\n      revert\n        /* \"@openzeppelin/contracts-upgradeable/access/AccessControlUpgradeable.sol\":3443:3645  function supportsInterface(bytes4 interfaceId) public view virtual override returns (bool) {... */\n    tag_3:\n      tag_34\n      0x04\n      dup1\n      calldatasize\n      sub\n      dup2\n      add\n      swap1\n      tag_35\n      swap2\n      swap1\n      tag_36\n      jump\t// in\n    tag_35:\n      tag_37\n      jump\t// in\n    tag_34:\n      mload(0x40)\n      tag_38\n      swap2\n      swap1\n      tag_39\n      jump\t// in\n    tag_38:\n      mload(0x40)\n      dup1\n      swap2\n      sub\n      swap1\n      return\n        /* \"contracts/ACTUAL.sol\":1829:1856  IERC20 public protocolToken */\n    tag_4:\n      tag_40\n      tag_41\n      jump\t// in\n    tag_40:\n      mload(0x40)\n      tag_42\n      swap2\n      swap1\n      tag_43\n      jump\t// in\n    tag_42:\n      mload(0x40)\n      dup1\n      swap2\n      sub\n      swap1\n      return\n        /* \"@openzeppelin/contracts-upgradeable/access/AccessControlUpgradeable.sol\":4759:4950  function getRoleAdmin(bytes32 role) public view virtual returns (bytes32) {... */\n    tag_5:\n      tag_44\n      0x04\n      dup1\n      calldatasize\n      sub\n      dup2\n      add\n      swap1\n      tag_45\n      swap2\n      swap1\n      tag_46\n      jump\t// in\n    tag_45:\n      tag_47\n      jump\t// in\n    tag_44:\n      mload(0x40)\n      tag_48\n      swap2\n      swap1\n      tag_49\n      jump\t// in\n    tag_48:\n      mload(0x40)\n      dup1\n      swap2\n      sub\n      swap1\n      return\n        /* \"contracts/ACTUAL.sol\":1719:1788  mapping(address => mapping(address => uint256)) public userCollateral */\n    tag_6:\n      tag_50\n      0x04\n      dup1\n      calldatasize\n      sub\n      dup2\n      add\n      swap1\n      tag_51\n      swap2\n      swap1\n      tag_52\n      jump\t// in\n    tag_51:\n      tag_53\n      jump\t// in\n    tag_50:\n      mload(0x40)\n      tag_54\n      swap2\n      swap1\n      tag_55\n      jump\t// in\n    tag_54:\n      mload(0x40)\n      dup1\n      swap2\n      sub\n      swap1\n      return\n        /* \"@openzeppelin/contracts-upgradeable/access/AccessControlUpgradeable.sol\":5246:5382  function grantRole(bytes32 role, address account) public virtual onlyRole(getRoleAdmin(role)) {... */\n    tag_7:\n      tag_56\n      0x04\n      dup1\n      calldatasize\n      sub\n      dup2\n      add\n      swap1\n      tag_57\n      swap2\n      swap1\n      tag_58\n      jump\t// in\n    tag_57:\n      tag_59\n      jump\t// in\n    tag_56:\n      stop\n        /* \"contracts/ACTUAL.sol\":743:805  bytes32 public constant KEEPER_ROLE = keccak256(\"KEEPER_ROLE\") */\n    tag_8:\n      tag_60\n      tag_61\n      jump\t// in\n    tag_60:\n      mload(0x40)\n      tag_62\n      swap2\n      swap1\n      tag_49\n      jump\t// in\n    tag_62:\n      mload(0x40)\n      dup1\n      swap2\n      sub\n      swap1\n      return\n        /* \"@openzeppelin/contracts-upgradeable/access/AccessControlUpgradeable.sol\":6348:6593  function renounceRole(bytes32 role, address callerConfirmation) public virtual {... */\n    tag_9:\n      tag_63\n      0x04\n      dup1\n      calldatasize\n      sub\n      dup2\n      add\n      swap1\n      tag_64\n      swap2\n      swap1\n      tag_58\n      jump\t// in\n    tag_64:\n      tag_65\n      jump\t// in\n    tag_63:\n      stop\n        /* \"contracts/ACTUAL.sol\":9819:9895  function unpause() external onlyRole(ADMIN_ROLE) {... */\n    tag_10:\n      tag_66\n      tag_67\n      jump\t// in\n    tag_66:\n      stop\n        /* \"contracts/ACTUAL.sol\":5220:5777  function liquidate(uint256 loanId) external whenNotPaused nonReentrant {... */\n    tag_11:\n      tag_68\n      0x04\n      dup1\n      calldatasize\n      sub\n      dup2\n      add\n      swap1\n      tag_69\n      swap2\n      swap1\n      tag_70\n      jump\t// in\n    tag_69:\n      tag_71\n      jump\t// in\n    tag_68:\n      stop\n        /* \"contracts/ACTUAL.sol\":9271:9702  function updateProtocolConfig(... */\n    tag_12:\n      tag_72\n      0x04\n      dup1\n      calldatasize\n      sub\n      dup2\n      add\n      swap1\n      tag_73\n      swap2\n      swap1\n      tag_74\n      jump\t// in\n    tag_73:\n      tag_75\n      jump\t// in\n    tag_72:\n      stop\n        /* \"contracts/ACTUAL.sol\":1670:1713  mapping(uint256 => Auction) public auctions */\n    tag_13:\n      tag_76\n      0x04\n      dup1\n      calldatasize\n      sub\n      dup2\n      add\n      swap1\n      tag_77\n      swap2\n      swap1\n      tag_70\n      jump\t// in\n    tag_77:\n      tag_78\n      jump\t// in\n    tag_76:\n      mload(0x40)\n      tag_79\n      swap7\n      swap6\n      swap5\n      swap4\n      swap3\n      swap2\n      swap1\n      tag_80\n      jump\t// in\n    tag_79:\n      mload(0x40)\n      dup1\n      swap2\n      sub\n      swap1\n      return\n        /* \"@openzeppelin/contracts-upgradeable/security/PausableUpgradeable.sol\":1879:1963  function paused() public view virtual returns (bool) {... */\n    tag_14:\n      tag_81\n      tag_82\n      jump\t// in\n    tag_81:\n      mload(0x40)\n      tag_83\n      swap2\n      swap1\n      tag_39\n      jump\t// in\n    tag_83:\n      mload(0x40)\n      dup1\n      swap2\n      sub\n      swap1\n      return\n        /* \"contracts/ACTUAL.sol\":677:737  bytes32 public constant ADMIN_ROLE = keccak256(\"ADMIN_ROLE\") */\n    tag_15:\n      tag_84\n      tag_85\n      jump\t// in\n    tag_84:\n      mload(0x40)\n      tag_86\n      swap2\n      swap1\n      tag_49\n      jump\t// in\n    tag_86:\n      mload(0x40)\n      dup1\n      swap2\n      sub\n      swap1\n      return\n        /* \"contracts/ACTUAL.sol\":1863:1891  ProtocolConfig public config */\n    tag_16:\n      tag_87\n      tag_88\n      jump\t// in\n    tag_87:\n      mload(0x40)\n      tag_89\n      swap5\n      swap4\n      swap3\n      swap2\n      swap1\n      tag_90\n      jump\t// in\n    tag_89:\n      mload(0x40)\n      dup1\n      swap2\n      sub\n      swap1\n      return\n        /* \"contracts/ACTUAL.sol\":6693:7554  function purchaseCollateral(uint256 auctionId) external nonReentrant {... */\n    tag_17:\n      tag_91\n      0x04\n      dup1\n      calldatasize\n      sub\n      dup2\n      add\n      swap1\n      tag_92\n      swap2\n      swap1\n      tag_70\n      jump\t// in\n    tag_92:\n      tag_93\n      jump\t// in\n    tag_91:\n      stop\n        /* \"contracts/ACTUAL.sol\":9741:9813  function pause() external onlyRole(ADMIN_ROLE) {... */\n    tag_18:\n      tag_94\n      tag_95\n      jump\t// in\n    tag_94:\n      stop\n        /* \"contracts/ACTUAL.sol\":1897:1922  uint256 public nextLoanId */\n    tag_19:\n      tag_96\n      tag_97\n      jump\t// in\n    tag_96:\n      mload(0x40)\n      tag_98\n      swap2\n      swap1\n      tag_55\n      jump\t// in\n    tag_98:\n      mload(0x40)\n      dup1\n      swap2\n      sub\n      swap1\n      return\n        /* \"@openzeppelin/contracts-upgradeable/access/AccessControlUpgradeable.sol\":3732:3939  function hasRole(bytes32 role, address account) public view virtual returns (bool) {... */\n    tag_20:\n      tag_99\n      0x04\n      dup1\n      calldatasize\n      sub\n      dup2\n      add\n      swap1\n      tag_100\n      swap2\n      swap1\n      tag_58\n      jump\t// in\n    tag_100:\n      tag_101\n      jump\t// in\n    tag_99:\n      mload(0x40)\n      tag_102\n      swap2\n      swap1\n      tag_39\n      jump\t// in\n    tag_102:\n      mload(0x40)\n      dup1\n      swap2\n      sub\n      swap1\n      return\n        /* \"@openzeppelin/contracts-upgradeable/access/AccessControlUpgradeable.sol\":2317:2366  bytes32 public constant DEFAULT_ADMIN_ROLE = 0x00 */\n    tag_21:\n      tag_103\n      tag_104\n      jump\t// in\n    tag_103:\n      mload(0x40)\n      tag_105\n      swap2\n      swap1\n      tag_49\n      jump\t// in\n    tag_105:\n      mload(0x40)\n      dup1\n      swap2\n      sub\n      swap1\n      return\n        /* \"contracts/ACTUAL.sol\":2659:3422  function initialize(... */\n    tag_22:\n      tag_106\n      0x04\n      dup1\n      calldatasize\n      sub\n      dup2\n      add\n      swap1\n      tag_107\n      swap2\n      swap1\n      tag_108\n      jump\t// in\n    tag_107:\n      tag_109\n      jump\t// in\n    tag_106:\n      stop\n        /* \"contracts/ACTUAL.sol\":811:877  bytes32 public constant TREASURY_ROLE = keccak256(\"TREASURY_ROLE\") */\n    tag_23:\n      tag_110\n      tag_111\n      jump\t// in\n    tag_110:\n      mload(0x40)\n      tag_112\n      swap2\n      swap1\n      tag_49\n      jump\t// in\n    tag_112:\n      mload(0x40)\n      dup1\n      swap2\n      sub\n      swap1\n      return\n        /* \"@openzeppelin/contracts-upgradeable/access/AccessControlUpgradeable.sol\":5662:5800  function revokeRole(bytes32 role, address account) public virtual onlyRole(getRoleAdmin(role)) {... */\n    tag_24:\n      tag_113\n      0x04\n      dup1\n      calldatasize\n      sub\n      dup2\n      add\n      swap1\n      tag_114\n      swap2\n      swap1\n      tag_58\n      jump\t// in\n    tag_114:\n      tag_115\n      jump\t// in\n    tag_113:\n      stop\n        /* \"contracts/ACTUAL.sol\":1627:1664  mapping(uint256 => Loan) public loans */\n    tag_25:\n      tag_116\n      0x04\n      dup1\n      calldatasize\n      sub\n      dup2\n      add\n      swap1\n      tag_117\n      swap2\n      swap1\n      tag_70\n      jump\t// in\n    tag_117:\n      tag_118\n      jump\t// in\n    tag_116:\n      mload(0x40)\n      tag_119\n      swap9\n      swap8\n      swap7\n      swap6\n      swap5\n      swap4\n      swap3\n      swap2\n      swap1\n      tag_120\n      jump\t// in\n    tag_119:\n      mload(0x40)\n      dup1\n      swap2\n      sub\n      swap1\n      return\n        /* \"contracts/ACTUAL.sol\":1799:1823  IERC20 public stablecoin */\n    tag_26:\n      tag_121\n      tag_122\n      jump\t// in\n    tag_121:\n      mload(0x40)\n      tag_123\n      swap2\n      swap1\n      tag_43\n      jump\t// in\n    tag_123:\n      mload(0x40)\n      dup1\n      swap2\n      sub\n      swap1\n      return\n        /* \"contracts/ACTUAL.sol\":3477:5186  function borrow(... */\n    tag_27:\n      tag_124\n      0x04\n      dup1\n      calldatasize\n      sub\n      dup2\n      add\n      swap1\n      tag_125\n      swap2\n      swap1\n      tag_126\n      jump\t// in\n    tag_125:\n      tag_127\n      jump\t// in\n    tag_124:\n      stop\n        /* \"contracts/ACTUAL.sol\":1928:1956  uint256 public nextAuctionId */\n    tag_28:\n      tag_128\n      tag_129\n      jump\t// in\n    tag_128:\n      mload(0x40)\n      tag_130\n      swap2\n      swap1\n      tag_55\n      jump\t// in\n    tag_130:\n      mload(0x40)\n      dup1\n      swap2\n      sub\n      swap1\n      return\n        /* \"@openzeppelin/contracts-upgradeable/access/AccessControlUpgradeable.sol\":3443:3645  function supportsInterface(bytes4 interfaceId) public view virtual override returns (bool) {... */\n    tag_37:\n        /* \"@openzeppelin/contracts-upgradeable/access/AccessControlUpgradeable.sol\":3528:3532  bool */\n      0x00\n        /* \"@openzeppelin/contracts-upgradeable/access/AccessControlUpgradeable.sol\":3566:3598  type(IAccessControl).interfaceId */\n      0x7965db0b00000000000000000000000000000000000000000000000000000000\n        /* \"@openzeppelin/contracts-upgradeable/access/AccessControlUpgradeable.sol\":3551:3598  interfaceId == type(IAccessControl).interfaceId */\n      not(0xffffffffffffffffffffffffffffffffffffffffffffffffffffffff)\n      and\n        /* \"@openzeppelin/contracts-upgradeable/access/AccessControlUpgradeable.sol\":3551:3562  interfaceId */\n      dup3\n        /* \"@openzeppelin/contracts-upgradeable/access/AccessControlUpgradeable.sol\":3551:3598  interfaceId == type(IAccessControl).interfaceId */\n      not(0xffffffffffffffffffffffffffffffffffffffffffffffffffffffff)\n      and\n      eq\n        /* \"@openzeppelin/contracts-upgradeable/access/AccessControlUpgradeable.sol\":3551:3638  interfaceId == type(IAccessControl).interfaceId || super.supportsInterface(interfaceId) */\n      dup1\n      tag_132\n      jumpi\n      pop\n        /* \"@openzeppelin/contracts-upgradeable/access/AccessControlUpgradeable.sol\":3602:3638  super.supportsInterface(interfaceId) */\n      tag_133\n        /* \"@openzeppelin/contracts-upgradeable/access/AccessControlUpgradeable.sol\":3626:3637  interfaceId */\n      dup3\n        /* \"@openzeppelin/contracts-upgradeable/access/AccessControlUpgradeable.sol\":3602:3625  super.supportsInterface */\n      tag_134\n        /* \"@openzeppelin/contracts-upgradeable/access/AccessControlUpgradeable.sol\":3602:3638  super.supportsInterface(interfaceId) */\n      jump\t// in\n    tag_133:\n        /* \"@openzeppelin/contracts-upgradeable/access/AccessControlUpgradeable.sol\":3551:3638  interfaceId == type(IAccessControl).interfaceId || super.supportsInterface(interfaceId) */\n    tag_132:\n        /* \"@openzeppelin/contracts-upgradeable/access/AccessControlUpgradeable.sol\":3544:3638  return interfaceId == type(IAccessControl).interfaceId || super.supportsInterface(interfaceId) */\n      swap1\n      pop\n        /* \"@openzeppelin/contracts-upgradeable/access/AccessControlUpgradeable.sol\":3443:3645  function supportsInterface(bytes4 interfaceId) public view virtual override returns (bool) {... */\n      swap2\n      swap1\n      pop\n      jump\t// out\n        /* \"contracts/ACTUAL.sol\":1829:1856  IERC20 public protocolToken */\n    tag_41:\n      0x68\n      0x00\n      swap1\n      sload\n      swap1\n      0x0100\n      exp\n      swap1\n      div\n      0xffffffffffffffffffffffffffffffffffffffff\n      and\n      dup2\n      jump\t// out\n        /* \"@openzeppelin/contracts-upgradeable/access/AccessControlUpgradeable.sol\":4759:4950  function getRoleAdmin(bytes32 role) public view virtual returns (bytes32) {... */\n    tag_47:\n        /* \"@openzeppelin/contracts-upgradeable/access/AccessControlUpgradeable.sol\":4824:4831  bytes32 */\n      0x00\n        /* \"@openzeppelin/contracts-upgradeable/access/AccessControlUpgradeable.sol\":4843:4873  AccessControlStorage storage $ */\n      dup1\n        /* \"@openzeppelin/contracts-upgradeable/access/AccessControlUpgradeable.sol\":4876:4902  _getAccessControlStorage() */\n      tag_136\n        /* \"@openzeppelin/contracts-upgradeable/access/AccessControlUpgradeable.sol\":4876:4900  _getAccessControlStorage */\n      tag_137\n        /* \"@openzeppelin/contracts-upgradeable/access/AccessControlUpgradeable.sol\":4876:4902  _getAccessControlStorage() */\n      jump\t// in\n    tag_136:\n        /* \"@openzeppelin/contracts-upgradeable/access/AccessControlUpgradeable.sol\":4843:4902  AccessControlStorage storage $ = _getAccessControlStorage() */\n      swap1\n      pop\n        /* \"@openzeppelin/contracts-upgradeable/access/AccessControlUpgradeable.sol\":4919:4920  $ */\n      dup1\n        /* \"@openzeppelin/contracts-upgradeable/access/AccessControlUpgradeable.sol\":4919:4927  $._roles */\n      0x00\n      add\n        /* \"@openzeppelin/contracts-upgradeable/access/AccessControlUpgradeable.sol\":4919:4933  $._roles[role] */\n      0x00\n        /* \"@openzeppelin/contracts-upgradeable/access/AccessControlUpgradeable.sol\":4928:4932  role */\n      dup5\n        /* \"@openzeppelin/contracts-upgradeable/access/AccessControlUpgradeable.sol\":4919:4933  $._roles[role] */\n      dup2\n      mstore\n      0x20\n      add\n      swap1\n      dup2\n      mstore\n      0x20\n      add\n      0x00\n      keccak256\n        /* \"@openzeppelin/contracts-upgradeable/access/AccessControlUpgradeable.sol\":4919:4943  $._roles[role].adminRole */\n      0x01\n      add\n      sload\n        /* \"@openzeppelin/contracts-upgradeable/access/AccessControlUpgradeable.sol\":4912:4943  return $._roles[role].adminRole */\n      swap2\n      pop\n      pop\n        /* \"@openzeppelin/contracts-upgradeable/access/AccessControlUpgradeable.sol\":4759:4950  function getRoleAdmin(bytes32 role) public view virtual returns (bytes32) {... */\n      swap2\n      swap1\n      pop\n      jump\t// out\n        /* \"contracts/ACTUAL.sol\":1719:1788  mapping(address => mapping(address => uint256)) public userCollateral */\n    tag_53:\n      mstore(0x20, 0x66)\n      dup2\n      0x00\n      mstore\n      mstore(0x20, keccak256(0x00, 0x40))\n      dup1\n      0x00\n      mstore\n      keccak256(0x00, 0x40)\n      0x00\n      swap2\n      pop\n      swap2\n      pop\n      pop\n      sload\n      dup2\n      jump\t// out\n        /* \"@openzeppelin/contracts-upgradeable/access/AccessControlUpgradeable.sol\":5246:5382  function grantRole(bytes32 role, address account) public virtual onlyRole(getRoleAdmin(role)) {... */\n    tag_59:\n        /* \"@openzeppelin/contracts-upgradeable/access/AccessControlUpgradeable.sol\":5320:5338  getRoleAdmin(role) */\n      tag_138\n        /* \"@openzeppelin/contracts-upgradeable/access/AccessControlUpgradeable.sol\":5333:5337  role */\n      dup3\n        /* \"@openzeppelin/contracts-upgradeable/access/AccessControlUpgradeable.sol\":5320:5332  getRoleAdmin */\n      tag_47\n        /* \"@openzeppelin/contracts-upgradeable/access/AccessControlUpgradeable.sol\":5320:5338  getRoleAdmin(role) */\n      jump\t// in\n    tag_138:\n        /* \"@openzeppelin/contracts-upgradeable/access/AccessControlUpgradeable.sol\":3191:3207  _checkRole(role) */\n      tag_140\n        /* \"@openzeppelin/contracts-upgradeable/access/AccessControlUpgradeable.sol\":3202:3206  role */\n      dup2\n        /* \"@openzeppelin/contracts-upgradeable/access/AccessControlUpgradeable.sol\":3191:3201  _checkRole */\n      tag_141\n        /* \"@openzeppelin/contracts-upgradeable/access/AccessControlUpgradeable.sol\":3191:3207  _checkRole(role) */\n      jump\t// in\n    tag_140:\n        /* \"@openzeppelin/contracts-upgradeable/access/AccessControlUpgradeable.sol\":5350:5375  _grantRole(role, account) */\n      tag_143\n        /* \"@openzeppelin/contracts-upgradeable/access/AccessControlUpgradeable.sol\":5361:5365  role */\n      dup4\n        /* \"@openzeppelin/contracts-upgradeable/access/AccessControlUpgradeable.sol\":5367:5374  account */\n      dup4\n        /* \"@openzeppelin/contracts-upgradeable/access/AccessControlUpgradeable.sol\":5350:5360  _grantRole */\n      tag_144\n        /* \"@openzeppelin/contracts-upgradeable/access/AccessControlUpgradeable.sol\":5350:5375  _grantRole(role, account) */\n      jump\t// in\n    tag_143:\n      pop\n        /* \"@openzeppelin/contracts-upgradeable/access/AccessControlUpgradeable.sol\":5246:5382  function grantRole(bytes32 role, address account) public virtual onlyRole(getRoleAdmin(role)) {... */\n      pop\n      pop\n      pop\n      jump\t// out\n        /* \"contracts/ACTUAL.sol\":743:805  bytes32 public constant KEEPER_ROLE = keccak256(\"KEEPER_ROLE\") */\n    tag_61:\n        /* \"contracts/ACTUAL.sol\":781:805  keccak256(\"KEEPER_ROLE\") */\n      0xfc8737ab85eb45125971625a9ebdb75cc78e01d5c1fa80c4c6e5203f47bc4fab\n        /* \"contracts/ACTUAL.sol\":743:805  bytes32 public constant KEEPER_ROLE = keccak256(\"KEEPER_ROLE\") */\n      dup2\n      jump\t// out\n        /* \"@openzeppelin/contracts-upgradeable/access/AccessControlUpgradeable.sol\":6348:6593  function renounceRole(bytes32 role, address callerConfirmation) public virtual {... */\n    tag_65:\n        /* \"@openzeppelin/contracts-upgradeable/access/AccessControlUpgradeable.sol\":6463:6475  _msgSender() */\n      tag_146\n        /* \"@openzeppelin/contracts-upgradeable/access/AccessControlUpgradeable.sol\":6463:6473  _msgSender */\n      tag_147\n        /* \"@openzeppelin/contracts-upgradeable/access/AccessControlUpgradeable.sol\":6463:6475  _msgSender() */\n      jump\t// in\n    tag_146:\n        /* \"@openzeppelin/contracts-upgradeable/access/AccessControlUpgradeable.sol\":6441:6475  callerConfirmation != _msgSender() */\n      0xffffffffffffffffffffffffffffffffffffffff\n      and\n        /* \"@openzeppelin/contracts-upgradeable/access/AccessControlUpgradeable.sol\":6441:6459  callerConfirmation */\n      dup2\n        /* \"@openzeppelin/contracts-upgradeable/access/AccessControlUpgradeable.sol\":6441:6475  callerConfirmation != _msgSender() */\n      0xffffffffffffffffffffffffffffffffffffffff\n      and\n      eq\n        /* \"@openzeppelin/contracts-upgradeable/access/AccessControlUpgradeable.sol\":6437:6539  if (callerConfirmation != _msgSender()) {... */\n      tag_148\n      jumpi\n        /* \"@openzeppelin/contracts-upgradeable/access/AccessControlUpgradeable.sol\":6498:6528  AccessControlBadConfirmation() */\n      mload(0x40)\n      0x6697b23200000000000000000000000000000000000000000000000000000000\n      dup2\n      mstore\n      0x04\n      add\n      mload(0x40)\n      dup1\n      swap2\n      sub\n      swap1\n      revert\n        /* \"@openzeppelin/contracts-upgradeable/access/AccessControlUpgradeable.sol\":6437:6539  if (callerConfirmation != _msgSender()) {... */\n    tag_148:\n        /* \"@openzeppelin/contracts-upgradeable/access/AccessControlUpgradeable.sol\":6549:6586  _revokeRole(role, callerConfirmation) */\n      tag_149\n        /* \"@openzeppelin/contracts-upgradeable/access/AccessControlUpgradeable.sol\":6561:6565  role */\n      dup3\n        /* \"@openzeppelin/contracts-upgradeable/access/AccessControlUpgradeable.sol\":6567:6585  callerConfirmation */\n      dup3\n        /* \"@openzeppelin/contracts-upgradeable/access/AccessControlUpgradeable.sol\":6549:6560  _revokeRole */\n      tag_150\n        /* \"@openzeppelin/contracts-upgradeable/access/AccessControlUpgradeable.sol\":6549:6586  _revokeRole(role, callerConfirmation) */\n      jump\t// in\n    tag_149:\n      pop\n        /* \"@openzeppelin/contracts-upgradeable/access/AccessControlUpgradeable.sol\":6348:6593  function renounceRole(bytes32 role, address callerConfirmation) public virtual {... */\n      pop\n      pop\n      jump\t// out\n        /* \"contracts/ACTUAL.sol\":9819:9895  function unpause() external onlyRole(ADMIN_ROLE) {... */\n    tag_67:\n        /* \"contracts/ACTUAL.sol\":714:737  keccak256(\"ADMIN_ROLE\") */\n      0xa49807205ce4d355092ef5a8a18f56e8913cf4a201fbe287825b095693c21775\n        /* \"@openzeppelin/contracts-upgradeable/access/AccessControlUpgradeable.sol\":3191:3207  _checkRole(role) */\n      tag_152\n        /* \"@openzeppelin/contracts-upgradeable/access/AccessControlUpgradeable.sol\":3202:3206  role */\n      dup2\n        /* \"@openzeppelin/contracts-upgradeable/access/AccessControlUpgradeable.sol\":3191:3201  _checkRole */\n      tag_141\n        /* \"@openzeppelin/contracts-upgradeable/access/AccessControlUpgradeable.sol\":3191:3207  _checkRole(role) */\n      jump\t// in\n    tag_152:\n        /* \"contracts/ACTUAL.sol\":9878:9888  _unpause() */\n      tag_154\n        /* \"contracts/ACTUAL.sol\":9878:9886  _unpause */\n      tag_155\n        /* \"contracts/ACTUAL.sol\":9878:9888  _unpause() */\n      jump\t// in\n    tag_154:\n        /* \"contracts/ACTUAL.sol\":9819:9895  function unpause() external onlyRole(ADMIN_ROLE) {... */\n      pop\n      jump\t// out\n        /* \"contracts/ACTUAL.sol\":5220:5777  function liquidate(uint256 loanId) external whenNotPaused nonReentrant {... */\n    tag_71:\n        /* \"@openzeppelin/contracts-upgradeable/security/PausableUpgradeable.sol\":1503:1522  _requireNotPaused() */\n      tag_157\n        /* \"@openzeppelin/contracts-upgradeable/security/PausableUpgradeable.sol\":1503:1520  _requireNotPaused */\n      tag_158\n        /* \"@openzeppelin/contracts-upgradeable/security/PausableUpgradeable.sol\":1503:1522  _requireNotPaused() */\n      jump\t// in\n    tag_157:\n        /* \"@openzeppelin/contracts-upgradeable/security/ReentrancyGuardUpgradeable.sol\":2526:2547  _nonReentrantBefore() */\n      tag_160\n        /* \"@openzeppelin/contracts-upgradeable/security/ReentrancyGuardUpgradeable.sol\":2526:2545  _nonReentrantBefore */\n      tag_161\n        /* \"@openzeppelin/contracts-upgradeable/security/ReentrancyGuardUpgradeable.sol\":2526:2547  _nonReentrantBefore() */\n      jump\t// in\n    tag_160:\n        /* \"contracts/ACTUAL.sol\":5301:5318  Loan storage loan */\n      0x00\n        /* \"contracts/ACTUAL.sol\":5321:5326  loans */\n      0x64\n        /* \"contracts/ACTUAL.sol\":5321:5334  loans[loanId] */\n      0x00\n        /* \"contracts/ACTUAL.sol\":5327:5333  loanId */\n      dup4\n        /* \"contracts/ACTUAL.sol\":5321:5334  loans[loanId] */\n      dup2\n      mstore\n      0x20\n      add\n      swap1\n      dup2\n      mstore\n      0x20\n      add\n      0x00\n      keccak256\n        /* \"contracts/ACTUAL.sol\":5301:5334  Loan storage loan = loans[loanId] */\n      swap1\n      pop\n        /* \"contracts/ACTUAL.sol\":5352:5356  loan */\n      dup1\n        /* \"contracts/ACTUAL.sol\":5352:5365  loan.isActive */\n      0x07\n      add\n      0x00\n      swap1\n      sload\n      swap1\n      0x0100\n      exp\n      swap1\n      div\n      0xff\n      and\n        /* \"contracts/ACTUAL.sol\":5344:5385  require(loan.isActive, \"Loan not active\") */\n      tag_163\n      jumpi\n      mload(0x40)\n      0x08c379a000000000000000000000000000000000000000000000000000000000\n      dup2\n      mstore\n      0x04\n      add\n      tag_164\n      swap1\n      tag_165\n      jump\t// in\n    tag_164:\n      mload(0x40)\n      dup1\n      swap2\n      sub\n      swap1\n      revert\n    tag_163:\n        /* \"contracts/ACTUAL.sol\":5437:5456  bool isLiquidatable */\n      0x00\n        /* \"contracts/ACTUAL.sol\":5459:5482  _checkLiquidation(loan) */\n      tag_166\n        /* \"contracts/ACTUAL.sol\":5477:5481  loan */\n      dup3\n        /* \"contracts/ACTUAL.sol\":5459:5482  _checkLiquidation(loan) */\n      mload(0x40)\n      dup1\n      0x0100\n      add\n      0x40\n      mstore\n      swap1\n      dup2\n      0x00\n      dup3\n      add\n      0x00\n      swap1\n      sload\n      swap1\n      0x0100\n      exp\n      swap1\n      div\n      0xffffffffffffffffffffffffffffffffffffffff\n      and\n      0xffffffffffffffffffffffffffffffffffffffff\n      and\n      0xffffffffffffffffffffffffffffffffffffffff\n      and\n      dup2\n      mstore\n      0x20\n      add\n      0x01\n      dup3\n      add\n      0x00\n      swap1\n      sload\n      swap1\n      0x0100\n      exp\n      swap1\n      div\n      0xffffffffffffffffffffffffffffffffffffffff\n      and\n      0xffffffffffffffffffffffffffffffffffffffff\n      and\n      0xffffffffffffffffffffffffffffffffffffffff\n      and\n      dup2\n      mstore\n      0x20\n      add\n      0x02\n      dup3\n      add\n      0x00\n      swap1\n      sload\n      swap1\n      0x0100\n      exp\n      swap1\n      div\n      0xffffffffffffffffffffffffffffffffffffffff\n      and\n      0xffffffffffffffffffffffffffffffffffffffff\n      and\n      0xffffffffffffffffffffffffffffffffffffffff\n      and\n      dup2\n      mstore\n      0x20\n      add\n      0x03\n      dup3\n      add\n      sload\n      dup2\n      mstore\n      0x20\n      add\n      0x04\n      dup3\n      add\n      sload\n      dup2\n      mstore\n      0x20\n      add\n      0x05\n      dup3\n      add\n      sload\n      dup2\n      mstore\n      0x20\n      add\n      0x06\n      dup3\n      add\n      sload\n      dup2\n      mstore\n      0x20\n      add\n      0x07\n      dup3\n      add\n      0x00\n      swap1\n      sload\n      swap1\n      0x0100\n      exp\n      swap1\n      div\n      0xff\n      and\n      iszero\n      iszero\n      iszero\n      iszero\n      dup2\n      mstore\n      pop\n      pop\n        /* \"contracts/ACTUAL.sol\":5459:5476  _checkLiquidation */\n      tag_167\n        /* \"contracts/ACTUAL.sol\":5459:5482  _checkLiquidation(loan) */\n      jump\t// in\n    tag_166:\n        /* \"contracts/ACTUAL.sol\":5437:5482  bool isLiquidatable = _checkLiquidation(loan) */\n      swap1\n      pop\n        /* \"contracts/ACTUAL.sol\":5500:5514  isLiquidatable */\n      dup1\n        /* \"contracts/ACTUAL.sol\":5492:5540  require(isLiquidatable, \"Loan not liquidatable\") */\n      tag_168\n      jumpi\n      mload(0x40)\n      0x08c379a000000000000000000000000000000000000000000000000000000000\n      dup2\n      mstore\n      0x04\n      add\n      tag_169\n      swap1\n      tag_170\n      jump\t// in\n    tag_169:\n      mload(0x40)\n      dup1\n      swap2\n      sub\n      swap1\n      revert\n    tag_168:\n        /* \"contracts/ACTUAL.sol\":5582:5599  uint256 auctionId */\n      0x00\n        /* \"contracts/ACTUAL.sol\":5602:5632  _startLiquidationAuction(loan) */\n      tag_171\n        /* \"contracts/ACTUAL.sol\":5627:5631  loan */\n      dup4\n        /* \"contracts/ACTUAL.sol\":5602:5632  _startLiquidationAuction(loan) */\n      mload(0x40)\n      dup1\n      0x0100\n      add\n      0x40\n      mstore\n      swap1\n      dup2\n      0x00\n      dup3\n      add\n      0x00\n      swap1\n      sload\n      swap1\n      0x0100\n      exp\n      swap1\n      div\n      0xffffffffffffffffffffffffffffffffffffffff\n      and\n      0xffffffffffffffffffffffffffffffffffffffff\n      and\n      0xffffffffffffffffffffffffffffffffffffffff\n      and\n      dup2\n      mstore\n      0x20\n      add\n      0x01\n      dup3\n      add\n      0x00\n      swap1\n      sload\n      swap1\n      0x0100\n      exp\n      swap1\n      div\n      0xffffffffffffffffffffffffffffffffffffffff\n      and\n      0xffffffffffffffffffffffffffffffffffffffff\n      and\n      0xffffffffffffffffffffffffffffffffffffffff\n      and\n      dup2\n      mstore\n      0x20\n      add\n      0x02\n      dup3\n      add\n      0x00\n      swap1\n      sload\n      swap1\n      0x0100\n      exp\n      swap1\n      div\n      0xffffffffffffffffffffffffffffffffffffffff\n      and\n      0xffffffffffffffffffffffffffffffffffffffff\n      and\n      0xffffffffffffffffffffffffffffffffffffffff\n      and\n      dup2\n      mstore\n      0x20\n      add\n      0x03\n      dup3\n      add\n      sload\n      dup2\n      mstore\n      0x20\n      add\n      0x04\n      dup3\n      add\n      sload\n      dup2\n      mstore\n      0x20\n      add\n      0x05\n      dup3\n      add\n      sload\n      dup2\n      mstore\n      0x20\n      add\n      0x06\n      dup3\n      add\n      sload\n      dup2\n      mstore\n      0x20\n      add\n      0x07\n      dup3\n      add\n      0x00\n      swap1\n      sload\n      swap1\n      0x0100\n      exp\n      swap1\n      div\n      0xff\n      and\n      iszero\n      iszero\n      iszero\n      iszero\n      dup2\n      mstore\n      pop\n      pop\n        /* \"contracts/ACTUAL.sol\":5602:5626  _startLiquidationAuction */\n      tag_172\n        /* \"contracts/ACTUAL.sol\":5602:5632  _startLiquidationAuction(loan) */\n      jump\t// in\n    tag_171:\n        /* \"contracts/ACTUAL.sol\":5582:5632  uint256 auctionId = _startLiquidationAuction(loan) */\n      swap1\n      pop\n        /* \"contracts/ACTUAL.sol\":5692:5697  false */\n      0x00\n        /* \"contracts/ACTUAL.sol\":5676:5680  loan */\n      dup4\n        /* \"contracts/ACTUAL.sol\":5676:5689  loan.isActive */\n      0x07\n      add\n      0x00\n        /* \"contracts/ACTUAL.sol\":5676:5697  loan.isActive = false */\n      0x0100\n      exp\n      dup2\n      sload\n      dup2\n      0xff\n      mul\n      not\n      and\n      swap1\n      dup4\n      iszero\n      iszero\n      mul\n      or\n      swap1\n      sstore\n      pop\n        /* \"contracts/ACTUAL.sol\":5736:5746  msg.sender */\n      caller\n        /* \"contracts/ACTUAL.sol\":5713:5770  LoanLiquidated(loanId, msg.sender, loan.collateralAmount) */\n      0xffffffffffffffffffffffffffffffffffffffff\n      and\n        /* \"contracts/ACTUAL.sol\":5728:5734  loanId */\n      dup5\n        /* \"contracts/ACTUAL.sol\":5713:5770  LoanLiquidated(loanId, msg.sender, loan.collateralAmount) */\n      0x0256bdf47e9aff5784070d6cab332d79f81fc6b8c8ed875565982a423a389e3a\n        /* \"contracts/ACTUAL.sol\":5748:5752  loan */\n      dup6\n        /* \"contracts/ACTUAL.sol\":5748:5769  loan.collateralAmount */\n      0x03\n      add\n      sload\n        /* \"contracts/ACTUAL.sol\":5713:5770  LoanLiquidated(loanId, msg.sender, loan.collateralAmount) */\n      mload(0x40)\n      tag_173\n      swap2\n      swap1\n      tag_55\n      jump\t// in\n    tag_173:\n      mload(0x40)\n      dup1\n      swap2\n      sub\n      swap1\n      log3\n        /* \"contracts/ACTUAL.sol\":5291:5777  {... */\n      pop\n      pop\n      pop\n        /* \"@openzeppelin/contracts-upgradeable/security/ReentrancyGuardUpgradeable.sol\":2568:2588  _nonReentrantAfter() */\n      tag_174\n        /* \"@openzeppelin/contracts-upgradeable/security/ReentrancyGuardUpgradeable.sol\":2568:2586  _nonReentrantAfter */\n      tag_175\n        /* \"@openzeppelin/contracts-upgradeable/security/ReentrancyGuardUpgradeable.sol\":2568:2588  _nonReentrantAfter() */\n      jump\t// in\n    tag_174:\n        /* \"contracts/ACTUAL.sol\":5220:5777  function liquidate(uint256 loanId) external whenNotPaused nonReentrant {... */\n      pop\n      jump\t// out\n        /* \"contracts/ACTUAL.sol\":9271:9702  function updateProtocolConfig(... */\n    tag_75:\n        /* \"contracts/ACTUAL.sol\":714:737  keccak256(\"ADMIN_ROLE\") */\n      0xa49807205ce4d355092ef5a8a18f56e8913cf4a201fbe287825b095693c21775\n        /* \"@openzeppelin/contracts-upgradeable/access/AccessControlUpgradeable.sol\":3191:3207  _checkRole(role) */\n      tag_177\n        /* \"@openzeppelin/contracts-upgradeable/access/AccessControlUpgradeable.sol\":3202:3206  role */\n      dup2\n        /* \"@openzeppelin/contracts-upgradeable/access/AccessControlUpgradeable.sol\":3191:3201  _checkRole */\n      tag_141\n        /* \"@openzeppelin/contracts-upgradeable/access/AccessControlUpgradeable.sol\":3191:3207  _checkRole(role) */\n      jump\t// in\n    tag_177:\n        /* \"contracts/ACTUAL.sol\":9519:9540  _liquidationThreshold */\n      dup5\n        /* \"contracts/ACTUAL.sol\":9489:9495  config */\n      0x69\n        /* \"contracts/ACTUAL.sol\":9489:9516  config.liquidationThreshold */\n      0x00\n      add\n        /* \"contracts/ACTUAL.sol\":9489:9540  config.liquidationThreshold = _liquidationThreshold */\n      dup2\n      swap1\n      sstore\n      pop\n        /* \"contracts/ACTUAL.sol\":9574:9589  _maxLoanToValue */\n      dup4\n        /* \"contracts/ACTUAL.sol\":9550:9556  config */\n      0x69\n        /* \"contracts/ACTUAL.sol\":9550:9571  config.maxLoanToValue */\n      0x01\n      add\n        /* \"contracts/ACTUAL.sol\":9550:9589  config.maxLoanToValue = _maxLoanToValue */\n      dup2\n      swap1\n      sstore\n      pop\n        /* \"contracts/ACTUAL.sol\":9623:9638  _baseBorrowRate */\n      dup3\n        /* \"contracts/ACTUAL.sol\":9599:9605  config */\n      0x69\n        /* \"contracts/ACTUAL.sol\":9599:9620  config.baseBorrowRate */\n      0x02\n      add\n        /* \"contracts/ACTUAL.sol\":9599:9638  config.baseBorrowRate = _baseBorrowRate */\n      dup2\n      swap1\n      sstore\n      pop\n        /* \"contracts/ACTUAL.sol\":9676:9695  _liquidationPenalty */\n      dup2\n        /* \"contracts/ACTUAL.sol\":9648:9654  config */\n      0x69\n        /* \"contracts/ACTUAL.sol\":9648:9673  config.liquidationPenalty */\n      0x03\n      add\n        /* \"contracts/ACTUAL.sol\":9648:9695  config.liquidationPenalty = _liquidationPenalty */\n      dup2\n      swap1\n      sstore\n      pop\n        /* \"contracts/ACTUAL.sol\":9271:9702  function updateProtocolConfig(... */\n      pop\n      pop\n      pop\n      pop\n      pop\n      jump\t// out\n        /* \"contracts/ACTUAL.sol\":1670:1713  mapping(uint256 => Auction) public auctions */\n    tag_78:\n      mstore(0x20, 0x65)\n      dup1\n      0x00\n      mstore\n      keccak256(0x00, 0x40)\n      0x00\n      swap2\n      pop\n      swap1\n      pop\n      dup1\n      0x00\n      add\n      0x00\n      swap1\n      sload\n      swap1\n      0x0100\n      exp\n      swap1\n      div\n      0xffffffffffffffffffffffffffffffffffffffff\n      and\n      swap1\n      dup1\n      0x01\n      add\n      sload\n      swap1\n      dup1\n      0x02\n      add\n      sload\n      swap1\n      dup1\n      0x03\n      add\n      sload\n      swap1\n      dup1\n      0x04\n      add\n      sload\n      swap1\n      dup1\n      0x05\n      add\n      0x00\n      swap1\n      sload\n      swap1\n      0x0100\n      exp\n      swap1\n      div\n      0xff\n      and\n      swap1\n      pop\n      dup7\n      jump\t// out\n        /* \"@openzeppelin/contracts-upgradeable/security/PausableUpgradeable.sol\":1879:1963  function paused() public view virtual returns (bool) {... */\n    tag_82:\n        /* \"@openzeppelin/contracts-upgradeable/security/PausableUpgradeable.sol\":1926:1930  bool */\n      0x00\n        /* \"@openzeppelin/contracts-upgradeable/security/PausableUpgradeable.sol\":1949:1956  _paused */\n      dup1\n      0x00\n      swap1\n      sload\n      swap1\n      0x0100\n      exp\n      swap1\n      div\n      0xff\n      and\n        /* \"@openzeppelin/contracts-upgradeable/security/PausableUpgradeable.sol\":1942:1956  return _paused */\n      swap1\n      pop\n        /* \"@openzeppelin/contracts-upgradeable/security/PausableUpgradeable.sol\":1879:1963  function paused() public view virtual returns (bool) {... */\n      swap1\n      jump\t// out\n        /* \"contracts/ACTUAL.sol\":677:737  bytes32 public constant ADMIN_ROLE = keccak256(\"ADMIN_ROLE\") */\n    tag_85:\n        /* \"contracts/ACTUAL.sol\":714:737  keccak256(\"ADMIN_ROLE\") */\n      0xa49807205ce4d355092ef5a8a18f56e8913cf4a201fbe287825b095693c21775\n        /* \"contracts/ACTUAL.sol\":677:737  bytes32 public constant ADMIN_ROLE = keccak256(\"ADMIN_ROLE\") */\n      dup2\n      jump\t// out\n        /* \"contracts/ACTUAL.sol\":1863:1891  ProtocolConfig public config */\n    tag_88:\n      0x69\n      dup1\n      0x00\n      add\n      sload\n      swap1\n      dup1\n      0x01\n      add\n      sload\n      swap1\n      dup1\n      0x02\n      add\n      sload\n      swap1\n      dup1\n      0x03\n      add\n      sload\n      swap1\n      pop\n      dup5\n      jump\t// out\n        /* \"contracts/ACTUAL.sol\":6693:7554  function purchaseCollateral(uint256 auctionId) external nonReentrant {... */\n    tag_93:\n        /* \"@openzeppelin/contracts-upgradeable/security/ReentrancyGuardUpgradeable.sol\":2526:2547  _nonReentrantBefore() */\n      tag_181\n        /* \"@openzeppelin/contracts-upgradeable/security/ReentrancyGuardUpgradeable.sol\":2526:2545  _nonReentrantBefore */\n      tag_161\n        /* \"@openzeppelin/contracts-upgradeable/security/ReentrancyGuardUpgradeable.sol\":2526:2547  _nonReentrantBefore() */\n      jump\t// in\n    tag_181:\n        /* \"contracts/ACTUAL.sol\":6772:6795  Auction storage auction */\n      0x00\n        /* \"contracts/ACTUAL.sol\":6798:6806  auctions */\n      0x65\n        /* \"contracts/ACTUAL.sol\":6798:6817  auctions[auctionId] */\n      0x00\n        /* \"contracts/ACTUAL.sol\":6807:6816  auctionId */\n      dup4\n        /* \"contracts/ACTUAL.sol\":6798:6817  auctions[auctionId] */\n      dup2\n      mstore\n      0x20\n      add\n      swap1\n      dup2\n      mstore\n      0x20\n      add\n      0x00\n      keccak256\n        /* \"contracts/ACTUAL.sol\":6772:6817  Auction storage auction = auctions[auctionId] */\n      swap1\n      pop\n        /* \"contracts/ACTUAL.sol\":6835:6842  auction */\n      dup1\n        /* \"contracts/ACTUAL.sol\":6835:6851  auction.isActive */\n      0x05\n      add\n      0x00\n      swap1\n      sload\n      swap1\n      0x0100\n      exp\n      swap1\n      div\n      0xff\n      and\n        /* \"contracts/ACTUAL.sol\":6827:6874  require(auction.isActive, \"Auction not active\") */\n      tag_183\n      jumpi\n      mload(0x40)\n      0x08c379a000000000000000000000000000000000000000000000000000000000\n      dup2\n      mstore\n      0x04\n      add\n      tag_184\n      swap1\n      tag_185\n      jump\t// in\n    tag_184:\n      mload(0x40)\n      dup1\n      swap2\n      sub\n      swap1\n      revert\n    tag_183:\n        /* \"contracts/ACTUAL.sol\":6928:6948  uint256 currentPrice */\n      0x00\n        /* \"contracts/ACTUAL.sol\":6951:6989  _calculateCurrentAuctionPrice(auction) */\n      tag_186\n        /* \"contracts/ACTUAL.sol\":6981:6988  auction */\n      dup3\n        /* \"contracts/ACTUAL.sol\":6951:6989  _calculateCurrentAuctionPrice(auction) */\n      mload(0x40)\n      dup1\n      0xc0\n      add\n      0x40\n      mstore\n      swap1\n      dup2\n      0x00\n      dup3\n      add\n      0x00\n      swap1\n      sload\n      swap1\n      0x0100\n      exp\n      swap1\n      div\n      0xffffffffffffffffffffffffffffffffffffffff\n      and\n      0xffffffffffffffffffffffffffffffffffffffff\n      and\n      0xffffffffffffffffffffffffffffffffffffffff\n      and\n      dup2\n      mstore\n      0x20\n      add\n      0x01\n      dup3\n      add\n      sload\n      dup2\n      mstore\n      0x20\n      add\n      0x02\n      dup3\n      add\n      sload\n      dup2\n      mstore\n      0x20\n      add\n      0x03\n      dup3\n      add\n      sload\n      dup2\n      mstore\n      0x20\n      add\n      0x04\n      dup3\n      add\n      sload\n      dup2\n      mstore\n      0x20\n      add\n      0x05\n      dup3\n      add\n      0x00\n      swap1\n      sload\n      swap1\n      0x0100\n      exp\n      swap1\n      div\n      0xff\n      and\n      iszero\n      iszero\n      iszero\n      iszero\n      dup2\n      mstore\n      pop\n      pop\n        /* \"contracts/ACTUAL.sol\":6951:6980  _calculateCurrentAuctionPrice */\n      tag_187\n        /* \"contracts/ACTUAL.sol\":6951:6989  _calculateCurrentAuctionPrice(auction) */\n      jump\t// in\n    tag_186:\n        /* \"contracts/ACTUAL.sol\":6928:6989  uint256 currentPrice = _calculateCurrentAuctionPrice(auction) */\n      swap1\n      pop\n        /* \"contracts/ACTUAL.sol\":6999:7025  uint256 totalPurchaseValue */\n      0x00\n        /* \"contracts/ACTUAL.sol\":7043:7050  auction */\n      dup3\n        /* \"contracts/ACTUAL.sol\":7043:7067  auction.collateralAmount */\n      0x01\n      add\n      sload\n        /* \"contracts/ACTUAL.sol\":7028:7040  currentPrice */\n      dup3\n        /* \"contracts/ACTUAL.sol\":7028:7067  currentPrice * auction.collateralAmount */\n      tag_188\n      swap2\n      swap1\n      tag_189\n      jump\t// in\n    tag_188:\n        /* \"contracts/ACTUAL.sol\":6999:7067  uint256 totalPurchaseValue = currentPrice * auction.collateralAmount */\n      swap1\n      pop\n        /* \"contracts/ACTUAL.sol\":7121:7131  stablecoin */\n      0x67\n      0x00\n      swap1\n      sload\n      swap1\n      0x0100\n      exp\n      swap1\n      div\n      0xffffffffffffffffffffffffffffffffffffffff\n      and\n        /* \"contracts/ACTUAL.sol\":7121:7144  stablecoin.transferFrom */\n      0xffffffffffffffffffffffffffffffffffffffff\n      and\n      0x23b872dd\n        /* \"contracts/ACTUAL.sol\":7145:7155  msg.sender */\n      caller\n        /* \"contracts/ACTUAL.sol\":7165:7169  this */\n      address\n        /* \"contracts/ACTUAL.sol\":7172:7190  totalPurchaseValue */\n      dup5\n        /* \"contracts/ACTUAL.sol\":7121:7191  stablecoin.transferFrom(msg.sender, address(this), totalPurchaseValue) */\n      mload(0x40)\n      dup5\n      0xffffffff\n      and\n      0xe0\n      shl\n      dup2\n      mstore\n      0x04\n      add\n      tag_190\n      swap4\n      swap3\n      swap2\n      swap1\n      tag_191\n      jump\t// in\n    tag_190:\n      0x20\n      mload(0x40)\n      dup1\n      dup4\n      sub\n      dup2\n      0x00\n      dup8\n      gas\n      call\n      iszero\n      dup1\n      iszero\n      tag_193\n      jumpi\n      returndatasize\n      0x00\n      dup1\n      returndatacopy\n      revert(0x00, returndatasize)\n    tag_193:\n      pop\n      pop\n      pop\n      pop\n      mload(0x40)\n      returndatasize\n      not(0x1f)\n      0x1f\n      dup3\n      add\n      and\n      dup3\n      add\n      dup1\n      0x40\n      mstore\n      pop\n      dup2\n      add\n      swap1\n      tag_194\n      swap2\n      swap1\n      tag_195\n      jump\t// in\n    tag_194:\n      pop\n        /* \"contracts/ACTUAL.sol\":7249:7256  auction */\n      dup3\n        /* \"contracts/ACTUAL.sol\":7249:7272  auction.collateralToken */\n      0x00\n      add\n      0x00\n      swap1\n      sload\n      swap1\n      0x0100\n      exp\n      swap1\n      div\n      0xffffffffffffffffffffffffffffffffffffffff\n      and\n        /* \"contracts/ACTUAL.sol\":7242:7282  IERC20(auction.collateralToken).transfer */\n      0xffffffffffffffffffffffffffffffffffffffff\n      and\n      0xa9059cbb\n        /* \"contracts/ACTUAL.sol\":7296:7306  msg.sender */\n      caller\n        /* \"contracts/ACTUAL.sol\":7321:7328  auction */\n      dup6\n        /* \"contracts/ACTUAL.sol\":7321:7345  auction.collateralAmount */\n      0x01\n      add\n      sload\n        /* \"contracts/ACTUAL.sol\":7242:7355  IERC20(auction.collateralToken).transfer(... */\n      mload(0x40)\n      dup4\n      0xffffffff\n      and\n      0xe0\n      shl\n      dup2\n      mstore\n      0x04\n      add\n      tag_196\n      swap3\n      swap2\n      swap1\n      tag_197\n      jump\t// in\n    tag_196:\n      0x20\n      mload(0x40)\n      dup1\n      dup4\n      sub\n      dup2\n      0x00\n      dup8\n      gas\n      call\n      iszero\n      dup1\n      iszero\n      tag_199\n      jumpi\n      returndatasize\n      0x00\n      dup1\n      returndatacopy\n      revert(0x00, returndatasize)\n    tag_199:\n      pop\n      pop\n      pop\n      pop\n      mload(0x40)\n      returndatasize\n      not(0x1f)\n      0x1f\n      dup3\n      add\n      and\n      dup3\n      add\n      dup1\n      0x40\n      mstore\n      pop\n      dup2\n      add\n      swap1\n      tag_200\n      swap2\n      swap1\n      tag_195\n      jump\t// in\n    tag_200:\n      pop\n        /* \"contracts/ACTUAL.sol\":7410:7415  false */\n      0x00\n        /* \"contracts/ACTUAL.sol\":7391:7398  auction */\n      dup4\n        /* \"contracts/ACTUAL.sol\":7391:7407  auction.isActive */\n      0x05\n      add\n      0x00\n        /* \"contracts/ACTUAL.sol\":7391:7415  auction.isActive = false */\n      0x0100\n      exp\n      dup2\n      sload\n      dup2\n      0xff\n      mul\n      not\n      and\n      swap1\n      dup4\n      iszero\n      iszero\n      mul\n      or\n      swap1\n      sstore\n      pop\n        /* \"contracts/ACTUAL.sol\":7488:7498  msg.sender */\n      caller\n        /* \"contracts/ACTUAL.sol\":7431:7547  CollateralPurchased(... */\n      0xffffffffffffffffffffffffffffffffffffffff\n      and\n        /* \"contracts/ACTUAL.sol\":7464:7473  auctionId */\n      dup5\n        /* \"contracts/ACTUAL.sol\":7431:7547  CollateralPurchased(... */\n      0xea6c5b56c46f5549d8e8438a15cd82bd9a1e42e16cabc76d05a0ba91e06539bf\n        /* \"contracts/ACTUAL.sol\":7513:7520  auction */\n      dup6\n        /* \"contracts/ACTUAL.sol\":7513:7537  auction.collateralAmount */\n      0x01\n      add\n      sload\n        /* \"contracts/ACTUAL.sol\":7431:7547  CollateralPurchased(... */\n      mload(0x40)\n      tag_201\n      swap2\n      swap1\n      tag_55\n      jump\t// in\n    tag_201:\n      mload(0x40)\n      dup1\n      swap2\n      sub\n      swap1\n      log3\n        /* \"contracts/ACTUAL.sol\":6762:7554  {... */\n      pop\n      pop\n      pop\n        /* \"@openzeppelin/contracts-upgradeable/security/ReentrancyGuardUpgradeable.sol\":2568:2588  _nonReentrantAfter() */\n      tag_202\n        /* \"@openzeppelin/contracts-upgradeable/security/ReentrancyGuardUpgradeable.sol\":2568:2586  _nonReentrantAfter */\n      tag_175\n        /* \"@openzeppelin/contracts-upgradeable/security/ReentrancyGuardUpgradeable.sol\":2568:2588  _nonReentrantAfter() */\n      jump\t// in\n    tag_202:\n        /* \"contracts/ACTUAL.sol\":6693:7554  function purchaseCollateral(uint256 auctionId) external nonReentrant {... */\n      pop\n      jump\t// out\n        /* \"contracts/ACTUAL.sol\":9741:9813  function pause() external onlyRole(ADMIN_ROLE) {... */\n    tag_95:\n        /* \"contracts/ACTUAL.sol\":714:737  keccak256(\"ADMIN_ROLE\") */\n      0xa49807205ce4d355092ef5a8a18f56e8913cf4a201fbe287825b095693c21775\n        /* \"@openzeppelin/contracts-upgradeable/access/AccessControlUpgradeable.sol\":3191:3207  _checkRole(role) */\n      tag_204\n        /* \"@openzeppelin/contracts-upgradeable/access/AccessControlUpgradeable.sol\":3202:3206  role */\n      dup2\n        /* \"@openzeppelin/contracts-upgradeable/access/AccessControlUpgradeable.sol\":3191:3201  _checkRole */\n      tag_141\n        /* \"@openzeppelin/contracts-upgradeable/access/AccessControlUpgradeable.sol\":3191:3207  _checkRole(role) */\n      jump\t// in\n    tag_204:\n        /* \"contracts/ACTUAL.sol\":9798:9806  _pause() */\n      tag_206\n        /* \"contracts/ACTUAL.sol\":9798:9804  _pause */\n      tag_207\n        /* \"contracts/ACTUAL.sol\":9798:9806  _pause() */\n      jump\t// in\n    tag_206:\n        /* \"contracts/ACTUAL.sol\":9741:9813  function pause() external onlyRole(ADMIN_ROLE) {... */\n      pop\n      jump\t// out\n        /* \"contracts/ACTUAL.sol\":1897:1922  uint256 public nextLoanId */\n    tag_97:\n      sload(0x6d)\n      dup2\n      jump\t// out\n        /* \"@openzeppelin/contracts-upgradeable/access/AccessControlUpgradeable.sol\":3732:3939  function hasRole(bytes32 role, address account) public view virtual returns (bool) {... */\n    tag_101:\n        /* \"@openzeppelin/contracts-upgradeable/access/AccessControlUpgradeable.sol\":3809:3813  bool */\n      0x00\n        /* \"@openzeppelin/contracts-upgradeable/access/AccessControlUpgradeable.sol\":3825:3855  AccessControlStorage storage $ */\n      dup1\n        /* \"@openzeppelin/contracts-upgradeable/access/AccessControlUpgradeable.sol\":3858:3884  _getAccessControlStorage() */\n      tag_209\n        /* \"@openzeppelin/contracts-upgradeable/access/AccessControlUpgradeable.sol\":3858:3882  _getAccessControlStorage */\n      tag_137\n        /* \"@openzeppelin/contracts-upgradeable/access/AccessControlUpgradeable.sol\":3858:3884  _getAccessControlStorage() */\n      jump\t// in\n    tag_209:\n        /* \"@openzeppelin/contracts-upgradeable/access/AccessControlUpgradeable.sol\":3825:3884  AccessControlStorage storage $ = _getAccessControlStorage() */\n      swap1\n      pop\n        /* \"@openzeppelin/contracts-upgradeable/access/AccessControlUpgradeable.sol\":3901:3902  $ */\n      dup1\n        /* \"@openzeppelin/contracts-upgradeable/access/AccessControlUpgradeable.sol\":3901:3909  $._roles */\n      0x00\n      add\n        /* \"@openzeppelin/contracts-upgradeable/access/AccessControlUpgradeable.sol\":3901:3915  $._roles[role] */\n      0x00\n        /* \"@openzeppelin/contracts-upgradeable/access/AccessControlUpgradeable.sol\":3910:3914  role */\n      dup6\n        /* \"@openzeppelin/contracts-upgradeable/access/AccessControlUpgradeable.sol\":3901:3915  $._roles[role] */\n      dup2\n      mstore\n      0x20\n      add\n      swap1\n      dup2\n      mstore\n      0x20\n      add\n      0x00\n      keccak256\n        /* \"@openzeppelin/contracts-upgradeable/access/AccessControlUpgradeable.sol\":3901:3923  $._roles[role].hasRole */\n      0x00\n      add\n        /* \"@openzeppelin/contracts-upgradeable/access/AccessControlUpgradeable.sol\":3901:3932  $._roles[role].hasRole[account] */\n      0x00\n        /* \"@openzeppelin/contracts-upgradeable/access/AccessControlUpgradeable.sol\":3924:3931  account */\n      dup5\n        /* \"@openzeppelin/contracts-upgradeable/access/AccessControlUpgradeable.sol\":3901:3932  $._roles[role].hasRole[account] */\n      0xffffffffffffffffffffffffffffffffffffffff\n      and\n      0xffffffffffffffffffffffffffffffffffffffff\n      and\n      dup2\n      mstore\n      0x20\n      add\n      swap1\n      dup2\n      mstore\n      0x20\n      add\n      0x00\n      keccak256\n      0x00\n      swap1\n      sload\n      swap1\n      0x0100\n      exp\n      swap1\n      div\n      0xff\n      and\n        /* \"@openzeppelin/contracts-upgradeable/access/AccessControlUpgradeable.sol\":3894:3932  return $._roles[role].hasRole[account] */\n      swap2\n      pop\n      pop\n        /* \"@openzeppelin/contracts-upgradeable/access/AccessControlUpgradeable.sol\":3732:3939  function hasRole(bytes32 role, address account) public view virtual returns (bool) {... */\n      swap3\n      swap2\n      pop\n      pop\n      jump\t// out\n        /* \"@openzeppelin/contracts-upgradeable/access/AccessControlUpgradeable.sol\":2317:2366  bytes32 public constant DEFAULT_ADMIN_ROLE = 0x00 */\n    tag_104:\n        /* \"@openzeppelin/contracts-upgradeable/access/AccessControlUpgradeable.sol\":2362:2366  0x00 */\n      0x00\n        /* \"@openzeppelin/contracts-upgradeable/access/AccessControlUpgradeable.sol\":2317:2366  bytes32 public constant DEFAULT_ADMIN_ROLE = 0x00 */\n      dup1\n      shl\n      dup2\n      jump\t// out\n        /* \"contracts/ACTUAL.sol\":2659:3422  function initialize(... */\n    tag_109:\n        /* \"@openzeppelin/contracts-upgradeable/proxy/utils/Initializable.sol\":4158:4188  InitializableStorage storage $ */\n      0x00\n        /* \"@openzeppelin/contracts-upgradeable/proxy/utils/Initializable.sol\":4191:4217  _getInitializableStorage() */\n      tag_211\n        /* \"@openzeppelin/contracts-upgradeable/proxy/utils/Initializable.sol\":4191:4215  _getInitializableStorage */\n      tag_212\n        /* \"@openzeppelin/contracts-upgradeable/proxy/utils/Initializable.sol\":4191:4217  _getInitializableStorage() */\n      jump\t// in\n    tag_211:\n        /* \"@openzeppelin/contracts-upgradeable/proxy/utils/Initializable.sol\":4158:4217  InitializableStorage storage $ = _getInitializableStorage() */\n      swap1\n      pop\n        /* \"@openzeppelin/contracts-upgradeable/proxy/utils/Initializable.sol\":4279:4298  bool isTopLevelCall */\n      0x00\n        /* \"@openzeppelin/contracts-upgradeable/proxy/utils/Initializable.sol\":4302:4303  $ */\n      dup2\n        /* \"@openzeppelin/contracts-upgradeable/proxy/utils/Initializable.sol\":4302:4317  $._initializing */\n      0x00\n      add\n      0x08\n      swap1\n      sload\n      swap1\n      0x0100\n      exp\n      swap1\n      div\n      0xff\n      and\n        /* \"@openzeppelin/contracts-upgradeable/proxy/utils/Initializable.sol\":4301:4317  !$._initializing */\n      iszero\n        /* \"@openzeppelin/contracts-upgradeable/proxy/utils/Initializable.sol\":4279:4317  bool isTopLevelCall = !$._initializing */\n      swap1\n      pop\n        /* \"@openzeppelin/contracts-upgradeable/proxy/utils/Initializable.sol\":4327:4345  uint64 initialized */\n      0x00\n        /* \"@openzeppelin/contracts-upgradeable/proxy/utils/Initializable.sol\":4348:4349  $ */\n      dup3\n        /* \"@openzeppelin/contracts-upgradeable/proxy/utils/Initializable.sol\":4348:4362  $._initialized */\n      0x00\n      add\n      0x00\n      swap1\n      sload\n      swap1\n      0x0100\n      exp\n      swap1\n      div\n      0xffffffffffffffff\n      and\n        /* \"@openzeppelin/contracts-upgradeable/proxy/utils/Initializable.sol\":4327:4362  uint64 initialized = $._initialized */\n      swap1\n      pop\n        /* \"@openzeppelin/contracts-upgradeable/proxy/utils/Initializable.sol\":4706:4723  bool initialSetup */\n      0x00\n        /* \"@openzeppelin/contracts-upgradeable/proxy/utils/Initializable.sol\":4741:4742  0 */\n      dup1\n        /* \"@openzeppelin/contracts-upgradeable/proxy/utils/Initializable.sol\":4726:4737  initialized */\n      dup3\n        /* \"@openzeppelin/contracts-upgradeable/proxy/utils/Initializable.sol\":4726:4742  initialized == 0 */\n      0xffffffffffffffff\n      and\n      eq\n        /* \"@openzeppelin/contracts-upgradeable/proxy/utils/Initializable.sol\":4726:4760  initialized == 0 && isTopLevelCall */\n      dup1\n      iszero\n      tag_213\n      jumpi\n      pop\n        /* \"@openzeppelin/contracts-upgradeable/proxy/utils/Initializable.sol\":4746:4760  isTopLevelCall */\n      dup3\n        /* \"@openzeppelin/contracts-upgradeable/proxy/utils/Initializable.sol\":4726:4760  initialized == 0 && isTopLevelCall */\n    tag_213:\n        /* \"@openzeppelin/contracts-upgradeable/proxy/utils/Initializable.sol\":4706:4760  bool initialSetup = initialized == 0 && isTopLevelCall */\n      swap1\n      pop\n        /* \"@openzeppelin/contracts-upgradeable/proxy/utils/Initializable.sol\":4770:4787  bool construction */\n      0x00\n        /* \"@openzeppelin/contracts-upgradeable/proxy/utils/Initializable.sol\":4805:4806  1 */\n      0x01\n        /* \"@openzeppelin/contracts-upgradeable/proxy/utils/Initializable.sol\":4790:4801  initialized */\n      dup4\n        /* \"@openzeppelin/contracts-upgradeable/proxy/utils/Initializable.sol\":4790:4806  initialized == 1 */\n      0xffffffffffffffff\n      and\n      eq\n        /* \"@openzeppelin/contracts-upgradeable/proxy/utils/Initializable.sol\":4790:4840  initialized == 1 && address(this).code.length == 0 */\n      dup1\n      iszero\n      tag_214\n      jumpi\n      pop\n        /* \"@openzeppelin/contracts-upgradeable/proxy/utils/Initializable.sol\":4839:4840  0 */\n      0x00\n        /* \"@openzeppelin/contracts-upgradeable/proxy/utils/Initializable.sol\":4818:4822  this */\n      address\n        /* \"@openzeppelin/contracts-upgradeable/proxy/utils/Initializable.sol\":4810:4835  address(this).code.length */\n      0xffffffffffffffffffffffffffffffffffffffff\n      and\n      extcodesize\n        /* \"@openzeppelin/contracts-upgradeable/proxy/utils/Initializable.sol\":4810:4840  address(this).code.length == 0 */\n      eq\n        /* \"@openzeppelin/contracts-upgradeable/proxy/utils/Initializable.sol\":4790:4840  initialized == 1 && address(this).code.length == 0 */\n    tag_214:\n        /* \"@openzeppelin/contracts-upgradeable/proxy/utils/Initializable.sol\":4770:4840  bool construction = initialized == 1 && address(this).code.length == 0 */\n      swap1\n      pop\n        /* \"@openzeppelin/contracts-upgradeable/proxy/utils/Initializable.sol\":4856:4868  initialSetup */\n      dup2\n        /* \"@openzeppelin/contracts-upgradeable/proxy/utils/Initializable.sol\":4855:4868  !initialSetup */\n      iszero\n        /* \"@openzeppelin/contracts-upgradeable/proxy/utils/Initializable.sol\":4855:4885  !initialSetup && !construction */\n      dup1\n      iszero\n      tag_215\n      jumpi\n      pop\n        /* \"@openzeppelin/contracts-upgradeable/proxy/utils/Initializable.sol\":4873:4885  construction */\n      dup1\n        /* \"@openzeppelin/contracts-upgradeable/proxy/utils/Initializable.sol\":4872:4885  !construction */\n      iszero\n        /* \"@openzeppelin/contracts-upgradeable/proxy/utils/Initializable.sol\":4855:4885  !initialSetup && !construction */\n    tag_215:\n        /* \"@openzeppelin/contracts-upgradeable/proxy/utils/Initializable.sol\":4851:4942  if (!initialSetup && !construction) {... */\n      iszero\n      tag_216\n      jumpi\n        /* \"@openzeppelin/contracts-upgradeable/proxy/utils/Initializable.sol\":4908:4931  InvalidInitialization() */\n      mload(0x40)\n      0xf92ee8a900000000000000000000000000000000000000000000000000000000\n      dup2\n      mstore\n      0x04\n      add\n      mload(0x40)\n      dup1\n      swap2\n      sub\n      swap1\n      revert\n        /* \"@openzeppelin/contracts-upgradeable/proxy/utils/Initializable.sol\":4851:4942  if (!initialSetup && !construction) {... */\n    tag_216:\n        /* \"@openzeppelin/contracts-upgradeable/proxy/utils/Initializable.sol\":4968:4969  1 */\n      0x01\n        /* \"@openzeppelin/contracts-upgradeable/proxy/utils/Initializable.sol\":4951:4952  $ */\n      dup6\n        /* \"@openzeppelin/contracts-upgradeable/proxy/utils/Initializable.sol\":4951:4965  $._initialized */\n      0x00\n      add\n      0x00\n        /* \"@openzeppelin/contracts-upgradeable/proxy/utils/Initializable.sol\":4951:4969  $._initialized = 1 */\n      0x0100\n      exp\n      dup2\n      sload\n      dup2\n      0xffffffffffffffff\n      mul\n      not\n      and\n      swap1\n      dup4\n      0xffffffffffffffff\n      and\n      mul\n      or\n      swap1\n      sstore\n      pop\n        /* \"@openzeppelin/contracts-upgradeable/proxy/utils/Initializable.sol\":4983:4997  isTopLevelCall */\n      dup4\n        /* \"@openzeppelin/contracts-upgradeable/proxy/utils/Initializable.sol\":4979:5046  if (isTopLevelCall) {... */\n      iszero\n      tag_217\n      jumpi\n        /* \"@openzeppelin/contracts-upgradeable/proxy/utils/Initializable.sol\":5031:5035  true */\n      0x01\n        /* \"@openzeppelin/contracts-upgradeable/proxy/utils/Initializable.sol\":5013:5014  $ */\n      dup6\n        /* \"@openzeppelin/contracts-upgradeable/proxy/utils/Initializable.sol\":5013:5028  $._initializing */\n      0x00\n      add\n      0x08\n        /* \"@openzeppelin/contracts-upgradeable/proxy/utils/Initializable.sol\":5013:5035  $._initializing = true */\n      0x0100\n      exp\n      dup2\n      sload\n      dup2\n      0xff\n      mul\n      not\n      and\n      swap1\n      dup4\n      iszero\n      iszero\n      mul\n      or\n      swap1\n      sstore\n      pop\n        /* \"@openzeppelin/contracts-upgradeable/proxy/utils/Initializable.sol\":4979:5046  if (isTopLevelCall) {... */\n    tag_217:\n        /* \"contracts/ACTUAL.sol\":2842:2864  __AccessControl_init() */\n      tag_219\n        /* \"contracts/ACTUAL.sol\":2842:2862  __AccessControl_init */\n      tag_220\n        /* \"contracts/ACTUAL.sol\":2842:2864  __AccessControl_init() */\n      jump\t// in\n    tag_219:\n        /* \"contracts/ACTUAL.sol\":2874:2891  __Pausable_init() */\n      tag_221\n        /* \"contracts/ACTUAL.sol\":2874:2889  __Pausable_init */\n      tag_222\n        /* \"contracts/ACTUAL.sol\":2874:2891  __Pausable_init() */\n      jump\t// in\n    tag_221:\n        /* \"contracts/ACTUAL.sol\":2901:2925  __ReentrancyGuard_init() */\n      tag_223\n        /* \"contracts/ACTUAL.sol\":2901:2923  __ReentrancyGuard_init */\n      tag_224\n        /* \"contracts/ACTUAL.sol\":2901:2925  __ReentrancyGuard_init() */\n      jump\t// in\n    tag_223:\n        /* \"contracts/ACTUAL.sol\":2936:2974  _grantRole(DEFAULT_ADMIN_ROLE, _admin) */\n      tag_225\n        /* \"@openzeppelin/contracts-upgradeable/access/AccessControlUpgradeable.sol\":2362:2366  0x00 */\n      0x00\n        /* \"contracts/ACTUAL.sol\":2947:2965  DEFAULT_ADMIN_ROLE */\n      dup1\n      shl\n        /* \"contracts/ACTUAL.sol\":2967:2973  _admin */\n      dup8\n        /* \"contracts/ACTUAL.sol\":2936:2946  _grantRole */\n      tag_144\n        /* \"contracts/ACTUAL.sol\":2936:2974  _grantRole(DEFAULT_ADMIN_ROLE, _admin) */\n      jump\t// in\n    tag_225:\n      pop\n        /* \"contracts/ACTUAL.sol\":2984:3027  _grantRole(keccak256(\"ADMIN_ROLE\"), _admin) */\n      tag_226\n        /* \"contracts/ACTUAL.sol\":2995:3018  keccak256(\"ADMIN_ROLE\") */\n      0xa49807205ce4d355092ef5a8a18f56e8913cf4a201fbe287825b095693c21775\n        /* \"contracts/ACTUAL.sol\":3020:3026  _admin */\n      dup8\n        /* \"contracts/ACTUAL.sol\":2984:2994  _grantRole */\n      tag_144\n        /* \"contracts/ACTUAL.sol\":2984:3027  _grantRole(keccak256(\"ADMIN_ROLE\"), _admin) */\n      jump\t// in\n    tag_226:\n      pop\n        /* \"contracts/ACTUAL.sol\":3093:3104  _stablecoin */\n      dup8\n        /* \"contracts/ACTUAL.sol\":3073:3083  stablecoin */\n      0x67\n      0x00\n        /* \"contracts/ACTUAL.sol\":3073:3105  stablecoin = IERC20(_stablecoin) */\n      0x0100\n      exp\n      dup2\n      sload\n      dup2\n      0xffffffffffffffffffffffffffffffffffffffff\n      mul\n      not\n      and\n      swap1\n      dup4\n      0xffffffffffffffffffffffffffffffffffffffff\n      and\n      mul\n      or\n      swap1\n      sstore\n      pop\n        /* \"contracts/ACTUAL.sol\":3138:3152  _protocolToken */\n      dup7\n        /* \"contracts/ACTUAL.sol\":3115:3128  protocolToken */\n      0x68\n      0x00\n        /* \"contracts/ACTUAL.sol\":3115:3153  protocolToken = IERC20(_protocolToken) */\n      0x0100\n      exp\n      dup2\n      sload\n      dup2\n      0xffffffffffffffffffffffffffffffffffffffff\n      mul\n      not\n      and\n      swap1\n      dup4\n      0xffffffffffffffffffffffffffffffffffffffff\n      and\n      mul\n      or\n      swap1\n      sstore\n      pop\n        /* \"contracts/ACTUAL.sol\":3219:3415  ProtocolConfig({... */\n      mload(0x40)\n      dup1\n      0x80\n      add\n      0x40\n      mstore\n      dup1\n        /* \"contracts/ACTUAL.sol\":3270:3272  80 */\n      0x50\n        /* \"contracts/ACTUAL.sol\":3219:3415  ProtocolConfig({... */\n      dup2\n      mstore\n      0x20\n      add\n        /* \"contracts/ACTUAL.sol\":3309:3311  70 */\n      0x46\n        /* \"contracts/ACTUAL.sol\":3219:3415  ProtocolConfig({... */\n      dup2\n      mstore\n      0x20\n      add\n        /* \"contracts/ACTUAL.sol\":3348:3352  5_00 */\n      0x01f4\n        /* \"contracts/ACTUAL.sol\":3219:3415  ProtocolConfig({... */\n      dup2\n      mstore\n      0x20\n      add\n        /* \"contracts/ACTUAL.sol\":3392:3397  10_00 */\n      0x03e8\n        /* \"contracts/ACTUAL.sol\":3219:3415  ProtocolConfig({... */\n      dup2\n      mstore\n      pop\n        /* \"contracts/ACTUAL.sol\":3210:3216  config */\n      0x69\n        /* \"contracts/ACTUAL.sol\":3210:3415  config = ProtocolConfig({... */\n      0x00\n      dup3\n      add\n      mload\n      dup2\n      0x00\n      add\n      sstore\n      0x20\n      dup3\n      add\n      mload\n      dup2\n      0x01\n      add\n      sstore\n      0x40\n      dup3\n      add\n      mload\n      dup2\n      0x02\n      add\n      sstore\n      0x60\n      dup3\n      add\n      mload\n      dup2\n      0x03\n      add\n      sstore\n      swap1\n      pop\n      pop\n        /* \"@openzeppelin/contracts-upgradeable/proxy/utils/Initializable.sol\":5070:5084  isTopLevelCall */\n      dup4\n        /* \"@openzeppelin/contracts-upgradeable/proxy/utils/Initializable.sol\":5066:5167  if (isTopLevelCall) {... */\n      iszero\n      tag_227\n      jumpi\n        /* \"@openzeppelin/contracts-upgradeable/proxy/utils/Initializable.sol\":5118:5123  false */\n      0x00\n        /* \"@openzeppelin/contracts-upgradeable/proxy/utils/Initializable.sol\":5100:5101  $ */\n      dup6\n        /* \"@openzeppelin/contracts-upgradeable/proxy/utils/Initializable.sol\":5100:5115  $._initializing */\n      0x00\n      add\n      0x08\n        /* \"@openzeppelin/contracts-upgradeable/proxy/utils/Initializable.sol\":5100:5123  $._initializing = false */\n      0x0100\n      exp\n      dup2\n      sload\n      dup2\n      0xff\n      mul\n      not\n      and\n      swap1\n      dup4\n      iszero\n      iszero\n      mul\n      or\n      swap1\n      sstore\n      pop\n        /* \"@openzeppelin/contracts-upgradeable/proxy/utils/Initializable.sol\":5142:5156  Initialized(1) */\n      0xc7f505b2f371ae2175ee4913f4499e1f2633a7b5936321eed1cdaeb6115181d2\n        /* \"@openzeppelin/contracts-upgradeable/proxy/utils/Initializable.sol\":5154:5155  1 */\n      0x01\n        /* \"@openzeppelin/contracts-upgradeable/proxy/utils/Initializable.sol\":5142:5156  Initialized(1) */\n      mload(0x40)\n      tag_228\n      swap2\n      swap1\n      tag_229\n      jump\t// in\n    tag_228:\n      mload(0x40)\n      dup1\n      swap2\n      sub\n      swap1\n      log1\n        /* \"@openzeppelin/contracts-upgradeable/proxy/utils/Initializable.sol\":5066:5167  if (isTopLevelCall) {... */\n    tag_227:\n        /* \"@openzeppelin/contracts-upgradeable/proxy/utils/Initializable.sol\":4092:5173  {... */\n      pop\n      pop\n      pop\n      pop\n      pop\n        /* \"contracts/ACTUAL.sol\":2659:3422  function initialize(... */\n      pop\n      pop\n      pop\n      jump\t// out\n        /* \"contracts/ACTUAL.sol\":811:877  bytes32 public constant TREASURY_ROLE = keccak256(\"TREASURY_ROLE\") */\n    tag_111:\n        /* \"contracts/ACTUAL.sol\":851:877  keccak256(\"TREASURY_ROLE\") */\n      0xe1dcbdb91df27212a29bc27177c840cf2f819ecf2187432e1fac86c2dd5dfca9\n        /* \"contracts/ACTUAL.sol\":811:877  bytes32 public constant TREASURY_ROLE = keccak256(\"TREASURY_ROLE\") */\n      dup2\n      jump\t// out\n        /* \"@openzeppelin/contracts-upgradeable/access/AccessControlUpgradeable.sol\":5662:5800  function revokeRole(bytes32 role, address account) public virtual onlyRole(getRoleAdmin(role)) {... */\n    tag_115:\n        /* \"@openzeppelin/contracts-upgradeable/access/AccessControlUpgradeable.sol\":5737:5755  getRoleAdmin(role) */\n      tag_230\n        /* \"@openzeppelin/contracts-upgradeable/access/AccessControlUpgradeable.sol\":5750:5754  role */\n      dup3\n        /* \"@openzeppelin/contracts-upgradeable/access/AccessControlUpgradeable.sol\":5737:5749  getRoleAdmin */\n      tag_47\n        /* \"@openzeppelin/contracts-upgradeable/access/AccessControlUpgradeable.sol\":5737:5755  getRoleAdmin(role) */\n      jump\t// in\n    tag_230:\n        /* \"@openzeppelin/contracts-upgradeable/access/AccessControlUpgradeable.sol\":3191:3207  _checkRole(role) */\n      tag_232\n        /* \"@openzeppelin/contracts-upgradeable/access/AccessControlUpgradeable.sol\":3202:3206  role */\n      dup2\n        /* \"@openzeppelin/contracts-upgradeable/access/AccessControlUpgradeable.sol\":3191:3201  _checkRole */\n      tag_141\n        /* \"@openzeppelin/contracts-upgradeable/access/AccessControlUpgradeable.sol\":3191:3207  _checkRole(role) */\n      jump\t// in\n    tag_232:\n        /* \"@openzeppelin/contracts-upgradeable/access/AccessControlUpgradeable.sol\":5767:5793  _revokeRole(role, account) */\n      tag_234\n        /* \"@openzeppelin/contracts-upgradeable/access/AccessControlUpgradeable.sol\":5779:5783  role */\n      dup4\n        /* \"@openzeppelin/contracts-upgradeable/access/AccessControlUpgradeable.sol\":5785:5792  account */\n      dup4\n        /* \"@openzeppelin/contracts-upgradeable/access/AccessControlUpgradeable.sol\":5767:5778  _revokeRole */\n      tag_150\n        /* \"@openzeppelin/contracts-upgradeable/access/AccessControlUpgradeable.sol\":5767:5793  _revokeRole(role, account) */\n      jump\t// in\n    tag_234:\n      pop\n        /* \"@openzeppelin/contracts-upgradeable/access/AccessControlUpgradeable.sol\":5662:5800  function revokeRole(bytes32 role, address account) public virtual onlyRole(getRoleAdmin(role)) {... */\n      pop\n      pop\n      pop\n      jump\t// out\n        /* \"contracts/ACTUAL.sol\":1627:1664  mapping(uint256 => Loan) public loans */\n    tag_118:\n      mstore(0x20, 0x64)\n      dup1\n      0x00\n      mstore\n      keccak256(0x00, 0x40)\n      0x00\n      swap2\n      pop\n      swap1\n      pop\n      dup1\n      0x00\n      add\n      0x00\n      swap1\n      sload\n      swap1\n      0x0100\n      exp\n      swap1\n      div\n      0xffffffffffffffffffffffffffffffffffffffff\n      and\n      swap1\n      dup1\n      0x01\n      add\n      0x00\n      swap1\n      sload\n      swap1\n      0x0100\n      exp\n      swap1\n      div\n      0xffffffffffffffffffffffffffffffffffffffff\n      and\n      swap1\n      dup1\n      0x02\n      add\n      0x00\n      swap1\n      sload\n      swap1\n      0x0100\n      exp\n      swap1\n      div\n      0xffffffffffffffffffffffffffffffffffffffff\n      and\n      swap1\n      dup1\n      0x03\n      add\n      sload\n      swap1\n      dup1\n      0x04\n      add\n      sload\n      swap1\n      dup1\n      0x05\n      add\n      sload\n      swap1\n      dup1\n      0x06\n      add\n      sload\n      swap1\n      dup1\n      0x07\n      add\n      0x00\n      swap1\n      sload\n      swap1\n      0x0100\n      exp\n      swap1\n      div\n      0xff\n      and\n      swap1\n      pop\n      dup9\n      jump\t// out\n        /* \"contracts/ACTUAL.sol\":1799:1823  IERC20 public stablecoin */\n    tag_122:\n      0x67\n      0x00\n      swap1\n      sload\n      swap1\n      0x0100\n      exp\n      swap1\n      div\n      0xffffffffffffffffffffffffffffffffffffffff\n      and\n      dup2\n      jump\t// out\n        /* \"contracts/ACTUAL.sol\":3477:5186  function borrow(... */\n    tag_127:\n        /* \"@openzeppelin/contracts-upgradeable/security/PausableUpgradeable.sol\":1503:1522  _requireNotPaused() */\n      tag_236\n        /* \"@openzeppelin/contracts-upgradeable/security/PausableUpgradeable.sol\":1503:1520  _requireNotPaused */\n      tag_158\n        /* \"@openzeppelin/contracts-upgradeable/security/PausableUpgradeable.sol\":1503:1522  _requireNotPaused() */\n      jump\t// in\n    tag_236:\n        /* \"@openzeppelin/contracts-upgradeable/security/ReentrancyGuardUpgradeable.sol\":2526:2547  _nonReentrantBefore() */\n      tag_238\n        /* \"@openzeppelin/contracts-upgradeable/security/ReentrancyGuardUpgradeable.sol\":2526:2545  _nonReentrantBefore */\n      tag_161\n        /* \"@openzeppelin/contracts-upgradeable/security/ReentrancyGuardUpgradeable.sol\":2526:2547  _nonReentrantBefore() */\n      jump\t// in\n    tag_238:\n        /* \"contracts/ACTUAL.sol\":3725:3726  0 */\n      0x00\n        /* \"contracts/ACTUAL.sol\":3706:3722  collateralAmount */\n      dup3\n        /* \"contracts/ACTUAL.sol\":3706:3726  collateralAmount > 0 */\n      gt\n        /* \"contracts/ACTUAL.sol\":3698:3756  require(collateralAmount > 0, \"Invalid collateral amount\") */\n      tag_240\n      jumpi\n      mload(0x40)\n      0x08c379a000000000000000000000000000000000000000000000000000000000\n      dup2\n      mstore\n      0x04\n      add\n      tag_241\n      swap1\n      tag_242\n      jump\t// in\n    tag_241:\n      mload(0x40)\n      dup1\n      swap2\n      sub\n      swap1\n      revert\n    tag_240:\n        /* \"contracts/ACTUAL.sol\":3789:3790  0 */\n      0x00\n        /* \"contracts/ACTUAL.sol\":3774:3786  borrowAmount */\n      dup2\n        /* \"contracts/ACTUAL.sol\":3774:3790  borrowAmount > 0 */\n      gt\n        /* \"contracts/ACTUAL.sol\":3766:3816  require(borrowAmount > 0, \"Invalid borrow amount\") */\n      tag_243\n      jumpi\n      mload(0x40)\n      0x08c379a000000000000000000000000000000000000000000000000000000000\n      dup2\n      mstore\n      0x04\n      add\n      tag_244\n      swap1\n      tag_245\n      jump\t// in\n    tag_244:\n      mload(0x40)\n      dup1\n      swap2\n      sub\n      swap1\n      revert\n    tag_243:\n        /* \"contracts/ACTUAL.sol\":3855:3856  0 */\n      0x00\n        /* \"contracts/ACTUAL.sol\":3834:3857  priceFeed != address(0) */\n      0xffffffffffffffffffffffffffffffffffffffff\n      and\n        /* \"contracts/ACTUAL.sol\":3834:3843  priceFeed */\n      dup4\n        /* \"contracts/ACTUAL.sol\":3834:3857  priceFeed != address(0) */\n      0xffffffffffffffffffffffffffffffffffffffff\n      and\n      sub\n        /* \"contracts/ACTUAL.sol\":3826:3880  require(priceFeed != address(0), \"Invalid price feed\") */\n      tag_246\n      jumpi\n      mload(0x40)\n      0x08c379a000000000000000000000000000000000000000000000000000000000\n      dup2\n      mstore\n      0x04\n      add\n      tag_247\n      swap1\n      tag_248\n      jump\t// in\n    tag_247:\n      mload(0x40)\n      dup1\n      swap2\n      sub\n      swap1\n      revert\n    tag_246:\n        /* \"contracts/ACTUAL.sol\":3943:3958  collateralToken */\n      dup4\n        /* \"contracts/ACTUAL.sol\":3936:3972  IERC20(collateralToken).transferFrom */\n      0xffffffffffffffffffffffffffffffffffffffff\n      and\n      0x23b872dd\n        /* \"contracts/ACTUAL.sol\":3986:3996  msg.sender */\n      caller\n        /* \"contracts/ACTUAL.sol\":4019:4023  this */\n      address\n        /* \"contracts/ACTUAL.sol\":4039:4055  collateralAmount */\n      dup6\n        /* \"contracts/ACTUAL.sol\":3936:4065  IERC20(collateralToken).transferFrom(... */\n      mload(0x40)\n      dup5\n      0xffffffff\n      and\n      0xe0\n      shl\n      dup2\n      mstore\n      0x04\n      add\n      tag_249\n      swap4\n      swap3\n      swap2\n      swap1\n      tag_191\n      jump\t// in\n    tag_249:\n      0x20\n      mload(0x40)\n      dup1\n      dup4\n      sub\n      dup2\n      0x00\n      dup8\n      gas\n      call\n      iszero\n      dup1\n      iszero\n      tag_251\n      jumpi\n      returndatasize\n      0x00\n      dup1\n      returndatacopy\n      revert(0x00, returndatasize)\n    tag_251:\n      pop\n      pop\n      pop\n      pop\n      mload(0x40)\n      returndatasize\n      not(0x1f)\n      0x1f\n      dup3\n      add\n      and\n      dup3\n      add\n      dup1\n      0x40\n      mstore\n      pop\n      dup2\n      add\n      swap1\n      tag_252\n      swap2\n      swap1\n      tag_195\n      jump\t// in\n    tag_252:\n      pop\n        /* \"contracts/ACTUAL.sol\":4114:4137  uint256 collateralValue */\n      0x00\n        /* \"contracts/ACTUAL.sol\":4140:4253  _getCollateralValue(... */\n      tag_253\n        /* \"contracts/ACTUAL.sol\":4173:4188  collateralToken */\n      dup6\n        /* \"contracts/ACTUAL.sol\":4203:4212  priceFeed */\n      dup6\n        /* \"contracts/ACTUAL.sol\":4227:4243  collateralAmount */\n      dup6\n        /* \"contracts/ACTUAL.sol\":4140:4159  _getCollateralValue */\n      tag_254\n        /* \"contracts/ACTUAL.sol\":4140:4253  _getCollateralValue(... */\n      jump\t// in\n    tag_253:\n        /* \"contracts/ACTUAL.sol\":4114:4253  uint256 collateralValue = _getCollateralValue(... */\n      swap1\n      pop\n        /* \"contracts/ACTUAL.sol\":4263:4284  uint256 maxBorrowable */\n      0x00\n        /* \"contracts/ACTUAL.sol\":4331:4334  100 */\n      0x64\n        /* \"contracts/ACTUAL.sol\":4306:4312  config */\n      0x69\n        /* \"contracts/ACTUAL.sol\":4306:4327  config.maxLoanToValue */\n      0x01\n      add\n      sload\n        /* \"contracts/ACTUAL.sol\":4288:4303  collateralValue */\n      dup4\n        /* \"contracts/ACTUAL.sol\":4288:4327  collateralValue * config.maxLoanToValue */\n      tag_255\n      swap2\n      swap1\n      tag_189\n      jump\t// in\n    tag_255:\n        /* \"contracts/ACTUAL.sol\":4287:4334  (collateralValue * config.maxLoanToValue) / 100 */\n      tag_256\n      swap2\n      swap1\n      tag_257\n      jump\t// in\n    tag_256:\n        /* \"contracts/ACTUAL.sol\":4263:4334  uint256 maxBorrowable = (collateralValue * config.maxLoanToValue) / 100 */\n      swap1\n      pop\n        /* \"contracts/ACTUAL.sol\":4390:4403  maxBorrowable */\n      dup1\n        /* \"contracts/ACTUAL.sol\":4374:4386  borrowAmount */\n      dup4\n        /* \"contracts/ACTUAL.sol\":4374:4403  borrowAmount <= maxBorrowable */\n      gt\n      iszero\n        /* \"contracts/ACTUAL.sol\":4353:4468  require(... */\n      tag_258\n      jumpi\n      mload(0x40)\n      0x08c379a000000000000000000000000000000000000000000000000000000000\n      dup2\n      mstore\n      0x04\n      add\n      tag_259\n      swap1\n      tag_260\n      jump\t// in\n    tag_259:\n      mload(0x40)\n      dup1\n      swap2\n      sub\n      swap1\n      revert\n    tag_258:\n        /* \"contracts/ACTUAL.sol\":4502:4516  uint256 loanId */\n      0x00\n        /* \"contracts/ACTUAL.sol\":4519:4529  nextLoanId */\n      0x6d\n      0x00\n        /* \"contracts/ACTUAL.sol\":4519:4531  nextLoanId++ */\n      dup2\n      sload\n      dup1\n      swap3\n      swap2\n      swap1\n      tag_261\n      swap1\n      tag_262\n      jump\t// in\n    tag_261:\n      swap2\n      swap1\n      pop\n      sstore\n        /* \"contracts/ACTUAL.sol\":4502:4531  uint256 loanId = nextLoanId++ */\n      swap1\n      pop\n        /* \"contracts/ACTUAL.sol\":4557:4899  Loan({... */\n      mload(0x40)\n      dup1\n      0x0100\n      add\n      0x40\n      mstore\n      dup1\n        /* \"contracts/ACTUAL.sol\":4586:4596  msg.sender */\n      caller\n        /* \"contracts/ACTUAL.sol\":4557:4899  Loan({... */\n      0xffffffffffffffffffffffffffffffffffffffff\n      and\n      dup2\n      mstore\n      0x20\n      add\n        /* \"contracts/ACTUAL.sol\":4627:4642  collateralToken */\n      dup9\n        /* \"contracts/ACTUAL.sol\":4557:4899  Loan({... */\n      0xffffffffffffffffffffffffffffffffffffffff\n      and\n      dup2\n      mstore\n      0x20\n      add\n        /* \"contracts/ACTUAL.sol\":4667:4676  priceFeed */\n      dup8\n        /* \"contracts/ACTUAL.sol\":4557:4899  Loan({... */\n      0xffffffffffffffffffffffffffffffffffffffff\n      and\n      dup2\n      mstore\n      0x20\n      add\n        /* \"contracts/ACTUAL.sol\":4708:4724  collateralAmount */\n      dup7\n        /* \"contracts/ACTUAL.sol\":4557:4899  Loan({... */\n      dup2\n      mstore\n      0x20\n      add\n        /* \"contracts/ACTUAL.sol\":4754:4766  borrowAmount */\n      dup6\n        /* \"contracts/ACTUAL.sol\":4557:4899  Loan({... */\n      dup2\n      mstore\n      0x20\n      add\n        /* \"contracts/ACTUAL.sol\":4794:4800  config */\n      0x69\n        /* \"contracts/ACTUAL.sol\":4794:4815  config.baseBorrowRate */\n      0x02\n      add\n      sload\n        /* \"contracts/ACTUAL.sol\":4557:4899  Loan({... */\n      dup2\n      mstore\n      0x20\n      add\n        /* \"contracts/ACTUAL.sol\":4845:4860  block.timestamp */\n      timestamp\n        /* \"contracts/ACTUAL.sol\":4557:4899  Loan({... */\n      dup2\n      mstore\n      0x20\n      add\n        /* \"contracts/ACTUAL.sol\":4884:4888  true */\n      0x01\n        /* \"contracts/ACTUAL.sol\":4557:4899  Loan({... */\n      iszero\n      iszero\n      dup2\n      mstore\n      pop\n        /* \"contracts/ACTUAL.sol\":4541:4546  loans */\n      0x64\n        /* \"contracts/ACTUAL.sol\":4541:4554  loans[loanId] */\n      0x00\n        /* \"contracts/ACTUAL.sol\":4547:4553  loanId */\n      dup4\n        /* \"contracts/ACTUAL.sol\":4541:4554  loans[loanId] */\n      dup2\n      mstore\n      0x20\n      add\n      swap1\n      dup2\n      mstore\n      0x20\n      add\n      0x00\n      keccak256\n        /* \"contracts/ACTUAL.sol\":4541:4899  loans[loanId] = Loan({... */\n      0x00\n      dup3\n      add\n      mload\n      dup2\n      0x00\n      add\n      exp(0x0100, 0x00)\n      dup2\n      sload\n      dup2\n      0xffffffffffffffffffffffffffffffffffffffff\n      mul\n      not\n      and\n      swap1\n      dup4\n      0xffffffffffffffffffffffffffffffffffffffff\n      and\n      mul\n      or\n      swap1\n      sstore\n      pop\n      0x20\n      dup3\n      add\n      mload\n      dup2\n      0x01\n      add\n      exp(0x0100, 0x00)\n      dup2\n      sload\n      dup2\n      0xffffffffffffffffffffffffffffffffffffffff\n      mul\n      not\n      and\n      swap1\n      dup4\n      0xffffffffffffffffffffffffffffffffffffffff\n      and\n      mul\n      or\n      swap1\n      sstore\n      pop\n      0x40\n      dup3\n      add\n      mload\n      dup2\n      0x02\n      add\n      exp(0x0100, 0x00)\n      dup2\n      sload\n      dup2\n      0xffffffffffffffffffffffffffffffffffffffff\n      mul\n      not\n      and\n      swap1\n      dup4\n      0xffffffffffffffffffffffffffffffffffffffff\n      and\n      mul\n      or\n      swap1\n      sstore\n      pop\n      0x60\n      dup3\n      add\n      mload\n      dup2\n      0x03\n      add\n      sstore\n      0x80\n      dup3\n      add\n      mload\n      dup2\n      0x04\n      add\n      sstore\n      0xa0\n      dup3\n      add\n      mload\n      dup2\n      0x05\n      add\n      sstore\n      0xc0\n      dup3\n      add\n      mload\n      dup2\n      0x06\n      add\n      sstore\n      0xe0\n      dup3\n      add\n      mload\n      dup2\n      0x07\n      add\n      exp(0x0100, 0x00)\n      dup2\n      sload\n      dup2\n      0xff\n      mul\n      not\n      and\n      swap1\n      dup4\n      iszero\n      iszero\n      mul\n      or\n      swap1\n      sstore\n      pop\n      swap1\n      pop\n      pop\n        /* \"contracts/ACTUAL.sol\":4942:4952  stablecoin */\n      0x67\n      0x00\n      swap1\n      sload\n      swap1\n      0x0100\n      exp\n      swap1\n      div\n      0xffffffffffffffffffffffffffffffffffffffff\n      and\n        /* \"contracts/ACTUAL.sol\":4942:4961  stablecoin.transfer */\n      0xffffffffffffffffffffffffffffffffffffffff\n      and\n      0xa9059cbb\n        /* \"contracts/ACTUAL.sol\":4962:4972  msg.sender */\n      caller\n        /* \"contracts/ACTUAL.sol\":4974:4986  borrowAmount */\n      dup7\n        /* \"contracts/ACTUAL.sol\":4942:4987  stablecoin.transfer(msg.sender, borrowAmount) */\n      mload(0x40)\n      dup4\n      0xffffffff\n      and\n      0xe0\n      shl\n      dup2\n      mstore\n      0x04\n      add\n      tag_263\n      swap3\n      swap2\n      swap1\n      tag_197\n      jump\t// in\n    tag_263:\n      0x20\n      mload(0x40)\n      dup1\n      dup4\n      sub\n      dup2\n      0x00\n      dup8\n      gas\n      call\n      iszero\n      dup1\n      iszero\n      tag_265\n      jumpi\n      returndatasize\n      0x00\n      dup1\n      returndatacopy\n      revert(0x00, returndatasize)\n    tag_265:\n      pop\n      pop\n      pop\n      pop\n      mload(0x40)\n      returndatasize\n      not(0x1f)\n      0x1f\n      dup3\n      add\n      and\n      dup3\n      add\n      dup1\n      0x40\n      mstore\n      pop\n      dup2\n      add\n      swap1\n      tag_266\n      swap2\n      swap1\n      tag_195\n      jump\t// in\n    tag_266:\n      pop\n        /* \"contracts/ACTUAL.sol\":5071:5081  msg.sender */\n      caller\n        /* \"contracts/ACTUAL.sol\":5025:5179  LoanCreated(... */\n      0xffffffffffffffffffffffffffffffffffffffff\n      and\n        /* \"contracts/ACTUAL.sol\":5050:5056  loanId */\n      dup2\n        /* \"contracts/ACTUAL.sol\":5025:5179  LoanCreated(... */\n      0xd62d0078daaad723b2ab43c15be6e72d2e7bf915e6314eb46555234b40f5fdf2\n        /* \"contracts/ACTUAL.sol\":5096:5111  collateralToken */\n      dup10\n        /* \"contracts/ACTUAL.sol\":5126:5142  collateralAmount */\n      dup9\n        /* \"contracts/ACTUAL.sol\":5157:5169  borrowAmount */\n      dup9\n        /* \"contracts/ACTUAL.sol\":5025:5179  LoanCreated(... */\n      mload(0x40)\n      tag_267\n      swap4\n      swap3\n      swap2\n      swap1\n      tag_268\n      jump\t// in\n    tag_267:\n      mload(0x40)\n      dup1\n      swap2\n      sub\n      swap1\n      log3\n        /* \"contracts/ACTUAL.sol\":3661:5186  {... */\n      pop\n      pop\n      pop\n        /* \"@openzeppelin/contracts-upgradeable/security/ReentrancyGuardUpgradeable.sol\":2568:2588  _nonReentrantAfter() */\n      tag_269\n        /* \"@openzeppelin/contracts-upgradeable/security/ReentrancyGuardUpgradeable.sol\":2568:2586  _nonReentrantAfter */\n      tag_175\n        /* \"@openzeppelin/contracts-upgradeable/security/ReentrancyGuardUpgradeable.sol\":2568:2588  _nonReentrantAfter() */\n      jump\t// in\n    tag_269:\n        /* \"contracts/ACTUAL.sol\":3477:5186  function borrow(... */\n      pop\n      pop\n      pop\n      pop\n      jump\t// out\n        /* \"contracts/ACTUAL.sol\":1928:1956  uint256 public nextAuctionId */\n    tag_129:\n      sload(0x6e)\n      dup2\n      jump\t// out\n        /* \"@openzeppelin/contracts-upgradeable/utils/introspection/ERC165Upgradeable.sol\":1035:1181  function supportsInterface(bytes4 interfaceId) public view virtual returns (bool) {... */\n    tag_134:\n        /* \"@openzeppelin/contracts-upgradeable/utils/introspection/ERC165Upgradeable.sol\":1111:1115  bool */\n      0x00\n        /* \"@openzeppelin/contracts-upgradeable/utils/introspection/ERC165Upgradeable.sol\":1149:1174  type(IERC165).interfaceId */\n      0x01ffc9a700000000000000000000000000000000000000000000000000000000\n        /* \"@openzeppelin/contracts-upgradeable/utils/introspection/ERC165Upgradeable.sol\":1134:1174  interfaceId == type(IERC165).interfaceId */\n      not(0xffffffffffffffffffffffffffffffffffffffffffffffffffffffff)\n      and\n        /* \"@openzeppelin/contracts-upgradeable/utils/introspection/ERC165Upgradeable.sol\":1134:1145  interfaceId */\n      dup3\n        /* \"@openzeppelin/contracts-upgradeable/utils/introspection/ERC165Upgradeable.sol\":1134:1174  interfaceId == type(IERC165).interfaceId */\n      not(0xffffffffffffffffffffffffffffffffffffffffffffffffffffffff)\n      and\n      eq\n        /* \"@openzeppelin/contracts-upgradeable/utils/introspection/ERC165Upgradeable.sol\":1127:1174  return interfaceId == type(IERC165).interfaceId */\n      swap1\n      pop\n        /* \"@openzeppelin/contracts-upgradeable/utils/introspection/ERC165Upgradeable.sol\":1035:1181  function supportsInterface(bytes4 interfaceId) public view virtual returns (bool) {... */\n      swap2\n      swap1\n      pop\n      jump\t// out\n        /* \"@openzeppelin/contracts-upgradeable/access/AccessControlUpgradeable.sol\":2787:2964  function _getAccessControlStorage() private pure returns (AccessControlStorage storage $) {... */\n    tag_137:\n        /* \"@openzeppelin/contracts-upgradeable/access/AccessControlUpgradeable.sol\":2845:2875  AccessControlStorage storage $ */\n      0x00\n        /* \"@openzeppelin/contracts-upgradeable/access/AccessControlUpgradeable.sol\":2920:2948  AccessControlStorageLocation */\n      0x02dd7bc7dec4dceedda775e58dd541e08a116c6c53815c0bd028192f7b626800\n        /* \"@openzeppelin/contracts-upgradeable/access/AccessControlUpgradeable.sol\":2910:2948  $.slot := AccessControlStorageLocation */\n      swap1\n      pop\n        /* \"@openzeppelin/contracts-upgradeable/access/AccessControlUpgradeable.sol\":2787:2964  function _getAccessControlStorage() private pure returns (AccessControlStorage storage $) {... */\n      swap1\n      jump\t// out\n        /* \"@openzeppelin/contracts-upgradeable/access/AccessControlUpgradeable.sol\":4148:4251  function _checkRole(bytes32 role) internal view virtual {... */\n    tag_141:\n        /* \"@openzeppelin/contracts-upgradeable/access/AccessControlUpgradeable.sol\":4214:4244  _checkRole(role, _msgSender()) */\n      tag_273\n        /* \"@openzeppelin/contracts-upgradeable/access/AccessControlUpgradeable.sol\":4225:4229  role */\n      dup2\n        /* \"@openzeppelin/contracts-upgradeable/access/AccessControlUpgradeable.sol\":4231:4243  _msgSender() */\n      tag_274\n        /* \"@openzeppelin/contracts-upgradeable/access/AccessControlUpgradeable.sol\":4231:4241  _msgSender */\n      tag_147\n        /* \"@openzeppelin/contracts-upgradeable/access/AccessControlUpgradeable.sol\":4231:4243  _msgSender() */\n      jump\t// in\n    tag_274:\n        /* \"@openzeppelin/contracts-upgradeable/access/AccessControlUpgradeable.sol\":4214:4224  _checkRole */\n      tag_275\n        /* \"@openzeppelin/contracts-upgradeable/access/AccessControlUpgradeable.sol\":4214:4244  _checkRole(role, _msgSender()) */\n      jump\t// in\n    tag_273:\n        /* \"@openzeppelin/contracts-upgradeable/access/AccessControlUpgradeable.sol\":4148:4251  function _checkRole(bytes32 role) internal view virtual {... */\n      pop\n      jump\t// out\n        /* \"@openzeppelin/contracts-upgradeable/access/AccessControlUpgradeable.sol\":7270:7657  function _grantRole(bytes32 role, address account) internal virtual returns (bool) {... */\n    tag_144:\n        /* \"@openzeppelin/contracts-upgradeable/access/AccessControlUpgradeable.sol\":7347:7351  bool */\n      0x00\n        /* \"@openzeppelin/contracts-upgradeable/access/AccessControlUpgradeable.sol\":7363:7393  AccessControlStorage storage $ */\n      dup1\n        /* \"@openzeppelin/contracts-upgradeable/access/AccessControlUpgradeable.sol\":7396:7422  _getAccessControlStorage() */\n      tag_277\n        /* \"@openzeppelin/contracts-upgradeable/access/AccessControlUpgradeable.sol\":7396:7420  _getAccessControlStorage */\n      tag_137\n        /* \"@openzeppelin/contracts-upgradeable/access/AccessControlUpgradeable.sol\":7396:7422  _getAccessControlStorage() */\n      jump\t// in\n    tag_277:\n        /* \"@openzeppelin/contracts-upgradeable/access/AccessControlUpgradeable.sol\":7363:7422  AccessControlStorage storage $ = _getAccessControlStorage() */\n      swap1\n      pop\n        /* \"@openzeppelin/contracts-upgradeable/access/AccessControlUpgradeable.sol\":7437:7459  hasRole(role, account) */\n      tag_278\n        /* \"@openzeppelin/contracts-upgradeable/access/AccessControlUpgradeable.sol\":7445:7449  role */\n      dup5\n        /* \"@openzeppelin/contracts-upgradeable/access/AccessControlUpgradeable.sol\":7451:7458  account */\n      dup5\n        /* \"@openzeppelin/contracts-upgradeable/access/AccessControlUpgradeable.sol\":7437:7444  hasRole */\n      tag_101\n        /* \"@openzeppelin/contracts-upgradeable/access/AccessControlUpgradeable.sol\":7437:7459  hasRole(role, account) */\n      jump\t// in\n    tag_278:\n        /* \"@openzeppelin/contracts-upgradeable/access/AccessControlUpgradeable.sol\":7432:7651  if (!hasRole(role, account)) {... */\n      tag_279\n      jumpi\n        /* \"@openzeppelin/contracts-upgradeable/access/AccessControlUpgradeable.sol\":7509:7513  true */\n      0x01\n        /* \"@openzeppelin/contracts-upgradeable/access/AccessControlUpgradeable.sol\":7475:7476  $ */\n      dup2\n        /* \"@openzeppelin/contracts-upgradeable/access/AccessControlUpgradeable.sol\":7475:7483  $._roles */\n      0x00\n      add\n        /* \"@openzeppelin/contracts-upgradeable/access/AccessControlUpgradeable.sol\":7475:7489  $._roles[role] */\n      0x00\n        /* \"@openzeppelin/contracts-upgradeable/access/AccessControlUpgradeable.sol\":7484:7488  role */\n      dup7\n        /* \"@openzeppelin/contracts-upgradeable/access/AccessControlUpgradeable.sol\":7475:7489  $._roles[role] */\n      dup2\n      mstore\n      0x20\n      add\n      swap1\n      dup2\n      mstore\n      0x20\n      add\n      0x00\n      keccak256\n        /* \"@openzeppelin/contracts-upgradeable/access/AccessControlUpgradeable.sol\":7475:7497  $._roles[role].hasRole */\n      0x00\n      add\n        /* \"@openzeppelin/contracts-upgradeable/access/AccessControlUpgradeable.sol\":7475:7506  $._roles[role].hasRole[account] */\n      0x00\n        /* \"@openzeppelin/contracts-upgradeable/access/AccessControlUpgradeable.sol\":7498:7505  account */\n      dup6\n        /* \"@openzeppelin/contracts-upgradeable/access/AccessControlUpgradeable.sol\":7475:7506  $._roles[role].hasRole[account] */\n      0xffffffffffffffffffffffffffffffffffffffff\n      and\n      0xffffffffffffffffffffffffffffffffffffffff\n      and\n      dup2\n      mstore\n      0x20\n      add\n      swap1\n      dup2\n      mstore\n      0x20\n      add\n      0x00\n      keccak256\n      0x00\n        /* \"@openzeppelin/contracts-upgradeable/access/AccessControlUpgradeable.sol\":7475:7513  $._roles[role].hasRole[account] = true */\n      0x0100\n      exp\n      dup2\n      sload\n      dup2\n      0xff\n      mul\n      not\n      and\n      swap1\n      dup4\n      iszero\n      iszero\n      mul\n      or\n      swap1\n      sstore\n      pop\n        /* \"@openzeppelin/contracts-upgradeable/access/AccessControlUpgradeable.sol\":7559:7571  _msgSender() */\n      tag_280\n        /* \"@openzeppelin/contracts-upgradeable/access/AccessControlUpgradeable.sol\":7559:7569  _msgSender */\n      tag_147\n        /* \"@openzeppelin/contracts-upgradeable/access/AccessControlUpgradeable.sol\":7559:7571  _msgSender() */\n      jump\t// in\n    tag_280:\n        /* \"@openzeppelin/contracts-upgradeable/access/AccessControlUpgradeable.sol\":7532:7572  RoleGranted(role, account, _msgSender()) */\n      0xffffffffffffffffffffffffffffffffffffffff\n      and\n        /* \"@openzeppelin/contracts-upgradeable/access/AccessControlUpgradeable.sol\":7550:7557  account */\n      dup4\n        /* \"@openzeppelin/contracts-upgradeable/access/AccessControlUpgradeable.sol\":7532:7572  RoleGranted(role, account, _msgSender()) */\n      0xffffffffffffffffffffffffffffffffffffffff\n      and\n        /* \"@openzeppelin/contracts-upgradeable/access/AccessControlUpgradeable.sol\":7544:7548  role */\n      dup6\n        /* \"@openzeppelin/contracts-upgradeable/access/AccessControlUpgradeable.sol\":7532:7572  RoleGranted(role, account, _msgSender()) */\n      0x2f8788117e7eff1d82e926ec794901d17c78024a50270940304540a733656f0d\n      mload(0x40)\n      mload(0x40)\n      dup1\n      swap2\n      sub\n      swap1\n      log4\n        /* \"@openzeppelin/contracts-upgradeable/access/AccessControlUpgradeable.sol\":7593:7597  true */\n      0x01\n        /* \"@openzeppelin/contracts-upgradeable/access/AccessControlUpgradeable.sol\":7586:7597  return true */\n      swap2\n      pop\n      pop\n      jump(tag_276)\n        /* \"@openzeppelin/contracts-upgradeable/access/AccessControlUpgradeable.sol\":7432:7651  if (!hasRole(role, account)) {... */\n    tag_279:\n        /* \"@openzeppelin/contracts-upgradeable/access/AccessControlUpgradeable.sol\":7635:7640  false */\n      0x00\n        /* \"@openzeppelin/contracts-upgradeable/access/AccessControlUpgradeable.sol\":7628:7640  return false */\n      swap2\n      pop\n      pop\n        /* \"@openzeppelin/contracts-upgradeable/access/AccessControlUpgradeable.sol\":7270:7657  function _grantRole(bytes32 role, address account) internal virtual returns (bool) {... */\n    tag_276:\n      swap3\n      swap2\n      pop\n      pop\n      jump\t// out\n        /* \"@openzeppelin/contracts-upgradeable/utils/ContextUpgradeable.sol\":887:983  function _msgSender() internal view virtual returns (address) {... */\n    tag_147:\n        /* \"@openzeppelin/contracts-upgradeable/utils/ContextUpgradeable.sol\":940:947  address */\n      0x00\n        /* \"@openzeppelin/contracts-upgradeable/utils/ContextUpgradeable.sol\":966:976  msg.sender */\n      caller\n        /* \"@openzeppelin/contracts-upgradeable/utils/ContextUpgradeable.sol\":959:976  return msg.sender */\n      swap1\n      pop\n        /* \"@openzeppelin/contracts-upgradeable/utils/ContextUpgradeable.sol\":887:983  function _msgSender() internal view virtual returns (address) {... */\n      swap1\n      jump\t// out\n        /* \"@openzeppelin/contracts-upgradeable/access/AccessControlUpgradeable.sol\":7892:8280  function _revokeRole(bytes32 role, address account) internal virtual returns (bool) {... */\n    tag_150:\n        /* \"@openzeppelin/contracts-upgradeable/access/AccessControlUpgradeable.sol\":7970:7974  bool */\n      0x00\n        /* \"@openzeppelin/contracts-upgradeable/access/AccessControlUpgradeable.sol\":7986:8016  AccessControlStorage storage $ */\n      dup1\n        /* \"@openzeppelin/contracts-upgradeable/access/AccessControlUpgradeable.sol\":8019:8045  _getAccessControlStorage() */\n      tag_284\n        /* \"@openzeppelin/contracts-upgradeable/access/AccessControlUpgradeable.sol\":8019:8043  _getAccessControlStorage */\n      tag_137\n        /* \"@openzeppelin/contracts-upgradeable/access/AccessControlUpgradeable.sol\":8019:8045  _getAccessControlStorage() */\n      jump\t// in\n    tag_284:\n        /* \"@openzeppelin/contracts-upgradeable/access/AccessControlUpgradeable.sol\":7986:8045  AccessControlStorage storage $ = _getAccessControlStorage() */\n      swap1\n      pop\n        /* \"@openzeppelin/contracts-upgradeable/access/AccessControlUpgradeable.sol\":8059:8081  hasRole(role, account) */\n      tag_285\n        /* \"@openzeppelin/contracts-upgradeable/access/AccessControlUpgradeable.sol\":8067:8071  role */\n      dup5\n        /* \"@openzeppelin/contracts-upgradeable/access/AccessControlUpgradeable.sol\":8073:8080  account */\n      dup5\n        /* \"@openzeppelin/contracts-upgradeable/access/AccessControlUpgradeable.sol\":8059:8066  hasRole */\n      tag_101\n        /* \"@openzeppelin/contracts-upgradeable/access/AccessControlUpgradeable.sol\":8059:8081  hasRole(role, account) */\n      jump\t// in\n    tag_285:\n        /* \"@openzeppelin/contracts-upgradeable/access/AccessControlUpgradeable.sol\":8055:8274  if (hasRole(role, account)) {... */\n      iszero\n      tag_286\n      jumpi\n        /* \"@openzeppelin/contracts-upgradeable/access/AccessControlUpgradeable.sol\":8131:8136  false */\n      0x00\n        /* \"@openzeppelin/contracts-upgradeable/access/AccessControlUpgradeable.sol\":8097:8098  $ */\n      dup2\n        /* \"@openzeppelin/contracts-upgradeable/access/AccessControlUpgradeable.sol\":8097:8105  $._roles */\n      0x00\n      add\n        /* \"@openzeppelin/contracts-upgradeable/access/AccessControlUpgradeable.sol\":8097:8111  $._roles[role] */\n      0x00\n        /* \"@openzeppelin/contracts-upgradeable/access/AccessControlUpgradeable.sol\":8106:8110  role */\n      dup7\n        /* \"@openzeppelin/contracts-upgradeable/access/AccessControlUpgradeable.sol\":8097:8111  $._roles[role] */\n      dup2\n      mstore\n      0x20\n      add\n      swap1\n      dup2\n      mstore\n      0x20\n      add\n      0x00\n      keccak256\n        /* \"@openzeppelin/contracts-upgradeable/access/AccessControlUpgradeable.sol\":8097:8119  $._roles[role].hasRole */\n      0x00\n      add\n        /* \"@openzeppelin/contracts-upgradeable/access/AccessControlUpgradeable.sol\":8097:8128  $._roles[role].hasRole[account] */\n      0x00\n        /* \"@openzeppelin/contracts-upgradeable/access/AccessControlUpgradeable.sol\":8120:8127  account */\n      dup6\n        /* \"@openzeppelin/contracts-upgradeable/access/AccessControlUpgradeable.sol\":8097:8128  $._roles[role].hasRole[account] */\n      0xffffffffffffffffffffffffffffffffffffffff\n      and\n      0xffffffffffffffffffffffffffffffffffffffff\n      and\n      dup2\n      mstore\n      0x20\n      add\n      swap1\n      dup2\n      mstore\n      0x20\n      add\n      0x00\n      keccak256\n      0x00\n        /* \"@openzeppelin/contracts-upgradeable/access/AccessControlUpgradeable.sol\":8097:8136  $._roles[role].hasRole[account] = false */\n      0x0100\n      exp\n      dup2\n      sload\n      dup2\n      0xff\n      mul\n      not\n      and\n      swap1\n      dup4\n      iszero\n      iszero\n      mul\n      or\n      swap1\n      sstore\n      pop\n        /* \"@openzeppelin/contracts-upgradeable/access/AccessControlUpgradeable.sol\":8182:8194  _msgSender() */\n      tag_287\n        /* \"@openzeppelin/contracts-upgradeable/access/AccessControlUpgradeable.sol\":8182:8192  _msgSender */\n      tag_147\n        /* \"@openzeppelin/contracts-upgradeable/access/AccessControlUpgradeable.sol\":8182:8194  _msgSender() */\n      jump\t// in\n    tag_287:\n        /* \"@openzeppelin/contracts-upgradeable/access/AccessControlUpgradeable.sol\":8155:8195  RoleRevoked(role, account, _msgSender()) */\n      0xffffffffffffffffffffffffffffffffffffffff\n      and\n        /* \"@openzeppelin/contracts-upgradeable/access/AccessControlUpgradeable.sol\":8173:8180  account */\n      dup4\n        /* \"@openzeppelin/contracts-upgradeable/access/AccessControlUpgradeable.sol\":8155:8195  RoleRevoked(role, account, _msgSender()) */\n      0xffffffffffffffffffffffffffffffffffffffff\n      and\n        /* \"@openzeppelin/contracts-upgradeable/access/AccessControlUpgradeable.sol\":8167:8171  role */\n      dup6\n        /* \"@openzeppelin/contracts-upgradeable/access/AccessControlUpgradeable.sol\":8155:8195  RoleRevoked(role, account, _msgSender()) */\n      0xf6391f5c32d9c69d2a47ea670b442974b53935d1edc7fd64eb21e047a839171b\n      mload(0x40)\n      mload(0x40)\n      dup1\n      swap2\n      sub\n      swap1\n      log4\n        /* \"@openzeppelin/contracts-upgradeable/access/AccessControlUpgradeable.sol\":8216:8220  true */\n      0x01\n        /* \"@openzeppelin/contracts-upgradeable/access/AccessControlUpgradeable.sol\":8209:8220  return true */\n      swap2\n      pop\n      pop\n      jump(tag_283)\n        /* \"@openzeppelin/contracts-upgradeable/access/AccessControlUpgradeable.sol\":8055:8274  if (hasRole(role, account)) {... */\n    tag_286:\n        /* \"@openzeppelin/contracts-upgradeable/access/AccessControlUpgradeable.sol\":8258:8263  false */\n      0x00\n        /* \"@openzeppelin/contracts-upgradeable/access/AccessControlUpgradeable.sol\":8251:8263  return false */\n      swap2\n      pop\n      pop\n        /* \"@openzeppelin/contracts-upgradeable/access/AccessControlUpgradeable.sol\":7892:8280  function _revokeRole(bytes32 role, address account) internal virtual returns (bool) {... */\n    tag_283:\n      swap3\n      swap2\n      pop\n      pop\n      jump\t// out\n        /* \"@openzeppelin/contracts-upgradeable/security/PausableUpgradeable.sol\":2697:2814  function _unpause() internal virtual whenPaused {... */\n    tag_155:\n        /* \"@openzeppelin/contracts-upgradeable/security/PausableUpgradeable.sol\":1750:1766  _requirePaused() */\n      tag_290\n        /* \"@openzeppelin/contracts-upgradeable/security/PausableUpgradeable.sol\":1750:1764  _requirePaused */\n      tag_291\n        /* \"@openzeppelin/contracts-upgradeable/security/PausableUpgradeable.sol\":1750:1766  _requirePaused() */\n      jump\t// in\n    tag_290:\n        /* \"@openzeppelin/contracts-upgradeable/security/PausableUpgradeable.sol\":2765:2770  false */\n      0x00\n        /* \"@openzeppelin/contracts-upgradeable/security/PausableUpgradeable.sol\":2755:2762  _paused */\n      dup1\n      0x00\n        /* \"@openzeppelin/contracts-upgradeable/security/PausableUpgradeable.sol\":2755:2770  _paused = false */\n      0x0100\n      exp\n      dup2\n      sload\n      dup2\n      0xff\n      mul\n      not\n      and\n      swap1\n      dup4\n      iszero\n      iszero\n      mul\n      or\n      swap1\n      sstore\n      pop\n        /* \"@openzeppelin/contracts-upgradeable/security/PausableUpgradeable.sol\":2785:2807  Unpaused(_msgSender()) */\n      0x5db9ee0a495bf2e6ff9c91a7834c1ba4fdd244a5e8aa4e537bd38aeae4b073aa\n        /* \"@openzeppelin/contracts-upgradeable/security/PausableUpgradeable.sol\":2794:2806  _msgSender() */\n      tag_293\n        /* \"@openzeppelin/contracts-upgradeable/security/PausableUpgradeable.sol\":2794:2804  _msgSender */\n      tag_147\n        /* \"@openzeppelin/contracts-upgradeable/security/PausableUpgradeable.sol\":2794:2806  _msgSender() */\n      jump\t// in\n    tag_293:\n        /* \"@openzeppelin/contracts-upgradeable/security/PausableUpgradeable.sol\":2785:2807  Unpaused(_msgSender()) */\n      mload(0x40)\n      tag_294\n      swap2\n      swap1\n      tag_295\n      jump\t// in\n    tag_294:\n      mload(0x40)\n      dup1\n      swap2\n      sub\n      swap1\n      log1\n        /* \"@openzeppelin/contracts-upgradeable/security/PausableUpgradeable.sol\":2697:2814  function _unpause() internal virtual whenPaused {... */\n      jump\t// out\n        /* \"@openzeppelin/contracts-upgradeable/security/PausableUpgradeable.sol\":2031:2137  function _requireNotPaused() internal view virtual {... */\n    tag_158:\n        /* \"@openzeppelin/contracts-upgradeable/security/PausableUpgradeable.sol\":2101:2109  paused() */\n      tag_297\n        /* \"@openzeppelin/contracts-upgradeable/security/PausableUpgradeable.sol\":2101:2107  paused */\n      tag_82\n        /* \"@openzeppelin/contracts-upgradeable/security/PausableUpgradeable.sol\":2101:2109  paused() */\n      jump\t// in\n    tag_297:\n        /* \"@openzeppelin/contracts-upgradeable/security/PausableUpgradeable.sol\":2100:2109  !paused() */\n      iszero\n        /* \"@openzeppelin/contracts-upgradeable/security/PausableUpgradeable.sol\":2092:2130  require(!paused(), \"Pausable: paused\") */\n      tag_298\n      jumpi\n      mload(0x40)\n      0x08c379a000000000000000000000000000000000000000000000000000000000\n      dup2\n      mstore\n      0x04\n      add\n      tag_299\n      swap1\n      tag_300\n      jump\t// in\n    tag_299:\n      mload(0x40)\n      dup1\n      swap2\n      sub\n      swap1\n      revert\n    tag_298:\n        /* \"@openzeppelin/contracts-upgradeable/security/PausableUpgradeable.sol\":2031:2137  function _requireNotPaused() internal view virtual {... */\n      jump\t// out\n        /* \"@openzeppelin/contracts-upgradeable/security/ReentrancyGuardUpgradeable.sol\":2601:2888  function _nonReentrantBefore() private {... */\n    tag_161:\n        /* \"@openzeppelin/contracts-upgradeable/security/ReentrancyGuardUpgradeable.sol\":1851:1852  2 */\n      0x02\n        /* \"@openzeppelin/contracts-upgradeable/security/ReentrancyGuardUpgradeable.sol\":2733:2740  _status */\n      sload(0x32)\n        /* \"@openzeppelin/contracts-upgradeable/security/ReentrancyGuardUpgradeable.sol\":2733:2752  _status != _ENTERED */\n      sub\n        /* \"@openzeppelin/contracts-upgradeable/security/ReentrancyGuardUpgradeable.sol\":2725:2788  require(_status != _ENTERED, \"ReentrancyGuard: reentrant call\") */\n      tag_302\n      jumpi\n      mload(0x40)\n      0x08c379a000000000000000000000000000000000000000000000000000000000\n      dup2\n      mstore\n      0x04\n      add\n      tag_303\n      swap1\n      tag_304\n      jump\t// in\n    tag_303:\n      mload(0x40)\n      dup1\n      swap2\n      sub\n      swap1\n      revert\n    tag_302:\n        /* \"@openzeppelin/contracts-upgradeable/security/ReentrancyGuardUpgradeable.sol\":1851:1852  2 */\n      0x02\n        /* \"@openzeppelin/contracts-upgradeable/security/ReentrancyGuardUpgradeable.sol\":2863:2870  _status */\n      0x32\n        /* \"@openzeppelin/contracts-upgradeable/security/ReentrancyGuardUpgradeable.sol\":2863:2881  _status = _ENTERED */\n      dup2\n      swap1\n      sstore\n      pop\n        /* \"@openzeppelin/contracts-upgradeable/security/ReentrancyGuardUpgradeable.sol\":2601:2888  function _nonReentrantBefore() private {... */\n      jump\t// out\n        /* \"contracts/ACTUAL.sol\":8764:9215  function _checkLiquidation(Loan memory loan) internal view returns (bool) {... */\n    tag_167:\n        /* \"contracts/ACTUAL.sol\":8832:8836  bool */\n      0x00\n        /* \"contracts/ACTUAL.sol\":8848:8871  uint256 collateralValue */\n      dup1\n        /* \"contracts/ACTUAL.sol\":8874:9002  _getCollateralValue(... */\n      tag_306\n        /* \"contracts/ACTUAL.sol\":8907:8911  loan */\n      dup4\n        /* \"contracts/ACTUAL.sol\":8907:8927  loan.collateralToken */\n      0x20\n      add\n      mload\n        /* \"contracts/ACTUAL.sol\":8942:8946  loan */\n      dup5\n        /* \"contracts/ACTUAL.sol\":8942:8956  loan.priceFeed */\n      0x40\n      add\n      mload\n        /* \"contracts/ACTUAL.sol\":8971:8975  loan */\n      dup6\n        /* \"contracts/ACTUAL.sol\":8971:8992  loan.collateralAmount */\n      0x60\n      add\n      mload\n        /* \"contracts/ACTUAL.sol\":8874:8893  _getCollateralValue */\n      tag_254\n        /* \"contracts/ACTUAL.sol\":8874:9002  _getCollateralValue(... */\n      jump\t// in\n    tag_306:\n        /* \"contracts/ACTUAL.sol\":8848:9002  uint256 collateralValue = _getCollateralValue(... */\n      swap1\n      pop\n        /* \"contracts/ACTUAL.sol\":9013:9034  uint256 borrowedValue */\n      0x00\n        /* \"contracts/ACTUAL.sol\":9037:9041  loan */\n      dup4\n        /* \"contracts/ACTUAL.sol\":9037:9056  loan.borrowedAmount */\n      0x80\n      add\n      mload\n        /* \"contracts/ACTUAL.sol\":9013:9056  uint256 borrowedValue = loan.borrowedAmount */\n      swap1\n      pop\n        /* \"contracts/ACTUAL.sol\":9205:9208  100 */\n      0x64\n        /* \"contracts/ACTUAL.sol\":9174:9180  config */\n      0x69\n        /* \"contracts/ACTUAL.sol\":9174:9201  config.liquidationThreshold */\n      0x00\n      add\n      sload\n        /* \"contracts/ACTUAL.sol\":9158:9171  borrowedValue */\n      dup3\n        /* \"contracts/ACTUAL.sol\":9158:9201  borrowedValue * config.liquidationThreshold */\n      tag_307\n      swap2\n      swap1\n      tag_189\n      jump\t// in\n    tag_307:\n        /* \"contracts/ACTUAL.sol\":9157:9208  (borrowedValue * config.liquidationThreshold) / 100 */\n      tag_308\n      swap2\n      swap1\n      tag_257\n      jump\t// in\n    tag_308:\n        /* \"contracts/ACTUAL.sol\":9139:9154  collateralValue */\n      dup3\n        /* \"contracts/ACTUAL.sol\":9139:9208  collateralValue < (borrowedValue * config.liquidationThreshold) / 100 */\n      lt\n        /* \"contracts/ACTUAL.sol\":9132:9208  return collateralValue < (borrowedValue * config.liquidationThreshold) / 100 */\n      swap3\n      pop\n      pop\n      pop\n        /* \"contracts/ACTUAL.sol\":8764:9215  function _checkLiquidation(Loan memory loan) internal view returns (bool) {... */\n      swap2\n      swap1\n      pop\n      jump\t// out\n        /* \"contracts/ACTUAL.sol\":5827:6654  function _startLiquidationAuction(... */\n    tag_172:\n        /* \"contracts/ACTUAL.sol\":5911:5918  uint256 */\n      0x00\n        /* \"contracts/ACTUAL.sol\":5930:5953  uint256 collateralPrice */\n      dup1\n        /* \"contracts/ACTUAL.sol\":5956:6084  _getCollateralValue(... */\n      tag_310\n        /* \"contracts/ACTUAL.sol\":5989:5993  loan */\n      dup4\n        /* \"contracts/ACTUAL.sol\":5989:6009  loan.collateralToken */\n      0x20\n      add\n      mload\n        /* \"contracts/ACTUAL.sol\":6024:6028  loan */\n      dup5\n        /* \"contracts/ACTUAL.sol\":6024:6038  loan.priceFeed */\n      0x40\n      add\n      mload\n        /* \"contracts/ACTUAL.sol\":6053:6057  loan */\n      dup6\n        /* \"contracts/ACTUAL.sol\":6053:6074  loan.collateralAmount */\n      0x60\n      add\n      mload\n        /* \"contracts/ACTUAL.sol\":5956:5975  _getCollateralValue */\n      tag_254\n        /* \"contracts/ACTUAL.sol\":5956:6084  _getCollateralValue(... */\n      jump\t// in\n    tag_310:\n        /* \"contracts/ACTUAL.sol\":5930:6084  uint256 collateralPrice = _getCollateralValue(... */\n      swap1\n      pop\n        /* \"contracts/ACTUAL.sol\":6095:6112  uint256 auctionId */\n      0x00\n        /* \"contracts/ACTUAL.sol\":6115:6128  nextAuctionId */\n      0x6e\n      0x00\n        /* \"contracts/ACTUAL.sol\":6115:6130  nextAuctionId++ */\n      dup2\n      sload\n      dup1\n      swap3\n      swap2\n      swap1\n      tag_311\n      swap1\n      tag_262\n      jump\t// in\n    tag_311:\n      swap2\n      swap1\n      pop\n      sstore\n        /* \"contracts/ACTUAL.sol\":6095:6130  uint256 auctionId = nextAuctionId++ */\n      swap1\n      pop\n        /* \"contracts/ACTUAL.sol\":6162:6486  Auction({... */\n      mload(0x40)\n      dup1\n      0xc0\n      add\n      0x40\n      mstore\n      dup1\n        /* \"contracts/ACTUAL.sol\":6201:6205  loan */\n      dup6\n        /* \"contracts/ACTUAL.sol\":6201:6221  loan.collateralToken */\n      0x20\n      add\n      mload\n        /* \"contracts/ACTUAL.sol\":6162:6486  Auction({... */\n      0xffffffffffffffffffffffffffffffffffffffff\n      and\n      dup2\n      mstore\n      0x20\n      add\n        /* \"contracts/ACTUAL.sol\":6253:6257  loan */\n      dup6\n        /* \"contracts/ACTUAL.sol\":6253:6274  loan.collateralAmount */\n      0x60\n      add\n      mload\n        /* \"contracts/ACTUAL.sol\":6162:6486  Auction({... */\n      dup2\n      mstore\n      0x20\n      add\n        /* \"contracts/ACTUAL.sol\":6300:6315  collateralPrice */\n      dup4\n        /* \"contracts/ACTUAL.sol\":6162:6486  Auction({... */\n      dup2\n      mstore\n      0x20\n      add\n        /* \"contracts/ACTUAL.sol\":6399:6402  100 */\n      0x64\n        /* \"contracts/ACTUAL.sol\":6369:6375  config */\n      0x69\n        /* \"contracts/ACTUAL.sol\":6369:6394  config.liquidationPenalty */\n      0x03\n      add\n      sload\n        /* \"contracts/ACTUAL.sol\":6363:6366  100 */\n      0x64\n        /* \"contracts/ACTUAL.sol\":6363:6394  100 - config.liquidationPenalty */\n      tag_312\n      swap2\n      swap1\n      tag_313\n      jump\t// in\n    tag_312:\n        /* \"contracts/ACTUAL.sol\":6344:6359  collateralPrice */\n      dup6\n        /* \"contracts/ACTUAL.sol\":6344:6395  collateralPrice * (100 - config.liquidationPenalty) */\n      tag_314\n      swap2\n      swap1\n      tag_189\n      jump\t// in\n    tag_314:\n        /* \"contracts/ACTUAL.sol\":6343:6402  (collateralPrice * (100 - config.liquidationPenalty)) / 100 */\n      tag_315\n      swap2\n      swap1\n      tag_257\n      jump\t// in\n    tag_315:\n        /* \"contracts/ACTUAL.sol\":6162:6486  Auction({... */\n      dup2\n      mstore\n      0x20\n      add\n        /* \"contracts/ACTUAL.sol\":6432:6447  block.timestamp */\n      timestamp\n        /* \"contracts/ACTUAL.sol\":6162:6486  Auction({... */\n      dup2\n      mstore\n      0x20\n      add\n        /* \"contracts/ACTUAL.sol\":6471:6475  true */\n      0x01\n        /* \"contracts/ACTUAL.sol\":6162:6486  Auction({... */\n      iszero\n      iszero\n      dup2\n      mstore\n      pop\n        /* \"contracts/ACTUAL.sol\":6140:6148  auctions */\n      0x65\n        /* \"contracts/ACTUAL.sol\":6140:6159  auctions[auctionId] */\n      0x00\n        /* \"contracts/ACTUAL.sol\":6149:6158  auctionId */\n      dup4\n        /* \"contracts/ACTUAL.sol\":6140:6159  auctions[auctionId] */\n      dup2\n      mstore\n      0x20\n      add\n      swap1\n      dup2\n      mstore\n      0x20\n      add\n      0x00\n      keccak256\n        /* \"contracts/ACTUAL.sol\":6140:6486  auctions[auctionId] = Auction({... */\n      0x00\n      dup3\n      add\n      mload\n      dup2\n      0x00\n      add\n      exp(0x0100, 0x00)\n      dup2\n      sload\n      dup2\n      0xffffffffffffffffffffffffffffffffffffffff\n      mul\n      not\n      and\n      swap1\n      dup4\n      0xffffffffffffffffffffffffffffffffffffffff\n      and\n      mul\n      or\n      swap1\n      sstore\n      pop\n      0x20\n      dup3\n      add\n      mload\n      dup2\n      0x01\n      add\n      sstore\n      0x40\n      dup3\n      add\n      mload\n      dup2\n      0x02\n      add\n      sstore\n      0x60\n      dup3\n      add\n      mload\n      dup2\n      0x03\n      add\n      sstore\n      0x80\n      dup3\n      add\n      mload\n      dup2\n      0x04\n      add\n      sstore\n      0xa0\n      dup3\n      add\n      mload\n      dup2\n      0x05\n      add\n      exp(0x0100, 0x00)\n      dup2\n      sload\n      dup2\n      0xff\n      mul\n      not\n      and\n      swap1\n      dup4\n      iszero\n      iszero\n      mul\n      or\n      swap1\n      sstore\n      pop\n      swap1\n      pop\n      pop\n        /* \"contracts/ACTUAL.sol\":6530:6539  auctionId */\n      dup1\n        /* \"contracts/ACTUAL.sol\":6502:6620  AuctionStarted(... */\n      0xd7d053b3d3fc9e8145896f8940adeb377f6735866f2161ef1660dae9f0492475\n        /* \"contracts/ACTUAL.sol\":6554:6558  loan */\n      dup6\n        /* \"contracts/ACTUAL.sol\":6554:6574  loan.collateralToken */\n      0x20\n      add\n      mload\n        /* \"contracts/ACTUAL.sol\":6589:6593  loan */\n      dup7\n        /* \"contracts/ACTUAL.sol\":6589:6610  loan.collateralAmount */\n      0x60\n      add\n      mload\n        /* \"contracts/ACTUAL.sol\":6502:6620  AuctionStarted(... */\n      mload(0x40)\n      tag_316\n      swap3\n      swap2\n      swap1\n      tag_197\n      jump\t// in\n    tag_316:\n      mload(0x40)\n      dup1\n      swap2\n      sub\n      swap1\n      log2\n        /* \"contracts/ACTUAL.sol\":6638:6647  auctionId */\n      dup1\n        /* \"contracts/ACTUAL.sol\":6631:6647  return auctionId */\n      swap3\n      pop\n      pop\n      pop\n        /* \"contracts/ACTUAL.sol\":5827:6654  function _startLiquidationAuction(... */\n      swap2\n      swap1\n      pop\n      jump\t// out\n        /* \"@openzeppelin/contracts-upgradeable/security/ReentrancyGuardUpgradeable.sol\":2894:3103  function _nonReentrantAfter() private {... */\n    tag_175:\n        /* \"@openzeppelin/contracts-upgradeable/security/ReentrancyGuardUpgradeable.sol\":1808:1809  1 */\n      0x01\n        /* \"@openzeppelin/contracts-upgradeable/security/ReentrancyGuardUpgradeable.sol\":3074:3081  _status */\n      0x32\n        /* \"@openzeppelin/contracts-upgradeable/security/ReentrancyGuardUpgradeable.sol\":3074:3096  _status = _NOT_ENTERED */\n      dup2\n      swap1\n      sstore\n      pop\n        /* \"@openzeppelin/contracts-upgradeable/security/ReentrancyGuardUpgradeable.sol\":2894:3103  function _nonReentrantAfter() private {... */\n      jump\t// out\n        /* \"contracts/ACTUAL.sol\":7612:8042  function _calculateCurrentAuctionPrice(... */\n    tag_187:\n        /* \"contracts/ACTUAL.sol\":7712:7719  uint256 */\n      0x00\n        /* \"contracts/ACTUAL.sol\":7731:7750  uint256 timeElapsed */\n      dup1\n        /* \"contracts/ACTUAL.sol\":7771:7778  auction */\n      dup3\n        /* \"contracts/ACTUAL.sol\":7771:7793  auction.startTimestamp */\n      0x80\n      add\n      mload\n        /* \"contracts/ACTUAL.sol\":7753:7768  block.timestamp */\n      timestamp\n        /* \"contracts/ACTUAL.sol\":7753:7793  block.timestamp - auction.startTimestamp */\n      tag_319\n      swap2\n      swap1\n      tag_313\n      jump\t// in\n    tag_319:\n        /* \"contracts/ACTUAL.sol\":7731:7793  uint256 timeElapsed = block.timestamp - auction.startTimestamp */\n      swap1\n      pop\n        /* \"contracts/ACTUAL.sol\":7853:7875  uint256 priceReduction */\n      0x00\n        /* \"contracts/ACTUAL.sol\":7965:7973  24 hours */\n      0x015180\n        /* \"contracts/ACTUAL.sol\":7937:7948  timeElapsed */\n      dup3\n        /* \"contracts/ACTUAL.sol\":7900:7907  auction */\n      dup6\n        /* \"contracts/ACTUAL.sol\":7900:7920  auction.minimumPrice */\n      0x60\n      add\n      mload\n        /* \"contracts/ACTUAL.sol\":7879:7886  auction */\n      dup7\n        /* \"contracts/ACTUAL.sol\":7879:7897  auction.startPrice */\n      0x40\n      add\n      mload\n        /* \"contracts/ACTUAL.sol\":7879:7920  auction.startPrice - auction.minimumPrice */\n      tag_320\n      swap2\n      swap1\n      tag_313\n      jump\t// in\n    tag_320:\n        /* \"contracts/ACTUAL.sol\":7878:7948  (auction.startPrice - auction.minimumPrice) ... */\n      tag_321\n      swap2\n      swap1\n      tag_189\n      jump\t// in\n    tag_321:\n        /* \"contracts/ACTUAL.sol\":7878:7974  (auction.startPrice - auction.minimumPrice) ... */\n      tag_322\n      swap2\n      swap1\n      tag_257\n      jump\t// in\n    tag_322:\n        /* \"contracts/ACTUAL.sol\":7853:7974  uint256 priceReduction = (auction.startPrice - auction.minimumPrice) ... */\n      swap1\n      pop\n        /* \"contracts/ACTUAL.sol\":8021:8035  priceReduction */\n      dup1\n        /* \"contracts/ACTUAL.sol\":8000:8007  auction */\n      dup5\n        /* \"contracts/ACTUAL.sol\":8000:8018  auction.startPrice */\n      0x40\n      add\n      mload\n        /* \"contracts/ACTUAL.sol\":8000:8035  auction.startPrice - priceReduction */\n      tag_323\n      swap2\n      swap1\n      tag_313\n      jump\t// in\n    tag_323:\n        /* \"contracts/ACTUAL.sol\":7993:8035  return auction.startPrice - priceReduction */\n      swap3\n      pop\n      pop\n      pop\n        /* \"contracts/ACTUAL.sol\":7612:8042  function _calculateCurrentAuctionPrice(... */\n      swap2\n      swap1\n      pop\n      jump\t// out\n        /* \"@openzeppelin/contracts-upgradeable/security/PausableUpgradeable.sol\":2450:2565  function _pause() internal virtual whenNotPaused {... */\n    tag_207:\n        /* \"@openzeppelin/contracts-upgradeable/security/PausableUpgradeable.sol\":1503:1522  _requireNotPaused() */\n      tag_325\n        /* \"@openzeppelin/contracts-upgradeable/security/PausableUpgradeable.sol\":1503:1520  _requireNotPaused */\n      tag_158\n        /* \"@openzeppelin/contracts-upgradeable/security/PausableUpgradeable.sol\":1503:1522  _requireNotPaused() */\n      jump\t// in\n    tag_325:\n        /* \"@openzeppelin/contracts-upgradeable/security/PausableUpgradeable.sol\":2519:2523  true */\n      0x01\n        /* \"@openzeppelin/contracts-upgradeable/security/PausableUpgradeable.sol\":2509:2516  _paused */\n      0x00\n      dup1\n        /* \"@openzeppelin/contracts-upgradeable/security/PausableUpgradeable.sol\":2509:2523  _paused = true */\n      0x0100\n      exp\n      dup2\n      sload\n      dup2\n      0xff\n      mul\n      not\n      and\n      swap1\n      dup4\n      iszero\n      iszero\n      mul\n      or\n      swap1\n      sstore\n      pop\n        /* \"@openzeppelin/contracts-upgradeable/security/PausableUpgradeable.sol\":2538:2558  Paused(_msgSender()) */\n      0x62e78cea01bee320cd4e420270b5ea74000d11b0c9f74754ebdbfc544b05a258\n        /* \"@openzeppelin/contracts-upgradeable/security/PausableUpgradeable.sol\":2545:2557  _msgSender() */\n      tag_327\n        /* \"@openzeppelin/contracts-upgradeable/security/PausableUpgradeable.sol\":2545:2555  _msgSender */\n      tag_147\n        /* \"@openzeppelin/contracts-upgradeable/security/PausableUpgradeable.sol\":2545:2557  _msgSender() */\n      jump\t// in\n    tag_327:\n        /* \"@openzeppelin/contracts-upgradeable/security/PausableUpgradeable.sol\":2538:2558  Paused(_msgSender()) */\n      mload(0x40)\n      tag_328\n      swap2\n      swap1\n      tag_295\n      jump\t// in\n    tag_328:\n      mload(0x40)\n      dup1\n      swap2\n      sub\n      swap1\n      log1\n        /* \"@openzeppelin/contracts-upgradeable/security/PausableUpgradeable.sol\":2450:2565  function _pause() internal virtual whenNotPaused {... */\n      jump\t// out\n        /* \"@openzeppelin/contracts-upgradeable/proxy/utils/Initializable.sol\":8737:8907  function _getInitializableStorage() private pure returns (InitializableStorage storage $) {... */\n    tag_212:\n        /* \"@openzeppelin/contracts-upgradeable/proxy/utils/Initializable.sol\":8795:8825  InitializableStorage storage $ */\n      0x00\n        /* \"@openzeppelin/contracts-upgradeable/proxy/utils/Initializable.sol\":8870:8891  INITIALIZABLE_STORAGE */\n      0xf0c57e16840df040f15088dc2f81fe391c3923bec73e23a9662efc9c229c6a00\n        /* \"@openzeppelin/contracts-upgradeable/proxy/utils/Initializable.sol\":8860:8891  $.slot := INITIALIZABLE_STORAGE */\n      swap1\n      pop\n        /* \"@openzeppelin/contracts-upgradeable/proxy/utils/Initializable.sol\":8737:8907  function _getInitializableStorage() private pure returns (InitializableStorage storage $) {... */\n      swap1\n      jump\t// out\n        /* \"@openzeppelin/contracts-upgradeable/access/AccessControlUpgradeable.sol\":3231:3296  function __AccessControl_init() internal onlyInitializing {... */\n    tag_220:\n        /* \"@openzeppelin/contracts-upgradeable/proxy/utils/Initializable.sol\":6931:6951  _checkInitializing() */\n      tag_331\n        /* \"@openzeppelin/contracts-upgradeable/proxy/utils/Initializable.sol\":6931:6949  _checkInitializing */\n      tag_332\n        /* \"@openzeppelin/contracts-upgradeable/proxy/utils/Initializable.sol\":6931:6951  _checkInitializing() */\n      jump\t// in\n    tag_331:\n        /* \"@openzeppelin/contracts-upgradeable/access/AccessControlUpgradeable.sol\":3231:3296  function __AccessControl_init() internal onlyInitializing {... */\n      jump\t// out\n        /* \"@openzeppelin/contracts-upgradeable/security/PausableUpgradeable.sol\":1084:1181  function __Pausable_init() internal onlyInitializing {... */\n    tag_222:\n        /* \"@openzeppelin/contracts-upgradeable/proxy/utils/Initializable.sol\":6931:6951  _checkInitializing() */\n      tag_335\n        /* \"@openzeppelin/contracts-upgradeable/proxy/utils/Initializable.sol\":6931:6949  _checkInitializing */\n      tag_332\n        /* \"@openzeppelin/contracts-upgradeable/proxy/utils/Initializable.sol\":6931:6951  _checkInitializing() */\n      jump\t// in\n    tag_335:\n        /* \"@openzeppelin/contracts-upgradeable/security/PausableUpgradeable.sol\":1147:1174  __Pausable_init_unchained() */\n      tag_337\n        /* \"@openzeppelin/contracts-upgradeable/security/PausableUpgradeable.sol\":1147:1172  __Pausable_init_unchained */\n      tag_338\n        /* \"@openzeppelin/contracts-upgradeable/security/PausableUpgradeable.sol\":1147:1174  __Pausable_init_unchained() */\n      jump\t// in\n    tag_337:\n        /* \"@openzeppelin/contracts-upgradeable/security/PausableUpgradeable.sol\":1084:1181  function __Pausable_init() internal onlyInitializing {... */\n      jump\t// out\n        /* \"@openzeppelin/contracts-upgradeable/security/ReentrancyGuardUpgradeable.sol\":1889:2000  function __ReentrancyGuard_init() internal onlyInitializing {... */\n    tag_224:\n        /* \"@openzeppelin/contracts-upgradeable/proxy/utils/Initializable.sol\":6931:6951  _checkInitializing() */\n      tag_340\n        /* \"@openzeppelin/contracts-upgradeable/proxy/utils/Initializable.sol\":6931:6949  _checkInitializing */\n      tag_332\n        /* \"@openzeppelin/contracts-upgradeable/proxy/utils/Initializable.sol\":6931:6951  _checkInitializing() */\n      jump\t// in\n    tag_340:\n        /* \"@openzeppelin/contracts-upgradeable/security/ReentrancyGuardUpgradeable.sol\":1959:1993  __ReentrancyGuard_init_unchained() */\n      tag_342\n        /* \"@openzeppelin/contracts-upgradeable/security/ReentrancyGuardUpgradeable.sol\":1959:1991  __ReentrancyGuard_init_unchained */\n      tag_343\n        /* \"@openzeppelin/contracts-upgradeable/security/ReentrancyGuardUpgradeable.sol\":1959:1993  __ReentrancyGuard_init_unchained() */\n      jump\t// in\n    tag_342:\n        /* \"@openzeppelin/contracts-upgradeable/security/ReentrancyGuardUpgradeable.sol\":1889:2000  function __ReentrancyGuard_init() internal onlyInitializing {... */\n      jump\t// out\n        /* \"contracts/ACTUAL.sol\":8113:8724  function _getCollateralValue(... */\n    tag_254:\n        /* \"contracts/ACTUAL.sol\":8256:8263  uint256 */\n      0x00\n        /* \"contracts/ACTUAL.sol\":8275:8310  AggregatorV3Interface chainlinkFeed */\n      dup1\n        /* \"contracts/ACTUAL.sol\":8335:8344  priceFeed */\n      dup4\n        /* \"contracts/ACTUAL.sol\":8275:8345  AggregatorV3Interface chainlinkFeed = AggregatorV3Interface(priceFeed) */\n      swap1\n      pop\n        /* \"contracts/ACTUAL.sol\":8440:8449  int price */\n      0x00\n        /* \"contracts/ACTUAL.sol\":8572:8585  chainlinkFeed */\n      dup2\n        /* \"contracts/ACTUAL.sol\":8572:8601  chainlinkFeed.latestRoundData */\n      0xffffffffffffffffffffffffffffffffffffffff\n      and\n      0xfeaf968c\n        /* \"contracts/ACTUAL.sol\":8572:8603  chainlinkFeed.latestRoundData() */\n      mload(0x40)\n      dup2\n      0xffffffff\n      and\n      0xe0\n      shl\n      dup2\n      mstore\n      0x04\n      add\n      0xa0\n      mload(0x40)\n      dup1\n      dup4\n      sub\n      dup2\n      dup7\n      gas\n      staticcall\n      iszero\n      dup1\n      iszero\n      tag_346\n      jumpi\n      returndatasize\n      0x00\n      dup1\n      returndatacopy\n      revert(0x00, returndatasize)\n    tag_346:\n      pop\n      pop\n      pop\n      pop\n      mload(0x40)\n      returndatasize\n      not(0x1f)\n      0x1f\n      dup3\n      add\n      and\n      dup3\n      add\n      dup1\n      0x40\n      mstore\n      pop\n      dup2\n      add\n      swap1\n      tag_347\n      swap2\n      swap1\n      tag_348\n      jump\t// in\n    tag_347:\n        /* \"contracts/ACTUAL.sol\":8392:8603  (... */\n      pop\n      pop\n      pop\n      swap2\n      pop\n      pop\n        /* \"contracts/ACTUAL.sol\":8692:8705  chainlinkFeed */\n      dup2\n        /* \"contracts/ACTUAL.sol\":8692:8714  chainlinkFeed.decimals */\n      0xffffffffffffffffffffffffffffffffffffffff\n      and\n      0x313ce567\n        /* \"contracts/ACTUAL.sol\":8692:8716  chainlinkFeed.decimals() */\n      mload(0x40)\n      dup2\n      0xffffffff\n      and\n      0xe0\n      shl\n      dup2\n      mstore\n      0x04\n      add\n      0x20\n      mload(0x40)\n      dup1\n      dup4\n      sub\n      dup2\n      dup7\n      gas\n      staticcall\n      iszero\n      dup1\n      iszero\n      tag_350\n      jumpi\n      returndatasize\n      0x00\n      dup1\n      returndatacopy\n      revert(0x00, returndatasize)\n    tag_350:\n      pop\n      pop\n      pop\n      pop\n      mload(0x40)\n      returndatasize\n      not(0x1f)\n      0x1f\n      dup3\n      add\n      and\n      dup3\n      add\n      dup1\n      0x40\n      mstore\n      pop\n      dup2\n      add\n      swap1\n      tag_351\n      swap2\n      swap1\n      tag_352\n      jump\t// in\n    tag_351:\n        /* \"contracts/ACTUAL.sol\":8686:8688  10 */\n      0x0a\n        /* \"contracts/ACTUAL.sol\":8686:8716  10 ** chainlinkFeed.decimals() */\n      tag_353\n      swap2\n      swap1\n      tag_354\n      jump\t// in\n    tag_353:\n        /* \"contracts/ACTUAL.sol\":8676:8682  amount */\n      dup5\n        /* \"contracts/ACTUAL.sol\":8667:8672  price */\n      dup3\n        /* \"contracts/ACTUAL.sol\":8659:8682  uint256(price) * amount */\n      tag_355\n      swap2\n      swap1\n      tag_189\n      jump\t// in\n    tag_355:\n        /* \"contracts/ACTUAL.sol\":8659:8717  uint256(price) * amount / (10 ** chainlinkFeed.decimals()) */\n      tag_356\n      swap2\n      swap1\n      tag_257\n      jump\t// in\n    tag_356:\n        /* \"contracts/ACTUAL.sol\":8652:8717  return uint256(price) * amount / (10 ** chainlinkFeed.decimals()) */\n      swap3\n      pop\n      pop\n      pop\n        /* \"contracts/ACTUAL.sol\":8113:8724  function _getCollateralValue(... */\n      swap4\n      swap3\n      pop\n      pop\n      pop\n      jump\t// out\n        /* \"@openzeppelin/contracts-upgradeable/access/AccessControlUpgradeable.sol\":4381:4578  function _checkRole(bytes32 role, address account) internal view virtual {... */\n    tag_275:\n        /* \"@openzeppelin/contracts-upgradeable/access/AccessControlUpgradeable.sol\":4469:4491  hasRole(role, account) */\n      tag_358\n        /* \"@openzeppelin/contracts-upgradeable/access/AccessControlUpgradeable.sol\":4477:4481  role */\n      dup3\n        /* \"@openzeppelin/contracts-upgradeable/access/AccessControlUpgradeable.sol\":4483:4490  account */\n      dup3\n        /* \"@openzeppelin/contracts-upgradeable/access/AccessControlUpgradeable.sol\":4469:4476  hasRole */\n      tag_101\n        /* \"@openzeppelin/contracts-upgradeable/access/AccessControlUpgradeable.sol\":4469:4491  hasRole(role, account) */\n      jump\t// in\n    tag_358:\n        /* \"@openzeppelin/contracts-upgradeable/access/AccessControlUpgradeable.sol\":4464:4572  if (!hasRole(role, account)) {... */\n      tag_359\n      jumpi\n        /* \"@openzeppelin/contracts-upgradeable/access/AccessControlUpgradeable.sol\":4547:4554  account */\n      dup1\n        /* \"@openzeppelin/contracts-upgradeable/access/AccessControlUpgradeable.sol\":4556:4560  role */\n      dup3\n        /* \"@openzeppelin/contracts-upgradeable/access/AccessControlUpgradeable.sol\":4514:4561  AccessControlUnauthorizedAccount(account, role) */\n      mload(0x40)\n      0xe2517d3f00000000000000000000000000000000000000000000000000000000\n      dup2\n      mstore\n      0x04\n      add\n      tag_360\n      swap3\n      swap2\n      swap1\n      tag_361\n      jump\t// in\n    tag_360:\n      mload(0x40)\n      dup1\n      swap2\n      sub\n      swap1\n      revert\n        /* \"@openzeppelin/contracts-upgradeable/access/AccessControlUpgradeable.sol\":4464:4572  if (!hasRole(role, account)) {... */\n    tag_359:\n        /* \"@openzeppelin/contracts-upgradeable/access/AccessControlUpgradeable.sol\":4381:4578  function _checkRole(bytes32 role, address account) internal view virtual {... */\n      pop\n      pop\n      jump\t// out\n        /* \"@openzeppelin/contracts-upgradeable/security/PausableUpgradeable.sol\":2209:2315  function _requirePaused() internal view virtual {... */\n    tag_291:\n        /* \"@openzeppelin/contracts-upgradeable/security/PausableUpgradeable.sol\":2275:2283  paused() */\n      tag_363\n        /* \"@openzeppelin/contracts-upgradeable/security/PausableUpgradeable.sol\":2275:2281  paused */\n      tag_82\n        /* \"@openzeppelin/contracts-upgradeable/security/PausableUpgradeable.sol\":2275:2283  paused() */\n      jump\t// in\n    tag_363:\n        /* \"@openzeppelin/contracts-upgradeable/security/PausableUpgradeable.sol\":2267:2308  require(paused(), \"Pausable: not paused\") */\n      tag_364\n      jumpi\n      mload(0x40)\n      0x08c379a000000000000000000000000000000000000000000000000000000000\n      dup2\n      mstore\n      0x04\n      add\n      tag_365\n      swap1\n      tag_366\n      jump\t// in\n    tag_365:\n      mload(0x40)\n      dup1\n      swap2\n      sub\n      swap1\n      revert\n    tag_364:\n        /* \"@openzeppelin/contracts-upgradeable/security/PausableUpgradeable.sol\":2209:2315  function _requirePaused() internal view virtual {... */\n      jump\t// out\n        /* \"@openzeppelin/contracts-upgradeable/proxy/utils/Initializable.sol\":7084:7225  function _checkInitializing() internal view virtual {... */\n    tag_332:\n        /* \"@openzeppelin/contracts-upgradeable/proxy/utils/Initializable.sol\":7151:7168  _isInitializing() */\n      tag_368\n        /* \"@openzeppelin/contracts-upgradeable/proxy/utils/Initializable.sol\":7151:7166  _isInitializing */\n      tag_369\n        /* \"@openzeppelin/contracts-upgradeable/proxy/utils/Initializable.sol\":7151:7168  _isInitializing() */\n      jump\t// in\n    tag_368:\n        /* \"@openzeppelin/contracts-upgradeable/proxy/utils/Initializable.sol\":7146:7219  if (!_isInitializing()) {... */\n      tag_370\n      jumpi\n        /* \"@openzeppelin/contracts-upgradeable/proxy/utils/Initializable.sol\":7191:7208  NotInitializing() */\n      mload(0x40)\n      0xd7e6bcf800000000000000000000000000000000000000000000000000000000\n      dup2\n      mstore\n      0x04\n      add\n      mload(0x40)\n      dup1\n      swap2\n      sub\n      swap1\n      revert\n        /* \"@openzeppelin/contracts-upgradeable/proxy/utils/Initializable.sol\":7146:7219  if (!_isInitializing()) {... */\n    tag_370:\n        /* \"@openzeppelin/contracts-upgradeable/proxy/utils/Initializable.sol\":7084:7225  function _checkInitializing() internal view virtual {... */\n      jump\t// out\n        /* \"@openzeppelin/contracts-upgradeable/security/PausableUpgradeable.sol\":1187:1282  function __Pausable_init_unchained() internal onlyInitializing {... */\n    tag_338:\n        /* \"@openzeppelin/contracts-upgradeable/proxy/utils/Initializable.sol\":6931:6951  _checkInitializing() */\n      tag_372\n        /* \"@openzeppelin/contracts-upgradeable/proxy/utils/Initializable.sol\":6931:6949  _checkInitializing */\n      tag_332\n        /* \"@openzeppelin/contracts-upgradeable/proxy/utils/Initializable.sol\":6931:6951  _checkInitializing() */\n      jump\t// in\n    tag_372:\n        /* \"@openzeppelin/contracts-upgradeable/security/PausableUpgradeable.sol\":1270:1275  false */\n      0x00\n        /* \"@openzeppelin/contracts-upgradeable/security/PausableUpgradeable.sol\":1260:1267  _paused */\n      dup1\n      0x00\n        /* \"@openzeppelin/contracts-upgradeable/security/PausableUpgradeable.sol\":1260:1275  _paused = false */\n      0x0100\n      exp\n      dup2\n      sload\n      dup2\n      0xff\n      mul\n      not\n      and\n      swap1\n      dup4\n      iszero\n      iszero\n      mul\n      or\n      swap1\n      sstore\n      pop\n        /* \"@openzeppelin/contracts-upgradeable/security/PausableUpgradeable.sol\":1187:1282  function __Pausable_init_unchained() internal onlyInitializing {... */\n      jump\t// out\n        /* \"@openzeppelin/contracts-upgradeable/security/ReentrancyGuardUpgradeable.sol\":2006:2115  function __ReentrancyGuard_init_unchained() internal onlyInitializing {... */\n    tag_343:\n        /* \"@openzeppelin/contracts-upgradeable/proxy/utils/Initializable.sol\":6931:6951  _checkInitializing() */\n      tag_375\n        /* \"@openzeppelin/contracts-upgradeable/proxy/utils/Initializable.sol\":6931:6949  _checkInitializing */\n      tag_332\n        /* \"@openzeppelin/contracts-upgradeable/proxy/utils/Initializable.sol\":6931:6951  _checkInitializing() */\n      jump\t// in\n    tag_375:\n        /* \"@openzeppelin/contracts-upgradeable/security/ReentrancyGuardUpgradeable.sol\":1808:1809  1 */\n      0x01\n        /* \"@openzeppelin/contracts-upgradeable/security/ReentrancyGuardUpgradeable.sol\":2086:2093  _status */\n      0x32\n        /* \"@openzeppelin/contracts-upgradeable/security/ReentrancyGuardUpgradeable.sol\":2086:2108  _status = _NOT_ENTERED */\n      dup2\n      swap1\n      sstore\n      pop\n        /* \"@openzeppelin/contracts-upgradeable/security/ReentrancyGuardUpgradeable.sol\":2006:2115  function __ReentrancyGuard_init_unchained() internal onlyInitializing {... */\n      jump\t// out\n        /* \"@openzeppelin/contracts-upgradeable/proxy/utils/Initializable.sol\":8487:8607  function _isInitializing() internal view returns (bool) {... */\n    tag_369:\n        /* \"@openzeppelin/contracts-upgradeable/proxy/utils/Initializable.sol\":8537:8541  bool */\n      0x00\n        /* \"@openzeppelin/contracts-upgradeable/proxy/utils/Initializable.sol\":8560:8586  _getInitializableStorage() */\n      tag_378\n        /* \"@openzeppelin/contracts-upgradeable/proxy/utils/Initializable.sol\":8560:8584  _getInitializableStorage */\n      tag_212\n        /* \"@openzeppelin/contracts-upgradeable/proxy/utils/Initializable.sol\":8560:8586  _getInitializableStorage() */\n      jump\t// in\n    tag_378:\n        /* \"@openzeppelin/contracts-upgradeable/proxy/utils/Initializable.sol\":8560:8600  _getInitializableStorage()._initializing */\n      0x00\n      add\n      0x08\n      swap1\n      sload\n      swap1\n      0x0100\n      exp\n      swap1\n      div\n      0xff\n      and\n        /* \"@openzeppelin/contracts-upgradeable/proxy/utils/Initializable.sol\":8553:8600  return _getInitializableStorage()._initializing */\n      swap1\n      pop\n        /* \"@openzeppelin/contracts-upgradeable/proxy/utils/Initializable.sol\":8487:8607  function _isInitializing() internal view returns (bool) {... */\n      swap1\n      jump\t// out\n        /* \"#utility.yul\":88:205   */\n    tag_380:\n        /* \"#utility.yul\":197:198   */\n      0x00\n        /* \"#utility.yul\":194:195   */\n      dup1\n        /* \"#utility.yul\":187:199   */\n      revert\n        /* \"#utility.yul\":334:483   */\n    tag_382:\n        /* \"#utility.yul\":370:377   */\n      0x00\n        /* \"#utility.yul\":410:476   */\n      0xffffffff00000000000000000000000000000000000000000000000000000000\n        /* \"#utility.yul\":403:408   */\n      dup3\n        /* \"#utility.yul\":399:477   */\n      and\n        /* \"#utility.yul\":388:477   */\n      swap1\n      pop\n        /* \"#utility.yul\":334:483   */\n      swap2\n      swap1\n      pop\n      jump\t// out\n        /* \"#utility.yul\":489:609   */\n    tag_383:\n        /* \"#utility.yul\":561:584   */\n      tag_453\n        /* \"#utility.yul\":578:583   */\n      dup2\n        /* \"#utility.yul\":561:584   */\n      tag_382\n      jump\t// in\n    tag_453:\n        /* \"#utility.yul\":554:559   */\n      dup2\n        /* \"#utility.yul\":551:585   */\n      eq\n        /* \"#utility.yul\":541:603   */\n      tag_454\n      jumpi\n        /* \"#utility.yul\":599:600   */\n      0x00\n        /* \"#utility.yul\":596:597   */\n      dup1\n        /* \"#utility.yul\":589:601   */\n      revert\n        /* \"#utility.yul\":541:603   */\n    tag_454:\n        /* \"#utility.yul\":489:609   */\n      pop\n      jump\t// out\n        /* \"#utility.yul\":615:752   */\n    tag_384:\n        /* \"#utility.yul\":660:665   */\n      0x00\n        /* \"#utility.yul\":698:704   */\n      dup2\n        /* \"#utility.yul\":685:705   */\n      calldataload\n        /* \"#utility.yul\":676:705   */\n      swap1\n      pop\n        /* \"#utility.yul\":714:746   */\n      tag_456\n        /* \"#utility.yul\":740:745   */\n      dup2\n        /* \"#utility.yul\":714:746   */\n      tag_383\n      jump\t// in\n    tag_456:\n        /* \"#utility.yul\":615:752   */\n      swap3\n      swap2\n      pop\n      pop\n      jump\t// out\n        /* \"#utility.yul\":758:1085   */\n    tag_36:\n        /* \"#utility.yul\":816:822   */\n      0x00\n        /* \"#utility.yul\":865:867   */\n      0x20\n        /* \"#utility.yul\":853:862   */\n      dup3\n        /* \"#utility.yul\":844:851   */\n      dup5\n        /* \"#utility.yul\":840:863   */\n      sub\n        /* \"#utility.yul\":836:868   */\n      slt\n        /* \"#utility.yul\":833:952   */\n      iszero\n      tag_458\n      jumpi\n        /* \"#utility.yul\":871:950   */\n      tag_459\n      tag_380\n      jump\t// in\n    tag_459:\n        /* \"#utility.yul\":833:952   */\n    tag_458:\n        /* \"#utility.yul\":991:992   */\n      0x00\n        /* \"#utility.yul\":1016:1068   */\n      tag_460\n        /* \"#utility.yul\":1060:1067   */\n      dup5\n        /* \"#utility.yul\":1051:1057   */\n      dup3\n        /* \"#utility.yul\":1040:1049   */\n      dup6\n        /* \"#utility.yul\":1036:1058   */\n      add\n        /* \"#utility.yul\":1016:1068   */\n      tag_384\n      jump\t// in\n    tag_460:\n        /* \"#utility.yul\":1006:1068   */\n      swap2\n      pop\n        /* \"#utility.yul\":962:1078   */\n      pop\n        /* \"#utility.yul\":758:1085   */\n      swap3\n      swap2\n      pop\n      pop\n      jump\t// out\n        /* \"#utility.yul\":1091:1181   */\n    tag_385:\n        /* \"#utility.yul\":1125:1132   */\n      0x00\n        /* \"#utility.yul\":1168:1173   */\n      dup2\n        /* \"#utility.yul\":1161:1174   */\n      iszero\n        /* \"#utility.yul\":1154:1175   */\n      iszero\n        /* \"#utility.yul\":1143:1175   */\n      swap1\n      pop\n        /* \"#utility.yul\":1091:1181   */\n      swap2\n      swap1\n      pop\n      jump\t// out\n        /* \"#utility.yul\":1187:1296   */\n    tag_386:\n        /* \"#utility.yul\":1268:1289   */\n      tag_463\n        /* \"#utility.yul\":1283:1288   */\n      dup2\n        /* \"#utility.yul\":1268:1289   */\n      tag_385\n      jump\t// in\n    tag_463:\n        /* \"#utility.yul\":1263:1266   */\n      dup3\n        /* \"#utility.yul\":1256:1290   */\n      mstore\n        /* \"#utility.yul\":1187:1296   */\n      pop\n      pop\n      jump\t// out\n        /* \"#utility.yul\":1302:1512   */\n    tag_39:\n        /* \"#utility.yul\":1389:1393   */\n      0x00\n        /* \"#utility.yul\":1427:1429   */\n      0x20\n        /* \"#utility.yul\":1416:1425   */\n      dup3\n        /* \"#utility.yul\":1412:1430   */\n      add\n        /* \"#utility.yul\":1404:1430   */\n      swap1\n      pop\n        /* \"#utility.yul\":1440:1505   */\n      tag_465\n        /* \"#utility.yul\":1502:1503   */\n      0x00\n        /* \"#utility.yul\":1491:1500   */\n      dup4\n        /* \"#utility.yul\":1487:1504   */\n      add\n        /* \"#utility.yul\":1478:1484   */\n      dup5\n        /* \"#utility.yul\":1440:1505   */\n      tag_386\n      jump\t// in\n    tag_465:\n        /* \"#utility.yul\":1302:1512   */\n      swap3\n      swap2\n      pop\n      pop\n      jump\t// out\n        /* \"#utility.yul\":1518:1644   */\n    tag_387:\n        /* \"#utility.yul\":1555:1562   */\n      0x00\n        /* \"#utility.yul\":1595:1637   */\n      0xffffffffffffffffffffffffffffffffffffffff\n        /* \"#utility.yul\":1588:1593   */\n      dup3\n        /* \"#utility.yul\":1584:1638   */\n      and\n        /* \"#utility.yul\":1573:1638   */\n      swap1\n      pop\n        /* \"#utility.yul\":1518:1644   */\n      swap2\n      swap1\n      pop\n      jump\t// out\n        /* \"#utility.yul\":1650:1710   */\n    tag_388:\n        /* \"#utility.yul\":1678:1681   */\n      0x00\n        /* \"#utility.yul\":1699:1704   */\n      dup2\n        /* \"#utility.yul\":1692:1704   */\n      swap1\n      pop\n        /* \"#utility.yul\":1650:1710   */\n      swap2\n      swap1\n      pop\n      jump\t// out\n        /* \"#utility.yul\":1716:1858   */\n    tag_389:\n        /* \"#utility.yul\":1766:1775   */\n      0x00\n        /* \"#utility.yul\":1799:1852   */\n      tag_469\n        /* \"#utility.yul\":1817:1851   */\n      tag_470\n        /* \"#utility.yul\":1826:1850   */\n      tag_471\n        /* \"#utility.yul\":1844:1849   */\n      dup5\n        /* \"#utility.yul\":1826:1850   */\n      tag_387\n      jump\t// in\n    tag_471:\n        /* \"#utility.yul\":1817:1851   */\n      tag_388\n      jump\t// in\n    tag_470:\n        /* \"#utility.yul\":1799:1852   */\n      tag_387\n      jump\t// in\n    tag_469:\n        /* \"#utility.yul\":1786:1852   */\n      swap1\n      pop\n        /* \"#utility.yul\":1716:1858   */\n      swap2\n      swap1\n      pop\n      jump\t// out\n        /* \"#utility.yul\":1864:1990   */\n    tag_390:\n        /* \"#utility.yul\":1914:1923   */\n      0x00\n        /* \"#utility.yul\":1947:1984   */\n      tag_473\n        /* \"#utility.yul\":1978:1983   */\n      dup3\n        /* \"#utility.yul\":1947:1984   */\n      tag_389\n      jump\t// in\n    tag_473:\n        /* \"#utility.yul\":1934:1984   */\n      swap1\n      pop\n        /* \"#utility.yul\":1864:1990   */\n      swap2\n      swap1\n      pop\n      jump\t// out\n        /* \"#utility.yul\":1996:2137   */\n    tag_391:\n        /* \"#utility.yul\":2061:2070   */\n      0x00\n        /* \"#utility.yul\":2094:2131   */\n      tag_475\n        /* \"#utility.yul\":2125:2130   */\n      dup3\n        /* \"#utility.yul\":2094:2131   */\n      tag_390\n      jump\t// in\n    tag_475:\n        /* \"#utility.yul\":2081:2131   */\n      swap1\n      pop\n        /* \"#utility.yul\":1996:2137   */\n      swap2\n      swap1\n      pop\n      jump\t// out\n        /* \"#utility.yul\":2143:2304   */\n    tag_392:\n        /* \"#utility.yul\":2245:2297   */\n      tag_477\n        /* \"#utility.yul\":2291:2296   */\n      dup2\n        /* \"#utility.yul\":2245:2297   */\n      tag_391\n      jump\t// in\n    tag_477:\n        /* \"#utility.yul\":2240:2243   */\n      dup3\n        /* \"#utility.yul\":2233:2298   */\n      mstore\n        /* \"#utility.yul\":2143:2304   */\n      pop\n      pop\n      jump\t// out\n        /* \"#utility.yul\":2310:2562   */\n    tag_43:\n        /* \"#utility.yul\":2418:2422   */\n      0x00\n        /* \"#utility.yul\":2456:2458   */\n      0x20\n        /* \"#utility.yul\":2445:2454   */\n      dup3\n        /* \"#utility.yul\":2441:2459   */\n      add\n        /* \"#utility.yul\":2433:2459   */\n      swap1\n      pop\n        /* \"#utility.yul\":2469:2555   */\n      tag_479\n        /* \"#utility.yul\":2552:2553   */\n      0x00\n        /* \"#utility.yul\":2541:2550   */\n      dup4\n        /* \"#utility.yul\":2537:2554   */\n      add\n        /* \"#utility.yul\":2528:2534   */\n      dup5\n        /* \"#utility.yul\":2469:2555   */\n      tag_392\n      jump\t// in\n    tag_479:\n        /* \"#utility.yul\":2310:2562   */\n      swap3\n      swap2\n      pop\n      pop\n      jump\t// out\n        /* \"#utility.yul\":2568:2645   */\n    tag_393:\n        /* \"#utility.yul\":2605:2612   */\n      0x00\n        /* \"#utility.yul\":2634:2639   */\n      dup2\n        /* \"#utility.yul\":2623:2639   */\n      swap1\n      pop\n        /* \"#utility.yul\":2568:2645   */\n      swap2\n      swap1\n      pop\n      jump\t// out\n        /* \"#utility.yul\":2651:2773   */\n    tag_394:\n        /* \"#utility.yul\":2724:2748   */\n      tag_482\n        /* \"#utility.yul\":2742:2747   */\n      dup2\n        /* \"#utility.yul\":2724:2748   */\n      tag_393\n      jump\t// in\n    tag_482:\n        /* \"#utility.yul\":2717:2722   */\n      dup2\n        /* \"#utility.yul\":2714:2749   */\n      eq\n        /* \"#utility.yul\":2704:2767   */\n      tag_483\n      jumpi\n        /* \"#utility.yul\":2763:2764   */\n      0x00\n        /* \"#utility.yul\":2760:2761   */\n      dup1\n        /* \"#utility.yul\":2753:2765   */\n      revert\n        /* \"#utility.yul\":2704:2767   */\n    tag_483:\n        /* \"#utility.yul\":2651:2773   */\n      pop\n      jump\t// out\n        /* \"#utility.yul\":2779:2918   */\n    tag_395:\n        /* \"#utility.yul\":2825:2830   */\n      0x00\n        /* \"#utility.yul\":2863:2869   */\n      dup2\n        /* \"#utility.yul\":2850:2870   */\n      calldataload\n        /* \"#utility.yul\":2841:2870   */\n      swap1\n      pop\n        /* \"#utility.yul\":2879:2912   */\n      tag_485\n        /* \"#utility.yul\":2906:2911   */\n      dup2\n        /* \"#utility.yul\":2879:2912   */\n      tag_394\n      jump\t// in\n    tag_485:\n        /* \"#utility.yul\":2779:2918   */\n      swap3\n      swap2\n      pop\n      pop\n      jump\t// out\n        /* \"#utility.yul\":2924:3253   */\n    tag_46:\n        /* \"#utility.yul\":2983:2989   */\n      0x00\n        /* \"#utility.yul\":3032:3034   */\n      0x20\n        /* \"#utility.yul\":3020:3029   */\n      dup3\n        /* \"#utility.yul\":3011:3018   */\n      dup5\n        /* \"#utility.yul\":3007:3030   */\n      sub\n        /* \"#utility.yul\":3003:3035   */\n      slt\n        /* \"#utility.yul\":3000:3119   */\n      iszero\n      tag_487\n      jumpi\n        /* \"#utility.yul\":3038:3117   */\n      tag_488\n      tag_380\n      jump\t// in\n    tag_488:\n        /* \"#utility.yul\":3000:3119   */\n    tag_487:\n        /* \"#utility.yul\":3158:3159   */\n      0x00\n        /* \"#utility.yul\":3183:3236   */\n      tag_489\n        /* \"#utility.yul\":3228:3235   */\n      dup5\n        /* \"#utility.yul\":3219:3225   */\n      dup3\n        /* \"#utility.yul\":3208:3217   */\n      dup6\n        /* \"#utility.yul\":3204:3226   */\n      add\n        /* \"#utility.yul\":3183:3236   */\n      tag_395\n      jump\t// in\n    tag_489:\n        /* \"#utility.yul\":3173:3236   */\n      swap2\n      pop\n        /* \"#utility.yul\":3129:3246   */\n      pop\n        /* \"#utility.yul\":2924:3253   */\n      swap3\n      swap2\n      pop\n      pop\n      jump\t// out\n        /* \"#utility.yul\":3259:3377   */\n    tag_396:\n        /* \"#utility.yul\":3346:3370   */\n      tag_491\n        /* \"#utility.yul\":3364:3369   */\n      dup2\n        /* \"#utility.yul\":3346:3370   */\n      tag_393\n      jump\t// in\n    tag_491:\n        /* \"#utility.yul\":3341:3344   */\n      dup3\n        /* \"#utility.yul\":3334:3371   */\n      mstore\n        /* \"#utility.yul\":3259:3377   */\n      pop\n      pop\n      jump\t// out\n        /* \"#utility.yul\":3383:3605   */\n    tag_49:\n        /* \"#utility.yul\":3476:3480   */\n      0x00\n        /* \"#utility.yul\":3514:3516   */\n      0x20\n        /* \"#utility.yul\":3503:3512   */\n      dup3\n        /* \"#utility.yul\":3499:3517   */\n      add\n        /* \"#utility.yul\":3491:3517   */\n      swap1\n      pop\n        /* \"#utility.yul\":3527:3598   */\n      tag_493\n        /* \"#utility.yul\":3595:3596   */\n      0x00\n        /* \"#utility.yul\":3584:3593   */\n      dup4\n        /* \"#utility.yul\":3580:3597   */\n      add\n        /* \"#utility.yul\":3571:3577   */\n      dup5\n        /* \"#utility.yul\":3527:3598   */\n      tag_396\n      jump\t// in\n    tag_493:\n        /* \"#utility.yul\":3383:3605   */\n      swap3\n      swap2\n      pop\n      pop\n      jump\t// out\n        /* \"#utility.yul\":3611:3707   */\n    tag_397:\n        /* \"#utility.yul\":3648:3655   */\n      0x00\n        /* \"#utility.yul\":3677:3701   */\n      tag_495\n        /* \"#utility.yul\":3695:3700   */\n      dup3\n        /* \"#utility.yul\":3677:3701   */\n      tag_387\n      jump\t// in\n    tag_495:\n        /* \"#utility.yul\":3666:3701   */\n      swap1\n      pop\n        /* \"#utility.yul\":3611:3707   */\n      swap2\n      swap1\n      pop\n      jump\t// out\n        /* \"#utility.yul\":3713:3835   */\n    tag_398:\n        /* \"#utility.yul\":3786:3810   */\n      tag_497\n        /* \"#utility.yul\":3804:3809   */\n      dup2\n        /* \"#utility.yul\":3786:3810   */\n      tag_397\n      jump\t// in\n    tag_497:\n        /* \"#utility.yul\":3779:3784   */\n      dup2\n        /* \"#utility.yul\":3776:3811   */\n      eq\n        /* \"#utility.yul\":3766:3829   */\n      tag_498\n      jumpi\n        /* \"#utility.yul\":3825:3826   */\n      0x00\n        /* \"#utility.yul\":3822:3823   */\n      dup1\n        /* \"#utility.yul\":3815:3827   */\n      revert\n        /* \"#utility.yul\":3766:3829   */\n    tag_498:\n        /* \"#utility.yul\":3713:3835   */\n      pop\n      jump\t// out\n        /* \"#utility.yul\":3841:3980   */\n    tag_399:\n        /* \"#utility.yul\":3887:3892   */\n      0x00\n        /* \"#utility.yul\":3925:3931   */\n      dup2\n        /* \"#utility.yul\":3912:3932   */\n      calldataload\n        /* \"#utility.yul\":3903:3932   */\n      swap1\n      pop\n        /* \"#utility.yul\":3941:3974   */\n      tag_500\n        /* \"#utility.yul\":3968:3973   */\n      dup2\n        /* \"#utility.yul\":3941:3974   */\n      tag_398\n      jump\t// in\n    tag_500:\n        /* \"#utility.yul\":3841:3980   */\n      swap3\n      swap2\n      pop\n      pop\n      jump\t// out\n        /* \"#utility.yul\":3986:4460   */\n    tag_52:\n        /* \"#utility.yul\":4054:4060   */\n      0x00\n        /* \"#utility.yul\":4062:4068   */\n      dup1\n        /* \"#utility.yul\":4111:4113   */\n      0x40\n        /* \"#utility.yul\":4099:4108   */\n      dup4\n        /* \"#utility.yul\":4090:4097   */\n      dup6\n        /* \"#utility.yul\":4086:4109   */\n      sub\n        /* \"#utility.yul\":4082:4114   */\n      slt\n        /* \"#utility.yul\":4079:4198   */\n      iszero\n      tag_502\n      jumpi\n        /* \"#utility.yul\":4117:4196   */\n      tag_503\n      tag_380\n      jump\t// in\n    tag_503:\n        /* \"#utility.yul\":4079:4198   */\n    tag_502:\n        /* \"#utility.yul\":4237:4238   */\n      0x00\n        /* \"#utility.yul\":4262:4315   */\n      tag_504\n        /* \"#utility.yul\":4307:4314   */\n      dup6\n        /* \"#utility.yul\":4298:4304   */\n      dup3\n        /* \"#utility.yul\":4287:4296   */\n      dup7\n        /* \"#utility.yul\":4283:4305   */\n      add\n        /* \"#utility.yul\":4262:4315   */\n      tag_399\n      jump\t// in\n    tag_504:\n        /* \"#utility.yul\":4252:4315   */\n      swap3\n      pop\n        /* \"#utility.yul\":4208:4325   */\n      pop\n        /* \"#utility.yul\":4364:4366   */\n      0x20\n        /* \"#utility.yul\":4390:4443   */\n      tag_505\n        /* \"#utility.yul\":4435:4442   */\n      dup6\n        /* \"#utility.yul\":4426:4432   */\n      dup3\n        /* \"#utility.yul\":4415:4424   */\n      dup7\n        /* \"#utility.yul\":4411:4433   */\n      add\n        /* \"#utility.yul\":4390:4443   */\n      tag_399\n      jump\t// in\n    tag_505:\n        /* \"#utility.yul\":4380:4443   */\n      swap2\n      pop\n        /* \"#utility.yul\":4335:4453   */\n      pop\n        /* \"#utility.yul\":3986:4460   */\n      swap3\n      pop\n      swap3\n      swap1\n      pop\n      jump\t// out\n        /* \"#utility.yul\":4466:4543   */\n    tag_400:\n        /* \"#utility.yul\":4503:4510   */\n      0x00\n        /* \"#utility.yul\":4532:4537   */\n      dup2\n        /* \"#utility.yul\":4521:4537   */\n      swap1\n      pop\n        /* \"#utility.yul\":4466:4543   */\n      swap2\n      swap1\n      pop\n      jump\t// out\n        /* \"#utility.yul\":4549:4667   */\n    tag_401:\n        /* \"#utility.yul\":4636:4660   */\n      tag_508\n        /* \"#utility.yul\":4654:4659   */\n      dup2\n        /* \"#utility.yul\":4636:4660   */\n      tag_400\n      jump\t// in\n    tag_508:\n        /* \"#utility.yul\":4631:4634   */\n      dup3\n        /* \"#utility.yul\":4624:4661   */\n      mstore\n        /* \"#utility.yul\":4549:4667   */\n      pop\n      pop\n      jump\t// out\n        /* \"#utility.yul\":4673:4895   */\n    tag_55:\n        /* \"#utility.yul\":4766:4770   */\n      0x00\n        /* \"#utility.yul\":4804:4806   */\n      0x20\n        /* \"#utility.yul\":4793:4802   */\n      dup3\n        /* \"#utility.yul\":4789:4807   */\n      add\n        /* \"#utility.yul\":4781:4807   */\n      swap1\n      pop\n        /* \"#utility.yul\":4817:4888   */\n      tag_510\n        /* \"#utility.yul\":4885:4886   */\n      0x00\n        /* \"#utility.yul\":4874:4883   */\n      dup4\n        /* \"#utility.yul\":4870:4887   */\n      add\n        /* \"#utility.yul\":4861:4867   */\n      dup5\n        /* \"#utility.yul\":4817:4888   */\n      tag_401\n      jump\t// in\n    tag_510:\n        /* \"#utility.yul\":4673:4895   */\n      swap3\n      swap2\n      pop\n      pop\n      jump\t// out\n        /* \"#utility.yul\":4901:5375   */\n    tag_58:\n        /* \"#utility.yul\":4969:4975   */\n      0x00\n        /* \"#utility.yul\":4977:4983   */\n      dup1\n        /* \"#utility.yul\":5026:5028   */\n      0x40\n        /* \"#utility.yul\":5014:5023   */\n      dup4\n        /* \"#utility.yul\":5005:5012   */\n      dup6\n        /* \"#utility.yul\":5001:5024   */\n      sub\n        /* \"#utility.yul\":4997:5029   */\n      slt\n        /* \"#utility.yul\":4994:5113   */\n      iszero\n      tag_512\n      jumpi\n        /* \"#utility.yul\":5032:5111   */\n      tag_513\n      tag_380\n      jump\t// in\n    tag_513:\n        /* \"#utility.yul\":4994:5113   */\n    tag_512:\n        /* \"#utility.yul\":5152:5153   */\n      0x00\n        /* \"#utility.yul\":5177:5230   */\n      tag_514\n        /* \"#utility.yul\":5222:5229   */\n      dup6\n        /* \"#utility.yul\":5213:5219   */\n      dup3\n        /* \"#utility.yul\":5202:5211   */\n      dup7\n        /* \"#utility.yul\":5198:5220   */\n      add\n        /* \"#utility.yul\":5177:5230   */\n      tag_395\n      jump\t// in\n    tag_514:\n        /* \"#utility.yul\":5167:5230   */\n      swap3\n      pop\n        /* \"#utility.yul\":5123:5240   */\n      pop\n        /* \"#utility.yul\":5279:5281   */\n      0x20\n        /* \"#utility.yul\":5305:5358   */\n      tag_515\n        /* \"#utility.yul\":5350:5357   */\n      dup6\n        /* \"#utility.yul\":5341:5347   */\n      dup3\n        /* \"#utility.yul\":5330:5339   */\n      dup7\n        /* \"#utility.yul\":5326:5348   */\n      add\n        /* \"#utility.yul\":5305:5358   */\n      tag_399\n      jump\t// in\n    tag_515:\n        /* \"#utility.yul\":5295:5358   */\n      swap2\n      pop\n        /* \"#utility.yul\":5250:5368   */\n      pop\n        /* \"#utility.yul\":4901:5375   */\n      swap3\n      pop\n      swap3\n      swap1\n      pop\n      jump\t// out\n        /* \"#utility.yul\":5381:5503   */\n    tag_402:\n        /* \"#utility.yul\":5454:5478   */\n      tag_517\n        /* \"#utility.yul\":5472:5477   */\n      dup2\n        /* \"#utility.yul\":5454:5478   */\n      tag_400\n      jump\t// in\n    tag_517:\n        /* \"#utility.yul\":5447:5452   */\n      dup2\n        /* \"#utility.yul\":5444:5479   */\n      eq\n        /* \"#utility.yul\":5434:5497   */\n      tag_518\n      jumpi\n        /* \"#utility.yul\":5493:5494   */\n      0x00\n        /* \"#utility.yul\":5490:5491   */\n      dup1\n        /* \"#utility.yul\":5483:5495   */\n      revert\n        /* \"#utility.yul\":5434:5497   */\n    tag_518:\n        /* \"#utility.yul\":5381:5503   */\n      pop\n      jump\t// out\n        /* \"#utility.yul\":5509:5648   */\n    tag_403:\n        /* \"#utility.yul\":5555:5560   */\n      0x00\n        /* \"#utility.yul\":5593:5599   */\n      dup2\n        /* \"#utility.yul\":5580:5600   */\n      calldataload\n        /* \"#utility.yul\":5571:5600   */\n      swap1\n      pop\n        /* \"#utility.yul\":5609:5642   */\n      tag_520\n        /* \"#utility.yul\":5636:5641   */\n      dup2\n        /* \"#utility.yul\":5609:5642   */\n      tag_402\n      jump\t// in\n    tag_520:\n        /* \"#utility.yul\":5509:5648   */\n      swap3\n      swap2\n      pop\n      pop\n      jump\t// out\n        /* \"#utility.yul\":5654:5983   */\n    tag_70:\n        /* \"#utility.yul\":5713:5719   */\n      0x00\n        /* \"#utility.yul\":5762:5764   */\n      0x20\n        /* \"#utility.yul\":5750:5759   */\n      dup3\n        /* \"#utility.yul\":5741:5748   */\n      dup5\n        /* \"#utility.yul\":5737:5760   */\n      sub\n        /* \"#utility.yul\":5733:5765   */\n      slt\n        /* \"#utility.yul\":5730:5849   */\n      iszero\n      tag_522\n      jumpi\n        /* \"#utility.yul\":5768:5847   */\n      tag_523\n      tag_380\n      jump\t// in\n    tag_523:\n        /* \"#utility.yul\":5730:5849   */\n    tag_522:\n        /* \"#utility.yul\":5888:5889   */\n      0x00\n        /* \"#utility.yul\":5913:5966   */\n      tag_524\n        /* \"#utility.yul\":5958:5965   */\n      dup5\n        /* \"#utility.yul\":5949:5955   */\n      dup3\n        /* \"#utility.yul\":5938:5947   */\n      dup6\n        /* \"#utility.yul\":5934:5956   */\n      add\n        /* \"#utility.yul\":5913:5966   */\n      tag_403\n      jump\t// in\n    tag_524:\n        /* \"#utility.yul\":5903:5966   */\n      swap2\n      pop\n        /* \"#utility.yul\":5859:5976   */\n      pop\n        /* \"#utility.yul\":5654:5983   */\n      swap3\n      swap2\n      pop\n      pop\n      jump\t// out\n        /* \"#utility.yul\":5989:6754   */\n    tag_74:\n        /* \"#utility.yul\":6075:6081   */\n      0x00\n        /* \"#utility.yul\":6083:6089   */\n      dup1\n        /* \"#utility.yul\":6091:6097   */\n      0x00\n        /* \"#utility.yul\":6099:6105   */\n      dup1\n        /* \"#utility.yul\":6148:6151   */\n      0x80\n        /* \"#utility.yul\":6136:6145   */\n      dup6\n        /* \"#utility.yul\":6127:6134   */\n      dup8\n        /* \"#utility.yul\":6123:6146   */\n      sub\n        /* \"#utility.yul\":6119:6152   */\n      slt\n        /* \"#utility.yul\":6116:6236   */\n      iszero\n      tag_526\n      jumpi\n        /* \"#utility.yul\":6155:6234   */\n      tag_527\n      tag_380\n      jump\t// in\n    tag_527:\n        /* \"#utility.yul\":6116:6236   */\n    tag_526:\n        /* \"#utility.yul\":6275:6276   */\n      0x00\n        /* \"#utility.yul\":6300:6353   */\n      tag_528\n        /* \"#utility.yul\":6345:6352   */\n      dup8\n        /* \"#utility.yul\":6336:6342   */\n      dup3\n        /* \"#utility.yul\":6325:6334   */\n      dup9\n        /* \"#utility.yul\":6321:6343   */\n      add\n        /* \"#utility.yul\":6300:6353   */\n      tag_403\n      jump\t// in\n    tag_528:\n        /* \"#utility.yul\":6290:6353   */\n      swap5\n      pop\n        /* \"#utility.yul\":6246:6363   */\n      pop\n        /* \"#utility.yul\":6402:6404   */\n      0x20\n        /* \"#utility.yul\":6428:6481   */\n      tag_529\n        /* \"#utility.yul\":6473:6480   */\n      dup8\n        /* \"#utility.yul\":6464:6470   */\n      dup3\n        /* \"#utility.yul\":6453:6462   */\n      dup9\n        /* \"#utility.yul\":6449:6471   */\n      add\n        /* \"#utility.yul\":6428:6481   */\n      tag_403\n      jump\t// in\n    tag_529:\n        /* \"#utility.yul\":6418:6481   */\n      swap4\n      pop\n        /* \"#utility.yul\":6373:6491   */\n      pop\n        /* \"#utility.yul\":6530:6532   */\n      0x40\n        /* \"#utility.yul\":6556:6609   */\n      tag_530\n        /* \"#utility.yul\":6601:6608   */\n      dup8\n        /* \"#utility.yul\":6592:6598   */\n      dup3\n        /* \"#utility.yul\":6581:6590   */\n      dup9\n        /* \"#utility.yul\":6577:6599   */\n      add\n        /* \"#utility.yul\":6556:6609   */\n      tag_403\n      jump\t// in\n    tag_530:\n        /* \"#utility.yul\":6546:6609   */\n      swap3\n      pop\n        /* \"#utility.yul\":6501:6619   */\n      pop\n        /* \"#utility.yul\":6658:6660   */\n      0x60\n        /* \"#utility.yul\":6684:6737   */\n      tag_531\n        /* \"#utility.yul\":6729:6736   */\n      dup8\n        /* \"#utility.yul\":6720:6726   */\n      dup3\n        /* \"#utility.yul\":6709:6718   */\n      dup9\n        /* \"#utility.yul\":6705:6727   */\n      add\n        /* \"#utility.yul\":6684:6737   */\n      tag_403\n      jump\t// in\n    tag_531:\n        /* \"#utility.yul\":6674:6737   */\n      swap2\n      pop\n        /* \"#utility.yul\":6629:6747   */\n      pop\n        /* \"#utility.yul\":5989:6754   */\n      swap3\n      swap6\n      swap2\n      swap5\n      pop\n      swap3\n      pop\n      jump\t// out\n        /* \"#utility.yul\":6760:6878   */\n    tag_404:\n        /* \"#utility.yul\":6847:6871   */\n      tag_533\n        /* \"#utility.yul\":6865:6870   */\n      dup2\n        /* \"#utility.yul\":6847:6871   */\n      tag_397\n      jump\t// in\n    tag_533:\n        /* \"#utility.yul\":6842:6845   */\n      dup3\n        /* \"#utility.yul\":6835:6872   */\n      mstore\n        /* \"#utility.yul\":6760:6878   */\n      pop\n      pop\n      jump\t// out\n        /* \"#utility.yul\":6884:7647   */\n    tag_80:\n        /* \"#utility.yul\":7111:7115   */\n      0x00\n        /* \"#utility.yul\":7149:7152   */\n      0xc0\n        /* \"#utility.yul\":7138:7147   */\n      dup3\n        /* \"#utility.yul\":7134:7153   */\n      add\n        /* \"#utility.yul\":7126:7153   */\n      swap1\n      pop\n        /* \"#utility.yul\":7163:7234   */\n      tag_535\n        /* \"#utility.yul\":7231:7232   */\n      0x00\n        /* \"#utility.yul\":7220:7229   */\n      dup4\n        /* \"#utility.yul\":7216:7233   */\n      add\n        /* \"#utility.yul\":7207:7213   */\n      dup10\n        /* \"#utility.yul\":7163:7234   */\n      tag_404\n      jump\t// in\n    tag_535:\n        /* \"#utility.yul\":7244:7316   */\n      tag_536\n        /* \"#utility.yul\":7312:7314   */\n      0x20\n        /* \"#utility.yul\":7301:7310   */\n      dup4\n        /* \"#utility.yul\":7297:7315   */\n      add\n        /* \"#utility.yul\":7288:7294   */\n      dup9\n        /* \"#utility.yul\":7244:7316   */\n      tag_401\n      jump\t// in\n    tag_536:\n        /* \"#utility.yul\":7326:7398   */\n      tag_537\n        /* \"#utility.yul\":7394:7396   */\n      0x40\n        /* \"#utility.yul\":7383:7392   */\n      dup4\n        /* \"#utility.yul\":7379:7397   */\n      add\n        /* \"#utility.yul\":7370:7376   */\n      dup8\n        /* \"#utility.yul\":7326:7398   */\n      tag_401\n      jump\t// in\n    tag_537:\n        /* \"#utility.yul\":7408:7480   */\n      tag_538\n        /* \"#utility.yul\":7476:7478   */\n      0x60\n        /* \"#utility.yul\":7465:7474   */\n      dup4\n        /* \"#utility.yul\":7461:7479   */\n      add\n        /* \"#utility.yul\":7452:7458   */\n      dup7\n        /* \"#utility.yul\":7408:7480   */\n      tag_401\n      jump\t// in\n    tag_538:\n        /* \"#utility.yul\":7490:7563   */\n      tag_539\n        /* \"#utility.yul\":7558:7561   */\n      0x80\n        /* \"#utility.yul\":7547:7556   */\n      dup4\n        /* \"#utility.yul\":7543:7562   */\n      add\n        /* \"#utility.yul\":7534:7540   */\n      dup6\n        /* \"#utility.yul\":7490:7563   */\n      tag_401\n      jump\t// in\n    tag_539:\n        /* \"#utility.yul\":7573:7640   */\n      tag_540\n        /* \"#utility.yul\":7635:7638   */\n      0xa0\n        /* \"#utility.yul\":7624:7633   */\n      dup4\n        /* \"#utility.yul\":7620:7639   */\n      add\n        /* \"#utility.yul\":7611:7617   */\n      dup5\n        /* \"#utility.yul\":7573:7640   */\n      tag_386\n      jump\t// in\n    tag_540:\n        /* \"#utility.yul\":6884:7647   */\n      swap8\n      swap7\n      pop\n      pop\n      pop\n      pop\n      pop\n      pop\n      pop\n      jump\t// out\n        /* \"#utility.yul\":7653:8206   */\n    tag_90:\n        /* \"#utility.yul\":7830:7834   */\n      0x00\n        /* \"#utility.yul\":7868:7871   */\n      0x80\n        /* \"#utility.yul\":7857:7866   */\n      dup3\n        /* \"#utility.yul\":7853:7872   */\n      add\n        /* \"#utility.yul\":7845:7872   */\n      swap1\n      pop\n        /* \"#utility.yul\":7882:7953   */\n      tag_542\n        /* \"#utility.yul\":7950:7951   */\n      0x00\n        /* \"#utility.yul\":7939:7948   */\n      dup4\n        /* \"#utility.yul\":7935:7952   */\n      add\n        /* \"#utility.yul\":7926:7932   */\n      dup8\n        /* \"#utility.yul\":7882:7953   */\n      tag_401\n      jump\t// in\n    tag_542:\n        /* \"#utility.yul\":7963:8035   */\n      tag_543\n        /* \"#utility.yul\":8031:8033   */\n      0x20\n        /* \"#utility.yul\":8020:8029   */\n      dup4\n        /* \"#utility.yul\":8016:8034   */\n      add\n        /* \"#utility.yul\":8007:8013   */\n      dup7\n        /* \"#utility.yul\":7963:8035   */\n      tag_401\n      jump\t// in\n    tag_543:\n        /* \"#utility.yul\":8045:8117   */\n      tag_544\n        /* \"#utility.yul\":8113:8115   */\n      0x40\n        /* \"#utility.yul\":8102:8111   */\n      dup4\n        /* \"#utility.yul\":8098:8116   */\n      add\n        /* \"#utility.yul\":8089:8095   */\n      dup6\n        /* \"#utility.yul\":8045:8117   */\n      tag_401\n      jump\t// in\n    tag_544:\n        /* \"#utility.yul\":8127:8199   */\n      tag_545\n        /* \"#utility.yul\":8195:8197   */\n      0x60\n        /* \"#utility.yul\":8184:8193   */\n      dup4\n        /* \"#utility.yul\":8180:8198   */\n      add\n        /* \"#utility.yul\":8171:8177   */\n      dup5\n        /* \"#utility.yul\":8127:8199   */\n      tag_401\n      jump\t// in\n    tag_545:\n        /* \"#utility.yul\":7653:8206   */\n      swap6\n      swap5\n      pop\n      pop\n      pop\n      pop\n      pop\n      jump\t// out\n        /* \"#utility.yul\":8212:8831   */\n    tag_108:\n        /* \"#utility.yul\":8289:8295   */\n      0x00\n        /* \"#utility.yul\":8297:8303   */\n      dup1\n        /* \"#utility.yul\":8305:8311   */\n      0x00\n        /* \"#utility.yul\":8354:8356   */\n      0x60\n        /* \"#utility.yul\":8342:8351   */\n      dup5\n        /* \"#utility.yul\":8333:8340   */\n      dup7\n        /* \"#utility.yul\":8329:8352   */\n      sub\n        /* \"#utility.yul\":8325:8357   */\n      slt\n        /* \"#utility.yul\":8322:8441   */\n      iszero\n      tag_547\n      jumpi\n        /* \"#utility.yul\":8360:8439   */\n      tag_548\n      tag_380\n      jump\t// in\n    tag_548:\n        /* \"#utility.yul\":8322:8441   */\n    tag_547:\n        /* \"#utility.yul\":8480:8481   */\n      0x00\n        /* \"#utility.yul\":8505:8558   */\n      tag_549\n        /* \"#utility.yul\":8550:8557   */\n      dup7\n        /* \"#utility.yul\":8541:8547   */\n      dup3\n        /* \"#utility.yul\":8530:8539   */\n      dup8\n        /* \"#utility.yul\":8526:8548   */\n      add\n        /* \"#utility.yul\":8505:8558   */\n      tag_399\n      jump\t// in\n    tag_549:\n        /* \"#utility.yul\":8495:8558   */\n      swap4\n      pop\n        /* \"#utility.yul\":8451:8568   */\n      pop\n        /* \"#utility.yul\":8607:8609   */\n      0x20\n        /* \"#utility.yul\":8633:8686   */\n      tag_550\n        /* \"#utility.yul\":8678:8685   */\n      dup7\n        /* \"#utility.yul\":8669:8675   */\n      dup3\n        /* \"#utility.yul\":8658:8667   */\n      dup8\n        /* \"#utility.yul\":8654:8676   */\n      add\n        /* \"#utility.yul\":8633:8686   */\n      tag_399\n      jump\t// in\n    tag_550:\n        /* \"#utility.yul\":8623:8686   */\n      swap3\n      pop\n        /* \"#utility.yul\":8578:8696   */\n      pop\n        /* \"#utility.yul\":8735:8737   */\n      0x40\n        /* \"#utility.yul\":8761:8814   */\n      tag_551\n        /* \"#utility.yul\":8806:8813   */\n      dup7\n        /* \"#utility.yul\":8797:8803   */\n      dup3\n        /* \"#utility.yul\":8786:8795   */\n      dup8\n        /* \"#utility.yul\":8782:8804   */\n      add\n        /* \"#utility.yul\":8761:8814   */\n      tag_399\n      jump\t// in\n    tag_551:\n        /* \"#utility.yul\":8751:8814   */\n      swap2\n      pop\n        /* \"#utility.yul\":8706:8824   */\n      pop\n        /* \"#utility.yul\":8212:8831   */\n      swap3\n      pop\n      swap3\n      pop\n      swap3\n      jump\t// out\n        /* \"#utility.yul\":8837:9822   */\n    tag_120:\n        /* \"#utility.yul\":9120:9124   */\n      0x00\n        /* \"#utility.yul\":9158:9161   */\n      0x0100\n        /* \"#utility.yul\":9147:9156   */\n      dup3\n        /* \"#utility.yul\":9143:9162   */\n      add\n        /* \"#utility.yul\":9135:9162   */\n      swap1\n      pop\n        /* \"#utility.yul\":9172:9243   */\n      tag_553\n        /* \"#utility.yul\":9240:9241   */\n      0x00\n        /* \"#utility.yul\":9229:9238   */\n      dup4\n        /* \"#utility.yul\":9225:9242   */\n      add\n        /* \"#utility.yul\":9216:9222   */\n      dup12\n        /* \"#utility.yul\":9172:9243   */\n      tag_404\n      jump\t// in\n    tag_553:\n        /* \"#utility.yul\":9253:9325   */\n      tag_554\n        /* \"#utility.yul\":9321:9323   */\n      0x20\n        /* \"#utility.yul\":9310:9319   */\n      dup4\n        /* \"#utility.yul\":9306:9324   */\n      add\n        /* \"#utility.yul\":9297:9303   */\n      dup11\n        /* \"#utility.yul\":9253:9325   */\n      tag_404\n      jump\t// in\n    tag_554:\n        /* \"#utility.yul\":9335:9407   */\n      tag_555\n        /* \"#utility.yul\":9403:9405   */\n      0x40\n        /* \"#utility.yul\":9392:9401   */\n      dup4\n        /* \"#utility.yul\":9388:9406   */\n      add\n        /* \"#utility.yul\":9379:9385   */\n      dup10\n        /* \"#utility.yul\":9335:9407   */\n      tag_404\n      jump\t// in\n    tag_555:\n        /* \"#utility.yul\":9417:9489   */\n      tag_556\n        /* \"#utility.yul\":9485:9487   */\n      0x60\n        /* \"#utility.yul\":9474:9483   */\n      dup4\n        /* \"#utility.yul\":9470:9488   */\n      add\n        /* \"#utility.yul\":9461:9467   */\n      dup9\n        /* \"#utility.yul\":9417:9489   */\n      tag_401\n      jump\t// in\n    tag_556:\n        /* \"#utility.yul\":9499:9572   */\n      tag_557\n        /* \"#utility.yul\":9567:9570   */\n      0x80\n        /* \"#utility.yul\":9556:9565   */\n      dup4\n        /* \"#utility.yul\":9552:9571   */\n      add\n        /* \"#utility.yul\":9543:9549   */\n      dup8\n        /* \"#utility.yul\":9499:9572   */\n      tag_401\n      jump\t// in\n    tag_557:\n        /* \"#utility.yul\":9582:9655   */\n      tag_558\n        /* \"#utility.yul\":9650:9653   */\n      0xa0\n        /* \"#utility.yul\":9639:9648   */\n      dup4\n        /* \"#utility.yul\":9635:9654   */\n      add\n        /* \"#utility.yul\":9626:9632   */\n      dup7\n        /* \"#utility.yul\":9582:9655   */\n      tag_401\n      jump\t// in\n    tag_558:\n        /* \"#utility.yul\":9665:9738   */\n      tag_559\n        /* \"#utility.yul\":9733:9736   */\n      0xc0\n        /* \"#utility.yul\":9722:9731   */\n      dup4\n        /* \"#utility.yul\":9718:9737   */\n      add\n        /* \"#utility.yul\":9709:9715   */\n      dup6\n        /* \"#utility.yul\":9665:9738   */\n      tag_401\n      jump\t// in\n    tag_559:\n        /* \"#utility.yul\":9748:9815   */\n      tag_560\n        /* \"#utility.yul\":9810:9813   */\n      0xe0\n        /* \"#utility.yul\":9799:9808   */\n      dup4\n        /* \"#utility.yul\":9795:9814   */\n      add\n        /* \"#utility.yul\":9786:9792   */\n      dup5\n        /* \"#utility.yul\":9748:9815   */\n      tag_386\n      jump\t// in\n    tag_560:\n        /* \"#utility.yul\":8837:9822   */\n      swap10\n      swap9\n      pop\n      pop\n      pop\n      pop\n      pop\n      pop\n      pop\n      pop\n      pop\n      jump\t// out\n        /* \"#utility.yul\":9828:10593   */\n    tag_126:\n        /* \"#utility.yul\":9914:9920   */\n      0x00\n        /* \"#utility.yul\":9922:9928   */\n      dup1\n        /* \"#utility.yul\":9930:9936   */\n      0x00\n        /* \"#utility.yul\":9938:9944   */\n      dup1\n        /* \"#utility.yul\":9987:9990   */\n      0x80\n        /* \"#utility.yul\":9975:9984   */\n      dup6\n        /* \"#utility.yul\":9966:9973   */\n      dup8\n        /* \"#utility.yul\":9962:9985   */\n      sub\n        /* \"#utility.yul\":9958:9991   */\n      slt\n        /* \"#utility.yul\":9955:10075   */\n      iszero\n      tag_562\n      jumpi\n        /* \"#utility.yul\":9994:10073   */\n      tag_563\n      tag_380\n      jump\t// in\n    tag_563:\n        /* \"#utility.yul\":9955:10075   */\n    tag_562:\n        /* \"#utility.yul\":10114:10115   */\n      0x00\n        /* \"#utility.yul\":10139:10192   */\n      tag_564\n        /* \"#utility.yul\":10184:10191   */\n      dup8\n        /* \"#utility.yul\":10175:10181   */\n      dup3\n        /* \"#utility.yul\":10164:10173   */\n      dup9\n        /* \"#utility.yul\":10160:10182   */\n      add\n        /* \"#utility.yul\":10139:10192   */\n      tag_399\n      jump\t// in\n    tag_564:\n        /* \"#utility.yul\":10129:10192   */\n      swap5\n      pop\n        /* \"#utility.yul\":10085:10202   */\n      pop\n        /* \"#utility.yul\":10241:10243   */\n      0x20\n        /* \"#utility.yul\":10267:10320   */\n      tag_565\n        /* \"#utility.yul\":10312:10319   */\n      dup8\n        /* \"#utility.yul\":10303:10309   */\n      dup3\n        /* \"#utility.yul\":10292:10301   */\n      dup9\n        /* \"#utility.yul\":10288:10310   */\n      add\n        /* \"#utility.yul\":10267:10320   */\n      tag_399\n      jump\t// in\n    tag_565:\n        /* \"#utility.yul\":10257:10320   */\n      swap4\n      pop\n        /* \"#utility.yul\":10212:10330   */\n      pop\n        /* \"#utility.yul\":10369:10371   */\n      0x40\n        /* \"#utility.yul\":10395:10448   */\n      tag_566\n        /* \"#utility.yul\":10440:10447   */\n      dup8\n        /* \"#utility.yul\":10431:10437   */\n      dup3\n        /* \"#utility.yul\":10420:10429   */\n      dup9\n        /* \"#utility.yul\":10416:10438   */\n      add\n        /* \"#utility.yul\":10395:10448   */\n      tag_403\n      jump\t// in\n    tag_566:\n        /* \"#utility.yul\":10385:10448   */\n      swap3\n      pop\n        /* \"#utility.yul\":10340:10458   */\n      pop\n        /* \"#utility.yul\":10497:10499   */\n      0x60\n        /* \"#utility.yul\":10523:10576   */\n      tag_567\n        /* \"#utility.yul\":10568:10575   */\n      dup8\n        /* \"#utility.yul\":10559:10565   */\n      dup3\n        /* \"#utility.yul\":10548:10557   */\n      dup9\n        /* \"#utility.yul\":10544:10566   */\n      add\n        /* \"#utility.yul\":10523:10576   */\n      tag_403\n      jump\t// in\n    tag_567:\n        /* \"#utility.yul\":10513:10576   */\n      swap2\n      pop\n        /* \"#utility.yul\":10468:10586   */\n      pop\n        /* \"#utility.yul\":9828:10593   */\n      swap3\n      swap6\n      swap2\n      swap5\n      pop\n      swap3\n      pop\n      jump\t// out\n        /* \"#utility.yul\":10599:10768   */\n    tag_405:\n        /* \"#utility.yul\":10683:10694   */\n      0x00\n        /* \"#utility.yul\":10717:10723   */\n      dup3\n        /* \"#utility.yul\":10712:10715   */\n      dup3\n        /* \"#utility.yul\":10705:10724   */\n      mstore\n        /* \"#utility.yul\":10757:10761   */\n      0x20\n        /* \"#utility.yul\":10752:10755   */\n      dup3\n        /* \"#utility.yul\":10748:10762   */\n      add\n        /* \"#utility.yul\":10733:10762   */\n      swap1\n      pop\n        /* \"#utility.yul\":10599:10768   */\n      swap3\n      swap2\n      pop\n      pop\n      jump\t// out\n        /* \"#utility.yul\":10774:10939   */\n    tag_406:\n        /* \"#utility.yul\":10914:10931   */\n      0x4c6f616e206e6f74206163746976650000000000000000000000000000000000\n        /* \"#utility.yul\":10910:10911   */\n      0x00\n        /* \"#utility.yul\":10902:10908   */\n      dup3\n        /* \"#utility.yul\":10898:10912   */\n      add\n        /* \"#utility.yul\":10891:10932   */\n      mstore\n        /* \"#utility.yul\":10774:10939   */\n      pop\n      jump\t// out\n        /* \"#utility.yul\":10945:11311   */\n    tag_407:\n        /* \"#utility.yul\":11087:11090   */\n      0x00\n        /* \"#utility.yul\":11108:11175   */\n      tag_571\n        /* \"#utility.yul\":11172:11174   */\n      0x0f\n        /* \"#utility.yul\":11167:11170   */\n      dup4\n        /* \"#utility.yul\":11108:11175   */\n      tag_405\n      jump\t// in\n    tag_571:\n        /* \"#utility.yul\":11101:11175   */\n      swap2\n      pop\n        /* \"#utility.yul\":11184:11277   */\n      tag_572\n        /* \"#utility.yul\":11273:11276   */\n      dup3\n        /* \"#utility.yul\":11184:11277   */\n      tag_406\n      jump\t// in\n    tag_572:\n        /* \"#utility.yul\":11302:11304   */\n      0x20\n        /* \"#utility.yul\":11297:11300   */\n      dup3\n        /* \"#utility.yul\":11293:11305   */\n      add\n        /* \"#utility.yul\":11286:11305   */\n      swap1\n      pop\n        /* \"#utility.yul\":10945:11311   */\n      swap2\n      swap1\n      pop\n      jump\t// out\n        /* \"#utility.yul\":11317:11736   */\n    tag_165:\n        /* \"#utility.yul\":11483:11487   */\n      0x00\n        /* \"#utility.yul\":11521:11523   */\n      0x20\n        /* \"#utility.yul\":11510:11519   */\n      dup3\n        /* \"#utility.yul\":11506:11524   */\n      add\n        /* \"#utility.yul\":11498:11524   */\n      swap1\n      pop\n        /* \"#utility.yul\":11570:11579   */\n      dup2\n        /* \"#utility.yul\":11564:11568   */\n      dup2\n        /* \"#utility.yul\":11560:11580   */\n      sub\n        /* \"#utility.yul\":11556:11557   */\n      0x00\n        /* \"#utility.yul\":11545:11554   */\n      dup4\n        /* \"#utility.yul\":11541:11558   */\n      add\n        /* \"#utility.yul\":11534:11581   */\n      mstore\n        /* \"#utility.yul\":11598:11729   */\n      tag_574\n        /* \"#utility.yul\":11724:11728   */\n      dup2\n        /* \"#utility.yul\":11598:11729   */\n      tag_407\n      jump\t// in\n    tag_574:\n        /* \"#utility.yul\":11590:11729   */\n      swap1\n      pop\n        /* \"#utility.yul\":11317:11736   */\n      swap2\n      swap1\n      pop\n      jump\t// out\n        /* \"#utility.yul\":11742:11913   */\n    tag_408:\n        /* \"#utility.yul\":11882:11905   */\n      0x4c6f616e206e6f74206c6971756964617461626c650000000000000000000000\n        /* \"#utility.yul\":11878:11879   */\n      0x00\n        /* \"#utility.yul\":11870:11876   */\n      dup3\n        /* \"#utility.yul\":11866:11880   */\n      add\n        /* \"#utility.yul\":11859:11906   */\n      mstore\n        /* \"#utility.yul\":11742:11913   */\n      pop\n      jump\t// out\n        /* \"#utility.yul\":11919:12285   */\n    tag_409:\n        /* \"#utility.yul\":12061:12064   */\n      0x00\n        /* \"#utility.yul\":12082:12149   */\n      tag_577\n        /* \"#utility.yul\":12146:12148   */\n      0x15\n        /* \"#utility.yul\":12141:12144   */\n      dup4\n        /* \"#utility.yul\":12082:12149   */\n      tag_405\n      jump\t// in\n    tag_577:\n        /* \"#utility.yul\":12075:12149   */\n      swap2\n      pop\n        /* \"#utility.yul\":12158:12251   */\n      tag_578\n        /* \"#utility.yul\":12247:12250   */\n      dup3\n        /* \"#utility.yul\":12158:12251   */\n      tag_408\n      jump\t// in\n    tag_578:\n        /* \"#utility.yul\":12276:12278   */\n      0x20\n        /* \"#utility.yul\":12271:12274   */\n      dup3\n        /* \"#utility.yul\":12267:12279   */\n      add\n        /* \"#utility.yul\":12260:12279   */\n      swap1\n      pop\n        /* \"#utility.yul\":11919:12285   */\n      swap2\n      swap1\n      pop\n      jump\t// out\n        /* \"#utility.yul\":12291:12710   */\n    tag_170:\n        /* \"#utility.yul\":12457:12461   */\n      0x00\n        /* \"#utility.yul\":12495:12497   */\n      0x20\n        /* \"#utility.yul\":12484:12493   */\n      dup3\n        /* \"#utility.yul\":12480:12498   */\n      add\n        /* \"#utility.yul\":12472:12498   */\n      swap1\n      pop\n        /* \"#utility.yul\":12544:12553   */\n      dup2\n        /* \"#utility.yul\":12538:12542   */\n      dup2\n        /* \"#utility.yul\":12534:12554   */\n      sub\n        /* \"#utility.yul\":12530:12531   */\n      0x00\n        /* \"#utility.yul\":12519:12528   */\n      dup4\n        /* \"#utility.yul\":12515:12532   */\n      add\n        /* \"#utility.yul\":12508:12555   */\n      mstore\n        /* \"#utility.yul\":12572:12703   */\n      tag_580\n        /* \"#utility.yul\":12698:12702   */\n      dup2\n        /* \"#utility.yul\":12572:12703   */\n      tag_409\n      jump\t// in\n    tag_580:\n        /* \"#utility.yul\":12564:12703   */\n      swap1\n      pop\n        /* \"#utility.yul\":12291:12710   */\n      swap2\n      swap1\n      pop\n      jump\t// out\n        /* \"#utility.yul\":12716:12884   */\n    tag_410:\n        /* \"#utility.yul\":12856:12876   */\n      0x41756374696f6e206e6f74206163746976650000000000000000000000000000\n        /* \"#utility.yul\":12852:12853   */\n      0x00\n        /* \"#utility.yul\":12844:12850   */\n      dup3\n        /* \"#utility.yul\":12840:12854   */\n      add\n        /* \"#utility.yul\":12833:12877   */\n      mstore\n        /* \"#utility.yul\":12716:12884   */\n      pop\n      jump\t// out\n        /* \"#utility.yul\":12890:13256   */\n    tag_411:\n        /* \"#utility.yul\":13032:13035   */\n      0x00\n        /* \"#utility.yul\":13053:13120   */\n      tag_583\n        /* \"#utility.yul\":13117:13119   */\n      0x12\n        /* \"#utility.yul\":13112:13115   */\n      dup4\n        /* \"#utility.yul\":13053:13120   */\n      tag_405\n      jump\t// in\n    tag_583:\n        /* \"#utility.yul\":13046:13120   */\n      swap2\n      pop\n        /* \"#utility.yul\":13129:13222   */\n      tag_584\n        /* \"#utility.yul\":13218:13221   */\n      dup3\n        /* \"#utility.yul\":13129:13222   */\n      tag_410\n      jump\t// in\n    tag_584:\n        /* \"#utility.yul\":13247:13249   */\n      0x20\n        /* \"#utility.yul\":13242:13245   */\n      dup3\n        /* \"#utility.yul\":13238:13250   */\n      add\n        /* \"#utility.yul\":13231:13250   */\n      swap1\n      pop\n        /* \"#utility.yul\":12890:13256   */\n      swap2\n      swap1\n      pop\n      jump\t// out\n        /* \"#utility.yul\":13262:13681   */\n    tag_185:\n        /* \"#utility.yul\":13428:13432   */\n      0x00\n        /* \"#utility.yul\":13466:13468   */\n      0x20\n        /* \"#utility.yul\":13455:13464   */\n      dup3\n        /* \"#utility.yul\":13451:13469   */\n      add\n        /* \"#utility.yul\":13443:13469   */\n      swap1\n      pop\n        /* \"#utility.yul\":13515:13524   */\n      dup2\n        /* \"#utility.yul\":13509:13513   */\n      dup2\n        /* \"#utility.yul\":13505:13525   */\n      sub\n        /* \"#utility.yul\":13501:13502   */\n      0x00\n        /* \"#utility.yul\":13490:13499   */\n      dup4\n        /* \"#utility.yul\":13486:13503   */\n      add\n        /* \"#utility.yul\":13479:13526   */\n      mstore\n        /* \"#utility.yul\":13543:13674   */\n      tag_586\n        /* \"#utility.yul\":13669:13673   */\n      dup2\n        /* \"#utility.yul\":13543:13674   */\n      tag_411\n      jump\t// in\n    tag_586:\n        /* \"#utility.yul\":13535:13674   */\n      swap1\n      pop\n        /* \"#utility.yul\":13262:13681   */\n      swap2\n      swap1\n      pop\n      jump\t// out\n        /* \"#utility.yul\":13687:13867   */\n    tag_412:\n        /* \"#utility.yul\":13735:13812   */\n      0x4e487b7100000000000000000000000000000000000000000000000000000000\n        /* \"#utility.yul\":13732:13733   */\n      0x00\n        /* \"#utility.yul\":13725:13813   */\n      mstore\n        /* \"#utility.yul\":13832:13836   */\n      0x11\n        /* \"#utility.yul\":13829:13830   */\n      0x04\n        /* \"#utility.yul\":13822:13837   */\n      mstore\n        /* \"#utility.yul\":13856:13860   */\n      0x24\n        /* \"#utility.yul\":13853:13854   */\n      0x00\n        /* \"#utility.yul\":13846:13861   */\n      revert\n        /* \"#utility.yul\":13873:14283   */\n    tag_189:\n        /* \"#utility.yul\":13913:13920   */\n      0x00\n        /* \"#utility.yul\":13936:13956   */\n      tag_589\n        /* \"#utility.yul\":13954:13955   */\n      dup3\n        /* \"#utility.yul\":13936:13956   */\n      tag_400\n      jump\t// in\n    tag_589:\n        /* \"#utility.yul\":13931:13956   */\n      swap2\n      pop\n        /* \"#utility.yul\":13970:13990   */\n      tag_590\n        /* \"#utility.yul\":13988:13989   */\n      dup4\n        /* \"#utility.yul\":13970:13990   */\n      tag_400\n      jump\t// in\n    tag_590:\n        /* \"#utility.yul\":13965:13990   */\n      swap3\n      pop\n        /* \"#utility.yul\":14025:14026   */\n      dup3\n        /* \"#utility.yul\":14022:14023   */\n      dup3\n        /* \"#utility.yul\":14018:14027   */\n      mul\n        /* \"#utility.yul\":14047:14077   */\n      tag_591\n        /* \"#utility.yul\":14065:14076   */\n      dup2\n        /* \"#utility.yul\":14047:14077   */\n      tag_400\n      jump\t// in\n    tag_591:\n        /* \"#utility.yul\":14036:14077   */\n      swap2\n      pop\n        /* \"#utility.yul\":14226:14227   */\n      dup3\n        /* \"#utility.yul\":14217:14224   */\n      dup3\n        /* \"#utility.yul\":14213:14228   */\n      div\n        /* \"#utility.yul\":14210:14211   */\n      dup5\n        /* \"#utility.yul\":14207:14229   */\n      eq\n        /* \"#utility.yul\":14187:14188   */\n      dup4\n        /* \"#utility.yul\":14180:14189   */\n      iszero\n        /* \"#utility.yul\":14160:14243   */\n      or\n        /* \"#utility.yul\":14137:14276   */\n      tag_592\n      jumpi\n        /* \"#utility.yul\":14256:14274   */\n      tag_593\n      tag_412\n      jump\t// in\n    tag_593:\n        /* \"#utility.yul\":14137:14276   */\n    tag_592:\n        /* \"#utility.yul\":13921:14283   */\n      pop\n        /* \"#utility.yul\":13873:14283   */\n      swap3\n      swap2\n      pop\n      pop\n      jump\t// out\n        /* \"#utility.yul\":14289:14731   */\n    tag_191:\n        /* \"#utility.yul\":14438:14442   */\n      0x00\n        /* \"#utility.yul\":14476:14478   */\n      0x60\n        /* \"#utility.yul\":14465:14474   */\n      dup3\n        /* \"#utility.yul\":14461:14479   */\n      add\n        /* \"#utility.yul\":14453:14479   */\n      swap1\n      pop\n        /* \"#utility.yul\":14489:14560   */\n      tag_595\n        /* \"#utility.yul\":14557:14558   */\n      0x00\n        /* \"#utility.yul\":14546:14555   */\n      dup4\n        /* \"#utility.yul\":14542:14559   */\n      add\n        /* \"#utility.yul\":14533:14539   */\n      dup7\n        /* \"#utility.yul\":14489:14560   */\n      tag_404\n      jump\t// in\n    tag_595:\n        /* \"#utility.yul\":14570:14642   */\n      tag_596\n        /* \"#utility.yul\":14638:14640   */\n      0x20\n        /* \"#utility.yul\":14627:14636   */\n      dup4\n        /* \"#utility.yul\":14623:14641   */\n      add\n        /* \"#utility.yul\":14614:14620   */\n      dup6\n        /* \"#utility.yul\":14570:14642   */\n      tag_404\n      jump\t// in\n    tag_596:\n        /* \"#utility.yul\":14652:14724   */\n      tag_597\n        /* \"#utility.yul\":14720:14722   */\n      0x40\n        /* \"#utility.yul\":14709:14718   */\n      dup4\n        /* \"#utility.yul\":14705:14723   */\n      add\n        /* \"#utility.yul\":14696:14702   */\n      dup5\n        /* \"#utility.yul\":14652:14724   */\n      tag_401\n      jump\t// in\n    tag_597:\n        /* \"#utility.yul\":14289:14731   */\n      swap5\n      swap4\n      pop\n      pop\n      pop\n      pop\n      jump\t// out\n        /* \"#utility.yul\":14737:14853   */\n    tag_413:\n        /* \"#utility.yul\":14807:14828   */\n      tag_599\n        /* \"#utility.yul\":14822:14827   */\n      dup2\n        /* \"#utility.yul\":14807:14828   */\n      tag_385\n      jump\t// in\n    tag_599:\n        /* \"#utility.yul\":14800:14805   */\n      dup2\n        /* \"#utility.yul\":14797:14829   */\n      eq\n        /* \"#utility.yul\":14787:14847   */\n      tag_600\n      jumpi\n        /* \"#utility.yul\":14843:14844   */\n      0x00\n        /* \"#utility.yul\":14840:14841   */\n      dup1\n        /* \"#utility.yul\":14833:14845   */\n      revert\n        /* \"#utility.yul\":14787:14847   */\n    tag_600:\n        /* \"#utility.yul\":14737:14853   */\n      pop\n      jump\t// out\n        /* \"#utility.yul\":14859:14996   */\n    tag_414:\n        /* \"#utility.yul\":14913:14918   */\n      0x00\n        /* \"#utility.yul\":14944:14950   */\n      dup2\n        /* \"#utility.yul\":14938:14951   */\n      mload\n        /* \"#utility.yul\":14929:14951   */\n      swap1\n      pop\n        /* \"#utility.yul\":14960:14990   */\n      tag_602\n        /* \"#utility.yul\":14984:14989   */\n      dup2\n        /* \"#utility.yul\":14960:14990   */\n      tag_413\n      jump\t// in\n    tag_602:\n        /* \"#utility.yul\":14859:14996   */\n      swap3\n      swap2\n      pop\n      pop\n      jump\t// out\n        /* \"#utility.yul\":15002:15347   */\n    tag_195:\n        /* \"#utility.yul\":15069:15075   */\n      0x00\n        /* \"#utility.yul\":15118:15120   */\n      0x20\n        /* \"#utility.yul\":15106:15115   */\n      dup3\n        /* \"#utility.yul\":15097:15104   */\n      dup5\n        /* \"#utility.yul\":15093:15116   */\n      sub\n        /* \"#utility.yul\":15089:15121   */\n      slt\n        /* \"#utility.yul\":15086:15205   */\n      iszero\n      tag_604\n      jumpi\n        /* \"#utility.yul\":15124:15203   */\n      tag_605\n      tag_380\n      jump\t// in\n    tag_605:\n        /* \"#utility.yul\":15086:15205   */\n    tag_604:\n        /* \"#utility.yul\":15244:15245   */\n      0x00\n        /* \"#utility.yul\":15269:15330   */\n      tag_606\n        /* \"#utility.yul\":15322:15329   */\n      dup5\n        /* \"#utility.yul\":15313:15319   */\n      dup3\n        /* \"#utility.yul\":15302:15311   */\n      dup6\n        /* \"#utility.yul\":15298:15320   */\n      add\n        /* \"#utility.yul\":15269:15330   */\n      tag_414\n      jump\t// in\n    tag_606:\n        /* \"#utility.yul\":15259:15330   */\n      swap2\n      pop\n        /* \"#utility.yul\":15215:15340   */\n      pop\n        /* \"#utility.yul\":15002:15347   */\n      swap3\n      swap2\n      pop\n      pop\n      jump\t// out\n        /* \"#utility.yul\":15353:15685   */\n    tag_197:\n        /* \"#utility.yul\":15474:15478   */\n      0x00\n        /* \"#utility.yul\":15512:15514   */\n      0x40\n        /* \"#utility.yul\":15501:15510   */\n      dup3\n        /* \"#utility.yul\":15497:15515   */\n      add\n        /* \"#utility.yul\":15489:15515   */\n      swap1\n      pop\n        /* \"#utility.yul\":15525:15596   */\n      tag_608\n        /* \"#utility.yul\":15593:15594   */\n      0x00\n        /* \"#utility.yul\":15582:15591   */\n      dup4\n        /* \"#utility.yul\":15578:15595   */\n      add\n        /* \"#utility.yul\":15569:15575   */\n      dup6\n        /* \"#utility.yul\":15525:15596   */\n      tag_404\n      jump\t// in\n    tag_608:\n        /* \"#utility.yul\":15606:15678   */\n      tag_609\n        /* \"#utility.yul\":15674:15676   */\n      0x20\n        /* \"#utility.yul\":15663:15672   */\n      dup4\n        /* \"#utility.yul\":15659:15677   */\n      add\n        /* \"#utility.yul\":15650:15656   */\n      dup5\n        /* \"#utility.yul\":15606:15678   */\n      tag_401\n      jump\t// in\n    tag_609:\n        /* \"#utility.yul\":15353:15685   */\n      swap4\n      swap3\n      pop\n      pop\n      pop\n      jump\t// out\n        /* \"#utility.yul\":15691:15776   */\n    tag_415:\n        /* \"#utility.yul\":15736:15743   */\n      0x00\n        /* \"#utility.yul\":15765:15770   */\n      dup2\n        /* \"#utility.yul\":15754:15770   */\n      swap1\n      pop\n        /* \"#utility.yul\":15691:15776   */\n      swap2\n      swap1\n      pop\n      jump\t// out\n        /* \"#utility.yul\":15782:15883   */\n    tag_416:\n        /* \"#utility.yul\":15818:15825   */\n      0x00\n        /* \"#utility.yul\":15858:15876   */\n      0xffffffffffffffff\n        /* \"#utility.yul\":15851:15856   */\n      dup3\n        /* \"#utility.yul\":15847:15877   */\n      and\n        /* \"#utility.yul\":15836:15877   */\n      swap1\n      pop\n        /* \"#utility.yul\":15782:15883   */\n      swap2\n      swap1\n      pop\n      jump\t// out\n        /* \"#utility.yul\":15889:16045   */\n    tag_417:\n        /* \"#utility.yul\":15946:15955   */\n      0x00\n        /* \"#utility.yul\":15979:16039   */\n      tag_613\n        /* \"#utility.yul\":15996:16038   */\n      tag_614\n        /* \"#utility.yul\":16005:16037   */\n      tag_615\n        /* \"#utility.yul\":16031:16036   */\n      dup5\n        /* \"#utility.yul\":16005:16037   */\n      tag_415\n      jump\t// in\n    tag_615:\n        /* \"#utility.yul\":15996:16038   */\n      tag_388\n      jump\t// in\n    tag_614:\n        /* \"#utility.yul\":15979:16039   */\n      tag_416\n      jump\t// in\n    tag_613:\n        /* \"#utility.yul\":15966:16039   */\n      swap1\n      pop\n        /* \"#utility.yul\":15889:16045   */\n      swap2\n      swap1\n      pop\n      jump\t// out\n        /* \"#utility.yul\":16051:16196   */\n    tag_418:\n        /* \"#utility.yul\":16145:16189   */\n      tag_617\n        /* \"#utility.yul\":16183:16188   */\n      dup2\n        /* \"#utility.yul\":16145:16189   */\n      tag_417\n      jump\t// in\n    tag_617:\n        /* \"#utility.yul\":16140:16143   */\n      dup3\n        /* \"#utility.yul\":16133:16190   */\n      mstore\n        /* \"#utility.yul\":16051:16196   */\n      pop\n      pop\n      jump\t// out\n        /* \"#utility.yul\":16202:16438   */\n    tag_229:\n        /* \"#utility.yul\":16302:16306   */\n      0x00\n        /* \"#utility.yul\":16340:16342   */\n      0x20\n        /* \"#utility.yul\":16329:16338   */\n      dup3\n        /* \"#utility.yul\":16325:16343   */\n      add\n        /* \"#utility.yul\":16317:16343   */\n      swap1\n      pop\n        /* \"#utility.yul\":16353:16431   */\n      tag_619\n        /* \"#utility.yul\":16428:16429   */\n      0x00\n        /* \"#utility.yul\":16417:16426   */\n      dup4\n        /* \"#utility.yul\":16413:16430   */\n      add\n        /* \"#utility.yul\":16404:16410   */\n      dup5\n        /* \"#utility.yul\":16353:16431   */\n      tag_418\n      jump\t// in\n    tag_619:\n        /* \"#utility.yul\":16202:16438   */\n      swap3\n      swap2\n      pop\n      pop\n      jump\t// out\n        /* \"#utility.yul\":16444:16619   */\n    tag_419:\n        /* \"#utility.yul\":16584:16611   */\n      0x496e76616c696420636f6c6c61746572616c20616d6f756e7400000000000000\n        /* \"#utility.yul\":16580:16581   */\n      0x00\n        /* \"#utility.yul\":16572:16578   */\n      dup3\n        /* \"#utility.yul\":16568:16582   */\n      add\n        /* \"#utility.yul\":16561:16612   */\n      mstore\n        /* \"#utility.yul\":16444:16619   */\n      pop\n      jump\t// out\n        /* \"#utility.yul\":16625:16991   */\n    tag_420:\n        /* \"#utility.yul\":16767:16770   */\n      0x00\n        /* \"#utility.yul\":16788:16855   */\n      tag_622\n        /* \"#utility.yul\":16852:16854   */\n      0x19\n        /* \"#utility.yul\":16847:16850   */\n      dup4\n        /* \"#utility.yul\":16788:16855   */\n      tag_405\n      jump\t// in\n    tag_622:\n        /* \"#utility.yul\":16781:16855   */\n      swap2\n      pop\n        /* \"#utility.yul\":16864:16957   */\n      tag_623\n        /* \"#utility.yul\":16953:16956   */\n      dup3\n        /* \"#utility.yul\":16864:16957   */\n      tag_419\n      jump\t// in\n    tag_623:\n        /* \"#utility.yul\":16982:16984   */\n      0x20\n        /* \"#utility.yul\":16977:16980   */\n      dup3\n        /* \"#utility.yul\":16973:16985   */\n      add\n        /* \"#utility.yul\":16966:16985   */\n      swap1\n      pop\n        /* \"#utility.yul\":16625:16991   */\n      swap2\n      swap1\n      pop\n      jump\t// out\n        /* \"#utility.yul\":16997:17416   */\n    tag_242:\n        /* \"#utility.yul\":17163:17167   */\n      0x00\n        /* \"#utility.yul\":17201:17203   */\n      0x20\n        /* \"#utility.yul\":17190:17199   */\n      dup3\n        /* \"#utility.yul\":17186:17204   */\n      add\n        /* \"#utility.yul\":17178:17204   */\n      swap1\n      pop\n        /* \"#utility.yul\":17250:17259   */\n      dup2\n        /* \"#utility.yul\":17244:17248   */\n      dup2\n        /* \"#utility.yul\":17240:17260   */\n      sub\n        /* \"#utility.yul\":17236:17237   */\n      0x00\n        /* \"#utility.yul\":17225:17234   */\n      dup4\n        /* \"#utility.yul\":17221:17238   */\n      add\n        /* \"#utility.yul\":17214:17261   */\n      mstore\n        /* \"#utility.yul\":17278:17409   */\n      tag_625\n        /* \"#utility.yul\":17404:17408   */\n      dup2\n        /* \"#utility.yul\":17278:17409   */\n      tag_420\n      jump\t// in\n    tag_625:\n        /* \"#utility.yul\":17270:17409   */\n      swap1\n      pop\n        /* \"#utility.yul\":16997:17416   */\n      swap2\n      swap1\n      pop\n      jump\t// out\n        /* \"#utility.yul\":17422:17593   */\n    tag_421:\n        /* \"#utility.yul\":17562:17585   */\n      0x496e76616c696420626f72726f7720616d6f756e740000000000000000000000\n        /* \"#utility.yul\":17558:17559   */\n      0x00\n        /* \"#utility.yul\":17550:17556   */\n      dup3\n        /* \"#utility.yul\":17546:17560   */\n      add\n        /* \"#utility.yul\":17539:17586   */\n      mstore\n        /* \"#utility.yul\":17422:17593   */\n      pop\n      jump\t// out\n        /* \"#utility.yul\":17599:17965   */\n    tag_422:\n        /* \"#utility.yul\":17741:17744   */\n      0x00\n        /* \"#utility.yul\":17762:17829   */\n      tag_628\n        /* \"#utility.yul\":17826:17828   */\n      0x15\n        /* \"#utility.yul\":17821:17824   */\n      dup4\n        /* \"#utility.yul\":17762:17829   */\n      tag_405\n      jump\t// in\n    tag_628:\n        /* \"#utility.yul\":17755:17829   */\n      swap2\n      pop\n        /* \"#utility.yul\":17838:17931   */\n      tag_629\n        /* \"#utility.yul\":17927:17930   */\n      dup3\n        /* \"#utility.yul\":17838:17931   */\n      tag_421\n      jump\t// in\n    tag_629:\n        /* \"#utility.yul\":17956:17958   */\n      0x20\n        /* \"#utility.yul\":17951:17954   */\n      dup3\n        /* \"#utility.yul\":17947:17959   */\n      add\n        /* \"#utility.yul\":17940:17959   */\n      swap1\n      pop\n        /* \"#utility.yul\":17599:17965   */\n      swap2\n      swap1\n      pop\n      jump\t// out\n        /* \"#utility.yul\":17971:18390   */\n    tag_245:\n        /* \"#utility.yul\":18137:18141   */\n      0x00\n        /* \"#utility.yul\":18175:18177   */\n      0x20\n        /* \"#utility.yul\":18164:18173   */\n      dup3\n        /* \"#utility.yul\":18160:18178   */\n      add\n        /* \"#utility.yul\":18152:18178   */\n      swap1\n      pop\n        /* \"#utility.yul\":18224:18233   */\n      dup2\n        /* \"#utility.yul\":18218:18222   */\n      dup2\n        /* \"#utility.yul\":18214:18234   */\n      sub\n        /* \"#utility.yul\":18210:18211   */\n      0x00\n        /* \"#utility.yul\":18199:18208   */\n      dup4\n        /* \"#utility.yul\":18195:18212   */\n      add\n        /* \"#utility.yul\":18188:18235   */\n      mstore\n        /* \"#utility.yul\":18252:18383   */\n      tag_631\n        /* \"#utility.yul\":18378:18382   */\n      dup2\n        /* \"#utility.yul\":18252:18383   */\n      tag_422\n      jump\t// in\n    tag_631:\n        /* \"#utility.yul\":18244:18383   */\n      swap1\n      pop\n        /* \"#utility.yul\":17971:18390   */\n      swap2\n      swap1\n      pop\n      jump\t// out\n        /* \"#utility.yul\":18396:18564   */\n    tag_423:\n        /* \"#utility.yul\":18536:18556   */\n      0x496e76616c696420707269636520666565640000000000000000000000000000\n        /* \"#utility.yul\":18532:18533   */\n      0x00\n        /* \"#utility.yul\":18524:18530   */\n      dup3\n        /* \"#utility.yul\":18520:18534   */\n      add\n        /* \"#utility.yul\":18513:18557   */\n      mstore\n        /* \"#utility.yul\":18396:18564   */\n      pop\n      jump\t// out\n        /* \"#utility.yul\":18570:18936   */\n    tag_424:\n        /* \"#utility.yul\":18712:18715   */\n      0x00\n        /* \"#utility.yul\":18733:18800   */\n      tag_634\n        /* \"#utility.yul\":18797:18799   */\n      0x12\n        /* \"#utility.yul\":18792:18795   */\n      dup4\n        /* \"#utility.yul\":18733:18800   */\n      tag_405\n      jump\t// in\n    tag_634:\n        /* \"#utility.yul\":18726:18800   */\n      swap2\n      pop\n        /* \"#utility.yul\":18809:18902   */\n      tag_635\n        /* \"#utility.yul\":18898:18901   */\n      dup3\n        /* \"#utility.yul\":18809:18902   */\n      tag_423\n      jump\t// in\n    tag_635:\n        /* \"#utility.yul\":18927:18929   */\n      0x20\n        /* \"#utility.yul\":18922:18925   */\n      dup3\n        /* \"#utility.yul\":18918:18930   */\n      add\n        /* \"#utility.yul\":18911:18930   */\n      swap1\n      pop\n        /* \"#utility.yul\":18570:18936   */\n      swap2\n      swap1\n      pop\n      jump\t// out\n        /* \"#utility.yul\":18942:19361   */\n    tag_248:\n        /* \"#utility.yul\":19108:19112   */\n      0x00\n        /* \"#utility.yul\":19146:19148   */\n      0x20\n        /* \"#utility.yul\":19135:19144   */\n      dup3\n        /* \"#utility.yul\":19131:19149   */\n      add\n        /* \"#utility.yul\":19123:19149   */\n      swap1\n      pop\n        /* \"#utility.yul\":19195:19204   */\n      dup2\n        /* \"#utility.yul\":19189:19193   */\n      dup2\n        /* \"#utility.yul\":19185:19205   */\n      sub\n        /* \"#utility.yul\":19181:19182   */\n      0x00\n        /* \"#utility.yul\":19170:19179   */\n      dup4\n        /* \"#utility.yul\":19166:19183   */\n      add\n        /* \"#utility.yul\":19159:19206   */\n      mstore\n        /* \"#utility.yul\":19223:19354   */\n      tag_637\n        /* \"#utility.yul\":19349:19353   */\n      dup2\n        /* \"#utility.yul\":19223:19354   */\n      tag_424\n      jump\t// in\n    tag_637:\n        /* \"#utility.yul\":19215:19354   */\n      swap1\n      pop\n        /* \"#utility.yul\":18942:19361   */\n      swap2\n      swap1\n      pop\n      jump\t// out\n        /* \"#utility.yul\":19367:19547   */\n    tag_425:\n        /* \"#utility.yul\":19415:19492   */\n      0x4e487b7100000000000000000000000000000000000000000000000000000000\n        /* \"#utility.yul\":19412:19413   */\n      0x00\n        /* \"#utility.yul\":19405:19493   */\n      mstore\n        /* \"#utility.yul\":19512:19516   */\n      0x12\n        /* \"#utility.yul\":19509:19510   */\n      0x04\n        /* \"#utility.yul\":19502:19517   */\n      mstore\n        /* \"#utility.yul\":19536:19540   */\n      0x24\n        /* \"#utility.yul\":19533:19534   */\n      0x00\n        /* \"#utility.yul\":19526:19541   */\n      revert\n        /* \"#utility.yul\":19553:19738   */\n    tag_257:\n        /* \"#utility.yul\":19593:19594   */\n      0x00\n        /* \"#utility.yul\":19610:19630   */\n      tag_640\n        /* \"#utility.yul\":19628:19629   */\n      dup3\n        /* \"#utility.yul\":19610:19630   */\n      tag_400\n      jump\t// in\n    tag_640:\n        /* \"#utility.yul\":19605:19630   */\n      swap2\n      pop\n        /* \"#utility.yul\":19644:19664   */\n      tag_641\n        /* \"#utility.yul\":19662:19663   */\n      dup4\n        /* \"#utility.yul\":19644:19664   */\n      tag_400\n      jump\t// in\n    tag_641:\n        /* \"#utility.yul\":19639:19664   */\n      swap3\n      pop\n        /* \"#utility.yul\":19683:19684   */\n      dup3\n        /* \"#utility.yul\":19673:19708   */\n      tag_642\n      jumpi\n        /* \"#utility.yul\":19688:19706   */\n      tag_643\n      tag_425\n      jump\t// in\n    tag_643:\n        /* \"#utility.yul\":19673:19708   */\n    tag_642:\n        /* \"#utility.yul\":19730:19731   */\n      dup3\n        /* \"#utility.yul\":19727:19728   */\n      dup3\n        /* \"#utility.yul\":19723:19732   */\n      div\n        /* \"#utility.yul\":19718:19732   */\n      swap1\n      pop\n        /* \"#utility.yul\":19553:19738   */\n      swap3\n      swap2\n      pop\n      pop\n      jump\t// out\n        /* \"#utility.yul\":19744:19969   */\n    tag_426:\n        /* \"#utility.yul\":19884:19918   */\n      0x426f72726f7720616d6f756e74206578636565647320636f6c6c61746572616c\n        /* \"#utility.yul\":19880:19881   */\n      0x00\n        /* \"#utility.yul\":19872:19878   */\n      dup3\n        /* \"#utility.yul\":19868:19882   */\n      add\n        /* \"#utility.yul\":19861:19919   */\n      mstore\n        /* \"#utility.yul\":19953:19961   */\n      0x2076616c75650000000000000000000000000000000000000000000000000000\n        /* \"#utility.yul\":19948:19950   */\n      0x20\n        /* \"#utility.yul\":19940:19946   */\n      dup3\n        /* \"#utility.yul\":19936:19951   */\n      add\n        /* \"#utility.yul\":19929:19962   */\n      mstore\n        /* \"#utility.yul\":19744:19969   */\n      pop\n      jump\t// out\n        /* \"#utility.yul\":19975:20341   */\n    tag_427:\n        /* \"#utility.yul\":20117:20120   */\n      0x00\n        /* \"#utility.yul\":20138:20205   */\n      tag_646\n        /* \"#utility.yul\":20202:20204   */\n      0x26\n        /* \"#utility.yul\":20197:20200   */\n      dup4\n        /* \"#utility.yul\":20138:20205   */\n      tag_405\n      jump\t// in\n    tag_646:\n        /* \"#utility.yul\":20131:20205   */\n      swap2\n      pop\n        /* \"#utility.yul\":20214:20307   */\n      tag_647\n        /* \"#utility.yul\":20303:20306   */\n      dup3\n        /* \"#utility.yul\":20214:20307   */\n      tag_426\n      jump\t// in\n    tag_647:\n        /* \"#utility.yul\":20332:20334   */\n      0x40\n        /* \"#utility.yul\":20327:20330   */\n      dup3\n        /* \"#utility.yul\":20323:20335   */\n      add\n        /* \"#utility.yul\":20316:20335   */\n      swap1\n      pop\n        /* \"#utility.yul\":19975:20341   */\n      swap2\n      swap1\n      pop\n      jump\t// out\n        /* \"#utility.yul\":20347:20766   */\n    tag_260:\n        /* \"#utility.yul\":20513:20517   */\n      0x00\n        /* \"#utility.yul\":20551:20553   */\n      0x20\n        /* \"#utility.yul\":20540:20549   */\n      dup3\n        /* \"#utility.yul\":20536:20554   */\n      add\n        /* \"#utility.yul\":20528:20554   */\n      swap1\n      pop\n        /* \"#utility.yul\":20600:20609   */\n      dup2\n        /* \"#utility.yul\":20594:20598   */\n      dup2\n        /* \"#utility.yul\":20590:20610   */\n      sub\n        /* \"#utility.yul\":20586:20587   */\n      0x00\n        /* \"#utility.yul\":20575:20584   */\n      dup4\n        /* \"#utility.yul\":20571:20588   */\n      add\n        /* \"#utility.yul\":20564:20611   */\n      mstore\n        /* \"#utility.yul\":20628:20759   */\n      tag_649\n        /* \"#utility.yul\":20754:20758   */\n      dup2\n        /* \"#utility.yul\":20628:20759   */\n      tag_427\n      jump\t// in\n    tag_649:\n        /* \"#utility.yul\":20620:20759   */\n      swap1\n      pop\n        /* \"#utility.yul\":20347:20766   */\n      swap2\n      swap1\n      pop\n      jump\t// out\n        /* \"#utility.yul\":20772:21005   */\n    tag_262:\n        /* \"#utility.yul\":20811:20814   */\n      0x00\n        /* \"#utility.yul\":20834:20858   */\n      tag_651\n        /* \"#utility.yul\":20852:20857   */\n      dup3\n        /* \"#utility.yul\":20834:20858   */\n      tag_400\n      jump\t// in\n    tag_651:\n        /* \"#utility.yul\":20825:20858   */\n      swap2\n      pop\n        /* \"#utility.yul\":20880:20946   */\n      0xffffffffffffffffffffffffffffffffffffffffffffffffffffffffffffffff\n        /* \"#utility.yul\":20873:20878   */\n      dup3\n        /* \"#utility.yul\":20870:20947   */\n      sub\n        /* \"#utility.yul\":20867:20970   */\n      tag_652\n      jumpi\n        /* \"#utility.yul\":20950:20968   */\n      tag_653\n      tag_412\n      jump\t// in\n    tag_653:\n        /* \"#utility.yul\":20867:20970   */\n    tag_652:\n        /* \"#utility.yul\":20997:20998   */\n      0x01\n        /* \"#utility.yul\":20990:20995   */\n      dup3\n        /* \"#utility.yul\":20986:20999   */\n      add\n        /* \"#utility.yul\":20979:20999   */\n      swap1\n      pop\n        /* \"#utility.yul\":20772:21005   */\n      swap2\n      swap1\n      pop\n      jump\t// out\n        /* \"#utility.yul\":21011:21453   */\n    tag_268:\n        /* \"#utility.yul\":21160:21164   */\n      0x00\n        /* \"#utility.yul\":21198:21200   */\n      0x60\n        /* \"#utility.yul\":21187:21196   */\n      dup3\n        /* \"#utility.yul\":21183:21201   */\n      add\n        /* \"#utility.yul\":21175:21201   */\n      swap1\n      pop\n        /* \"#utility.yul\":21211:21282   */\n      tag_655\n        /* \"#utility.yul\":21279:21280   */\n      0x00\n        /* \"#utility.yul\":21268:21277   */\n      dup4\n        /* \"#utility.yul\":21264:21281   */\n      add\n        /* \"#utility.yul\":21255:21261   */\n      dup7\n        /* \"#utility.yul\":21211:21282   */\n      tag_404\n      jump\t// in\n    tag_655:\n        /* \"#utility.yul\":21292:21364   */\n      tag_656\n        /* \"#utility.yul\":21360:21362   */\n      0x20\n        /* \"#utility.yul\":21349:21358   */\n      dup4\n        /* \"#utility.yul\":21345:21363   */\n      add\n        /* \"#utility.yul\":21336:21342   */\n      dup6\n        /* \"#utility.yul\":21292:21364   */\n      tag_401\n      jump\t// in\n    tag_656:\n        /* \"#utility.yul\":21374:21446   */\n      tag_657\n        /* \"#utility.yul\":21442:21444   */\n      0x40\n        /* \"#utility.yul\":21431:21440   */\n      dup4\n        /* \"#utility.yul\":21427:21445   */\n      add\n        /* \"#utility.yul\":21418:21424   */\n      dup5\n        /* \"#utility.yul\":21374:21446   */\n      tag_401\n      jump\t// in\n    tag_657:\n        /* \"#utility.yul\":21011:21453   */\n      swap5\n      swap4\n      pop\n      pop\n      pop\n      pop\n      jump\t// out\n        /* \"#utility.yul\":21459:21681   */\n    tag_295:\n        /* \"#utility.yul\":21552:21556   */\n      0x00\n        /* \"#utility.yul\":21590:21592   */\n      0x20\n        /* \"#utility.yul\":21579:21588   */\n      dup3\n        /* \"#utility.yul\":21575:21593   */\n      add\n        /* \"#utility.yul\":21567:21593   */\n      swap1\n      pop\n        /* \"#utility.yul\":21603:21674   */\n      tag_659\n        /* \"#utility.yul\":21671:21672   */\n      0x00\n        /* \"#utility.yul\":21660:21669   */\n      dup4\n        /* \"#utility.yul\":21656:21673   */\n      add\n        /* \"#utility.yul\":21647:21653   */\n      dup5\n        /* \"#utility.yul\":21603:21674   */\n      tag_404\n      jump\t// in\n    tag_659:\n        /* \"#utility.yul\":21459:21681   */\n      swap3\n      swap2\n      pop\n      pop\n      jump\t// out\n        /* \"#utility.yul\":21687:21853   */\n    tag_428:\n        /* \"#utility.yul\":21827:21845   */\n      0x5061757361626c653a2070617573656400000000000000000000000000000000\n        /* \"#utility.yul\":21823:21824   */\n      0x00\n        /* \"#utility.yul\":21815:21821   */\n      dup3\n        /* \"#utility.yul\":21811:21825   */\n      add\n        /* \"#utility.yul\":21804:21846   */\n      mstore\n        /* \"#utility.yul\":21687:21853   */\n      pop\n      jump\t// out\n        /* \"#utility.yul\":21859:22225   */\n    tag_429:\n        /* \"#utility.yul\":22001:22004   */\n      0x00\n        /* \"#utility.yul\":22022:22089   */\n      tag_662\n        /* \"#utility.yul\":22086:22088   */\n      0x10\n        /* \"#utility.yul\":22081:22084   */\n      dup4\n        /* \"#utility.yul\":22022:22089   */\n      tag_405\n      jump\t// in\n    tag_662:\n        /* \"#utility.yul\":22015:22089   */\n      swap2\n      pop\n        /* \"#utility.yul\":22098:22191   */\n      tag_663\n        /* \"#utility.yul\":22187:22190   */\n      dup3\n        /* \"#utility.yul\":22098:22191   */\n      tag_428\n      jump\t// in\n    tag_663:\n        /* \"#utility.yul\":22216:22218   */\n      0x20\n        /* \"#utility.yul\":22211:22214   */\n      dup3\n        /* \"#utility.yul\":22207:22219   */\n      add\n        /* \"#utility.yul\":22200:22219   */\n      swap1\n      pop\n        /* \"#utility.yul\":21859:22225   */\n      swap2\n      swap1\n      pop\n      jump\t// out\n        /* \"#utility.yul\":22231:22650   */\n    tag_300:\n        /* \"#utility.yul\":22397:22401   */\n      0x00\n        /* \"#utility.yul\":22435:22437   */\n      0x20\n        /* \"#utility.yul\":22424:22433   */\n      dup3\n        /* \"#utility.yul\":22420:22438   */\n      add\n        /* \"#utility.yul\":22412:22438   */\n      swap1\n      pop\n        /* \"#utility.yul\":22484:22493   */\n      dup2\n        /* \"#utility.yul\":22478:22482   */\n      dup2\n        /* \"#utility.yul\":22474:22494   */\n      sub\n        /* \"#utility.yul\":22470:22471   */\n      0x00\n        /* \"#utility.yul\":22459:22468   */\n      dup4\n        /* \"#utility.yul\":22455:22472   */\n      add\n        /* \"#utility.yul\":22448:22495   */\n      mstore\n        /* \"#utility.yul\":22512:22643   */\n      tag_665\n        /* \"#utility.yul\":22638:22642   */\n      dup2\n        /* \"#utility.yul\":22512:22643   */\n      tag_429\n      jump\t// in\n    tag_665:\n        /* \"#utility.yul\":22504:22643   */\n      swap1\n      pop\n        /* \"#utility.yul\":22231:22650   */\n      swap2\n      swap1\n      pop\n      jump\t// out\n        /* \"#utility.yul\":22656:22837   */\n    tag_430:\n        /* \"#utility.yul\":22796:22829   */\n      0x5265656e7472616e637947756172643a207265656e7472616e742063616c6c00\n        /* \"#utility.yul\":22792:22793   */\n      0x00\n        /* \"#utility.yul\":22784:22790   */\n      dup3\n        /* \"#utility.yul\":22780:22794   */\n      add\n        /* \"#utility.yul\":22773:22830   */\n      mstore\n        /* \"#utility.yul\":22656:22837   */\n      pop\n      jump\t// out\n        /* \"#utility.yul\":22843:23209   */\n    tag_431:\n        /* \"#utility.yul\":22985:22988   */\n      0x00\n        /* \"#utility.yul\":23006:23073   */\n      tag_668\n        /* \"#utility.yul\":23070:23072   */\n      0x1f\n        /* \"#utility.yul\":23065:23068   */\n      dup4\n        /* \"#utility.yul\":23006:23073   */\n      tag_405\n      jump\t// in\n    tag_668:\n        /* \"#utility.yul\":22999:23073   */\n      swap2\n      pop\n        /* \"#utility.yul\":23082:23175   */\n      tag_669\n        /* \"#utility.yul\":23171:23174   */\n      dup3\n        /* \"#utility.yul\":23082:23175   */\n      tag_430\n      jump\t// in\n    tag_669:\n        /* \"#utility.yul\":23200:23202   */\n      0x20\n        /* \"#utility.yul\":23195:23198   */\n      dup3\n        /* \"#utility.yul\":23191:23203   */\n      add\n        /* \"#utility.yul\":23184:23203   */\n      swap1\n      pop\n        /* \"#utility.yul\":22843:23209   */\n      swap2\n      swap1\n      pop\n      jump\t// out\n        /* \"#utility.yul\":23215:23634   */\n    tag_304:\n        /* \"#utility.yul\":23381:23385   */\n      0x00\n        /* \"#utility.yul\":23419:23421   */\n      0x20\n        /* \"#utility.yul\":23408:23417   */\n      dup3\n        /* \"#utility.yul\":23404:23422   */\n      add\n        /* \"#utility.yul\":23396:23422   */\n      swap1\n      pop\n        /* \"#utility.yul\":23468:23477   */\n      dup2\n        /* \"#utility.yul\":23462:23466   */\n      dup2\n        /* \"#utility.yul\":23458:23478   */\n      sub\n        /* \"#utility.yul\":23454:23455   */\n      0x00\n        /* \"#utility.yul\":23443:23452   */\n      dup4\n        /* \"#utility.yul\":23439:23456   */\n      add\n        /* \"#utility.yul\":23432:23479   */\n      mstore\n        /* \"#utility.yul\":23496:23627   */\n      tag_671\n        /* \"#utility.yul\":23622:23626   */\n      dup2\n        /* \"#utility.yul\":23496:23627   */\n      tag_431\n      jump\t// in\n    tag_671:\n        /* \"#utility.yul\":23488:23627   */\n      swap1\n      pop\n        /* \"#utility.yul\":23215:23634   */\n      swap2\n      swap1\n      pop\n      jump\t// out\n        /* \"#utility.yul\":23640:23834   */\n    tag_313:\n        /* \"#utility.yul\":23680:23684   */\n      0x00\n        /* \"#utility.yul\":23700:23720   */\n      tag_673\n        /* \"#utility.yul\":23718:23719   */\n      dup3\n        /* \"#utility.yul\":23700:23720   */\n      tag_400\n      jump\t// in\n    tag_673:\n        /* \"#utility.yul\":23695:23720   */\n      swap2\n      pop\n        /* \"#utility.yul\":23734:23754   */\n      tag_674\n        /* \"#utility.yul\":23752:23753   */\n      dup4\n        /* \"#utility.yul\":23734:23754   */\n      tag_400\n      jump\t// in\n    tag_674:\n        /* \"#utility.yul\":23729:23754   */\n      swap3\n      pop\n        /* \"#utility.yul\":23778:23779   */\n      dup3\n        /* \"#utility.yul\":23775:23776   */\n      dup3\n        /* \"#utility.yul\":23771:23780   */\n      sub\n        /* \"#utility.yul\":23763:23780   */\n      swap1\n      pop\n        /* \"#utility.yul\":23802:23803   */\n      dup2\n        /* \"#utility.yul\":23796:23800   */\n      dup2\n        /* \"#utility.yul\":23793:23804   */\n      gt\n        /* \"#utility.yul\":23790:23827   */\n      iszero\n      tag_675\n      jumpi\n        /* \"#utility.yul\":23807:23825   */\n      tag_676\n      tag_412\n      jump\t// in\n    tag_676:\n        /* \"#utility.yul\":23790:23827   */\n    tag_675:\n        /* \"#utility.yul\":23640:23834   */\n      swap3\n      swap2\n      pop\n      pop\n      jump\t// out\n        /* \"#utility.yul\":23840:23945   */\n    tag_432:\n        /* \"#utility.yul\":23876:23883   */\n      0x00\n        /* \"#utility.yul\":23916:23938   */\n      0xffffffffffffffffffff\n        /* \"#utility.yul\":23909:23914   */\n      dup3\n        /* \"#utility.yul\":23905:23939   */\n      and\n        /* \"#utility.yul\":23894:23939   */\n      swap1\n      pop\n        /* \"#utility.yul\":23840:23945   */\n      swap2\n      swap1\n      pop\n      jump\t// out\n        /* \"#utility.yul\":23951:24071   */\n    tag_433:\n        /* \"#utility.yul\":24023:24046   */\n      tag_679\n        /* \"#utility.yul\":24040:24045   */\n      dup2\n        /* \"#utility.yul\":24023:24046   */\n      tag_432\n      jump\t// in\n    tag_679:\n        /* \"#utility.yul\":24016:24021   */\n      dup2\n        /* \"#utility.yul\":24013:24047   */\n      eq\n        /* \"#utility.yul\":24003:24065   */\n      tag_680\n      jumpi\n        /* \"#utility.yul\":24061:24062   */\n      0x00\n        /* \"#utility.yul\":24058:24059   */\n      dup1\n        /* \"#utility.yul\":24051:24063   */\n      revert\n        /* \"#utility.yul\":24003:24065   */\n    tag_680:\n        /* \"#utility.yul\":23951:24071   */\n      pop\n      jump\t// out\n        /* \"#utility.yul\":24077:24218   */\n    tag_434:\n        /* \"#utility.yul\":24133:24138   */\n      0x00\n        /* \"#utility.yul\":24164:24170   */\n      dup2\n        /* \"#utility.yul\":24158:24171   */\n      mload\n        /* \"#utility.yul\":24149:24171   */\n      swap1\n      pop\n        /* \"#utility.yul\":24180:24212   */\n      tag_682\n        /* \"#utility.yul\":24206:24211   */\n      dup2\n        /* \"#utility.yul\":24180:24212   */\n      tag_433\n      jump\t// in\n    tag_682:\n        /* \"#utility.yul\":24077:24218   */\n      swap3\n      swap2\n      pop\n      pop\n      jump\t// out\n        /* \"#utility.yul\":24224:24300   */\n    tag_435:\n        /* \"#utility.yul\":24260:24267   */\n      0x00\n        /* \"#utility.yul\":24289:24294   */\n      dup2\n        /* \"#utility.yul\":24278:24294   */\n      swap1\n      pop\n        /* \"#utility.yul\":24224:24300   */\n      swap2\n      swap1\n      pop\n      jump\t// out\n        /* \"#utility.yul\":24306:24426   */\n    tag_436:\n        /* \"#utility.yul\":24378:24401   */\n      tag_685\n        /* \"#utility.yul\":24395:24400   */\n      dup2\n        /* \"#utility.yul\":24378:24401   */\n      tag_435\n      jump\t// in\n    tag_685:\n        /* \"#utility.yul\":24371:24376   */\n      dup2\n        /* \"#utility.yul\":24368:24402   */\n      eq\n        /* \"#utility.yul\":24358:24420   */\n      tag_686\n      jumpi\n        /* \"#utility.yul\":24416:24417   */\n      0x00\n        /* \"#utility.yul\":24413:24414   */\n      dup1\n        /* \"#utility.yul\":24406:24418   */\n      revert\n        /* \"#utility.yul\":24358:24420   */\n    tag_686:\n        /* \"#utility.yul\":24306:24426   */\n      pop\n      jump\t// out\n        /* \"#utility.yul\":24432:24573   */\n    tag_437:\n        /* \"#utility.yul\":24488:24493   */\n      0x00\n        /* \"#utility.yul\":24519:24525   */\n      dup2\n        /* \"#utility.yul\":24513:24526   */\n      mload\n        /* \"#utility.yul\":24504:24526   */\n      swap1\n      pop\n        /* \"#utility.yul\":24535:24567   */\n      tag_688\n        /* \"#utility.yul\":24561:24566   */\n      dup2\n        /* \"#utility.yul\":24535:24567   */\n      tag_436\n      jump\t// in\n    tag_688:\n        /* \"#utility.yul\":24432:24573   */\n      swap3\n      swap2\n      pop\n      pop\n      jump\t// out\n        /* \"#utility.yul\":24579:24722   */\n    tag_438:\n        /* \"#utility.yul\":24636:24641   */\n      0x00\n        /* \"#utility.yul\":24667:24673   */\n      dup2\n        /* \"#utility.yul\":24661:24674   */\n      mload\n        /* \"#utility.yul\":24652:24674   */\n      swap1\n      pop\n        /* \"#utility.yul\":24683:24716   */\n      tag_690\n        /* \"#utility.yul\":24710:24715   */\n      dup2\n        /* \"#utility.yul\":24683:24716   */\n      tag_402\n      jump\t// in\n    tag_690:\n        /* \"#utility.yul\":24579:24722   */\n      swap3\n      swap2\n      pop\n      pop\n      jump\t// out\n        /* \"#utility.yul\":24728:25699   */\n    tag_348:\n        /* \"#utility.yul\":24831:24837   */\n      0x00\n        /* \"#utility.yul\":24839:24845   */\n      dup1\n        /* \"#utility.yul\":24847:24853   */\n      0x00\n        /* \"#utility.yul\":24855:24861   */\n      dup1\n        /* \"#utility.yul\":24863:24869   */\n      0x00\n        /* \"#utility.yul\":24912:24915   */\n      0xa0\n        /* \"#utility.yul\":24900:24909   */\n      dup7\n        /* \"#utility.yul\":24891:24898   */\n      dup9\n        /* \"#utility.yul\":24887:24910   */\n      sub\n        /* \"#utility.yul\":24883:24916   */\n      slt\n        /* \"#utility.yul\":24880:25000   */\n      iszero\n      tag_692\n      jumpi\n        /* \"#utility.yul\":24919:24998   */\n      tag_693\n      tag_380\n      jump\t// in\n    tag_693:\n        /* \"#utility.yul\":24880:25000   */\n    tag_692:\n        /* \"#utility.yul\":25039:25040   */\n      0x00\n        /* \"#utility.yul\":25064:25127   */\n      tag_694\n        /* \"#utility.yul\":25119:25126   */\n      dup9\n        /* \"#utility.yul\":25110:25116   */\n      dup3\n        /* \"#utility.yul\":25099:25108   */\n      dup10\n        /* \"#utility.yul\":25095:25117   */\n      add\n        /* \"#utility.yul\":25064:25127   */\n      tag_434\n      jump\t// in\n    tag_694:\n        /* \"#utility.yul\":25054:25127   */\n      swap6\n      pop\n        /* \"#utility.yul\":25010:25137   */\n      pop\n        /* \"#utility.yul\":25176:25178   */\n      0x20\n        /* \"#utility.yul\":25202:25265   */\n      tag_695\n        /* \"#utility.yul\":25257:25264   */\n      dup9\n        /* \"#utility.yul\":25248:25254   */\n      dup3\n        /* \"#utility.yul\":25237:25246   */\n      dup10\n        /* \"#utility.yul\":25233:25255   */\n      add\n        /* \"#utility.yul\":25202:25265   */\n      tag_437\n      jump\t// in\n    tag_695:\n        /* \"#utility.yul\":25192:25265   */\n      swap5\n      pop\n        /* \"#utility.yul\":25147:25275   */\n      pop\n        /* \"#utility.yul\":25314:25316   */\n      0x40\n        /* \"#utility.yul\":25340:25404   */\n      tag_696\n        /* \"#utility.yul\":25396:25403   */\n      dup9\n        /* \"#utility.yul\":25387:25393   */\n      dup3\n        /* \"#utility.yul\":25376:25385   */\n      dup10\n        /* \"#utility.yul\":25372:25394   */\n      add\n        /* \"#utility.yul\":25340:25404   */\n      tag_438\n      jump\t// in\n    tag_696:\n        /* \"#utility.yul\":25330:25404   */\n      swap4\n      pop\n        /* \"#utility.yul\":25285:25414   */\n      pop\n        /* \"#utility.yul\":25453:25455   */\n      0x60\n        /* \"#utility.yul\":25479:25543   */\n      tag_697\n        /* \"#utility.yul\":25535:25542   */\n      dup9\n        /* \"#utility.yul\":25526:25532   */\n      dup3\n        /* \"#utility.yul\":25515:25524   */\n      dup10\n        /* \"#utility.yul\":25511:25533   */\n      add\n        /* \"#utility.yul\":25479:25543   */\n      tag_438\n      jump\t// in\n    tag_697:\n        /* \"#utility.yul\":25469:25543   */\n      swap3\n      pop\n        /* \"#utility.yul\":25424:25553   */\n      pop\n        /* \"#utility.yul\":25592:25595   */\n      0x80\n        /* \"#utility.yul\":25619:25682   */\n      tag_698\n        /* \"#utility.yul\":25674:25681   */\n      dup9\n        /* \"#utility.yul\":25665:25671   */\n      dup3\n        /* \"#utility.yul\":25654:25663   */\n      dup10\n        /* \"#utility.yul\":25650:25672   */\n      add\n        /* \"#utility.yul\":25619:25682   */\n      tag_434\n      jump\t// in\n    tag_698:\n        /* \"#utility.yul\":25609:25682   */\n      swap2\n      pop\n        /* \"#utility.yul\":25563:25692   */\n      pop\n        /* \"#utility.yul\":24728:25699   */\n      swap3\n      swap6\n      pop\n      swap3\n      swap6\n      swap1\n      swap4\n      pop\n      jump\t// out\n        /* \"#utility.yul\":25705:25791   */\n    tag_439:\n        /* \"#utility.yul\":25740:25747   */\n      0x00\n        /* \"#utility.yul\":25780:25784   */\n      0xff\n        /* \"#utility.yul\":25773:25778   */\n      dup3\n        /* \"#utility.yul\":25769:25785   */\n      and\n        /* \"#utility.yul\":25758:25785   */\n      swap1\n      pop\n        /* \"#utility.yul\":25705:25791   */\n      swap2\n      swap1\n      pop\n      jump\t// out\n        /* \"#utility.yul\":25797:25915   */\n    tag_440:\n        /* \"#utility.yul\":25868:25890   */\n      tag_701\n        /* \"#utility.yul\":25884:25889   */\n      dup2\n        /* \"#utility.yul\":25868:25890   */\n      tag_439\n      jump\t// in\n    tag_701:\n        /* \"#utility.yul\":25861:25866   */\n      dup2\n        /* \"#utility.yul\":25858:25891   */\n      eq\n        /* \"#utility.yul\":25848:25909   */\n      tag_702\n      jumpi\n        /* \"#utility.yul\":25905:25906   */\n      0x00\n        /* \"#utility.yul\":25902:25903   */\n      dup1\n        /* \"#utility.yul\":25895:25907   */\n      revert\n        /* \"#utility.yul\":25848:25909   */\n    tag_702:\n        /* \"#utility.yul\":25797:25915   */\n      pop\n      jump\t// out\n        /* \"#utility.yul\":25921:26060   */\n    tag_441:\n        /* \"#utility.yul\":25976:25981   */\n      0x00\n        /* \"#utility.yul\":26007:26013   */\n      dup2\n        /* \"#utility.yul\":26001:26014   */\n      mload\n        /* \"#utility.yul\":25992:26014   */\n      swap1\n      pop\n        /* \"#utility.yul\":26023:26054   */\n      tag_704\n        /* \"#utility.yul\":26048:26053   */\n      dup2\n        /* \"#utility.yul\":26023:26054   */\n      tag_440\n      jump\t// in\n    tag_704:\n        /* \"#utility.yul\":25921:26060   */\n      swap3\n      swap2\n      pop\n      pop\n      jump\t// out\n        /* \"#utility.yul\":26066:26413   */\n    tag_352:\n        /* \"#utility.yul\":26134:26140   */\n      0x00\n        /* \"#utility.yul\":26183:26185   */\n      0x20\n        /* \"#utility.yul\":26171:26180   */\n      dup3\n        /* \"#utility.yul\":26162:26169   */\n      dup5\n        /* \"#utility.yul\":26158:26181   */\n      sub\n        /* \"#utility.yul\":26154:26186   */\n      slt\n        /* \"#utility.yul\":26151:26270   */\n      iszero\n      tag_706\n      jumpi\n        /* \"#utility.yul\":26189:26268   */\n      tag_707\n      tag_380\n      jump\t// in\n    tag_707:\n        /* \"#utility.yul\":26151:26270   */\n    tag_706:\n        /* \"#utility.yul\":26309:26310   */\n      0x00\n        /* \"#utility.yul\":26334:26396   */\n      tag_708\n        /* \"#utility.yul\":26388:26395   */\n      dup5\n        /* \"#utility.yul\":26379:26385   */\n      dup3\n        /* \"#utility.yul\":26368:26377   */\n      dup6\n        /* \"#utility.yul\":26364:26386   */\n      add\n        /* \"#utility.yul\":26334:26396   */\n      tag_441\n      jump\t// in\n    tag_708:\n        /* \"#utility.yul\":26324:26396   */\n      swap2\n      pop\n        /* \"#utility.yul\":26280:26406   */\n      pop\n        /* \"#utility.yul\":26066:26413   */\n      swap3\n      swap2\n      pop\n      pop\n      jump\t// out\n        /* \"#utility.yul\":26419:26521   */\n    tag_442:\n        /* \"#utility.yul\":26461:26469   */\n      0x00\n        /* \"#utility.yul\":26508:26513   */\n      dup2\n        /* \"#utility.yul\":26505:26506   */\n      0x01\n        /* \"#utility.yul\":26501:26514   */\n      shr\n        /* \"#utility.yul\":26480:26514   */\n      swap1\n      pop\n        /* \"#utility.yul\":26419:26521   */\n      swap2\n      swap1\n      pop\n      jump\t// out\n        /* \"#utility.yul\":26527:27375   */\n    tag_443:\n        /* \"#utility.yul\":26588:26593   */\n      0x00\n        /* \"#utility.yul\":26595:26599   */\n      dup1\n        /* \"#utility.yul\":26619:26625   */\n      dup3\n        /* \"#utility.yul\":26610:26625   */\n      swap2\n      pop\n        /* \"#utility.yul\":26643:26648   */\n      dup4\n        /* \"#utility.yul\":26634:26648   */\n      swap1\n      pop\n        /* \"#utility.yul\":26657:27369   */\n    tag_711:\n        /* \"#utility.yul\":26678:26679   */\n      0x01\n        /* \"#utility.yul\":26668:26676   */\n      dup6\n        /* \"#utility.yul\":26665:26680   */\n      gt\n        /* \"#utility.yul\":26657:27369   */\n      iszero\n      tag_713\n      jumpi\n        /* \"#utility.yul\":26773:26777   */\n      dup1\n        /* \"#utility.yul\":26768:26771   */\n      dup7\n        /* \"#utility.yul\":26764:26778   */\n      div\n        /* \"#utility.yul\":26758:26762   */\n      dup2\n        /* \"#utility.yul\":26755:26779   */\n      gt\n        /* \"#utility.yul\":26752:26802   */\n      iszero\n      tag_714\n      jumpi\n        /* \"#utility.yul\":26782:26800   */\n      tag_715\n      tag_412\n      jump\t// in\n    tag_715:\n        /* \"#utility.yul\":26752:26802   */\n    tag_714:\n        /* \"#utility.yul\":26832:26833   */\n      0x01\n        /* \"#utility.yul\":26822:26830   */\n      dup6\n        /* \"#utility.yul\":26818:26834   */\n      and\n        /* \"#utility.yul\":26815:27266   */\n      iszero\n      tag_716\n      jumpi\n        /* \"#utility.yul\":27247:27251   */\n      dup1\n        /* \"#utility.yul\":27240:27245   */\n      dup3\n        /* \"#utility.yul\":27236:27252   */\n      mul\n        /* \"#utility.yul\":27227:27252   */\n      swap2\n      pop\n        /* \"#utility.yul\":26815:27266   */\n    tag_716:\n        /* \"#utility.yul\":27297:27301   */\n      dup1\n        /* \"#utility.yul\":27291:27295   */\n      dup2\n        /* \"#utility.yul\":27287:27302   */\n      mul\n        /* \"#utility.yul\":27279:27302   */\n      swap1\n      pop\n        /* \"#utility.yul\":27327:27359   */\n      tag_717\n        /* \"#utility.yul\":27350:27358   */\n      dup6\n        /* \"#utility.yul\":27327:27359   */\n      tag_442\n      jump\t// in\n    tag_717:\n        /* \"#utility.yul\":27315:27359   */\n      swap5\n      pop\n        /* \"#utility.yul\":26657:27369   */\n      jump(tag_711)\n    tag_713:\n        /* \"#utility.yul\":26527:27375   */\n      swap5\n      pop\n      swap5\n      swap3\n      pop\n      pop\n      pop\n      jump\t// out\n        /* \"#utility.yul\":27381:28454   */\n    tag_444:\n        /* \"#utility.yul\":27435:27440   */\n      0x00\n        /* \"#utility.yul\":27626:27634   */\n      dup3\n        /* \"#utility.yul\":27616:27656   */\n      tag_719\n      jumpi\n        /* \"#utility.yul\":27647:27648   */\n      0x01\n        /* \"#utility.yul\":27638:27648   */\n      swap1\n      pop\n        /* \"#utility.yul\":27649:27654   */\n      jump(tag_718)\n        /* \"#utility.yul\":27616:27656   */\n    tag_719:\n        /* \"#utility.yul\":27675:27679   */\n      dup2\n        /* \"#utility.yul\":27665:27701   */\n      tag_720\n      jumpi\n        /* \"#utility.yul\":27692:27693   */\n      0x00\n        /* \"#utility.yul\":27683:27693   */\n      swap1\n      pop\n        /* \"#utility.yul\":27694:27699   */\n      jump(tag_718)\n        /* \"#utility.yul\":27665:27701   */\n    tag_720:\n        /* \"#utility.yul\":27761:27765   */\n      dup2\n        /* \"#utility.yul\":27809:27810   */\n      0x01\n        /* \"#utility.yul\":27804:27831   */\n      dup2\n      eq\n      tag_722\n      jumpi\n        /* \"#utility.yul\":27845:27846   */\n      0x02\n        /* \"#utility.yul\":27840:28031   */\n      dup2\n      eq\n      tag_723\n      jumpi\n        /* \"#utility.yul\":27754:28031   */\n      jump(tag_721)\n        /* \"#utility.yul\":27804:27831   */\n    tag_722:\n        /* \"#utility.yul\":27822:27823   */\n      0x01\n        /* \"#utility.yul\":27813:27823   */\n      swap2\n      pop\n        /* \"#utility.yul\":27824:27829   */\n      pop\n      jump(tag_718)\n        /* \"#utility.yul\":27840:28031   */\n    tag_723:\n        /* \"#utility.yul\":27885:27888   */\n      0xff\n        /* \"#utility.yul\":27875:27883   */\n      dup5\n        /* \"#utility.yul\":27872:27889   */\n      gt\n        /* \"#utility.yul\":27869:27912   */\n      iszero\n      tag_724\n      jumpi\n        /* \"#utility.yul\":27892:27910   */\n      tag_725\n      tag_412\n      jump\t// in\n    tag_725:\n        /* \"#utility.yul\":27869:27912   */\n    tag_724:\n        /* \"#utility.yul\":27941:27949   */\n      dup4\n        /* \"#utility.yul\":27938:27939   */\n      0x02\n        /* \"#utility.yul\":27934:27950   */\n      exp\n        /* \"#utility.yul\":27925:27950   */\n      swap2\n      pop\n        /* \"#utility.yul\":27976:27979   */\n      dup5\n        /* \"#utility.yul\":27969:27974   */\n      dup3\n        /* \"#utility.yul\":27966:27980   */\n      gt\n        /* \"#utility.yul\":27963:28003   */\n      iszero\n      tag_726\n      jumpi\n        /* \"#utility.yul\":27983:28001   */\n      tag_727\n      tag_412\n      jump\t// in\n    tag_727:\n        /* \"#utility.yul\":27963:28003   */\n    tag_726:\n        /* \"#utility.yul\":28016:28021   */\n      pop\n      jump(tag_718)\n        /* \"#utility.yul\":27754:28031   */\n    tag_721:\n      pop\n        /* \"#utility.yul\":28140:28142   */\n      0x20\n        /* \"#utility.yul\":28130:28138   */\n      dup4\n        /* \"#utility.yul\":28127:28143   */\n      lt\n        /* \"#utility.yul\":28121:28124   */\n      0x0133\n        /* \"#utility.yul\":28115:28119   */\n      dup4\n        /* \"#utility.yul\":28112:28125   */\n      lt\n        /* \"#utility.yul\":28108:28144   */\n      and\n        /* \"#utility.yul\":28090:28092   */\n      0x4e\n        /* \"#utility.yul\":28080:28088   */\n      dup5\n        /* \"#utility.yul\":28077:28093   */\n      lt\n        /* \"#utility.yul\":28072:28074   */\n      0x0b\n        /* \"#utility.yul\":28066:28070   */\n      dup5\n        /* \"#utility.yul\":28063:28075   */\n      lt\n        /* \"#utility.yul\":28059:28094   */\n      and\n        /* \"#utility.yul\":28043:28154   */\n      or\n        /* \"#utility.yul\":28040:28286   */\n      iszero\n      tag_728\n      jumpi\n        /* \"#utility.yul\":28196:28204   */\n      dup3\n        /* \"#utility.yul\":28190:28194   */\n      dup3\n        /* \"#utility.yul\":28186:28205   */\n      exp\n        /* \"#utility.yul\":28177:28205   */\n      swap1\n      pop\n        /* \"#utility.yul\":28231:28234   */\n      dup4\n        /* \"#utility.yul\":28224:28229   */\n      dup2\n        /* \"#utility.yul\":28221:28235   */\n      gt\n        /* \"#utility.yul\":28218:28258   */\n      iszero\n      tag_729\n      jumpi\n        /* \"#utility.yul\":28238:28256   */\n      tag_730\n      tag_412\n      jump\t// in\n    tag_730:\n        /* \"#utility.yul\":28218:28258   */\n    tag_729:\n        /* \"#utility.yul\":28271:28276   */\n      jump(tag_718)\n        /* \"#utility.yul\":28040:28286   */\n    tag_728:\n        /* \"#utility.yul\":28311:28353   */\n      tag_731\n        /* \"#utility.yul\":28349:28352   */\n      dup5\n        /* \"#utility.yul\":28339:28347   */\n      dup5\n        /* \"#utility.yul\":28333:28337   */\n      dup5\n        /* \"#utility.yul\":28330:28331   */\n      0x01\n        /* \"#utility.yul\":28311:28353   */\n      tag_443\n      jump\t// in\n    tag_731:\n        /* \"#utility.yul\":28296:28353   */\n      swap3\n      pop\n      swap1\n      pop\n        /* \"#utility.yul\":28385:28389   */\n      dup2\n        /* \"#utility.yul\":28380:28383   */\n      dup5\n        /* \"#utility.yul\":28376:28390   */\n      div\n        /* \"#utility.yul\":28369:28374   */\n      dup2\n        /* \"#utility.yul\":28366:28391   */\n      gt\n        /* \"#utility.yul\":28363:28414   */\n      iszero\n      tag_732\n      jumpi\n        /* \"#utility.yul\":28394:28412   */\n      tag_733\n      tag_412\n      jump\t// in\n    tag_733:\n        /* \"#utility.yul\":28363:28414   */\n    tag_732:\n        /* \"#utility.yul\":28443:28447   */\n      dup2\n        /* \"#utility.yul\":28436:28441   */\n      dup2\n        /* \"#utility.yul\":28432:28448   */\n      mul\n        /* \"#utility.yul\":28423:28448   */\n      swap1\n      pop\n        /* \"#utility.yul\":27381:28454   */\n    tag_718:\n      swap4\n      swap3\n      pop\n      pop\n      pop\n      jump\t// out\n        /* \"#utility.yul\":28460:28741   */\n    tag_354:\n        /* \"#utility.yul\":28518:28523   */\n      0x00\n        /* \"#utility.yul\":28542:28565   */\n      tag_735\n        /* \"#utility.yul\":28560:28564   */\n      dup3\n        /* \"#utility.yul\":28542:28565   */\n      tag_400\n      jump\t// in\n    tag_735:\n        /* \"#utility.yul\":28534:28565   */\n      swap2\n      pop\n        /* \"#utility.yul\":28586:28611   */\n      tag_736\n        /* \"#utility.yul\":28602:28610   */\n      dup4\n        /* \"#utility.yul\":28586:28611   */\n      tag_439\n      jump\t// in\n    tag_736:\n        /* \"#utility.yul\":28574:28611   */\n      swap3\n      pop\n        /* \"#utility.yul\":28630:28734   */\n      tag_737\n        /* \"#utility.yul\":28667:28733   */\n      0xffffffffffffffffffffffffffffffffffffffffffffffffffffffffffffffff\n        /* \"#utility.yul\":28657:28665   */\n      dup5\n        /* \"#utility.yul\":28651:28655   */\n      dup5\n        /* \"#utility.yul\":28630:28734   */\n      tag_444\n      jump\t// in\n    tag_737:\n        /* \"#utility.yul\":28621:28734   */\n      swap1\n      pop\n        /* \"#utility.yul\":28460:28741   */\n      swap3\n      swap2\n      pop\n      pop\n      jump\t// out\n        /* \"#utility.yul\":28747:29079   */\n    tag_361:\n        /* \"#utility.yul\":28868:28872   */\n      0x00\n        /* \"#utility.yul\":28906:28908   */\n      0x40\n        /* \"#utility.yul\":28895:28904   */\n      dup3\n        /* \"#utility.yul\":28891:28909   */\n      add\n        /* \"#utility.yul\":28883:28909   */\n      swap1\n      pop\n        /* \"#utility.yul\":28919:28990   */\n      tag_739\n        /* \"#utility.yul\":28987:28988   */\n      0x00\n        /* \"#utility.yul\":28976:28985   */\n      dup4\n        /* \"#utility.yul\":28972:28989   */\n      add\n        /* \"#utility.yul\":28963:28969   */\n      dup6\n        /* \"#utility.yul\":28919:28990   */\n      tag_404\n      jump\t// in\n    tag_739:\n        /* \"#utility.yul\":29000:29072   */\n      tag_740\n        /* \"#utility.yul\":29068:29070   */\n      0x20\n        /* \"#utility.yul\":29057:29066   */\n      dup4\n        /* \"#utility.yul\":29053:29071   */\n      add\n        /* \"#utility.yul\":29044:29050   */\n      dup5\n        /* \"#utility.yul\":29000:29072   */\n      tag_396\n      jump\t// in\n    tag_740:\n        /* \"#utility.yul\":28747:29079   */\n      swap4\n      swap3\n      pop\n      pop\n      pop\n      jump\t// out\n        /* \"#utility.yul\":29085:29255   */\n    tag_445:\n        /* \"#utility.yul\":29225:29247   */\n      0x5061757361626c653a206e6f7420706175736564000000000000000000000000\n        /* \"#utility.yul\":29221:29222   */\n      0x00\n        /* \"#utility.yul\":29213:29219   */\n      dup3\n        /* \"#utility.yul\":29209:29223   */\n      add\n        /* \"#utility.yul\":29202:29248   */\n      mstore\n        /* \"#utility.yul\":29085:29255   */\n      pop\n      jump\t// out\n        /* \"#utility.yul\":29261:29627   */\n    tag_446:\n        /* \"#utility.yul\":29403:29406   */\n      0x00\n        /* \"#utility.yul\":29424:29491   */\n      tag_743\n        /* \"#utility.yul\":29488:29490   */\n      0x14\n        /* \"#utility.yul\":29483:29486   */\n      dup4\n        /* \"#utility.yul\":29424:29491   */\n      tag_405\n      jump\t// in\n    tag_743:\n        /* \"#utility.yul\":29417:29491   */\n      swap2\n      pop\n        /* \"#utility.yul\":29500:29593   */\n      tag_744\n        /* \"#utility.yul\":29589:29592   */\n      dup3\n        /* \"#utility.yul\":29500:29593   */\n      tag_445\n      jump\t// in\n    tag_744:\n        /* \"#utility.yul\":29618:29620   */\n      0x20\n        /* \"#utility.yul\":29613:29616   */\n      dup3\n        /* \"#utility.yul\":29609:29621   */\n      add\n        /* \"#utility.yul\":29602:29621   */\n      swap1\n      pop\n        /* \"#utility.yul\":29261:29627   */\n      swap2\n      swap1\n      pop\n      jump\t// out\n        /* \"#utility.yul\":29633:30052   */\n    tag_366:\n        /* \"#utility.yul\":29799:29803   */\n      0x00\n        /* \"#utility.yul\":29837:29839   */\n      0x20\n        /* \"#utility.yul\":29826:29835   */\n      dup3\n        /* \"#utility.yul\":29822:29840   */\n      add\n        /* \"#utility.yul\":29814:29840   */\n      swap1\n      pop\n        /* \"#utility.yul\":29886:29895   */\n      dup2\n        /* \"#utility.yul\":29880:29884   */\n      dup2\n        /* \"#utility.yul\":29876:29896   */\n      sub\n        /* \"#utility.yul\":29872:29873   */\n      0x00\n        /* \"#utility.yul\":29861:29870   */\n      dup4\n        /* \"#utility.yul\":29857:29874   */\n      add\n        /* \"#utility.yul\":29850:29897   */\n      mstore\n        /* \"#utility.yul\":29914:30045   */\n      tag_746\n        /* \"#utility.yul\":30040:30044   */\n      dup2\n        /* \"#utility.yul\":29914:30045   */\n      tag_446\n      jump\t// in\n    tag_746:\n        /* \"#utility.yul\":29906:30045   */\n      swap1\n      pop\n        /* \"#utility.yul\":29633:30052   */\n      swap2\n      swap1\n      pop\n      jump\t// out\n\n    auxdata: 0xa26469706673582212200d66c2b67d00f3ecca64c02828f06bec6e5e71485a46245bd5d68910bedf685d64736f6c634300081a0033\n}\n",
				"bytecode": {
					"linkReferences": {},
					"object": "6080604052348015600e575f80fd5b506130008061001c5f395ff3fe608060405234801561000f575f80fd5b506004361061018c575f3560e01c806379502c55116100dc578063c0c53b8b11610095578063e1ec3c681161006f578063e1ec3c6814610450578063e9cbd82214610487578063fbf37739146104a5578063fc528482146104c15761018c565b8063c0c53b8b146103fa578063d11a57ec14610416578063d547741f146104345761018c565b806379502c55146103475780637cdd1263146103685780638456cb591461038457806387c514591461038e57806391d14854146103ac578063a217fddf146103dc5761018c565b806336568abe11610149578063501ed22c11610123578063501ed22c146102ba578063571a26a0146102d65780635c975abb1461030b57806375b238fc146103295761018c565b806336568abe146102785780633f4ba83a14610294578063415f12401461029e5761018c565b806301ffc9a7146101905780631a465fe1146101c0578063248a9ca3146101de5780632b92a07d1461020e5780632f2ff15d1461023e578063364bc15a1461025a575b5f80fd5b6101aa60048036038101906101a591906120e4565b6104df565b6040516101b79190612129565b60405180910390f35b6101c8610558565b6040516101d591906121bc565b60405180910390f35b6101f860048036038101906101f39190612208565b61057d565b6040516102059190612242565b60405180910390f35b61022860048036038101906102239190612296565b6105a7565b60405161023591906122ec565b60405180910390f35b61025860048036038101906102539190612305565b6105c7565b005b6102626105e9565b60405161026f9190612242565b60405180910390f35b610292600480360381019061028d9190612305565b61060d565b005b61029c610688565b005b6102b860048036038101906102b3919061236d565b6106bd565b005b6102d460048036038101906102cf9190612398565b610a9d565b005b6102f060048036038101906102eb919061236d565b610af5565b6040516103029695949392919061240b565b60405180910390f35b610313610b58565b6040516103209190612129565b60405180910390f35b610331610b6c565b60405161033e9190612242565b60405180910390f35b61034f610b90565b60405161035f949392919061246a565b60405180910390f35b610382600480360381019061037d919061236d565b610bad565b005b61038c610e96565b005b610396610ecb565b6040516103a391906122ec565b60405180910390f35b6103c660048036038101906103c19190612305565b610ed1565b6040516103d39190612129565b60405180910390f35b6103e4610f42565b6040516103f19190612242565b60405180910390f35b610414600480360381019061040f91906124ad565b610f48565b005b61041e6111e4565b60405161042b9190612242565b60405180910390f35b61044e60048036038101906104499190612305565b611208565b005b61046a6004803603810190610465919061236d565b61122a565b60405161047e9897969594939291906124fd565b60405180910390f35b61048f6112d7565b60405161049c91906121bc565b60405180910390f35b6104bf60048036038101906104ba9190612579565b6112fc565b005b6104c96117b6565b6040516104d691906122ec565b60405180910390f35b5f7f7965db0b000000000000000000000000000000000000000000000000000000007bffffffffffffffffffffffffffffffffffffffffffffffffffffffff1916827bffffffffffffffffffffffffffffffffffffffffffffffffffffffff191614806105515750610550826117bc565b5b9050919050565b60685f9054906101000a900473ffffffffffffffffffffffffffffffffffffffff1681565b5f80610587611825565b9050805f015f8481526020019081526020015f2060010154915050919050565b6066602052815f5260405f20602052805f5260405f205f91509150505481565b6105d08261057d565b6105d98161184c565b6105e38383611860565b50505050565b7ffc8737ab85eb45125971625a9ebdb75cc78e01d5c1fa80c4c6e5203f47bc4fab81565b610615611958565b73ffffffffffffffffffffffffffffffffffffffff168173ffffffffffffffffffffffffffffffffffffffff1614610679576040517f6697b23200000000000000000000000000000000000000000000000000000000815260040160405180910390fd5b610683828261195f565b505050565b7fa49807205ce4d355092ef5a8a18f56e8913cf4a201fbe287825b095693c217756106b28161184c565b6106ba611a57565b50565b6106c5611ab7565b6106cd611b01565b5f60645f8381526020019081526020015f209050806007015f9054906101000a900460ff16610731576040517f08c379a000000000000000000000000000000000000000000000000000000000815260040161072890612637565b60405180910390fd5b5f61088782604051806101000160405290815f82015f9054906101000a900473ffffffffffffffffffffffffffffffffffffffff1673ffffffffffffffffffffffffffffffffffffffff1673ffffffffffffffffffffffffffffffffffffffff168152602001600182015f9054906101000a900473ffffffffffffffffffffffffffffffffffffffff1673ffffffffffffffffffffffffffffffffffffffff1673ffffffffffffffffffffffffffffffffffffffff168152602001600282015f9054906101000a900473ffffffffffffffffffffffffffffffffffffffff1673ffffffffffffffffffffffffffffffffffffffff1673ffffffffffffffffffffffffffffffffffffffff16815260200160038201548152602001600482015481526020016005820154815260200160068201548152602001600782015f9054906101000a900460ff161515151581525050611b50565b9050806108c9576040517f08c379a00000000000000000000000000000000000000000000000000000000081526004016108c09061269f565b60405180910390fd5b5f610a1f83604051806101000160405290815f82015f9054906101000a900473ffffffffffffffffffffffffffffffffffffffff1673ffffffffffffffffffffffffffffffffffffffff1673ffffffffffffffffffffffffffffffffffffffff168152602001600182015f9054906101000a900473ffffffffffffffffffffffffffffffffffffffff1673ffffffffffffffffffffffffffffffffffffffff1673ffffffffffffffffffffffffffffffffffffffff168152602001600282015f9054906101000a900473ffffffffffffffffffffffffffffffffffffffff1673ffffffffffffffffffffffffffffffffffffffff1673ffffffffffffffffffffffffffffffffffffffff16815260200160038201548152602001600482015481526020016005820154815260200160068201548152602001600782015f9054906101000a900460ff161515151581525050611b9a565b90505f836007015f6101000a81548160ff0219169083151502179055503373ffffffffffffffffffffffffffffffffffffffff16847f0256bdf47e9aff5784070d6cab332d79f81fc6b8c8ed875565982a423a389e3a8560030154604051610a8791906122ec565b60405180910390a3505050610a9a611d2f565b50565b7fa49807205ce4d355092ef5a8a18f56e8913cf4a201fbe287825b095693c21775610ac78161184c565b8460695f01819055508360696001018190555082606960020181905550816069600301819055505050505050565b6065602052805f5260405f205f91509050805f015f9054906101000a900473ffffffffffffffffffffffffffffffffffffffff1690806001015490806002015490806003015490806004015490806005015f9054906101000a900460ff16905086565b5f805f9054906101000a900460ff16905090565b7fa49807205ce4d355092ef5a8a18f56e8913cf4a201fbe287825b095693c2177581565b6069805f0154908060010154908060020154908060030154905084565b610bb5611b01565b5f60655f8381526020019081526020015f209050806005015f9054906101000a900460ff16610c19576040517f08c379a0000000000000000000000000000000000000000000000000000000008152600401610c1090612707565b60405180910390fd5b5f610cc4826040518060c00160405290815f82015f9054906101000a900473ffffffffffffffffffffffffffffffffffffffff1673ffffffffffffffffffffffffffffffffffffffff1673ffffffffffffffffffffffffffffffffffffffff16815260200160018201548152602001600282015481526020016003820154815260200160048201548152602001600582015f9054906101000a900460ff161515151581525050611d39565b90505f826001015482610cd79190612752565b905060675f9054906101000a900473ffffffffffffffffffffffffffffffffffffffff1673ffffffffffffffffffffffffffffffffffffffff166323b872dd3330846040518463ffffffff1660e01b8152600401610d3793929190612793565b6020604051808303815f875af1158015610d53573d5f803e3d5ffd5b505050506040513d601f19601f82011682018060405250810190610d7791906127f2565b50825f015f9054906101000a900473ffffffffffffffffffffffffffffffffffffffff1673ffffffffffffffffffffffffffffffffffffffff1663a9059cbb3385600101546040518363ffffffff1660e01b8152600401610dd992919061281d565b6020604051808303815f875af1158015610df5573d5f803e3d5ffd5b505050506040513d601f19601f82011682018060405250810190610e1991906127f2565b505f836005015f6101000a81548160ff0219169083151502179055503373ffffffffffffffffffffffffffffffffffffffff16847fea6c5b56c46f5549d8e8438a15cd82bd9a1e42e16cabc76d05a0ba91e06539bf8560010154604051610e8091906122ec565b60405180910390a3505050610e93611d2f565b50565b7fa49807205ce4d355092ef5a8a18f56e8913cf4a201fbe287825b095693c21775610ec08161184c565b610ec8611d96565b50565b606d5481565b5f80610edb611825565b9050805f015f8581526020019081526020015f205f015f8473ffffffffffffffffffffffffffffffffffffffff1673ffffffffffffffffffffffffffffffffffffffff1681526020019081526020015f205f9054906101000a900460ff1691505092915050565b5f801b81565b5f610f51611df7565b90505f815f0160089054906101000a900460ff161590505f825f015f9054906101000a900467ffffffffffffffff1690505f808267ffffffffffffffff16148015610f995750825b90505f60018367ffffffffffffffff16148015610fcc57505f3073ffffffffffffffffffffffffffffffffffffffff163b145b905081158015610fda575080155b15611011576040517ff92ee8a900000000000000000000000000000000000000000000000000000000815260040160405180910390fd5b6001855f015f6101000a81548167ffffffffffffffff021916908367ffffffffffffffff160217905550831561105e576001855f0160086101000a81548160ff0219169083151502179055505b611066611e1e565b61106e611e28565b611076611e3a565b6110825f801b87611860565b506110ad7fa49807205ce4d355092ef5a8a18f56e8913cf4a201fbe287825b095693c2177587611860565b508760675f6101000a81548173ffffffffffffffffffffffffffffffffffffffff021916908373ffffffffffffffffffffffffffffffffffffffff1602179055508660685f6101000a81548173ffffffffffffffffffffffffffffffffffffffff021916908373ffffffffffffffffffffffffffffffffffffffff160217905550604051806080016040528060508152602001604681526020016101f481526020016103e881525060695f820151815f015560208201518160010155604082015181600201556060820151816003015590505083156111da575f855f0160086101000a81548160ff0219169083151502179055507fc7f505b2f371ae2175ee4913f4499e1f2633a7b5936321eed1cdaeb6115181d260016040516111d19190612890565b60405180910390a15b5050505050505050565b7fe1dcbdb91df27212a29bc27177c840cf2f819ecf2187432e1fac86c2dd5dfca981565b6112118261057d565b61121a8161184c565b611224838361195f565b50505050565b6064602052805f5260405f205f91509050805f015f9054906101000a900473ffffffffffffffffffffffffffffffffffffffff1690806001015f9054906101000a900473ffffffffffffffffffffffffffffffffffffffff1690806002015f9054906101000a900473ffffffffffffffffffffffffffffffffffffffff1690806003015490806004015490806005015490806006015490806007015f9054906101000a900460ff16905088565b60675f9054906101000a900473ffffffffffffffffffffffffffffffffffffffff1681565b611304611ab7565b61130c611b01565b5f821161134e576040517f08c379a0000000000000000000000000000000000000000000000000000000008152600401611345906128f3565b60405180910390fd5b5f8111611390576040517f08c379a00000000000000000000000000000000000000000000000000000000081526004016113879061295b565b60405180910390fd5b5f73ffffffffffffffffffffffffffffffffffffffff168373ffffffffffffffffffffffffffffffffffffffff16036113fe576040517f08c379a00000000000000000000000000000000000000000000000000000000081526004016113f5906129c3565b60405180910390fd5b8373ffffffffffffffffffffffffffffffffffffffff166323b872dd3330856040518463ffffffff1660e01b815260040161143b93929190612793565b6020604051808303815f875af1158015611457573d5f803e3d5ffd5b505050506040513d601f19601f8201168201806040525081019061147b91906127f2565b505f611488858585611e4c565b90505f60646069600101548361149e9190612752565b6114a89190612a0e565b9050808311156114ed576040517f08c379a00000000000000000000000000000000000000000000000000000000081526004016114e490612aae565b60405180910390fd5b5f606d5f81548092919061150090612acc565b9190505590506040518061010001604052803373ffffffffffffffffffffffffffffffffffffffff1681526020018873ffffffffffffffffffffffffffffffffffffffff1681526020018773ffffffffffffffffffffffffffffffffffffffff16815260200186815260200185815260200160696002015481526020014281526020016001151581525060645f8381526020019081526020015f205f820151815f015f6101000a81548173ffffffffffffffffffffffffffffffffffffffff021916908373ffffffffffffffffffffffffffffffffffffffff1602179055506020820151816001015f6101000a81548173ffffffffffffffffffffffffffffffffffffffff021916908373ffffffffffffffffffffffffffffffffffffffff1602179055506040820151816002015f6101000a81548173ffffffffffffffffffffffffffffffffffffffff021916908373ffffffffffffffffffffffffffffffffffffffff160217905550606082015181600301556080820151816004015560a0820151816005015560c0820151816006015560e0820151816007015f6101000a81548160ff02191690831515021790555090505060675f9054906101000a900473ffffffffffffffffffffffffffffffffffffffff1673ffffffffffffffffffffffffffffffffffffffff1663a9059cbb33866040518363ffffffff1660e01b815260040161171192919061281d565b6020604051808303815f875af115801561172d573d5f803e3d5ffd5b505050506040513d601f19601f8201168201806040525081019061175191906127f2565b503373ffffffffffffffffffffffffffffffffffffffff16817fd62d0078daaad723b2ab43c15be6e72d2e7bf915e6314eb46555234b40f5fdf289888860405161179d93929190612b13565b60405180910390a35050506117b0611d2f565b50505050565b606e5481565b5f7f01ffc9a7000000000000000000000000000000000000000000000000000000007bffffffffffffffffffffffffffffffffffffffffffffffffffffffff1916827bffffffffffffffffffffffffffffffffffffffffffffffffffffffff1916149050919050565b5f7f02dd7bc7dec4dceedda775e58dd541e08a116c6c53815c0bd028192f7b626800905090565b61185d81611858611958565b611f5f565b50565b5f8061186a611825565b90506118768484610ed1565b61194d576001815f015f8681526020019081526020015f205f015f8573ffffffffffffffffffffffffffffffffffffffff1673ffffffffffffffffffffffffffffffffffffffff1681526020019081526020015f205f6101000a81548160ff0219169083151502179055506118e9611958565b73ffffffffffffffffffffffffffffffffffffffff168373ffffffffffffffffffffffffffffffffffffffff16857f2f8788117e7eff1d82e926ec794901d17c78024a50270940304540a733656f0d60405160405180910390a46001915050611952565b5f9150505b92915050565b5f33905090565b5f80611969611825565b90506119758484610ed1565b15611a4c575f815f015f8681526020019081526020015f205f015f8573ffffffffffffffffffffffffffffffffffffffff1673ffffffffffffffffffffffffffffffffffffffff1681526020019081526020015f205f6101000a81548160ff0219169083151502179055506119e8611958565b73ffffffffffffffffffffffffffffffffffffffff168373ffffffffffffffffffffffffffffffffffffffff16857ff6391f5c32d9c69d2a47ea670b442974b53935d1edc7fd64eb21e047a839171b60405160405180910390a46001915050611a51565b5f9150505b92915050565b611a5f611fb0565b5f805f6101000a81548160ff0219169083151502179055507f5db9ee0a495bf2e6ff9c91a7834c1ba4fdd244a5e8aa4e537bd38aeae4b073aa611aa0611958565b604051611aad9190612b48565b60405180910390a1565b611abf610b58565b15611aff576040517f08c379a0000000000000000000000000000000000000000000000000000000008152600401611af690612bab565b60405180910390fd5b565b600260325403611b46576040517f08c379a0000000000000000000000000000000000000000000000000000000008152600401611b3d90612c13565b60405180910390fd5b6002603281905550565b5f80611b69836020015184604001518560600151611e4c565b90505f83608001519050606460695f015482611b859190612752565b611b8f9190612a0e565b821092505050919050565b5f80611bb3836020015184604001518560600151611e4c565b90505f606e5f815480929190611bc890612acc565b9190505590506040518060c00160405280856020015173ffffffffffffffffffffffffffffffffffffffff1681526020018560600151815260200183815260200160646069600301546064611c1d9190612c31565b85611c289190612752565b611c329190612a0e565b81526020014281526020016001151581525060655f8381526020019081526020015f205f820151815f015f6101000a81548173ffffffffffffffffffffffffffffffffffffffff021916908373ffffffffffffffffffffffffffffffffffffffff1602179055506020820151816001015560408201518160020155606082015181600301556080820151816004015560a0820151816005015f6101000a81548160ff021916908315150217905550905050807fd7d053b3d3fc9e8145896f8940adeb377f6735866f2161ef1660dae9f049247585602001518660600151604051611d1d92919061281d565b60405180910390a28092505050919050565b6001603281905550565b5f80826080015142611d4b9190612c31565b90505f620151808285606001518660400151611d679190612c31565b611d719190612752565b611d7b9190612a0e565b9050808460400151611d8d9190612c31565b92505050919050565b611d9e611ab7565b60015f806101000a81548160ff0219169083151502179055507f62e78cea01bee320cd4e420270b5ea74000d11b0c9f74754ebdbfc544b05a258611de0611958565b604051611ded9190612b48565b60405180910390a1565b5f7ff0c57e16840df040f15088dc2f81fe391c3923bec73e23a9662efc9c229c6a00905090565b611e26611ff9565b565b611e30611ff9565b611e38612039565b565b611e42611ff9565b611e4a61205b565b565b5f808390505f8173ffffffffffffffffffffffffffffffffffffffff1663feaf968c6040518163ffffffff1660e01b815260040160a060405180830381865afa158015611e9b573d5f803e3d5ffd5b505050506040513d601f19601f82011682018060405250810190611ebf9190612cea565b5050509150508173ffffffffffffffffffffffffffffffffffffffff1663313ce5676040518163ffffffff1660e01b8152600401602060405180830381865afa158015611f0e573d5f803e3d5ffd5b505050506040513d601f19601f82011682018060405250810190611f329190612d97565b600a611f3e9190612ef1565b8482611f4a9190612752565b611f549190612a0e565b925050509392505050565b611f698282610ed1565b611fac5780826040517fe2517d3f000000000000000000000000000000000000000000000000000000008152600401611fa3929190612f3b565b60405180910390fd5b5050565b611fb8610b58565b611ff7576040517f08c379a0000000000000000000000000000000000000000000000000000000008152600401611fee90612fac565b60405180910390fd5b565b61200161206d565b612037576040517fd7e6bcf800000000000000000000000000000000000000000000000000000000815260040160405180910390fd5b565b612041611ff9565b5f805f6101000a81548160ff021916908315150217905550565b612063611ff9565b6001603281905550565b5f612076611df7565b5f0160089054906101000a900460ff16905090565b5f80fd5b5f7fffffffff0000000000000000000000000000000000000000000000000000000082169050919050565b6120c38161208f565b81146120cd575f80fd5b50565b5f813590506120de816120ba565b92915050565b5f602082840312156120f9576120f861208b565b5b5f612106848285016120d0565b91505092915050565b5f8115159050919050565b6121238161210f565b82525050565b5f60208201905061213c5f83018461211a565b92915050565b5f73ffffffffffffffffffffffffffffffffffffffff82169050919050565b5f819050919050565b5f61218461217f61217a84612142565b612161565b612142565b9050919050565b5f6121958261216a565b9050919050565b5f6121a68261218b565b9050919050565b6121b68161219c565b82525050565b5f6020820190506121cf5f8301846121ad565b92915050565b5f819050919050565b6121e7816121d5565b81146121f1575f80fd5b50565b5f81359050612202816121de565b92915050565b5f6020828403121561221d5761221c61208b565b5b5f61222a848285016121f4565b91505092915050565b61223c816121d5565b82525050565b5f6020820190506122555f830184612233565b92915050565b5f61226582612142565b9050919050565b6122758161225b565b811461227f575f80fd5b50565b5f813590506122908161226c565b92915050565b5f80604083850312156122ac576122ab61208b565b5b5f6122b985828601612282565b92505060206122ca85828601612282565b9150509250929050565b5f819050919050565b6122e6816122d4565b82525050565b5f6020820190506122ff5f8301846122dd565b92915050565b5f806040838503121561231b5761231a61208b565b5b5f612328858286016121f4565b925050602061233985828601612282565b9150509250929050565b61234c816122d4565b8114612356575f80fd5b50565b5f8135905061236781612343565b92915050565b5f602082840312156123825761238161208b565b5b5f61238f84828501612359565b91505092915050565b5f805f80608085870312156123b0576123af61208b565b5b5f6123bd87828801612359565b94505060206123ce87828801612359565b93505060406123df87828801612359565b92505060606123f087828801612359565b91505092959194509250565b6124058161225b565b82525050565b5f60c08201905061241e5f8301896123fc565b61242b60208301886122dd565b61243860408301876122dd565b61244560608301866122dd565b61245260808301856122dd565b61245f60a083018461211a565b979650505050505050565b5f60808201905061247d5f8301876122dd565b61248a60208301866122dd565b61249760408301856122dd565b6124a460608301846122dd565b95945050505050565b5f805f606084860312156124c4576124c361208b565b5b5f6124d186828701612282565b93505060206124e286828701612282565b92505060406124f386828701612282565b9150509250925092565b5f610100820190506125115f83018b6123fc565b61251e602083018a6123fc565b61252b60408301896123fc565b61253860608301886122dd565b61254560808301876122dd565b61255260a08301866122dd565b61255f60c08301856122dd565b61256c60e083018461211a565b9998505050505050505050565b5f805f80608085870312156125915761259061208b565b5b5f61259e87828801612282565b94505060206125af87828801612282565b93505060406125c087828801612359565b92505060606125d187828801612359565b91505092959194509250565b5f82825260208201905092915050565b7f4c6f616e206e6f742061637469766500000000000000000000000000000000005f82015250565b5f612621600f836125dd565b915061262c826125ed565b602082019050919050565b5f6020820190508181035f83015261264e81612615565b9050919050565b7f4c6f616e206e6f74206c6971756964617461626c6500000000000000000000005f82015250565b5f6126896015836125dd565b915061269482612655565b602082019050919050565b5f6020820190508181035f8301526126b68161267d565b9050919050565b7f41756374696f6e206e6f742061637469766500000000000000000000000000005f82015250565b5f6126f16012836125dd565b91506126fc826126bd565b602082019050919050565b5f6020820190508181035f83015261271e816126e5565b9050919050565b7f4e487b71000000000000000000000000000000000000000000000000000000005f52601160045260245ffd5b5f61275c826122d4565b9150612767836122d4565b9250828202612775816122d4565b9150828204841483151761278c5761278b612725565b5b5092915050565b5f6060820190506127a65f8301866123fc565b6127b360208301856123fc565b6127c060408301846122dd565b949350505050565b6127d18161210f565b81146127db575f80fd5b50565b5f815190506127ec816127c8565b92915050565b5f602082840312156128075761280661208b565b5b5f612814848285016127de565b91505092915050565b5f6040820190506128305f8301856123fc565b61283d60208301846122dd565b9392505050565b5f819050919050565b5f67ffffffffffffffff82169050919050565b5f61287a61287561287084612844565b612161565b61284d565b9050919050565b61288a81612860565b82525050565b5f6020820190506128a35f830184612881565b92915050565b7f496e76616c696420636f6c6c61746572616c20616d6f756e74000000000000005f82015250565b5f6128dd6019836125dd565b91506128e8826128a9565b602082019050919050565b5f6020820190508181035f83015261290a816128d1565b9050919050565b7f496e76616c696420626f72726f7720616d6f756e7400000000000000000000005f82015250565b5f6129456015836125dd565b915061295082612911565b602082019050919050565b5f6020820190508181035f83015261297281612939565b9050919050565b7f496e76616c6964207072696365206665656400000000000000000000000000005f82015250565b5f6129ad6012836125dd565b91506129b882612979565b602082019050919050565b5f6020820190508181035f8301526129da816129a1565b9050919050565b7f4e487b71000000000000000000000000000000000000000000000000000000005f52601260045260245ffd5b5f612a18826122d4565b9150612a23836122d4565b925082612a3357612a326129e1565b5b828204905092915050565b7f426f72726f7720616d6f756e74206578636565647320636f6c6c61746572616c5f8201527f2076616c75650000000000000000000000000000000000000000000000000000602082015250565b5f612a986026836125dd565b9150612aa382612a3e565b604082019050919050565b5f6020820190508181035f830152612ac581612a8c565b9050919050565b5f612ad6826122d4565b91507fffffffffffffffffffffffffffffffffffffffffffffffffffffffffffffffff8203612b0857612b07612725565b5b600182019050919050565b5f606082019050612b265f8301866123fc565b612b3360208301856122dd565b612b4060408301846122dd565b949350505050565b5f602082019050612b5b5f8301846123fc565b92915050565b7f5061757361626c653a20706175736564000000000000000000000000000000005f82015250565b5f612b956010836125dd565b9150612ba082612b61565b602082019050919050565b5f6020820190508181035f830152612bc281612b89565b9050919050565b7f5265656e7472616e637947756172643a207265656e7472616e742063616c6c005f82015250565b5f612bfd601f836125dd565b9150612c0882612bc9565b602082019050919050565b5f6020820190508181035f830152612c2a81612bf1565b9050919050565b5f612c3b826122d4565b9150612c46836122d4565b9250828203905081811115612c5e57612c5d612725565b5b92915050565b5f69ffffffffffffffffffff82169050919050565b612c8281612c64565b8114612c8c575f80fd5b50565b5f81519050612c9d81612c79565b92915050565b5f819050919050565b612cb581612ca3565b8114612cbf575f80fd5b50565b5f81519050612cd081612cac565b92915050565b5f81519050612ce481612343565b92915050565b5f805f805f60a08688031215612d0357612d0261208b565b5b5f612d1088828901612c8f565b9550506020612d2188828901612cc2565b9450506040612d3288828901612cd6565b9350506060612d4388828901612cd6565b9250506080612d5488828901612c8f565b9150509295509295909350565b5f60ff82169050919050565b612d7681612d61565b8114612d80575f80fd5b50565b5f81519050612d9181612d6d565b92915050565b5f60208284031215612dac57612dab61208b565b5b5f612db984828501612d83565b91505092915050565b5f8160011c9050919050565b5f808291508390505b6001851115612e1757808604811115612df357612df2612725565b5b6001851615612e025780820291505b8081029050612e1085612dc2565b9450612dd7565b94509492505050565b5f82612e2f5760019050612eea565b81612e3c575f9050612eea565b8160018114612e525760028114612e5c57612e8b565b6001915050612eea565b60ff841115612e6e57612e6d612725565b5b8360020a915084821115612e8557612e84612725565b5b50612eea565b5060208310610133831016604e8410600b8410161715612ec05782820a905083811115612ebb57612eba612725565b5b612eea565b612ecd8484846001612dce565b92509050818404811115612ee457612ee3612725565b5b81810290505b9392505050565b5f612efb826122d4565b9150612f0683612d61565b9250612f337fffffffffffffffffffffffffffffffffffffffffffffffffffffffffffffffff8484612e20565b905092915050565b5f604082019050612f4e5f8301856123fc565b612f5b6020830184612233565b9392505050565b7f5061757361626c653a206e6f74207061757365640000000000000000000000005f82015250565b5f612f966014836125dd565b9150612fa182612f62565b602082019050919050565b5f6020820190508181035f830152612fc381612f8a565b905091905056fea26469706673582212200d66c2b67d00f3ecca64c02828f06bec6e5e71485a46245bd5d68910bedf685d64736f6c634300081a0033",
					"opcodes": "PUSH1 0x80 PUSH1 0x40 MSTORE CALLVALUE DUP1 ISZERO PUSH1 0xE JUMPI PUSH0 DUP1 REVERT JUMPDEST POP PUSH2 0x3000 DUP1 PUSH2 0x1C PUSH0 CODECOPY PUSH0 RETURN INVALID PUSH1 0x80 PUSH1 0x40 MSTORE CALLVALUE DUP1 ISZERO PUSH2 0xF JUMPI PUSH0 DUP1 REVERT JUMPDEST POP PUSH1 0x4 CALLDATASIZE LT PUSH2 0x18C JUMPI PUSH0 CALLDATALOAD PUSH1 0xE0 SHR DUP1 PUSH4 0x79502C55 GT PUSH2 0xDC JUMPI DUP1 PUSH4 0xC0C53B8B GT PUSH2 0x95 JUMPI DUP1 PUSH4 0xE1EC3C68 GT PUSH2 0x6F JUMPI DUP1 PUSH4 0xE1EC3C68 EQ PUSH2 0x450 JUMPI DUP1 PUSH4 0xE9CBD822 EQ PUSH2 0x487 JUMPI DUP1 PUSH4 0xFBF37739 EQ PUSH2 0x4A5 JUMPI DUP1 PUSH4 0xFC528482 EQ PUSH2 0x4C1 JUMPI PUSH2 0x18C JUMP JUMPDEST DUP1 PUSH4 0xC0C53B8B EQ PUSH2 0x3FA JUMPI DUP1 PUSH4 0xD11A57EC EQ PUSH2 0x416 JUMPI DUP1 PUSH4 0xD547741F EQ PUSH2 0x434 JUMPI PUSH2 0x18C JUMP JUMPDEST DUP1 PUSH4 0x79502C55 EQ PUSH2 0x347 JUMPI DUP1 PUSH4 0x7CDD1263 EQ PUSH2 0x368 JUMPI DUP1 PUSH4 0x8456CB59 EQ PUSH2 0x384 JUMPI DUP1 PUSH4 0x87C51459 EQ PUSH2 0x38E JUMPI DUP1 PUSH4 0x91D14854 EQ PUSH2 0x3AC JUMPI DUP1 PUSH4 0xA217FDDF EQ PUSH2 0x3DC JUMPI PUSH2 0x18C JUMP JUMPDEST DUP1 PUSH4 0x36568ABE GT PUSH2 0x149 JUMPI DUP1 PUSH4 0x501ED22C GT PUSH2 0x123 JUMPI DUP1 PUSH4 0x501ED22C EQ PUSH2 0x2BA JUMPI DUP1 PUSH4 0x571A26A0 EQ PUSH2 0x2D6 JUMPI DUP1 PUSH4 0x5C975ABB EQ PUSH2 0x30B JUMPI DUP1 PUSH4 0x75B238FC EQ PUSH2 0x329 JUMPI PUSH2 0x18C JUMP JUMPDEST DUP1 PUSH4 0x36568ABE EQ PUSH2 0x278 JUMPI DUP1 PUSH4 0x3F4BA83A EQ PUSH2 0x294 JUMPI DUP1 PUSH4 0x415F1240 EQ PUSH2 0x29E JUMPI PUSH2 0x18C JUMP JUMPDEST DUP1 PUSH4 0x1FFC9A7 EQ PUSH2 0x190 JUMPI DUP1 PUSH4 0x1A465FE1 EQ PUSH2 0x1C0 JUMPI DUP1 PUSH4 0x248A9CA3 EQ PUSH2 0x1DE JUMPI DUP1 PUSH4 0x2B92A07D EQ PUSH2 0x20E JUMPI DUP1 PUSH4 0x2F2FF15D EQ PUSH2 0x23E JUMPI DUP1 PUSH4 0x364BC15A EQ PUSH2 0x25A JUMPI JUMPDEST PUSH0 DUP1 REVERT JUMPDEST PUSH2 0x1AA PUSH1 0x4 DUP1 CALLDATASIZE SUB DUP2 ADD SWAP1 PUSH2 0x1A5 SWAP2 SWAP1 PUSH2 0x20E4 JUMP JUMPDEST PUSH2 0x4DF JUMP JUMPDEST PUSH1 0x40 MLOAD PUSH2 0x1B7 SWAP2 SWAP1 PUSH2 0x2129 JUMP JUMPDEST PUSH1 0x40 MLOAD DUP1 SWAP2 SUB SWAP1 RETURN JUMPDEST PUSH2 0x1C8 PUSH2 0x558 JUMP JUMPDEST PUSH1 0x40 MLOAD PUSH2 0x1D5 SWAP2 SWAP1 PUSH2 0x21BC JUMP JUMPDEST PUSH1 0x40 MLOAD DUP1 SWAP2 SUB SWAP1 RETURN JUMPDEST PUSH2 0x1F8 PUSH1 0x4 DUP1 CALLDATASIZE SUB DUP2 ADD SWAP1 PUSH2 0x1F3 SWAP2 SWAP1 PUSH2 0x2208 JUMP JUMPDEST PUSH2 0x57D JUMP JUMPDEST PUSH1 0x40 MLOAD PUSH2 0x205 SWAP2 SWAP1 PUSH2 0x2242 JUMP JUMPDEST PUSH1 0x40 MLOAD DUP1 SWAP2 SUB SWAP1 RETURN JUMPDEST PUSH2 0x228 PUSH1 0x4 DUP1 CALLDATASIZE SUB DUP2 ADD SWAP1 PUSH2 0x223 SWAP2 SWAP1 PUSH2 0x2296 JUMP JUMPDEST PUSH2 0x5A7 JUMP JUMPDEST PUSH1 0x40 MLOAD PUSH2 0x235 SWAP2 SWAP1 PUSH2 0x22EC JUMP JUMPDEST PUSH1 0x40 MLOAD DUP1 SWAP2 SUB SWAP1 RETURN JUMPDEST PUSH2 0x258 PUSH1 0x4 DUP1 CALLDATASIZE SUB DUP2 ADD SWAP1 PUSH2 0x253 SWAP2 SWAP1 PUSH2 0x2305 JUMP JUMPDEST PUSH2 0x5C7 JUMP JUMPDEST STOP JUMPDEST PUSH2 0x262 PUSH2 0x5E9 JUMP JUMPDEST PUSH1 0x40 MLOAD PUSH2 0x26F SWAP2 SWAP1 PUSH2 0x2242 JUMP JUMPDEST PUSH1 0x40 MLOAD DUP1 SWAP2 SUB SWAP1 RETURN JUMPDEST PUSH2 0x292 PUSH1 0x4 DUP1 CALLDATASIZE SUB DUP2 ADD SWAP1 PUSH2 0x28D SWAP2 SWAP1 PUSH2 0x2305 JUMP JUMPDEST PUSH2 0x60D JUMP JUMPDEST STOP JUMPDEST PUSH2 0x29C PUSH2 0x688 JUMP JUMPDEST STOP JUMPDEST PUSH2 0x2B8 PUSH1 0x4 DUP1 CALLDATASIZE SUB DUP2 ADD SWAP1 PUSH2 0x2B3 SWAP2 SWAP1 PUSH2 0x236D JUMP JUMPDEST PUSH2 0x6BD JUMP JUMPDEST STOP JUMPDEST PUSH2 0x2D4 PUSH1 0x4 DUP1 CALLDATASIZE SUB DUP2 ADD SWAP1 PUSH2 0x2CF SWAP2 SWAP1 PUSH2 0x2398 JUMP JUMPDEST PUSH2 0xA9D JUMP JUMPDEST STOP JUMPDEST PUSH2 0x2F0 PUSH1 0x4 DUP1 CALLDATASIZE SUB DUP2 ADD SWAP1 PUSH2 0x2EB SWAP2 SWAP1 PUSH2 0x236D JUMP JUMPDEST PUSH2 0xAF5 JUMP JUMPDEST PUSH1 0x40 MLOAD PUSH2 0x302 SWAP7 SWAP6 SWAP5 SWAP4 SWAP3 SWAP2 SWAP1 PUSH2 0x240B JUMP JUMPDEST PUSH1 0x40 MLOAD DUP1 SWAP2 SUB SWAP1 RETURN JUMPDEST PUSH2 0x313 PUSH2 0xB58 JUMP JUMPDEST PUSH1 0x40 MLOAD PUSH2 0x320 SWAP2 SWAP1 PUSH2 0x2129 JUMP JUMPDEST PUSH1 0x40 MLOAD DUP1 SWAP2 SUB SWAP1 RETURN JUMPDEST PUSH2 0x331 PUSH2 0xB6C JUMP JUMPDEST PUSH1 0x40 MLOAD PUSH2 0x33E SWAP2 SWAP1 PUSH2 0x2242 JUMP JUMPDEST PUSH1 0x40 MLOAD DUP1 SWAP2 SUB SWAP1 RETURN JUMPDEST PUSH2 0x34F PUSH2 0xB90 JUMP JUMPDEST PUSH1 0x40 MLOAD PUSH2 0x35F SWAP5 SWAP4 SWAP3 SWAP2 SWAP1 PUSH2 0x246A JUMP JUMPDEST PUSH1 0x40 MLOAD DUP1 SWAP2 SUB SWAP1 RETURN JUMPDEST PUSH2 0x382 PUSH1 0x4 DUP1 CALLDATASIZE SUB DUP2 ADD SWAP1 PUSH2 0x37D SWAP2 SWAP1 PUSH2 0x236D JUMP JUMPDEST PUSH2 0xBAD JUMP JUMPDEST STOP JUMPDEST PUSH2 0x38C PUSH2 0xE96 JUMP JUMPDEST STOP JUMPDEST PUSH2 0x396 PUSH2 0xECB JUMP JUMPDEST PUSH1 0x40 MLOAD PUSH2 0x3A3 SWAP2 SWAP1 PUSH2 0x22EC JUMP JUMPDEST PUSH1 0x40 MLOAD DUP1 SWAP2 SUB SWAP1 RETURN JUMPDEST PUSH2 0x3C6 PUSH1 0x4 DUP1 CALLDATASIZE SUB DUP2 ADD SWAP1 PUSH2 0x3C1 SWAP2 SWAP1 PUSH2 0x2305 JUMP JUMPDEST PUSH2 0xED1 JUMP JUMPDEST PUSH1 0x40 MLOAD PUSH2 0x3D3 SWAP2 SWAP1 PUSH2 0x2129 JUMP JUMPDEST PUSH1 0x40 MLOAD DUP1 SWAP2 SUB SWAP1 RETURN JUMPDEST PUSH2 0x3E4 PUSH2 0xF42 JUMP JUMPDEST PUSH1 0x40 MLOAD PUSH2 0x3F1 SWAP2 SWAP1 PUSH2 0x2242 JUMP JUMPDEST PUSH1 0x40 MLOAD DUP1 SWAP2 SUB SWAP1 RETURN JUMPDEST PUSH2 0x414 PUSH1 0x4 DUP1 CALLDATASIZE SUB DUP2 ADD SWAP1 PUSH2 0x40F SWAP2 SWAP1 PUSH2 0x24AD JUMP JUMPDEST PUSH2 0xF48 JUMP JUMPDEST STOP JUMPDEST PUSH2 0x41E PUSH2 0x11E4 JUMP JUMPDEST PUSH1 0x40 MLOAD PUSH2 0x42B SWAP2 SWAP1 PUSH2 0x2242 JUMP JUMPDEST PUSH1 0x40 MLOAD DUP1 SWAP2 SUB SWAP1 RETURN JUMPDEST PUSH2 0x44E PUSH1 0x4 DUP1 CALLDATASIZE SUB DUP2 ADD SWAP1 PUSH2 0x449 SWAP2 SWAP1 PUSH2 0x2305 JUMP JUMPDEST PUSH2 0x1208 JUMP JUMPDEST STOP JUMPDEST PUSH2 0x46A PUSH1 0x4 DUP1 CALLDATASIZE SUB DUP2 ADD SWAP1 PUSH2 0x465 SWAP2 SWAP1 PUSH2 0x236D JUMP JUMPDEST PUSH2 0x122A JUMP JUMPDEST PUSH1 0x40 MLOAD PUSH2 0x47E SWAP9 SWAP8 SWAP7 SWAP6 SWAP5 SWAP4 SWAP3 SWAP2 SWAP1 PUSH2 0x24FD JUMP JUMPDEST PUSH1 0x40 MLOAD DUP1 SWAP2 SUB SWAP1 RETURN JUMPDEST PUSH2 0x48F PUSH2 0x12D7 JUMP JUMPDEST PUSH1 0x40 MLOAD PUSH2 0x49C SWAP2 SWAP1 PUSH2 0x21BC JUMP JUMPDEST PUSH1 0x40 MLOAD DUP1 SWAP2 SUB SWAP1 RETURN JUMPDEST PUSH2 0x4BF PUSH1 0x4 DUP1 CALLDATASIZE SUB DUP2 ADD SWAP1 PUSH2 0x4BA SWAP2 SWAP1 PUSH2 0x2579 JUMP JUMPDEST PUSH2 0x12FC JUMP JUMPDEST STOP JUMPDEST PUSH2 0x4C9 PUSH2 0x17B6 JUMP JUMPDEST PUSH1 0x40 MLOAD PUSH2 0x4D6 SWAP2 SWAP1 PUSH2 0x22EC JUMP JUMPDEST PUSH1 0x40 MLOAD DUP1 SWAP2 SUB SWAP1 RETURN JUMPDEST PUSH0 PUSH32 0x7965DB0B00000000000000000000000000000000000000000000000000000000 PUSH28 0xFFFFFFFFFFFFFFFFFFFFFFFFFFFFFFFFFFFFFFFFFFFFFFFFFFFFFFFF NOT AND DUP3 PUSH28 0xFFFFFFFFFFFFFFFFFFFFFFFFFFFFFFFFFFFFFFFFFFFFFFFFFFFFFFFF NOT AND EQ DUP1 PUSH2 0x551 JUMPI POP PUSH2 0x550 DUP3 PUSH2 0x17BC JUMP JUMPDEST JUMPDEST SWAP1 POP SWAP2 SWAP1 POP JUMP JUMPDEST PUSH1 0x68 PUSH0 SWAP1 SLOAD SWAP1 PUSH2 0x100 EXP SWAP1 DIV PUSH20 0xFFFFFFFFFFFFFFFFFFFFFFFFFFFFFFFFFFFFFFFF AND DUP2 JUMP JUMPDEST PUSH0 DUP1 PUSH2 0x587 PUSH2 0x1825 JUMP JUMPDEST SWAP1 POP DUP1 PUSH0 ADD PUSH0 DUP5 DUP2 MSTORE PUSH1 0x20 ADD SWAP1 DUP2 MSTORE PUSH1 0x20 ADD PUSH0 KECCAK256 PUSH1 0x1 ADD SLOAD SWAP2 POP POP SWAP2 SWAP1 POP JUMP JUMPDEST PUSH1 0x66 PUSH1 0x20 MSTORE DUP2 PUSH0 MSTORE PUSH1 0x40 PUSH0 KECCAK256 PUSH1 0x20 MSTORE DUP1 PUSH0 MSTORE PUSH1 0x40 PUSH0 KECCAK256 PUSH0 SWAP2 POP SWAP2 POP POP SLOAD DUP2 JUMP JUMPDEST PUSH2 0x5D0 DUP3 PUSH2 0x57D JUMP JUMPDEST PUSH2 0x5D9 DUP2 PUSH2 0x184C JUMP JUMPDEST PUSH2 0x5E3 DUP4 DUP4 PUSH2 0x1860 JUMP JUMPDEST POP POP POP POP JUMP JUMPDEST PUSH32 0xFC8737AB85EB45125971625A9EBDB75CC78E01D5C1FA80C4C6E5203F47BC4FAB DUP2 JUMP JUMPDEST PUSH2 0x615 PUSH2 0x1958 JUMP JUMPDEST PUSH20 0xFFFFFFFFFFFFFFFFFFFFFFFFFFFFFFFFFFFFFFFF AND DUP2 PUSH20 0xFFFFFFFFFFFFFFFFFFFFFFFFFFFFFFFFFFFFFFFF AND EQ PUSH2 0x679 JUMPI PUSH1 0x40 MLOAD PUSH32 0x6697B23200000000000000000000000000000000000000000000000000000000 DUP2 MSTORE PUSH1 0x4 ADD PUSH1 0x40 MLOAD DUP1 SWAP2 SUB SWAP1 REVERT JUMPDEST PUSH2 0x683 DUP3 DUP3 PUSH2 0x195F JUMP JUMPDEST POP POP POP JUMP JUMPDEST PUSH32 0xA49807205CE4D355092EF5A8A18F56E8913CF4A201FBE287825B095693C21775 PUSH2 0x6B2 DUP2 PUSH2 0x184C JUMP JUMPDEST PUSH2 0x6BA PUSH2 0x1A57 JUMP JUMPDEST POP JUMP JUMPDEST PUSH2 0x6C5 PUSH2 0x1AB7 JUMP JUMPDEST PUSH2 0x6CD PUSH2 0x1B01 JUMP JUMPDEST PUSH0 PUSH1 0x64 PUSH0 DUP4 DUP2 MSTORE PUSH1 0x20 ADD SWAP1 DUP2 MSTORE PUSH1 0x20 ADD PUSH0 KECCAK256 SWAP1 POP DUP1 PUSH1 0x7 ADD PUSH0 SWAP1 SLOAD SWAP1 PUSH2 0x100 EXP SWAP1 DIV PUSH1 0xFF AND PUSH2 0x731 JUMPI PUSH1 0x40 MLOAD PUSH32 0x8C379A000000000000000000000000000000000000000000000000000000000 DUP2 MSTORE PUSH1 0x4 ADD PUSH2 0x728 SWAP1 PUSH2 0x2637 JUMP JUMPDEST PUSH1 0x40 MLOAD DUP1 SWAP2 SUB SWAP1 REVERT JUMPDEST PUSH0 PUSH2 0x887 DUP3 PUSH1 0x40 MLOAD DUP1 PUSH2 0x100 ADD PUSH1 0x40 MSTORE SWAP1 DUP2 PUSH0 DUP3 ADD PUSH0 SWAP1 SLOAD SWAP1 PUSH2 0x100 EXP SWAP1 DIV PUSH20 0xFFFFFFFFFFFFFFFFFFFFFFFFFFFFFFFFFFFFFFFF AND PUSH20 0xFFFFFFFFFFFFFFFFFFFFFFFFFFFFFFFFFFFFFFFF AND PUSH20 0xFFFFFFFFFFFFFFFFFFFFFFFFFFFFFFFFFFFFFFFF AND DUP2 MSTORE PUSH1 0x20 ADD PUSH1 0x1 DUP3 ADD PUSH0 SWAP1 SLOAD SWAP1 PUSH2 0x100 EXP SWAP1 DIV PUSH20 0xFFFFFFFFFFFFFFFFFFFFFFFFFFFFFFFFFFFFFFFF AND PUSH20 0xFFFFFFFFFFFFFFFFFFFFFFFFFFFFFFFFFFFFFFFF AND PUSH20 0xFFFFFFFFFFFFFFFFFFFFFFFFFFFFFFFFFFFFFFFF AND DUP2 MSTORE PUSH1 0x20 ADD PUSH1 0x2 DUP3 ADD PUSH0 SWAP1 SLOAD SWAP1 PUSH2 0x100 EXP SWAP1 DIV PUSH20 0xFFFFFFFFFFFFFFFFFFFFFFFFFFFFFFFFFFFFFFFF AND PUSH20 0xFFFFFFFFFFFFFFFFFFFFFFFFFFFFFFFFFFFFFFFF AND PUSH20 0xFFFFFFFFFFFFFFFFFFFFFFFFFFFFFFFFFFFFFFFF AND DUP2 MSTORE PUSH1 0x20 ADD PUSH1 0x3 DUP3 ADD SLOAD DUP2 MSTORE PUSH1 0x20 ADD PUSH1 0x4 DUP3 ADD SLOAD DUP2 MSTORE PUSH1 0x20 ADD PUSH1 0x5 DUP3 ADD SLOAD DUP2 MSTORE PUSH1 0x20 ADD PUSH1 0x6 DUP3 ADD SLOAD DUP2 MSTORE PUSH1 0x20 ADD PUSH1 0x7 DUP3 ADD PUSH0 SWAP1 SLOAD SWAP1 PUSH2 0x100 EXP SWAP1 DIV PUSH1 0xFF AND ISZERO ISZERO ISZERO ISZERO DUP2 MSTORE POP POP PUSH2 0x1B50 JUMP JUMPDEST SWAP1 POP DUP1 PUSH2 0x8C9 JUMPI PUSH1 0x40 MLOAD PUSH32 0x8C379A000000000000000000000000000000000000000000000000000000000 DUP2 MSTORE PUSH1 0x4 ADD PUSH2 0x8C0 SWAP1 PUSH2 0x269F JUMP JUMPDEST PUSH1 0x40 MLOAD DUP1 SWAP2 SUB SWAP1 REVERT JUMPDEST PUSH0 PUSH2 0xA1F DUP4 PUSH1 0x40 MLOAD DUP1 PUSH2 0x100 ADD PUSH1 0x40 MSTORE SWAP1 DUP2 PUSH0 DUP3 ADD PUSH0 SWAP1 SLOAD SWAP1 PUSH2 0x100 EXP SWAP1 DIV PUSH20 0xFFFFFFFFFFFFFFFFFFFFFFFFFFFFFFFFFFFFFFFF AND PUSH20 0xFFFFFFFFFFFFFFFFFFFFFFFFFFFFFFFFFFFFFFFF AND PUSH20 0xFFFFFFFFFFFFFFFFFFFFFFFFFFFFFFFFFFFFFFFF AND DUP2 MSTORE PUSH1 0x20 ADD PUSH1 0x1 DUP3 ADD PUSH0 SWAP1 SLOAD SWAP1 PUSH2 0x100 EXP SWAP1 DIV PUSH20 0xFFFFFFFFFFFFFFFFFFFFFFFFFFFFFFFFFFFFFFFF AND PUSH20 0xFFFFFFFFFFFFFFFFFFFFFFFFFFFFFFFFFFFFFFFF AND PUSH20 0xFFFFFFFFFFFFFFFFFFFFFFFFFFFFFFFFFFFFFFFF AND DUP2 MSTORE PUSH1 0x20 ADD PUSH1 0x2 DUP3 ADD PUSH0 SWAP1 SLOAD SWAP1 PUSH2 0x100 EXP SWAP1 DIV PUSH20 0xFFFFFFFFFFFFFFFFFFFFFFFFFFFFFFFFFFFFFFFF AND PUSH20 0xFFFFFFFFFFFFFFFFFFFFFFFFFFFFFFFFFFFFFFFF AND PUSH20 0xFFFFFFFFFFFFFFFFFFFFFFFFFFFFFFFFFFFFFFFF AND DUP2 MSTORE PUSH1 0x20 ADD PUSH1 0x3 DUP3 ADD SLOAD DUP2 MSTORE PUSH1 0x20 ADD PUSH1 0x4 DUP3 ADD SLOAD DUP2 MSTORE PUSH1 0x20 ADD PUSH1 0x5 DUP3 ADD SLOAD DUP2 MSTORE PUSH1 0x20 ADD PUSH1 0x6 DUP3 ADD SLOAD DUP2 MSTORE PUSH1 0x20 ADD PUSH1 0x7 DUP3 ADD PUSH0 SWAP1 SLOAD SWAP1 PUSH2 0x100 EXP SWAP1 DIV PUSH1 0xFF AND ISZERO ISZERO ISZERO ISZERO DUP2 MSTORE POP POP PUSH2 0x1B9A JUMP JUMPDEST SWAP1 POP PUSH0 DUP4 PUSH1 0x7 ADD PUSH0 PUSH2 0x100 EXP DUP2 SLOAD DUP2 PUSH1 0xFF MUL NOT AND SWAP1 DUP4 ISZERO ISZERO MUL OR SWAP1 SSTORE POP CALLER PUSH20 0xFFFFFFFFFFFFFFFFFFFFFFFFFFFFFFFFFFFFFFFF AND DUP5 PUSH32 0x256BDF47E9AFF5784070D6CAB332D79F81FC6B8C8ED875565982A423A389E3A DUP6 PUSH1 0x3 ADD SLOAD PUSH1 0x40 MLOAD PUSH2 0xA87 SWAP2 SWAP1 PUSH2 0x22EC JUMP JUMPDEST PUSH1 0x40 MLOAD DUP1 SWAP2 SUB SWAP1 LOG3 POP POP POP PUSH2 0xA9A PUSH2 0x1D2F JUMP JUMPDEST POP JUMP JUMPDEST PUSH32 0xA49807205CE4D355092EF5A8A18F56E8913CF4A201FBE287825B095693C21775 PUSH2 0xAC7 DUP2 PUSH2 0x184C JUMP JUMPDEST DUP5 PUSH1 0x69 PUSH0 ADD DUP2 SWAP1 SSTORE POP DUP4 PUSH1 0x69 PUSH1 0x1 ADD DUP2 SWAP1 SSTORE POP DUP3 PUSH1 0x69 PUSH1 0x2 ADD DUP2 SWAP1 SSTORE POP DUP2 PUSH1 0x69 PUSH1 0x3 ADD DUP2 SWAP1 SSTORE POP POP POP POP POP POP JUMP JUMPDEST PUSH1 0x65 PUSH1 0x20 MSTORE DUP1 PUSH0 MSTORE PUSH1 0x40 PUSH0 KECCAK256 PUSH0 SWAP2 POP SWAP1 POP DUP1 PUSH0 ADD PUSH0 SWAP1 SLOAD SWAP1 PUSH2 0x100 EXP SWAP1 DIV PUSH20 0xFFFFFFFFFFFFFFFFFFFFFFFFFFFFFFFFFFFFFFFF AND SWAP1 DUP1 PUSH1 0x1 ADD SLOAD SWAP1 DUP1 PUSH1 0x2 ADD SLOAD SWAP1 DUP1 PUSH1 0x3 ADD SLOAD SWAP1 DUP1 PUSH1 0x4 ADD SLOAD SWAP1 DUP1 PUSH1 0x5 ADD PUSH0 SWAP1 SLOAD SWAP1 PUSH2 0x100 EXP SWAP1 DIV PUSH1 0xFF AND SWAP1 POP DUP7 JUMP JUMPDEST PUSH0 DUP1 PUSH0 SWAP1 SLOAD SWAP1 PUSH2 0x100 EXP SWAP1 DIV PUSH1 0xFF AND SWAP1 POP SWAP1 JUMP JUMPDEST PUSH32 0xA49807205CE4D355092EF5A8A18F56E8913CF4A201FBE287825B095693C21775 DUP2 JUMP JUMPDEST PUSH1 0x69 DUP1 PUSH0 ADD SLOAD SWAP1 DUP1 PUSH1 0x1 ADD SLOAD SWAP1 DUP1 PUSH1 0x2 ADD SLOAD SWAP1 DUP1 PUSH1 0x3 ADD SLOAD SWAP1 POP DUP5 JUMP JUMPDEST PUSH2 0xBB5 PUSH2 0x1B01 JUMP JUMPDEST PUSH0 PUSH1 0x65 PUSH0 DUP4 DUP2 MSTORE PUSH1 0x20 ADD SWAP1 DUP2 MSTORE PUSH1 0x20 ADD PUSH0 KECCAK256 SWAP1 POP DUP1 PUSH1 0x5 ADD PUSH0 SWAP1 SLOAD SWAP1 PUSH2 0x100 EXP SWAP1 DIV PUSH1 0xFF AND PUSH2 0xC19 JUMPI PUSH1 0x40 MLOAD PUSH32 0x8C379A000000000000000000000000000000000000000000000000000000000 DUP2 MSTORE PUSH1 0x4 ADD PUSH2 0xC10 SWAP1 PUSH2 0x2707 JUMP JUMPDEST PUSH1 0x40 MLOAD DUP1 SWAP2 SUB SWAP1 REVERT JUMPDEST PUSH0 PUSH2 0xCC4 DUP3 PUSH1 0x40 MLOAD DUP1 PUSH1 0xC0 ADD PUSH1 0x40 MSTORE SWAP1 DUP2 PUSH0 DUP3 ADD PUSH0 SWAP1 SLOAD SWAP1 PUSH2 0x100 EXP SWAP1 DIV PUSH20 0xFFFFFFFFFFFFFFFFFFFFFFFFFFFFFFFFFFFFFFFF AND PUSH20 0xFFFFFFFFFFFFFFFFFFFFFFFFFFFFFFFFFFFFFFFF AND PUSH20 0xFFFFFFFFFFFFFFFFFFFFFFFFFFFFFFFFFFFFFFFF AND DUP2 MSTORE PUSH1 0x20 ADD PUSH1 0x1 DUP3 ADD SLOAD DUP2 MSTORE PUSH1 0x20 ADD PUSH1 0x2 DUP3 ADD SLOAD DUP2 MSTORE PUSH1 0x20 ADD PUSH1 0x3 DUP3 ADD SLOAD DUP2 MSTORE PUSH1 0x20 ADD PUSH1 0x4 DUP3 ADD SLOAD DUP2 MSTORE PUSH1 0x20 ADD PUSH1 0x5 DUP3 ADD PUSH0 SWAP1 SLOAD SWAP1 PUSH2 0x100 EXP SWAP1 DIV PUSH1 0xFF AND ISZERO ISZERO ISZERO ISZERO DUP2 MSTORE POP POP PUSH2 0x1D39 JUMP JUMPDEST SWAP1 POP PUSH0 DUP3 PUSH1 0x1 ADD SLOAD DUP3 PUSH2 0xCD7 SWAP2 SWAP1 PUSH2 0x2752 JUMP JUMPDEST SWAP1 POP PUSH1 0x67 PUSH0 SWAP1 SLOAD SWAP1 PUSH2 0x100 EXP SWAP1 DIV PUSH20 0xFFFFFFFFFFFFFFFFFFFFFFFFFFFFFFFFFFFFFFFF AND PUSH20 0xFFFFFFFFFFFFFFFFFFFFFFFFFFFFFFFFFFFFFFFF AND PUSH4 0x23B872DD CALLER ADDRESS DUP5 PUSH1 0x40 MLOAD DUP5 PUSH4 0xFFFFFFFF AND PUSH1 0xE0 SHL DUP2 MSTORE PUSH1 0x4 ADD PUSH2 0xD37 SWAP4 SWAP3 SWAP2 SWAP1 PUSH2 0x2793 JUMP JUMPDEST PUSH1 0x20 PUSH1 0x40 MLOAD DUP1 DUP4 SUB DUP2 PUSH0 DUP8 GAS CALL ISZERO DUP1 ISZERO PUSH2 0xD53 JUMPI RETURNDATASIZE PUSH0 DUP1 RETURNDATACOPY RETURNDATASIZE PUSH0 REVERT JUMPDEST POP POP POP POP PUSH1 0x40 MLOAD RETURNDATASIZE PUSH1 0x1F NOT PUSH1 0x1F DUP3 ADD AND DUP3 ADD DUP1 PUSH1 0x40 MSTORE POP DUP2 ADD SWAP1 PUSH2 0xD77 SWAP2 SWAP1 PUSH2 0x27F2 JUMP JUMPDEST POP DUP3 PUSH0 ADD PUSH0 SWAP1 SLOAD SWAP1 PUSH2 0x100 EXP SWAP1 DIV PUSH20 0xFFFFFFFFFFFFFFFFFFFFFFFFFFFFFFFFFFFFFFFF AND PUSH20 0xFFFFFFFFFFFFFFFFFFFFFFFFFFFFFFFFFFFFFFFF AND PUSH4 0xA9059CBB CALLER DUP6 PUSH1 0x1 ADD SLOAD PUSH1 0x40 MLOAD DUP4 PUSH4 0xFFFFFFFF AND PUSH1 0xE0 SHL DUP2 MSTORE PUSH1 0x4 ADD PUSH2 0xDD9 SWAP3 SWAP2 SWAP1 PUSH2 0x281D JUMP JUMPDEST PUSH1 0x20 PUSH1 0x40 MLOAD DUP1 DUP4 SUB DUP2 PUSH0 DUP8 GAS CALL ISZERO DUP1 ISZERO PUSH2 0xDF5 JUMPI RETURNDATASIZE PUSH0 DUP1 RETURNDATACOPY RETURNDATASIZE PUSH0 REVERT JUMPDEST POP POP POP POP PUSH1 0x40 MLOAD RETURNDATASIZE PUSH1 0x1F NOT PUSH1 0x1F DUP3 ADD AND DUP3 ADD DUP1 PUSH1 0x40 MSTORE POP DUP2 ADD SWAP1 PUSH2 0xE19 SWAP2 SWAP1 PUSH2 0x27F2 JUMP JUMPDEST POP PUSH0 DUP4 PUSH1 0x5 ADD PUSH0 PUSH2 0x100 EXP DUP2 SLOAD DUP2 PUSH1 0xFF MUL NOT AND SWAP1 DUP4 ISZERO ISZERO MUL OR SWAP1 SSTORE POP CALLER PUSH20 0xFFFFFFFFFFFFFFFFFFFFFFFFFFFFFFFFFFFFFFFF AND DUP5 PUSH32 0xEA6C5B56C46F5549D8E8438A15CD82BD9A1E42E16CABC76D05A0BA91E06539BF DUP6 PUSH1 0x1 ADD SLOAD PUSH1 0x40 MLOAD PUSH2 0xE80 SWAP2 SWAP1 PUSH2 0x22EC JUMP JUMPDEST PUSH1 0x40 MLOAD DUP1 SWAP2 SUB SWAP1 LOG3 POP POP POP PUSH2 0xE93 PUSH2 0x1D2F JUMP JUMPDEST POP JUMP JUMPDEST PUSH32 0xA49807205CE4D355092EF5A8A18F56E8913CF4A201FBE287825B095693C21775 PUSH2 0xEC0 DUP2 PUSH2 0x184C JUMP JUMPDEST PUSH2 0xEC8 PUSH2 0x1D96 JUMP JUMPDEST POP JUMP JUMPDEST PUSH1 0x6D SLOAD DUP2 JUMP JUMPDEST PUSH0 DUP1 PUSH2 0xEDB PUSH2 0x1825 JUMP JUMPDEST SWAP1 POP DUP1 PUSH0 ADD PUSH0 DUP6 DUP2 MSTORE PUSH1 0x20 ADD SWAP1 DUP2 MSTORE PUSH1 0x20 ADD PUSH0 KECCAK256 PUSH0 ADD PUSH0 DUP5 PUSH20 0xFFFFFFFFFFFFFFFFFFFFFFFFFFFFFFFFFFFFFFFF AND PUSH20 0xFFFFFFFFFFFFFFFFFFFFFFFFFFFFFFFFFFFFFFFF AND DUP2 MSTORE PUSH1 0x20 ADD SWAP1 DUP2 MSTORE PUSH1 0x20 ADD PUSH0 KECCAK256 PUSH0 SWAP1 SLOAD SWAP1 PUSH2 0x100 EXP SWAP1 DIV PUSH1 0xFF AND SWAP2 POP POP SWAP3 SWAP2 POP POP JUMP JUMPDEST PUSH0 DUP1 SHL DUP2 JUMP JUMPDEST PUSH0 PUSH2 0xF51 PUSH2 0x1DF7 JUMP JUMPDEST SWAP1 POP PUSH0 DUP2 PUSH0 ADD PUSH1 0x8 SWAP1 SLOAD SWAP1 PUSH2 0x100 EXP SWAP1 DIV PUSH1 0xFF AND ISZERO SWAP1 POP PUSH0 DUP3 PUSH0 ADD PUSH0 SWAP1 SLOAD SWAP1 PUSH2 0x100 EXP SWAP1 DIV PUSH8 0xFFFFFFFFFFFFFFFF AND SWAP1 POP PUSH0 DUP1 DUP3 PUSH8 0xFFFFFFFFFFFFFFFF AND EQ DUP1 ISZERO PUSH2 0xF99 JUMPI POP DUP3 JUMPDEST SWAP1 POP PUSH0 PUSH1 0x1 DUP4 PUSH8 0xFFFFFFFFFFFFFFFF AND EQ DUP1 ISZERO PUSH2 0xFCC JUMPI POP PUSH0 ADDRESS PUSH20 0xFFFFFFFFFFFFFFFFFFFFFFFFFFFFFFFFFFFFFFFF AND EXTCODESIZE EQ JUMPDEST SWAP1 POP DUP2 ISZERO DUP1 ISZERO PUSH2 0xFDA JUMPI POP DUP1 ISZERO JUMPDEST ISZERO PUSH2 0x1011 JUMPI PUSH1 0x40 MLOAD PUSH32 0xF92EE8A900000000000000000000000000000000000000000000000000000000 DUP2 MSTORE PUSH1 0x4 ADD PUSH1 0x40 MLOAD DUP1 SWAP2 SUB SWAP1 REVERT JUMPDEST PUSH1 0x1 DUP6 PUSH0 ADD PUSH0 PUSH2 0x100 EXP DUP2 SLOAD DUP2 PUSH8 0xFFFFFFFFFFFFFFFF MUL NOT AND SWAP1 DUP4 PUSH8 0xFFFFFFFFFFFFFFFF AND MUL OR SWAP1 SSTORE POP DUP4 ISZERO PUSH2 0x105E JUMPI PUSH1 0x1 DUP6 PUSH0 ADD PUSH1 0x8 PUSH2 0x100 EXP DUP2 SLOAD DUP2 PUSH1 0xFF MUL NOT AND SWAP1 DUP4 ISZERO ISZERO MUL OR SWAP1 SSTORE POP JUMPDEST PUSH2 0x1066 PUSH2 0x1E1E JUMP JUMPDEST PUSH2 0x106E PUSH2 0x1E28 JUMP JUMPDEST PUSH2 0x1076 PUSH2 0x1E3A JUMP JUMPDEST PUSH2 0x1082 PUSH0 DUP1 SHL DUP8 PUSH2 0x1860 JUMP JUMPDEST POP PUSH2 0x10AD PUSH32 0xA49807205CE4D355092EF5A8A18F56E8913CF4A201FBE287825B095693C21775 DUP8 PUSH2 0x1860 JUMP JUMPDEST POP DUP8 PUSH1 0x67 PUSH0 PUSH2 0x100 EXP DUP2 SLOAD DUP2 PUSH20 0xFFFFFFFFFFFFFFFFFFFFFFFFFFFFFFFFFFFFFFFF MUL NOT AND SWAP1 DUP4 PUSH20 0xFFFFFFFFFFFFFFFFFFFFFFFFFFFFFFFFFFFFFFFF AND MUL OR SWAP1 SSTORE POP DUP7 PUSH1 0x68 PUSH0 PUSH2 0x100 EXP DUP2 SLOAD DUP2 PUSH20 0xFFFFFFFFFFFFFFFFFFFFFFFFFFFFFFFFFFFFFFFF MUL NOT AND SWAP1 DUP4 PUSH20 0xFFFFFFFFFFFFFFFFFFFFFFFFFFFFFFFFFFFFFFFF AND MUL OR SWAP1 SSTORE POP PUSH1 0x40 MLOAD DUP1 PUSH1 0x80 ADD PUSH1 0x40 MSTORE DUP1 PUSH1 0x50 DUP2 MSTORE PUSH1 0x20 ADD PUSH1 0x46 DUP2 MSTORE PUSH1 0x20 ADD PUSH2 0x1F4 DUP2 MSTORE PUSH1 0x20 ADD PUSH2 0x3E8 DUP2 MSTORE POP PUSH1 0x69 PUSH0 DUP3 ADD MLOAD DUP2 PUSH0 ADD SSTORE PUSH1 0x20 DUP3 ADD MLOAD DUP2 PUSH1 0x1 ADD SSTORE PUSH1 0x40 DUP3 ADD MLOAD DUP2 PUSH1 0x2 ADD SSTORE PUSH1 0x60 DUP3 ADD MLOAD DUP2 PUSH1 0x3 ADD SSTORE SWAP1 POP POP DUP4 ISZERO PUSH2 0x11DA JUMPI PUSH0 DUP6 PUSH0 ADD PUSH1 0x8 PUSH2 0x100 EXP DUP2 SLOAD DUP2 PUSH1 0xFF MUL NOT AND SWAP1 DUP4 ISZERO ISZERO MUL OR SWAP1 SSTORE POP PUSH32 0xC7F505B2F371AE2175EE4913F4499E1F2633A7B5936321EED1CDAEB6115181D2 PUSH1 0x1 PUSH1 0x40 MLOAD PUSH2 0x11D1 SWAP2 SWAP1 PUSH2 0x2890 JUMP JUMPDEST PUSH1 0x40 MLOAD DUP1 SWAP2 SUB SWAP1 LOG1 JUMPDEST POP POP POP POP POP POP POP POP JUMP JUMPDEST PUSH32 0xE1DCBDB91DF27212A29BC27177C840CF2F819ECF2187432E1FAC86C2DD5DFCA9 DUP2 JUMP JUMPDEST PUSH2 0x1211 DUP3 PUSH2 0x57D JUMP JUMPDEST PUSH2 0x121A DUP2 PUSH2 0x184C JUMP JUMPDEST PUSH2 0x1224 DUP4 DUP4 PUSH2 0x195F JUMP JUMPDEST POP POP POP POP JUMP JUMPDEST PUSH1 0x64 PUSH1 0x20 MSTORE DUP1 PUSH0 MSTORE PUSH1 0x40 PUSH0 KECCAK256 PUSH0 SWAP2 POP SWAP1 POP DUP1 PUSH0 ADD PUSH0 SWAP1 SLOAD SWAP1 PUSH2 0x100 EXP SWAP1 DIV PUSH20 0xFFFFFFFFFFFFFFFFFFFFFFFFFFFFFFFFFFFFFFFF AND SWAP1 DUP1 PUSH1 0x1 ADD PUSH0 SWAP1 SLOAD SWAP1 PUSH2 0x100 EXP SWAP1 DIV PUSH20 0xFFFFFFFFFFFFFFFFFFFFFFFFFFFFFFFFFFFFFFFF AND SWAP1 DUP1 PUSH1 0x2 ADD PUSH0 SWAP1 SLOAD SWAP1 PUSH2 0x100 EXP SWAP1 DIV PUSH20 0xFFFFFFFFFFFFFFFFFFFFFFFFFFFFFFFFFFFFFFFF AND SWAP1 DUP1 PUSH1 0x3 ADD SLOAD SWAP1 DUP1 PUSH1 0x4 ADD SLOAD SWAP1 DUP1 PUSH1 0x5 ADD SLOAD SWAP1 DUP1 PUSH1 0x6 ADD SLOAD SWAP1 DUP1 PUSH1 0x7 ADD PUSH0 SWAP1 SLOAD SWAP1 PUSH2 0x100 EXP SWAP1 DIV PUSH1 0xFF AND SWAP1 POP DUP9 JUMP JUMPDEST PUSH1 0x67 PUSH0 SWAP1 SLOAD SWAP1 PUSH2 0x100 EXP SWAP1 DIV PUSH20 0xFFFFFFFFFFFFFFFFFFFFFFFFFFFFFFFFFFFFFFFF AND DUP2 JUMP JUMPDEST PUSH2 0x1304 PUSH2 0x1AB7 JUMP JUMPDEST PUSH2 0x130C PUSH2 0x1B01 JUMP JUMPDEST PUSH0 DUP3 GT PUSH2 0x134E JUMPI PUSH1 0x40 MLOAD PUSH32 0x8C379A000000000000000000000000000000000000000000000000000000000 DUP2 MSTORE PUSH1 0x4 ADD PUSH2 0x1345 SWAP1 PUSH2 0x28F3 JUMP JUMPDEST PUSH1 0x40 MLOAD DUP1 SWAP2 SUB SWAP1 REVERT JUMPDEST PUSH0 DUP2 GT PUSH2 0x1390 JUMPI PUSH1 0x40 MLOAD PUSH32 0x8C379A000000000000000000000000000000000000000000000000000000000 DUP2 MSTORE PUSH1 0x4 ADD PUSH2 0x1387 SWAP1 PUSH2 0x295B JUMP JUMPDEST PUSH1 0x40 MLOAD DUP1 SWAP2 SUB SWAP1 REVERT JUMPDEST PUSH0 PUSH20 0xFFFFFFFFFFFFFFFFFFFFFFFFFFFFFFFFFFFFFFFF AND DUP4 PUSH20 0xFFFFFFFFFFFFFFFFFFFFFFFFFFFFFFFFFFFFFFFF AND SUB PUSH2 0x13FE JUMPI PUSH1 0x40 MLOAD PUSH32 0x8C379A000000000000000000000000000000000000000000000000000000000 DUP2 MSTORE PUSH1 0x4 ADD PUSH2 0x13F5 SWAP1 PUSH2 0x29C3 JUMP JUMPDEST PUSH1 0x40 MLOAD DUP1 SWAP2 SUB SWAP1 REVERT JUMPDEST DUP4 PUSH20 0xFFFFFFFFFFFFFFFFFFFFFFFFFFFFFFFFFFFFFFFF AND PUSH4 0x23B872DD CALLER ADDRESS DUP6 PUSH1 0x40 MLOAD DUP5 PUSH4 0xFFFFFFFF AND PUSH1 0xE0 SHL DUP2 MSTORE PUSH1 0x4 ADD PUSH2 0x143B SWAP4 SWAP3 SWAP2 SWAP1 PUSH2 0x2793 JUMP JUMPDEST PUSH1 0x20 PUSH1 0x40 MLOAD DUP1 DUP4 SUB DUP2 PUSH0 DUP8 GAS CALL ISZERO DUP1 ISZERO PUSH2 0x1457 JUMPI RETURNDATASIZE PUSH0 DUP1 RETURNDATACOPY RETURNDATASIZE PUSH0 REVERT JUMPDEST POP POP POP POP PUSH1 0x40 MLOAD RETURNDATASIZE PUSH1 0x1F NOT PUSH1 0x1F DUP3 ADD AND DUP3 ADD DUP1 PUSH1 0x40 MSTORE POP DUP2 ADD SWAP1 PUSH2 0x147B SWAP2 SWAP1 PUSH2 0x27F2 JUMP JUMPDEST POP PUSH0 PUSH2 0x1488 DUP6 DUP6 DUP6 PUSH2 0x1E4C JUMP JUMPDEST SWAP1 POP PUSH0 PUSH1 0x64 PUSH1 0x69 PUSH1 0x1 ADD SLOAD DUP4 PUSH2 0x149E SWAP2 SWAP1 PUSH2 0x2752 JUMP JUMPDEST PUSH2 0x14A8 SWAP2 SWAP1 PUSH2 0x2A0E JUMP JUMPDEST SWAP1 POP DUP1 DUP4 GT ISZERO PUSH2 0x14ED JUMPI PUSH1 0x40 MLOAD PUSH32 0x8C379A000000000000000000000000000000000000000000000000000000000 DUP2 MSTORE PUSH1 0x4 ADD PUSH2 0x14E4 SWAP1 PUSH2 0x2AAE JUMP JUMPDEST PUSH1 0x40 MLOAD DUP1 SWAP2 SUB SWAP1 REVERT JUMPDEST PUSH0 PUSH1 0x6D PUSH0 DUP2 SLOAD DUP1 SWAP3 SWAP2 SWAP1 PUSH2 0x1500 SWAP1 PUSH2 0x2ACC JUMP JUMPDEST SWAP2 SWAP1 POP SSTORE SWAP1 POP PUSH1 0x40 MLOAD DUP1 PUSH2 0x100 ADD PUSH1 0x40 MSTORE DUP1 CALLER PUSH20 0xFFFFFFFFFFFFFFFFFFFFFFFFFFFFFFFFFFFFFFFF AND DUP2 MSTORE PUSH1 0x20 ADD DUP9 PUSH20 0xFFFFFFFFFFFFFFFFFFFFFFFFFFFFFFFFFFFFFFFF AND DUP2 MSTORE PUSH1 0x20 ADD DUP8 PUSH20 0xFFFFFFFFFFFFFFFFFFFFFFFFFFFFFFFFFFFFFFFF AND DUP2 MSTORE PUSH1 0x20 ADD DUP7 DUP2 MSTORE PUSH1 0x20 ADD DUP6 DUP2 MSTORE PUSH1 0x20 ADD PUSH1 0x69 PUSH1 0x2 ADD SLOAD DUP2 MSTORE PUSH1 0x20 ADD TIMESTAMP DUP2 MSTORE PUSH1 0x20 ADD PUSH1 0x1 ISZERO ISZERO DUP2 MSTORE POP PUSH1 0x64 PUSH0 DUP4 DUP2 MSTORE PUSH1 0x20 ADD SWAP1 DUP2 MSTORE PUSH1 0x20 ADD PUSH0 KECCAK256 PUSH0 DUP3 ADD MLOAD DUP2 PUSH0 ADD PUSH0 PUSH2 0x100 EXP DUP2 SLOAD DUP2 PUSH20 0xFFFFFFFFFFFFFFFFFFFFFFFFFFFFFFFFFFFFFFFF MUL NOT AND SWAP1 DUP4 PUSH20 0xFFFFFFFFFFFFFFFFFFFFFFFFFFFFFFFFFFFFFFFF AND MUL OR SWAP1 SSTORE POP PUSH1 0x20 DUP3 ADD MLOAD DUP2 PUSH1 0x1 ADD PUSH0 PUSH2 0x100 EXP DUP2 SLOAD DUP2 PUSH20 0xFFFFFFFFFFFFFFFFFFFFFFFFFFFFFFFFFFFFFFFF MUL NOT AND SWAP1 DUP4 PUSH20 0xFFFFFFFFFFFFFFFFFFFFFFFFFFFFFFFFFFFFFFFF AND MUL OR SWAP1 SSTORE POP PUSH1 0x40 DUP3 ADD MLOAD DUP2 PUSH1 0x2 ADD PUSH0 PUSH2 0x100 EXP DUP2 SLOAD DUP2 PUSH20 0xFFFFFFFFFFFFFFFFFFFFFFFFFFFFFFFFFFFFFFFF MUL NOT AND SWAP1 DUP4 PUSH20 0xFFFFFFFFFFFFFFFFFFFFFFFFFFFFFFFFFFFFFFFF AND MUL OR SWAP1 SSTORE POP PUSH1 0x60 DUP3 ADD MLOAD DUP2 PUSH1 0x3 ADD SSTORE PUSH1 0x80 DUP3 ADD MLOAD DUP2 PUSH1 0x4 ADD SSTORE PUSH1 0xA0 DUP3 ADD MLOAD DUP2 PUSH1 0x5 ADD SSTORE PUSH1 0xC0 DUP3 ADD MLOAD DUP2 PUSH1 0x6 ADD SSTORE PUSH1 0xE0 DUP3 ADD MLOAD DUP2 PUSH1 0x7 ADD PUSH0 PUSH2 0x100 EXP DUP2 SLOAD DUP2 PUSH1 0xFF MUL NOT AND SWAP1 DUP4 ISZERO ISZERO MUL OR SWAP1 SSTORE POP SWAP1 POP POP PUSH1 0x67 PUSH0 SWAP1 SLOAD SWAP1 PUSH2 0x100 EXP SWAP1 DIV PUSH20 0xFFFFFFFFFFFFFFFFFFFFFFFFFFFFFFFFFFFFFFFF AND PUSH20 0xFFFFFFFFFFFFFFFFFFFFFFFFFFFFFFFFFFFFFFFF AND PUSH4 0xA9059CBB CALLER DUP7 PUSH1 0x40 MLOAD DUP4 PUSH4 0xFFFFFFFF AND PUSH1 0xE0 SHL DUP2 MSTORE PUSH1 0x4 ADD PUSH2 0x1711 SWAP3 SWAP2 SWAP1 PUSH2 0x281D JUMP JUMPDEST PUSH1 0x20 PUSH1 0x40 MLOAD DUP1 DUP4 SUB DUP2 PUSH0 DUP8 GAS CALL ISZERO DUP1 ISZERO PUSH2 0x172D JUMPI RETURNDATASIZE PUSH0 DUP1 RETURNDATACOPY RETURNDATASIZE PUSH0 REVERT JUMPDEST POP POP POP POP PUSH1 0x40 MLOAD RETURNDATASIZE PUSH1 0x1F NOT PUSH1 0x1F DUP3 ADD AND DUP3 ADD DUP1 PUSH1 0x40 MSTORE POP DUP2 ADD SWAP1 PUSH2 0x1751 SWAP2 SWAP1 PUSH2 0x27F2 JUMP JUMPDEST POP CALLER PUSH20 0xFFFFFFFFFFFFFFFFFFFFFFFFFFFFFFFFFFFFFFFF AND DUP2 PUSH32 0xD62D0078DAAAD723B2AB43C15BE6E72D2E7BF915E6314EB46555234B40F5FDF2 DUP10 DUP9 DUP9 PUSH1 0x40 MLOAD PUSH2 0x179D SWAP4 SWAP3 SWAP2 SWAP1 PUSH2 0x2B13 JUMP JUMPDEST PUSH1 0x40 MLOAD DUP1 SWAP2 SUB SWAP1 LOG3 POP POP POP PUSH2 0x17B0 PUSH2 0x1D2F JUMP JUMPDEST POP POP POP POP JUMP JUMPDEST PUSH1 0x6E SLOAD DUP2 JUMP JUMPDEST PUSH0 PUSH32 0x1FFC9A700000000000000000000000000000000000000000000000000000000 PUSH28 0xFFFFFFFFFFFFFFFFFFFFFFFFFFFFFFFFFFFFFFFFFFFFFFFFFFFFFFFF NOT AND DUP3 PUSH28 0xFFFFFFFFFFFFFFFFFFFFFFFFFFFFFFFFFFFFFFFFFFFFFFFFFFFFFFFF NOT AND EQ SWAP1 POP SWAP2 SWAP1 POP JUMP JUMPDEST PUSH0 PUSH32 0x2DD7BC7DEC4DCEEDDA775E58DD541E08A116C6C53815C0BD028192F7B626800 SWAP1 POP SWAP1 JUMP JUMPDEST PUSH2 0x185D DUP2 PUSH2 0x1858 PUSH2 0x1958 JUMP JUMPDEST PUSH2 0x1F5F JUMP JUMPDEST POP JUMP JUMPDEST PUSH0 DUP1 PUSH2 0x186A PUSH2 0x1825 JUMP JUMPDEST SWAP1 POP PUSH2 0x1876 DUP5 DUP5 PUSH2 0xED1 JUMP JUMPDEST PUSH2 0x194D JUMPI PUSH1 0x1 DUP2 PUSH0 ADD PUSH0 DUP7 DUP2 MSTORE PUSH1 0x20 ADD SWAP1 DUP2 MSTORE PUSH1 0x20 ADD PUSH0 KECCAK256 PUSH0 ADD PUSH0 DUP6 PUSH20 0xFFFFFFFFFFFFFFFFFFFFFFFFFFFFFFFFFFFFFFFF AND PUSH20 0xFFFFFFFFFFFFFFFFFFFFFFFFFFFFFFFFFFFFFFFF AND DUP2 MSTORE PUSH1 0x20 ADD SWAP1 DUP2 MSTORE PUSH1 0x20 ADD PUSH0 KECCAK256 PUSH0 PUSH2 0x100 EXP DUP2 SLOAD DUP2 PUSH1 0xFF MUL NOT AND SWAP1 DUP4 ISZERO ISZERO MUL OR SWAP1 SSTORE POP PUSH2 0x18E9 PUSH2 0x1958 JUMP JUMPDEST PUSH20 0xFFFFFFFFFFFFFFFFFFFFFFFFFFFFFFFFFFFFFFFF AND DUP4 PUSH20 0xFFFFFFFFFFFFFFFFFFFFFFFFFFFFFFFFFFFFFFFF AND DUP6 PUSH32 0x2F8788117E7EFF1D82E926EC794901D17C78024A50270940304540A733656F0D PUSH1 0x40 MLOAD PUSH1 0x40 MLOAD DUP1 SWAP2 SUB SWAP1 LOG4 PUSH1 0x1 SWAP2 POP POP PUSH2 0x1952 JUMP JUMPDEST PUSH0 SWAP2 POP POP JUMPDEST SWAP3 SWAP2 POP POP JUMP JUMPDEST PUSH0 CALLER SWAP1 POP SWAP1 JUMP JUMPDEST PUSH0 DUP1 PUSH2 0x1969 PUSH2 0x1825 JUMP JUMPDEST SWAP1 POP PUSH2 0x1975 DUP5 DUP5 PUSH2 0xED1 JUMP JUMPDEST ISZERO PUSH2 0x1A4C JUMPI PUSH0 DUP2 PUSH0 ADD PUSH0 DUP7 DUP2 MSTORE PUSH1 0x20 ADD SWAP1 DUP2 MSTORE PUSH1 0x20 ADD PUSH0 KECCAK256 PUSH0 ADD PUSH0 DUP6 PUSH20 0xFFFFFFFFFFFFFFFFFFFFFFFFFFFFFFFFFFFFFFFF AND PUSH20 0xFFFFFFFFFFFFFFFFFFFFFFFFFFFFFFFFFFFFFFFF AND DUP2 MSTORE PUSH1 0x20 ADD SWAP1 DUP2 MSTORE PUSH1 0x20 ADD PUSH0 KECCAK256 PUSH0 PUSH2 0x100 EXP DUP2 SLOAD DUP2 PUSH1 0xFF MUL NOT AND SWAP1 DUP4 ISZERO ISZERO MUL OR SWAP1 SSTORE POP PUSH2 0x19E8 PUSH2 0x1958 JUMP JUMPDEST PUSH20 0xFFFFFFFFFFFFFFFFFFFFFFFFFFFFFFFFFFFFFFFF AND DUP4 PUSH20 0xFFFFFFFFFFFFFFFFFFFFFFFFFFFFFFFFFFFFFFFF AND DUP6 PUSH32 0xF6391F5C32D9C69D2A47EA670B442974B53935D1EDC7FD64EB21E047A839171B PUSH1 0x40 MLOAD PUSH1 0x40 MLOAD DUP1 SWAP2 SUB SWAP1 LOG4 PUSH1 0x1 SWAP2 POP POP PUSH2 0x1A51 JUMP JUMPDEST PUSH0 SWAP2 POP POP JUMPDEST SWAP3 SWAP2 POP POP JUMP JUMPDEST PUSH2 0x1A5F PUSH2 0x1FB0 JUMP JUMPDEST PUSH0 DUP1 PUSH0 PUSH2 0x100 EXP DUP2 SLOAD DUP2 PUSH1 0xFF MUL NOT AND SWAP1 DUP4 ISZERO ISZERO MUL OR SWAP1 SSTORE POP PUSH32 0x5DB9EE0A495BF2E6FF9C91A7834C1BA4FDD244A5E8AA4E537BD38AEAE4B073AA PUSH2 0x1AA0 PUSH2 0x1958 JUMP JUMPDEST PUSH1 0x40 MLOAD PUSH2 0x1AAD SWAP2 SWAP1 PUSH2 0x2B48 JUMP JUMPDEST PUSH1 0x40 MLOAD DUP1 SWAP2 SUB SWAP1 LOG1 JUMP JUMPDEST PUSH2 0x1ABF PUSH2 0xB58 JUMP JUMPDEST ISZERO PUSH2 0x1AFF JUMPI PUSH1 0x40 MLOAD PUSH32 0x8C379A000000000000000000000000000000000000000000000000000000000 DUP2 MSTORE PUSH1 0x4 ADD PUSH2 0x1AF6 SWAP1 PUSH2 0x2BAB JUMP JUMPDEST PUSH1 0x40 MLOAD DUP1 SWAP2 SUB SWAP1 REVERT JUMPDEST JUMP JUMPDEST PUSH1 0x2 PUSH1 0x32 SLOAD SUB PUSH2 0x1B46 JUMPI PUSH1 0x40 MLOAD PUSH32 0x8C379A000000000000000000000000000000000000000000000000000000000 DUP2 MSTORE PUSH1 0x4 ADD PUSH2 0x1B3D SWAP1 PUSH2 0x2C13 JUMP JUMPDEST PUSH1 0x40 MLOAD DUP1 SWAP2 SUB SWAP1 REVERT JUMPDEST PUSH1 0x2 PUSH1 0x32 DUP2 SWAP1 SSTORE POP JUMP JUMPDEST PUSH0 DUP1 PUSH2 0x1B69 DUP4 PUSH1 0x20 ADD MLOAD DUP5 PUSH1 0x40 ADD MLOAD DUP6 PUSH1 0x60 ADD MLOAD PUSH2 0x1E4C JUMP JUMPDEST SWAP1 POP PUSH0 DUP4 PUSH1 0x80 ADD MLOAD SWAP1 POP PUSH1 0x64 PUSH1 0x69 PUSH0 ADD SLOAD DUP3 PUSH2 0x1B85 SWAP2 SWAP1 PUSH2 0x2752 JUMP JUMPDEST PUSH2 0x1B8F SWAP2 SWAP1 PUSH2 0x2A0E JUMP JUMPDEST DUP3 LT SWAP3 POP POP POP SWAP2 SWAP1 POP JUMP JUMPDEST PUSH0 DUP1 PUSH2 0x1BB3 DUP4 PUSH1 0x20 ADD MLOAD DUP5 PUSH1 0x40 ADD MLOAD DUP6 PUSH1 0x60 ADD MLOAD PUSH2 0x1E4C JUMP JUMPDEST SWAP1 POP PUSH0 PUSH1 0x6E PUSH0 DUP2 SLOAD DUP1 SWAP3 SWAP2 SWAP1 PUSH2 0x1BC8 SWAP1 PUSH2 0x2ACC JUMP JUMPDEST SWAP2 SWAP1 POP SSTORE SWAP1 POP PUSH1 0x40 MLOAD DUP1 PUSH1 0xC0 ADD PUSH1 0x40 MSTORE DUP1 DUP6 PUSH1 0x20 ADD MLOAD PUSH20 0xFFFFFFFFFFFFFFFFFFFFFFFFFFFFFFFFFFFFFFFF AND DUP2 MSTORE PUSH1 0x20 ADD DUP6 PUSH1 0x60 ADD MLOAD DUP2 MSTORE PUSH1 0x20 ADD DUP4 DUP2 MSTORE PUSH1 0x20 ADD PUSH1 0x64 PUSH1 0x69 PUSH1 0x3 ADD SLOAD PUSH1 0x64 PUSH2 0x1C1D SWAP2 SWAP1 PUSH2 0x2C31 JUMP JUMPDEST DUP6 PUSH2 0x1C28 SWAP2 SWAP1 PUSH2 0x2752 JUMP JUMPDEST PUSH2 0x1C32 SWAP2 SWAP1 PUSH2 0x2A0E JUMP JUMPDEST DUP2 MSTORE PUSH1 0x20 ADD TIMESTAMP DUP2 MSTORE PUSH1 0x20 ADD PUSH1 0x1 ISZERO ISZERO DUP2 MSTORE POP PUSH1 0x65 PUSH0 DUP4 DUP2 MSTORE PUSH1 0x20 ADD SWAP1 DUP2 MSTORE PUSH1 0x20 ADD PUSH0 KECCAK256 PUSH0 DUP3 ADD MLOAD DUP2 PUSH0 ADD PUSH0 PUSH2 0x100 EXP DUP2 SLOAD DUP2 PUSH20 0xFFFFFFFFFFFFFFFFFFFFFFFFFFFFFFFFFFFFFFFF MUL NOT AND SWAP1 DUP4 PUSH20 0xFFFFFFFFFFFFFFFFFFFFFFFFFFFFFFFFFFFFFFFF AND MUL OR SWAP1 SSTORE POP PUSH1 0x20 DUP3 ADD MLOAD DUP2 PUSH1 0x1 ADD SSTORE PUSH1 0x40 DUP3 ADD MLOAD DUP2 PUSH1 0x2 ADD SSTORE PUSH1 0x60 DUP3 ADD MLOAD DUP2 PUSH1 0x3 ADD SSTORE PUSH1 0x80 DUP3 ADD MLOAD DUP2 PUSH1 0x4 ADD SSTORE PUSH1 0xA0 DUP3 ADD MLOAD DUP2 PUSH1 0x5 ADD PUSH0 PUSH2 0x100 EXP DUP2 SLOAD DUP2 PUSH1 0xFF MUL NOT AND SWAP1 DUP4 ISZERO ISZERO MUL OR SWAP1 SSTORE POP SWAP1 POP POP DUP1 PUSH32 0xD7D053B3D3FC9E8145896F8940ADEB377F6735866F2161EF1660DAE9F0492475 DUP6 PUSH1 0x20 ADD MLOAD DUP7 PUSH1 0x60 ADD MLOAD PUSH1 0x40 MLOAD PUSH2 0x1D1D SWAP3 SWAP2 SWAP1 PUSH2 0x281D JUMP JUMPDEST PUSH1 0x40 MLOAD DUP1 SWAP2 SUB SWAP1 LOG2 DUP1 SWAP3 POP POP POP SWAP2 SWAP1 POP JUMP JUMPDEST PUSH1 0x1 PUSH1 0x32 DUP2 SWAP1 SSTORE POP JUMP JUMPDEST PUSH0 DUP1 DUP3 PUSH1 0x80 ADD MLOAD TIMESTAMP PUSH2 0x1D4B SWAP2 SWAP1 PUSH2 0x2C31 JUMP JUMPDEST SWAP1 POP PUSH0 PUSH3 0x15180 DUP3 DUP6 PUSH1 0x60 ADD MLOAD DUP7 PUSH1 0x40 ADD MLOAD PUSH2 0x1D67 SWAP2 SWAP1 PUSH2 0x2C31 JUMP JUMPDEST PUSH2 0x1D71 SWAP2 SWAP1 PUSH2 0x2752 JUMP JUMPDEST PUSH2 0x1D7B SWAP2 SWAP1 PUSH2 0x2A0E JUMP JUMPDEST SWAP1 POP DUP1 DUP5 PUSH1 0x40 ADD MLOAD PUSH2 0x1D8D SWAP2 SWAP1 PUSH2 0x2C31 JUMP JUMPDEST SWAP3 POP POP POP SWAP2 SWAP1 POP JUMP JUMPDEST PUSH2 0x1D9E PUSH2 0x1AB7 JUMP JUMPDEST PUSH1 0x1 PUSH0 DUP1 PUSH2 0x100 EXP DUP2 SLOAD DUP2 PUSH1 0xFF MUL NOT AND SWAP1 DUP4 ISZERO ISZERO MUL OR SWAP1 SSTORE POP PUSH32 0x62E78CEA01BEE320CD4E420270B5EA74000D11B0C9F74754EBDBFC544B05A258 PUSH2 0x1DE0 PUSH2 0x1958 JUMP JUMPDEST PUSH1 0x40 MLOAD PUSH2 0x1DED SWAP2 SWAP1 PUSH2 0x2B48 JUMP JUMPDEST PUSH1 0x40 MLOAD DUP1 SWAP2 SUB SWAP1 LOG1 JUMP JUMPDEST PUSH0 PUSH32 0xF0C57E16840DF040F15088DC2F81FE391C3923BEC73E23A9662EFC9C229C6A00 SWAP1 POP SWAP1 JUMP JUMPDEST PUSH2 0x1E26 PUSH2 0x1FF9 JUMP JUMPDEST JUMP JUMPDEST PUSH2 0x1E30 PUSH2 0x1FF9 JUMP JUMPDEST PUSH2 0x1E38 PUSH2 0x2039 JUMP JUMPDEST JUMP JUMPDEST PUSH2 0x1E42 PUSH2 0x1FF9 JUMP JUMPDEST PUSH2 0x1E4A PUSH2 0x205B JUMP JUMPDEST JUMP JUMPDEST PUSH0 DUP1 DUP4 SWAP1 POP PUSH0 DUP2 PUSH20 0xFFFFFFFFFFFFFFFFFFFFFFFFFFFFFFFFFFFFFFFF AND PUSH4 0xFEAF968C PUSH1 0x40 MLOAD DUP2 PUSH4 0xFFFFFFFF AND PUSH1 0xE0 SHL DUP2 MSTORE PUSH1 0x4 ADD PUSH1 0xA0 PUSH1 0x40 MLOAD DUP1 DUP4 SUB DUP2 DUP7 GAS STATICCALL ISZERO DUP1 ISZERO PUSH2 0x1E9B JUMPI RETURNDATASIZE PUSH0 DUP1 RETURNDATACOPY RETURNDATASIZE PUSH0 REVERT JUMPDEST POP POP POP POP PUSH1 0x40 MLOAD RETURNDATASIZE PUSH1 0x1F NOT PUSH1 0x1F DUP3 ADD AND DUP3 ADD DUP1 PUSH1 0x40 MSTORE POP DUP2 ADD SWAP1 PUSH2 0x1EBF SWAP2 SWAP1 PUSH2 0x2CEA JUMP JUMPDEST POP POP POP SWAP2 POP POP DUP2 PUSH20 0xFFFFFFFFFFFFFFFFFFFFFFFFFFFFFFFFFFFFFFFF AND PUSH4 0x313CE567 PUSH1 0x40 MLOAD DUP2 PUSH4 0xFFFFFFFF AND PUSH1 0xE0 SHL DUP2 MSTORE PUSH1 0x4 ADD PUSH1 0x20 PUSH1 0x40 MLOAD DUP1 DUP4 SUB DUP2 DUP7 GAS STATICCALL ISZERO DUP1 ISZERO PUSH2 0x1F0E JUMPI RETURNDATASIZE PUSH0 DUP1 RETURNDATACOPY RETURNDATASIZE PUSH0 REVERT JUMPDEST POP POP POP POP PUSH1 0x40 MLOAD RETURNDATASIZE PUSH1 0x1F NOT PUSH1 0x1F DUP3 ADD AND DUP3 ADD DUP1 PUSH1 0x40 MSTORE POP DUP2 ADD SWAP1 PUSH2 0x1F32 SWAP2 SWAP1 PUSH2 0x2D97 JUMP JUMPDEST PUSH1 0xA PUSH2 0x1F3E SWAP2 SWAP1 PUSH2 0x2EF1 JUMP JUMPDEST DUP5 DUP3 PUSH2 0x1F4A SWAP2 SWAP1 PUSH2 0x2752 JUMP JUMPDEST PUSH2 0x1F54 SWAP2 SWAP1 PUSH2 0x2A0E JUMP JUMPDEST SWAP3 POP POP POP SWAP4 SWAP3 POP POP POP JUMP JUMPDEST PUSH2 0x1F69 DUP3 DUP3 PUSH2 0xED1 JUMP JUMPDEST PUSH2 0x1FAC JUMPI DUP1 DUP3 PUSH1 0x40 MLOAD PUSH32 0xE2517D3F00000000000000000000000000000000000000000000000000000000 DUP2 MSTORE PUSH1 0x4 ADD PUSH2 0x1FA3 SWAP3 SWAP2 SWAP1 PUSH2 0x2F3B JUMP JUMPDEST PUSH1 0x40 MLOAD DUP1 SWAP2 SUB SWAP1 REVERT JUMPDEST POP POP JUMP JUMPDEST PUSH2 0x1FB8 PUSH2 0xB58 JUMP JUMPDEST PUSH2 0x1FF7 JUMPI PUSH1 0x40 MLOAD PUSH32 0x8C379A000000000000000000000000000000000000000000000000000000000 DUP2 MSTORE PUSH1 0x4 ADD PUSH2 0x1FEE SWAP1 PUSH2 0x2FAC JUMP JUMPDEST PUSH1 0x40 MLOAD DUP1 SWAP2 SUB SWAP1 REVERT JUMPDEST JUMP JUMPDEST PUSH2 0x2001 PUSH2 0x206D JUMP JUMPDEST PUSH2 0x2037 JUMPI PUSH1 0x40 MLOAD PUSH32 0xD7E6BCF800000000000000000000000000000000000000000000000000000000 DUP2 MSTORE PUSH1 0x4 ADD PUSH1 0x40 MLOAD DUP1 SWAP2 SUB SWAP1 REVERT JUMPDEST JUMP JUMPDEST PUSH2 0x2041 PUSH2 0x1FF9 JUMP JUMPDEST PUSH0 DUP1 PUSH0 PUSH2 0x100 EXP DUP2 SLOAD DUP2 PUSH1 0xFF MUL NOT AND SWAP1 DUP4 ISZERO ISZERO MUL OR SWAP1 SSTORE POP JUMP JUMPDEST PUSH2 0x2063 PUSH2 0x1FF9 JUMP JUMPDEST PUSH1 0x1 PUSH1 0x32 DUP2 SWAP1 SSTORE POP JUMP JUMPDEST PUSH0 PUSH2 0x2076 PUSH2 0x1DF7 JUMP JUMPDEST PUSH0 ADD PUSH1 0x8 SWAP1 SLOAD SWAP1 PUSH2 0x100 EXP SWAP1 DIV PUSH1 0xFF AND SWAP1 POP SWAP1 JUMP JUMPDEST PUSH0 DUP1 REVERT JUMPDEST PUSH0 PUSH32 0xFFFFFFFF00000000000000000000000000000000000000000000000000000000 DUP3 AND SWAP1 POP SWAP2 SWAP1 POP JUMP JUMPDEST PUSH2 0x20C3 DUP2 PUSH2 0x208F JUMP JUMPDEST DUP2 EQ PUSH2 0x20CD JUMPI PUSH0 DUP1 REVERT JUMPDEST POP JUMP JUMPDEST PUSH0 DUP2 CALLDATALOAD SWAP1 POP PUSH2 0x20DE DUP2 PUSH2 0x20BA JUMP JUMPDEST SWAP3 SWAP2 POP POP JUMP JUMPDEST PUSH0 PUSH1 0x20 DUP3 DUP5 SUB SLT ISZERO PUSH2 0x20F9 JUMPI PUSH2 0x20F8 PUSH2 0x208B JUMP JUMPDEST JUMPDEST PUSH0 PUSH2 0x2106 DUP5 DUP3 DUP6 ADD PUSH2 0x20D0 JUMP JUMPDEST SWAP2 POP POP SWAP3 SWAP2 POP POP JUMP JUMPDEST PUSH0 DUP2 ISZERO ISZERO SWAP1 POP SWAP2 SWAP1 POP JUMP JUMPDEST PUSH2 0x2123 DUP2 PUSH2 0x210F JUMP JUMPDEST DUP3 MSTORE POP POP JUMP JUMPDEST PUSH0 PUSH1 0x20 DUP3 ADD SWAP1 POP PUSH2 0x213C PUSH0 DUP4 ADD DUP5 PUSH2 0x211A JUMP JUMPDEST SWAP3 SWAP2 POP POP JUMP JUMPDEST PUSH0 PUSH20 0xFFFFFFFFFFFFFFFFFFFFFFFFFFFFFFFFFFFFFFFF DUP3 AND SWAP1 POP SWAP2 SWAP1 POP JUMP JUMPDEST PUSH0 DUP2 SWAP1 POP SWAP2 SWAP1 POP JUMP JUMPDEST PUSH0 PUSH2 0x2184 PUSH2 0x217F PUSH2 0x217A DUP5 PUSH2 0x2142 JUMP JUMPDEST PUSH2 0x2161 JUMP JUMPDEST PUSH2 0x2142 JUMP JUMPDEST SWAP1 POP SWAP2 SWAP1 POP JUMP JUMPDEST PUSH0 PUSH2 0x2195 DUP3 PUSH2 0x216A JUMP JUMPDEST SWAP1 POP SWAP2 SWAP1 POP JUMP JUMPDEST PUSH0 PUSH2 0x21A6 DUP3 PUSH2 0x218B JUMP JUMPDEST SWAP1 POP SWAP2 SWAP1 POP JUMP JUMPDEST PUSH2 0x21B6 DUP2 PUSH2 0x219C JUMP JUMPDEST DUP3 MSTORE POP POP JUMP JUMPDEST PUSH0 PUSH1 0x20 DUP3 ADD SWAP1 POP PUSH2 0x21CF PUSH0 DUP4 ADD DUP5 PUSH2 0x21AD JUMP JUMPDEST SWAP3 SWAP2 POP POP JUMP JUMPDEST PUSH0 DUP2 SWAP1 POP SWAP2 SWAP1 POP JUMP JUMPDEST PUSH2 0x21E7 DUP2 PUSH2 0x21D5 JUMP JUMPDEST DUP2 EQ PUSH2 0x21F1 JUMPI PUSH0 DUP1 REVERT JUMPDEST POP JUMP JUMPDEST PUSH0 DUP2 CALLDATALOAD SWAP1 POP PUSH2 0x2202 DUP2 PUSH2 0x21DE JUMP JUMPDEST SWAP3 SWAP2 POP POP JUMP JUMPDEST PUSH0 PUSH1 0x20 DUP3 DUP5 SUB SLT ISZERO PUSH2 0x221D JUMPI PUSH2 0x221C PUSH2 0x208B JUMP JUMPDEST JUMPDEST PUSH0 PUSH2 0x222A DUP5 DUP3 DUP6 ADD PUSH2 0x21F4 JUMP JUMPDEST SWAP2 POP POP SWAP3 SWAP2 POP POP JUMP JUMPDEST PUSH2 0x223C DUP2 PUSH2 0x21D5 JUMP JUMPDEST DUP3 MSTORE POP POP JUMP JUMPDEST PUSH0 PUSH1 0x20 DUP3 ADD SWAP1 POP PUSH2 0x2255 PUSH0 DUP4 ADD DUP5 PUSH2 0x2233 JUMP JUMPDEST SWAP3 SWAP2 POP POP JUMP JUMPDEST PUSH0 PUSH2 0x2265 DUP3 PUSH2 0x2142 JUMP JUMPDEST SWAP1 POP SWAP2 SWAP1 POP JUMP JUMPDEST PUSH2 0x2275 DUP2 PUSH2 0x225B JUMP JUMPDEST DUP2 EQ PUSH2 0x227F JUMPI PUSH0 DUP1 REVERT JUMPDEST POP JUMP JUMPDEST PUSH0 DUP2 CALLDATALOAD SWAP1 POP PUSH2 0x2290 DUP2 PUSH2 0x226C JUMP JUMPDEST SWAP3 SWAP2 POP POP JUMP JUMPDEST PUSH0 DUP1 PUSH1 0x40 DUP4 DUP6 SUB SLT ISZERO PUSH2 0x22AC JUMPI PUSH2 0x22AB PUSH2 0x208B JUMP JUMPDEST JUMPDEST PUSH0 PUSH2 0x22B9 DUP6 DUP3 DUP7 ADD PUSH2 0x2282 JUMP JUMPDEST SWAP3 POP POP PUSH1 0x20 PUSH2 0x22CA DUP6 DUP3 DUP7 ADD PUSH2 0x2282 JUMP JUMPDEST SWAP2 POP POP SWAP3 POP SWAP3 SWAP1 POP JUMP JUMPDEST PUSH0 DUP2 SWAP1 POP SWAP2 SWAP1 POP JUMP JUMPDEST PUSH2 0x22E6 DUP2 PUSH2 0x22D4 JUMP JUMPDEST DUP3 MSTORE POP POP JUMP JUMPDEST PUSH0 PUSH1 0x20 DUP3 ADD SWAP1 POP PUSH2 0x22FF PUSH0 DUP4 ADD DUP5 PUSH2 0x22DD JUMP JUMPDEST SWAP3 SWAP2 POP POP JUMP JUMPDEST PUSH0 DUP1 PUSH1 0x40 DUP4 DUP6 SUB SLT ISZERO PUSH2 0x231B JUMPI PUSH2 0x231A PUSH2 0x208B JUMP JUMPDEST JUMPDEST PUSH0 PUSH2 0x2328 DUP6 DUP3 DUP7 ADD PUSH2 0x21F4 JUMP JUMPDEST SWAP3 POP POP PUSH1 0x20 PUSH2 0x2339 DUP6 DUP3 DUP7 ADD PUSH2 0x2282 JUMP JUMPDEST SWAP2 POP POP SWAP3 POP SWAP3 SWAP1 POP JUMP JUMPDEST PUSH2 0x234C DUP2 PUSH2 0x22D4 JUMP JUMPDEST DUP2 EQ PUSH2 0x2356 JUMPI PUSH0 DUP1 REVERT JUMPDEST POP JUMP JUMPDEST PUSH0 DUP2 CALLDATALOAD SWAP1 POP PUSH2 0x2367 DUP2 PUSH2 0x2343 JUMP JUMPDEST SWAP3 SWAP2 POP POP JUMP JUMPDEST PUSH0 PUSH1 0x20 DUP3 DUP5 SUB SLT ISZERO PUSH2 0x2382 JUMPI PUSH2 0x2381 PUSH2 0x208B JUMP JUMPDEST JUMPDEST PUSH0 PUSH2 0x238F DUP5 DUP3 DUP6 ADD PUSH2 0x2359 JUMP JUMPDEST SWAP2 POP POP SWAP3 SWAP2 POP POP JUMP JUMPDEST PUSH0 DUP1 PUSH0 DUP1 PUSH1 0x80 DUP6 DUP8 SUB SLT ISZERO PUSH2 0x23B0 JUMPI PUSH2 0x23AF PUSH2 0x208B JUMP JUMPDEST JUMPDEST PUSH0 PUSH2 0x23BD DUP8 DUP3 DUP9 ADD PUSH2 0x2359 JUMP JUMPDEST SWAP5 POP POP PUSH1 0x20 PUSH2 0x23CE DUP8 DUP3 DUP9 ADD PUSH2 0x2359 JUMP JUMPDEST SWAP4 POP POP PUSH1 0x40 PUSH2 0x23DF DUP8 DUP3 DUP9 ADD PUSH2 0x2359 JUMP JUMPDEST SWAP3 POP POP PUSH1 0x60 PUSH2 0x23F0 DUP8 DUP3 DUP9 ADD PUSH2 0x2359 JUMP JUMPDEST SWAP2 POP POP SWAP3 SWAP6 SWAP2 SWAP5 POP SWAP3 POP JUMP JUMPDEST PUSH2 0x2405 DUP2 PUSH2 0x225B JUMP JUMPDEST DUP3 MSTORE POP POP JUMP JUMPDEST PUSH0 PUSH1 0xC0 DUP3 ADD SWAP1 POP PUSH2 0x241E PUSH0 DUP4 ADD DUP10 PUSH2 0x23FC JUMP JUMPDEST PUSH2 0x242B PUSH1 0x20 DUP4 ADD DUP9 PUSH2 0x22DD JUMP JUMPDEST PUSH2 0x2438 PUSH1 0x40 DUP4 ADD DUP8 PUSH2 0x22DD JUMP JUMPDEST PUSH2 0x2445 PUSH1 0x60 DUP4 ADD DUP7 PUSH2 0x22DD JUMP JUMPDEST PUSH2 0x2452 PUSH1 0x80 DUP4 ADD DUP6 PUSH2 0x22DD JUMP JUMPDEST PUSH2 0x245F PUSH1 0xA0 DUP4 ADD DUP5 PUSH2 0x211A JUMP JUMPDEST SWAP8 SWAP7 POP POP POP POP POP POP POP JUMP JUMPDEST PUSH0 PUSH1 0x80 DUP3 ADD SWAP1 POP PUSH2 0x247D PUSH0 DUP4 ADD DUP8 PUSH2 0x22DD JUMP JUMPDEST PUSH2 0x248A PUSH1 0x20 DUP4 ADD DUP7 PUSH2 0x22DD JUMP JUMPDEST PUSH2 0x2497 PUSH1 0x40 DUP4 ADD DUP6 PUSH2 0x22DD JUMP JUMPDEST PUSH2 0x24A4 PUSH1 0x60 DUP4 ADD DUP5 PUSH2 0x22DD JUMP JUMPDEST SWAP6 SWAP5 POP POP POP POP POP JUMP JUMPDEST PUSH0 DUP1 PUSH0 PUSH1 0x60 DUP5 DUP7 SUB SLT ISZERO PUSH2 0x24C4 JUMPI PUSH2 0x24C3 PUSH2 0x208B JUMP JUMPDEST JUMPDEST PUSH0 PUSH2 0x24D1 DUP7 DUP3 DUP8 ADD PUSH2 0x2282 JUMP JUMPDEST SWAP4 POP POP PUSH1 0x20 PUSH2 0x24E2 DUP7 DUP3 DUP8 ADD PUSH2 0x2282 JUMP JUMPDEST SWAP3 POP POP PUSH1 0x40 PUSH2 0x24F3 DUP7 DUP3 DUP8 ADD PUSH2 0x2282 JUMP JUMPDEST SWAP2 POP POP SWAP3 POP SWAP3 POP SWAP3 JUMP JUMPDEST PUSH0 PUSH2 0x100 DUP3 ADD SWAP1 POP PUSH2 0x2511 PUSH0 DUP4 ADD DUP12 PUSH2 0x23FC JUMP JUMPDEST PUSH2 0x251E PUSH1 0x20 DUP4 ADD DUP11 PUSH2 0x23FC JUMP JUMPDEST PUSH2 0x252B PUSH1 0x40 DUP4 ADD DUP10 PUSH2 0x23FC JUMP JUMPDEST PUSH2 0x2538 PUSH1 0x60 DUP4 ADD DUP9 PUSH2 0x22DD JUMP JUMPDEST PUSH2 0x2545 PUSH1 0x80 DUP4 ADD DUP8 PUSH2 0x22DD JUMP JUMPDEST PUSH2 0x2552 PUSH1 0xA0 DUP4 ADD DUP7 PUSH2 0x22DD JUMP JUMPDEST PUSH2 0x255F PUSH1 0xC0 DUP4 ADD DUP6 PUSH2 0x22DD JUMP JUMPDEST PUSH2 0x256C PUSH1 0xE0 DUP4 ADD DUP5 PUSH2 0x211A JUMP JUMPDEST SWAP10 SWAP9 POP POP POP POP POP POP POP POP POP JUMP JUMPDEST PUSH0 DUP1 PUSH0 DUP1 PUSH1 0x80 DUP6 DUP8 SUB SLT ISZERO PUSH2 0x2591 JUMPI PUSH2 0x2590 PUSH2 0x208B JUMP JUMPDEST JUMPDEST PUSH0 PUSH2 0x259E DUP8 DUP3 DUP9 ADD PUSH2 0x2282 JUMP JUMPDEST SWAP5 POP POP PUSH1 0x20 PUSH2 0x25AF DUP8 DUP3 DUP9 ADD PUSH2 0x2282 JUMP JUMPDEST SWAP4 POP POP PUSH1 0x40 PUSH2 0x25C0 DUP8 DUP3 DUP9 ADD PUSH2 0x2359 JUMP JUMPDEST SWAP3 POP POP PUSH1 0x60 PUSH2 0x25D1 DUP8 DUP3 DUP9 ADD PUSH2 0x2359 JUMP JUMPDEST SWAP2 POP POP SWAP3 SWAP6 SWAP2 SWAP5 POP SWAP3 POP JUMP JUMPDEST PUSH0 DUP3 DUP3 MSTORE PUSH1 0x20 DUP3 ADD SWAP1 POP SWAP3 SWAP2 POP POP JUMP JUMPDEST PUSH32 0x4C6F616E206E6F74206163746976650000000000000000000000000000000000 PUSH0 DUP3 ADD MSTORE POP JUMP JUMPDEST PUSH0 PUSH2 0x2621 PUSH1 0xF DUP4 PUSH2 0x25DD JUMP JUMPDEST SWAP2 POP PUSH2 0x262C DUP3 PUSH2 0x25ED JUMP JUMPDEST PUSH1 0x20 DUP3 ADD SWAP1 POP SWAP2 SWAP1 POP JUMP JUMPDEST PUSH0 PUSH1 0x20 DUP3 ADD SWAP1 POP DUP2 DUP2 SUB PUSH0 DUP4 ADD MSTORE PUSH2 0x264E DUP2 PUSH2 0x2615 JUMP JUMPDEST SWAP1 POP SWAP2 SWAP1 POP JUMP JUMPDEST PUSH32 0x4C6F616E206E6F74206C6971756964617461626C650000000000000000000000 PUSH0 DUP3 ADD MSTORE POP JUMP JUMPDEST PUSH0 PUSH2 0x2689 PUSH1 0x15 DUP4 PUSH2 0x25DD JUMP JUMPDEST SWAP2 POP PUSH2 0x2694 DUP3 PUSH2 0x2655 JUMP JUMPDEST PUSH1 0x20 DUP3 ADD SWAP1 POP SWAP2 SWAP1 POP JUMP JUMPDEST PUSH0 PUSH1 0x20 DUP3 ADD SWAP1 POP DUP2 DUP2 SUB PUSH0 DUP4 ADD MSTORE PUSH2 0x26B6 DUP2 PUSH2 0x267D JUMP JUMPDEST SWAP1 POP SWAP2 SWAP1 POP JUMP JUMPDEST PUSH32 0x41756374696F6E206E6F74206163746976650000000000000000000000000000 PUSH0 DUP3 ADD MSTORE POP JUMP JUMPDEST PUSH0 PUSH2 0x26F1 PUSH1 0x12 DUP4 PUSH2 0x25DD JUMP JUMPDEST SWAP2 POP PUSH2 0x26FC DUP3 PUSH2 0x26BD JUMP JUMPDEST PUSH1 0x20 DUP3 ADD SWAP1 POP SWAP2 SWAP1 POP JUMP JUMPDEST PUSH0 PUSH1 0x20 DUP3 ADD SWAP1 POP DUP2 DUP2 SUB PUSH0 DUP4 ADD MSTORE PUSH2 0x271E DUP2 PUSH2 0x26E5 JUMP JUMPDEST SWAP1 POP SWAP2 SWAP1 POP JUMP JUMPDEST PUSH32 0x4E487B7100000000000000000000000000000000000000000000000000000000 PUSH0 MSTORE PUSH1 0x11 PUSH1 0x4 MSTORE PUSH1 0x24 PUSH0 REVERT JUMPDEST PUSH0 PUSH2 0x275C DUP3 PUSH2 0x22D4 JUMP JUMPDEST SWAP2 POP PUSH2 0x2767 DUP4 PUSH2 0x22D4 JUMP JUMPDEST SWAP3 POP DUP3 DUP3 MUL PUSH2 0x2775 DUP2 PUSH2 0x22D4 JUMP JUMPDEST SWAP2 POP DUP3 DUP3 DIV DUP5 EQ DUP4 ISZERO OR PUSH2 0x278C JUMPI PUSH2 0x278B PUSH2 0x2725 JUMP JUMPDEST JUMPDEST POP SWAP3 SWAP2 POP POP JUMP JUMPDEST PUSH0 PUSH1 0x60 DUP3 ADD SWAP1 POP PUSH2 0x27A6 PUSH0 DUP4 ADD DUP7 PUSH2 0x23FC JUMP JUMPDEST PUSH2 0x27B3 PUSH1 0x20 DUP4 ADD DUP6 PUSH2 0x23FC JUMP JUMPDEST PUSH2 0x27C0 PUSH1 0x40 DUP4 ADD DUP5 PUSH2 0x22DD JUMP JUMPDEST SWAP5 SWAP4 POP POP POP POP JUMP JUMPDEST PUSH2 0x27D1 DUP2 PUSH2 0x210F JUMP JUMPDEST DUP2 EQ PUSH2 0x27DB JUMPI PUSH0 DUP1 REVERT JUMPDEST POP JUMP JUMPDEST PUSH0 DUP2 MLOAD SWAP1 POP PUSH2 0x27EC DUP2 PUSH2 0x27C8 JUMP JUMPDEST SWAP3 SWAP2 POP POP JUMP JUMPDEST PUSH0 PUSH1 0x20 DUP3 DUP5 SUB SLT ISZERO PUSH2 0x2807 JUMPI PUSH2 0x2806 PUSH2 0x208B JUMP JUMPDEST JUMPDEST PUSH0 PUSH2 0x2814 DUP5 DUP3 DUP6 ADD PUSH2 0x27DE JUMP JUMPDEST SWAP2 POP POP SWAP3 SWAP2 POP POP JUMP JUMPDEST PUSH0 PUSH1 0x40 DUP3 ADD SWAP1 POP PUSH2 0x2830 PUSH0 DUP4 ADD DUP6 PUSH2 0x23FC JUMP JUMPDEST PUSH2 0x283D PUSH1 0x20 DUP4 ADD DUP5 PUSH2 0x22DD JUMP JUMPDEST SWAP4 SWAP3 POP POP POP JUMP JUMPDEST PUSH0 DUP2 SWAP1 POP SWAP2 SWAP1 POP JUMP JUMPDEST PUSH0 PUSH8 0xFFFFFFFFFFFFFFFF DUP3 AND SWAP1 POP SWAP2 SWAP1 POP JUMP JUMPDEST PUSH0 PUSH2 0x287A PUSH2 0x2875 PUSH2 0x2870 DUP5 PUSH2 0x2844 JUMP JUMPDEST PUSH2 0x2161 JUMP JUMPDEST PUSH2 0x284D JUMP JUMPDEST SWAP1 POP SWAP2 SWAP1 POP JUMP JUMPDEST PUSH2 0x288A DUP2 PUSH2 0x2860 JUMP JUMPDEST DUP3 MSTORE POP POP JUMP JUMPDEST PUSH0 PUSH1 0x20 DUP3 ADD SWAP1 POP PUSH2 0x28A3 PUSH0 DUP4 ADD DUP5 PUSH2 0x2881 JUMP JUMPDEST SWAP3 SWAP2 POP POP JUMP JUMPDEST PUSH32 0x496E76616C696420636F6C6C61746572616C20616D6F756E7400000000000000 PUSH0 DUP3 ADD MSTORE POP JUMP JUMPDEST PUSH0 PUSH2 0x28DD PUSH1 0x19 DUP4 PUSH2 0x25DD JUMP JUMPDEST SWAP2 POP PUSH2 0x28E8 DUP3 PUSH2 0x28A9 JUMP JUMPDEST PUSH1 0x20 DUP3 ADD SWAP1 POP SWAP2 SWAP1 POP JUMP JUMPDEST PUSH0 PUSH1 0x20 DUP3 ADD SWAP1 POP DUP2 DUP2 SUB PUSH0 DUP4 ADD MSTORE PUSH2 0x290A DUP2 PUSH2 0x28D1 JUMP JUMPDEST SWAP1 POP SWAP2 SWAP1 POP JUMP JUMPDEST PUSH32 0x496E76616C696420626F72726F7720616D6F756E740000000000000000000000 PUSH0 DUP3 ADD MSTORE POP JUMP JUMPDEST PUSH0 PUSH2 0x2945 PUSH1 0x15 DUP4 PUSH2 0x25DD JUMP JUMPDEST SWAP2 POP PUSH2 0x2950 DUP3 PUSH2 0x2911 JUMP JUMPDEST PUSH1 0x20 DUP3 ADD SWAP1 POP SWAP2 SWAP1 POP JUMP JUMPDEST PUSH0 PUSH1 0x20 DUP3 ADD SWAP1 POP DUP2 DUP2 SUB PUSH0 DUP4 ADD MSTORE PUSH2 0x2972 DUP2 PUSH2 0x2939 JUMP JUMPDEST SWAP1 POP SWAP2 SWAP1 POP JUMP JUMPDEST PUSH32 0x496E76616C696420707269636520666565640000000000000000000000000000 PUSH0 DUP3 ADD MSTORE POP JUMP JUMPDEST PUSH0 PUSH2 0x29AD PUSH1 0x12 DUP4 PUSH2 0x25DD JUMP JUMPDEST SWAP2 POP PUSH2 0x29B8 DUP3 PUSH2 0x2979 JUMP JUMPDEST PUSH1 0x20 DUP3 ADD SWAP1 POP SWAP2 SWAP1 POP JUMP JUMPDEST PUSH0 PUSH1 0x20 DUP3 ADD SWAP1 POP DUP2 DUP2 SUB PUSH0 DUP4 ADD MSTORE PUSH2 0x29DA DUP2 PUSH2 0x29A1 JUMP JUMPDEST SWAP1 POP SWAP2 SWAP1 POP JUMP JUMPDEST PUSH32 0x4E487B7100000000000000000000000000000000000000000000000000000000 PUSH0 MSTORE PUSH1 0x12 PUSH1 0x4 MSTORE PUSH1 0x24 PUSH0 REVERT JUMPDEST PUSH0 PUSH2 0x2A18 DUP3 PUSH2 0x22D4 JUMP JUMPDEST SWAP2 POP PUSH2 0x2A23 DUP4 PUSH2 0x22D4 JUMP JUMPDEST SWAP3 POP DUP3 PUSH2 0x2A33 JUMPI PUSH2 0x2A32 PUSH2 0x29E1 JUMP JUMPDEST JUMPDEST DUP3 DUP3 DIV SWAP1 POP SWAP3 SWAP2 POP POP JUMP JUMPDEST PUSH32 0x426F72726F7720616D6F756E74206578636565647320636F6C6C61746572616C PUSH0 DUP3 ADD MSTORE PUSH32 0x2076616C75650000000000000000000000000000000000000000000000000000 PUSH1 0x20 DUP3 ADD MSTORE POP JUMP JUMPDEST PUSH0 PUSH2 0x2A98 PUSH1 0x26 DUP4 PUSH2 0x25DD JUMP JUMPDEST SWAP2 POP PUSH2 0x2AA3 DUP3 PUSH2 0x2A3E JUMP JUMPDEST PUSH1 0x40 DUP3 ADD SWAP1 POP SWAP2 SWAP1 POP JUMP JUMPDEST PUSH0 PUSH1 0x20 DUP3 ADD SWAP1 POP DUP2 DUP2 SUB PUSH0 DUP4 ADD MSTORE PUSH2 0x2AC5 DUP2 PUSH2 0x2A8C JUMP JUMPDEST SWAP1 POP SWAP2 SWAP1 POP JUMP JUMPDEST PUSH0 PUSH2 0x2AD6 DUP3 PUSH2 0x22D4 JUMP JUMPDEST SWAP2 POP PUSH32 0xFFFFFFFFFFFFFFFFFFFFFFFFFFFFFFFFFFFFFFFFFFFFFFFFFFFFFFFFFFFFFFFF DUP3 SUB PUSH2 0x2B08 JUMPI PUSH2 0x2B07 PUSH2 0x2725 JUMP JUMPDEST JUMPDEST PUSH1 0x1 DUP3 ADD SWAP1 POP SWAP2 SWAP1 POP JUMP JUMPDEST PUSH0 PUSH1 0x60 DUP3 ADD SWAP1 POP PUSH2 0x2B26 PUSH0 DUP4 ADD DUP7 PUSH2 0x23FC JUMP JUMPDEST PUSH2 0x2B33 PUSH1 0x20 DUP4 ADD DUP6 PUSH2 0x22DD JUMP JUMPDEST PUSH2 0x2B40 PUSH1 0x40 DUP4 ADD DUP5 PUSH2 0x22DD JUMP JUMPDEST SWAP5 SWAP4 POP POP POP POP JUMP JUMPDEST PUSH0 PUSH1 0x20 DUP3 ADD SWAP1 POP PUSH2 0x2B5B PUSH0 DUP4 ADD DUP5 PUSH2 0x23FC JUMP JUMPDEST SWAP3 SWAP2 POP POP JUMP JUMPDEST PUSH32 0x5061757361626C653A2070617573656400000000000000000000000000000000 PUSH0 DUP3 ADD MSTORE POP JUMP JUMPDEST PUSH0 PUSH2 0x2B95 PUSH1 0x10 DUP4 PUSH2 0x25DD JUMP JUMPDEST SWAP2 POP PUSH2 0x2BA0 DUP3 PUSH2 0x2B61 JUMP JUMPDEST PUSH1 0x20 DUP3 ADD SWAP1 POP SWAP2 SWAP1 POP JUMP JUMPDEST PUSH0 PUSH1 0x20 DUP3 ADD SWAP1 POP DUP2 DUP2 SUB PUSH0 DUP4 ADD MSTORE PUSH2 0x2BC2 DUP2 PUSH2 0x2B89 JUMP JUMPDEST SWAP1 POP SWAP2 SWAP1 POP JUMP JUMPDEST PUSH32 0x5265656E7472616E637947756172643A207265656E7472616E742063616C6C00 PUSH0 DUP3 ADD MSTORE POP JUMP JUMPDEST PUSH0 PUSH2 0x2BFD PUSH1 0x1F DUP4 PUSH2 0x25DD JUMP JUMPDEST SWAP2 POP PUSH2 0x2C08 DUP3 PUSH2 0x2BC9 JUMP JUMPDEST PUSH1 0x20 DUP3 ADD SWAP1 POP SWAP2 SWAP1 POP JUMP JUMPDEST PUSH0 PUSH1 0x20 DUP3 ADD SWAP1 POP DUP2 DUP2 SUB PUSH0 DUP4 ADD MSTORE PUSH2 0x2C2A DUP2 PUSH2 0x2BF1 JUMP JUMPDEST SWAP1 POP SWAP2 SWAP1 POP JUMP JUMPDEST PUSH0 PUSH2 0x2C3B DUP3 PUSH2 0x22D4 JUMP JUMPDEST SWAP2 POP PUSH2 0x2C46 DUP4 PUSH2 0x22D4 JUMP JUMPDEST SWAP3 POP DUP3 DUP3 SUB SWAP1 POP DUP2 DUP2 GT ISZERO PUSH2 0x2C5E JUMPI PUSH2 0x2C5D PUSH2 0x2725 JUMP JUMPDEST JUMPDEST SWAP3 SWAP2 POP POP JUMP JUMPDEST PUSH0 PUSH10 0xFFFFFFFFFFFFFFFFFFFF DUP3 AND SWAP1 POP SWAP2 SWAP1 POP JUMP JUMPDEST PUSH2 0x2C82 DUP2 PUSH2 0x2C64 JUMP JUMPDEST DUP2 EQ PUSH2 0x2C8C JUMPI PUSH0 DUP1 REVERT JUMPDEST POP JUMP JUMPDEST PUSH0 DUP2 MLOAD SWAP1 POP PUSH2 0x2C9D DUP2 PUSH2 0x2C79 JUMP JUMPDEST SWAP3 SWAP2 POP POP JUMP JUMPDEST PUSH0 DUP2 SWAP1 POP SWAP2 SWAP1 POP JUMP JUMPDEST PUSH2 0x2CB5 DUP2 PUSH2 0x2CA3 JUMP JUMPDEST DUP2 EQ PUSH2 0x2CBF JUMPI PUSH0 DUP1 REVERT JUMPDEST POP JUMP JUMPDEST PUSH0 DUP2 MLOAD SWAP1 POP PUSH2 0x2CD0 DUP2 PUSH2 0x2CAC JUMP JUMPDEST SWAP3 SWAP2 POP POP JUMP JUMPDEST PUSH0 DUP2 MLOAD SWAP1 POP PUSH2 0x2CE4 DUP2 PUSH2 0x2343 JUMP JUMPDEST SWAP3 SWAP2 POP POP JUMP JUMPDEST PUSH0 DUP1 PUSH0 DUP1 PUSH0 PUSH1 0xA0 DUP7 DUP9 SUB SLT ISZERO PUSH2 0x2D03 JUMPI PUSH2 0x2D02 PUSH2 0x208B JUMP JUMPDEST JUMPDEST PUSH0 PUSH2 0x2D10 DUP9 DUP3 DUP10 ADD PUSH2 0x2C8F JUMP JUMPDEST SWAP6 POP POP PUSH1 0x20 PUSH2 0x2D21 DUP9 DUP3 DUP10 ADD PUSH2 0x2CC2 JUMP JUMPDEST SWAP5 POP POP PUSH1 0x40 PUSH2 0x2D32 DUP9 DUP3 DUP10 ADD PUSH2 0x2CD6 JUMP JUMPDEST SWAP4 POP POP PUSH1 0x60 PUSH2 0x2D43 DUP9 DUP3 DUP10 ADD PUSH2 0x2CD6 JUMP JUMPDEST SWAP3 POP POP PUSH1 0x80 PUSH2 0x2D54 DUP9 DUP3 DUP10 ADD PUSH2 0x2C8F JUMP JUMPDEST SWAP2 POP POP SWAP3 SWAP6 POP SWAP3 SWAP6 SWAP1 SWAP4 POP JUMP JUMPDEST PUSH0 PUSH1 0xFF DUP3 AND SWAP1 POP SWAP2 SWAP1 POP JUMP JUMPDEST PUSH2 0x2D76 DUP2 PUSH2 0x2D61 JUMP JUMPDEST DUP2 EQ PUSH2 0x2D80 JUMPI PUSH0 DUP1 REVERT JUMPDEST POP JUMP JUMPDEST PUSH0 DUP2 MLOAD SWAP1 POP PUSH2 0x2D91 DUP2 PUSH2 0x2D6D JUMP JUMPDEST SWAP3 SWAP2 POP POP JUMP JUMPDEST PUSH0 PUSH1 0x20 DUP3 DUP5 SUB SLT ISZERO PUSH2 0x2DAC JUMPI PUSH2 0x2DAB PUSH2 0x208B JUMP JUMPDEST JUMPDEST PUSH0 PUSH2 0x2DB9 DUP5 DUP3 DUP6 ADD PUSH2 0x2D83 JUMP JUMPDEST SWAP2 POP POP SWAP3 SWAP2 POP POP JUMP JUMPDEST PUSH0 DUP2 PUSH1 0x1 SHR SWAP1 POP SWAP2 SWAP1 POP JUMP JUMPDEST PUSH0 DUP1 DUP3 SWAP2 POP DUP4 SWAP1 POP JUMPDEST PUSH1 0x1 DUP6 GT ISZERO PUSH2 0x2E17 JUMPI DUP1 DUP7 DIV DUP2 GT ISZERO PUSH2 0x2DF3 JUMPI PUSH2 0x2DF2 PUSH2 0x2725 JUMP JUMPDEST JUMPDEST PUSH1 0x1 DUP6 AND ISZERO PUSH2 0x2E02 JUMPI DUP1 DUP3 MUL SWAP2 POP JUMPDEST DUP1 DUP2 MUL SWAP1 POP PUSH2 0x2E10 DUP6 PUSH2 0x2DC2 JUMP JUMPDEST SWAP5 POP PUSH2 0x2DD7 JUMP JUMPDEST SWAP5 POP SWAP5 SWAP3 POP POP POP JUMP JUMPDEST PUSH0 DUP3 PUSH2 0x2E2F JUMPI PUSH1 0x1 SWAP1 POP PUSH2 0x2EEA JUMP JUMPDEST DUP2 PUSH2 0x2E3C JUMPI PUSH0 SWAP1 POP PUSH2 0x2EEA JUMP JUMPDEST DUP2 PUSH1 0x1 DUP2 EQ PUSH2 0x2E52 JUMPI PUSH1 0x2 DUP2 EQ PUSH2 0x2E5C JUMPI PUSH2 0x2E8B JUMP JUMPDEST PUSH1 0x1 SWAP2 POP POP PUSH2 0x2EEA JUMP JUMPDEST PUSH1 0xFF DUP5 GT ISZERO PUSH2 0x2E6E JUMPI PUSH2 0x2E6D PUSH2 0x2725 JUMP JUMPDEST JUMPDEST DUP4 PUSH1 0x2 EXP SWAP2 POP DUP5 DUP3 GT ISZERO PUSH2 0x2E85 JUMPI PUSH2 0x2E84 PUSH2 0x2725 JUMP JUMPDEST JUMPDEST POP PUSH2 0x2EEA JUMP JUMPDEST POP PUSH1 0x20 DUP4 LT PUSH2 0x133 DUP4 LT AND PUSH1 0x4E DUP5 LT PUSH1 0xB DUP5 LT AND OR ISZERO PUSH2 0x2EC0 JUMPI DUP3 DUP3 EXP SWAP1 POP DUP4 DUP2 GT ISZERO PUSH2 0x2EBB JUMPI PUSH2 0x2EBA PUSH2 0x2725 JUMP JUMPDEST JUMPDEST PUSH2 0x2EEA JUMP JUMPDEST PUSH2 0x2ECD DUP5 DUP5 DUP5 PUSH1 0x1 PUSH2 0x2DCE JUMP JUMPDEST SWAP3 POP SWAP1 POP DUP2 DUP5 DIV DUP2 GT ISZERO PUSH2 0x2EE4 JUMPI PUSH2 0x2EE3 PUSH2 0x2725 JUMP JUMPDEST JUMPDEST DUP2 DUP2 MUL SWAP1 POP JUMPDEST SWAP4 SWAP3 POP POP POP JUMP JUMPDEST PUSH0 PUSH2 0x2EFB DUP3 PUSH2 0x22D4 JUMP JUMPDEST SWAP2 POP PUSH2 0x2F06 DUP4 PUSH2 0x2D61 JUMP JUMPDEST SWAP3 POP PUSH2 0x2F33 PUSH32 0xFFFFFFFFFFFFFFFFFFFFFFFFFFFFFFFFFFFFFFFFFFFFFFFFFFFFFFFFFFFFFFFF DUP5 DUP5 PUSH2 0x2E20 JUMP JUMPDEST SWAP1 POP SWAP3 SWAP2 POP POP JUMP JUMPDEST PUSH0 PUSH1 0x40 DUP3 ADD SWAP1 POP PUSH2 0x2F4E PUSH0 DUP4 ADD DUP6 PUSH2 0x23FC JUMP JUMPDEST PUSH2 0x2F5B PUSH1 0x20 DUP4 ADD DUP5 PUSH2 0x2233 JUMP JUMPDEST SWAP4 SWAP3 POP POP POP JUMP JUMPDEST PUSH32 0x5061757361626C653A206E6F7420706175736564000000000000000000000000 PUSH0 DUP3 ADD MSTORE POP JUMP JUMPDEST PUSH0 PUSH2 0x2F96 PUSH1 0x14 DUP4 PUSH2 0x25DD JUMP JUMPDEST SWAP2 POP PUSH2 0x2FA1 DUP3 PUSH2 0x2F62 JUMP JUMPDEST PUSH1 0x20 DUP3 ADD SWAP1 POP SWAP2 SWAP1 POP JUMP JUMPDEST PUSH0 PUSH1 0x20 DUP3 ADD SWAP1 POP DUP2 DUP2 SUB PUSH0 DUP4 ADD MSTORE PUSH2 0x2FC3 DUP2 PUSH2 0x2F8A JUMP JUMPDEST SWAP1 POP SWAP2 SWAP1 POP JUMP INVALID LOG2 PUSH5 0x6970667358 0x22 SLT KECCAK256 0xD PUSH7 0xC2B67D00F3ECCA PUSH5 0xC02828F06B 0xEC PUSH15 0x5E71485A46245BD5D68910BEDF685D PUSH5 0x736F6C6343 STOP ADDMOD BYTE STOP CALLER "
				},
				"gasEstimates": {
					"creation": {
						"codeDepositCost": "2457600",
						"executionCost": "2641",
						"totalCost": "2460241"
					},
					"external": {
						"ADMIN_ROLE()": "436",
						"DEFAULT_ADMIN_ROLE()": "463",
						"KEEPER_ROLE()": "459",
						"TREASURY_ROLE()": "392",
						"auctions(uint256)": "infinite",
						"borrow(address,address,uint256,uint256)": "infinite",
						"config()": "infinite",
						"getRoleAdmin(bytes32)": "infinite",
						"grantRole(bytes32,address)": "infinite",
						"hasRole(bytes32,address)": "3285",
						"initialize(address,address,address)": "infinite",
						"liquidate(uint256)": "infinite",
						"loans(uint256)": "infinite",
						"nextAuctionId()": "2535",
						"nextLoanId()": "2514",
						"pause()": "infinite",
						"paused()": "2562",
						"protocolToken()": "infinite",
						"purchaseCollateral(uint256)": "infinite",
						"renounceRole(bytes32,address)": "infinite",
						"revokeRole(bytes32,address)": "infinite",
						"stablecoin()": "infinite",
						"supportsInterface(bytes4)": "741",
						"unpause()": "infinite",
						"updateProtocolConfig(uint256,uint256,uint256,uint256)": "infinite",
						"userCollateral(address,address)": "infinite"
					},
					"internal": {
						"_calculateCurrentAuctionPrice(struct LiquidationProtocol.Auction memory)": "infinite",
						"_checkLiquidation(struct LiquidationProtocol.Loan memory)": "infinite",
						"_getCollateralValue(address,address,uint256)": "infinite",
						"_startLiquidationAuction(struct LiquidationProtocol.Loan memory)": "infinite"
					}
				},
				"methodIdentifiers": {
					"ADMIN_ROLE()": "75b238fc",
					"DEFAULT_ADMIN_ROLE()": "a217fddf",
					"KEEPER_ROLE()": "364bc15a",
					"TREASURY_ROLE()": "d11a57ec",
					"auctions(uint256)": "571a26a0",
					"borrow(address,address,uint256,uint256)": "fbf37739",
					"config()": "79502c55",
					"getRoleAdmin(bytes32)": "248a9ca3",
					"grantRole(bytes32,address)": "2f2ff15d",
					"hasRole(bytes32,address)": "91d14854",
					"initialize(address,address,address)": "c0c53b8b",
					"liquidate(uint256)": "415f1240",
					"loans(uint256)": "e1ec3c68",
					"nextAuctionId()": "fc528482",
					"nextLoanId()": "87c51459",
					"pause()": "8456cb59",
					"paused()": "5c975abb",
					"protocolToken()": "1a465fe1",
					"purchaseCollateral(uint256)": "7cdd1263",
					"renounceRole(bytes32,address)": "36568abe",
					"revokeRole(bytes32,address)": "d547741f",
					"stablecoin()": "e9cbd822",
					"supportsInterface(bytes4)": "01ffc9a7",
					"unpause()": "3f4ba83a",
					"updateProtocolConfig(uint256,uint256,uint256,uint256)": "501ed22c",
					"userCollateral(address,address)": "2b92a07d"
				}
			},
			"storageLayout": {
				"storage": [
					{
						"astId": 684,
						"contract": "contracts/ACTUAL.sol:LiquidationProtocol",
						"label": "_paused",
						"offset": 0,
						"slot": "0",
						"type": "t_bool"
					},
					{
						"astId": 789,
						"contract": "contracts/ACTUAL.sol:LiquidationProtocol",
						"label": "__gap",
						"offset": 0,
						"slot": "1",
						"type": "t_array(t_uint256)49_storage"
					},
					{
						"astId": 805,
						"contract": "contracts/ACTUAL.sol:LiquidationProtocol",
						"label": "_status",
						"offset": 0,
						"slot": "50",
						"type": "t_uint256"
					},
					{
						"astId": 874,
						"contract": "contracts/ACTUAL.sol:LiquidationProtocol",
						"label": "__gap",
						"offset": 0,
						"slot": "51",
						"type": "t_array(t_uint256)49_storage"
					},
					{
						"astId": 1209,
						"contract": "contracts/ACTUAL.sol:LiquidationProtocol",
						"label": "loans",
						"offset": 0,
						"slot": "100",
						"type": "t_mapping(t_uint256,t_struct(Loan)1191_storage)"
					},
					{
						"astId": 1214,
						"contract": "contracts/ACTUAL.sol:LiquidationProtocol",
						"label": "auctions",
						"offset": 0,
						"slot": "101",
						"type": "t_mapping(t_uint256,t_struct(Auction)1204_storage)"
					},
					{
						"astId": 1220,
						"contract": "contracts/ACTUAL.sol:LiquidationProtocol",
						"label": "userCollateral",
						"offset": 0,
						"slot": "102",
						"type": "t_mapping(t_address,t_mapping(t_address,t_uint256))"
					},
					{
						"astId": 1223,
						"contract": "contracts/ACTUAL.sol:LiquidationProtocol",
						"label": "stablecoin",
						"offset": 0,
						"slot": "103",
						"type": "t_contract(IERC20)1122"
					},
					{
						"astId": 1226,
						"contract": "contracts/ACTUAL.sol:LiquidationProtocol",
						"label": "protocolToken",
						"offset": 0,
						"slot": "104",
						"type": "t_contract(IERC20)1122"
					},
					{
						"astId": 1229,
						"contract": "contracts/ACTUAL.sol:LiquidationProtocol",
						"label": "config",
						"offset": 0,
						"slot": "105",
						"type": "t_struct(ProtocolConfig)1174_storage"
					},
					{
						"astId": 1231,
						"contract": "contracts/ACTUAL.sol:LiquidationProtocol",
						"label": "nextLoanId",
						"offset": 0,
						"slot": "109",
						"type": "t_uint256"
					},
					{
						"astId": 1233,
						"contract": "contracts/ACTUAL.sol:LiquidationProtocol",
						"label": "nextAuctionId",
						"offset": 0,
						"slot": "110",
						"type": "t_uint256"
					}
				],
				"types": {
					"t_address": {
						"encoding": "inplace",
						"label": "address",
						"numberOfBytes": "20"
					},
					"t_array(t_uint256)49_storage": {
						"base": "t_uint256",
						"encoding": "inplace",
						"label": "uint256[49]",
						"numberOfBytes": "1568"
					},
					"t_bool": {
						"encoding": "inplace",
						"label": "bool",
						"numberOfBytes": "1"
					},
					"t_contract(IERC20)1122": {
						"encoding": "inplace",
						"label": "contract IERC20",
						"numberOfBytes": "20"
					},
					"t_mapping(t_address,t_mapping(t_address,t_uint256))": {
						"encoding": "mapping",
						"key": "t_address",
						"label": "mapping(address => mapping(address => uint256))",
						"numberOfBytes": "32",
						"value": "t_mapping(t_address,t_uint256)"
					},
					"t_mapping(t_address,t_uint256)": {
						"encoding": "mapping",
						"key": "t_address",
						"label": "mapping(address => uint256)",
						"numberOfBytes": "32",
						"value": "t_uint256"
					},
					"t_mapping(t_uint256,t_struct(Auction)1204_storage)": {
						"encoding": "mapping",
						"key": "t_uint256",
						"label": "mapping(uint256 => struct LiquidationProtocol.Auction)",
						"numberOfBytes": "32",
						"value": "t_struct(Auction)1204_storage"
					},
					"t_mapping(t_uint256,t_struct(Loan)1191_storage)": {
						"encoding": "mapping",
						"key": "t_uint256",
						"label": "mapping(uint256 => struct LiquidationProtocol.Loan)",
						"numberOfBytes": "32",
						"value": "t_struct(Loan)1191_storage"
					},
					"t_struct(Auction)1204_storage": {
						"encoding": "inplace",
						"label": "struct LiquidationProtocol.Auction",
						"members": [
							{
								"astId": 1193,
								"contract": "contracts/ACTUAL.sol:LiquidationProtocol",
								"label": "collateralToken",
								"offset": 0,
								"slot": "0",
								"type": "t_address"
							},
							{
								"astId": 1195,
								"contract": "contracts/ACTUAL.sol:LiquidationProtocol",
								"label": "collateralAmount",
								"offset": 0,
								"slot": "1",
								"type": "t_uint256"
							},
							{
								"astId": 1197,
								"contract": "contracts/ACTUAL.sol:LiquidationProtocol",
								"label": "startPrice",
								"offset": 0,
								"slot": "2",
								"type": "t_uint256"
							},
							{
								"astId": 1199,
								"contract": "contracts/ACTUAL.sol:LiquidationProtocol",
								"label": "minimumPrice",
								"offset": 0,
								"slot": "3",
								"type": "t_uint256"
							},
							{
								"astId": 1201,
								"contract": "contracts/ACTUAL.sol:LiquidationProtocol",
								"label": "startTimestamp",
								"offset": 0,
								"slot": "4",
								"type": "t_uint256"
							},
							{
								"astId": 1203,
								"contract": "contracts/ACTUAL.sol:LiquidationProtocol",
								"label": "isActive",
								"offset": 0,
								"slot": "5",
								"type": "t_bool"
							}
						],
						"numberOfBytes": "192"
					},
					"t_struct(Loan)1191_storage": {
						"encoding": "inplace",
						"label": "struct LiquidationProtocol.Loan",
						"members": [
							{
								"astId": 1176,
								"contract": "contracts/ACTUAL.sol:LiquidationProtocol",
								"label": "borrower",
								"offset": 0,
								"slot": "0",
								"type": "t_address"
							},
							{
								"astId": 1178,
								"contract": "contracts/ACTUAL.sol:LiquidationProtocol",
								"label": "collateralToken",
								"offset": 0,
								"slot": "1",
								"type": "t_address"
							},
							{
								"astId": 1180,
								"contract": "contracts/ACTUAL.sol:LiquidationProtocol",
								"label": "priceFeed",
								"offset": 0,
								"slot": "2",
								"type": "t_address"
							},
							{
								"astId": 1182,
								"contract": "contracts/ACTUAL.sol:LiquidationProtocol",
								"label": "collateralAmount",
								"offset": 0,
								"slot": "3",
								"type": "t_uint256"
							},
							{
								"astId": 1184,
								"contract": "contracts/ACTUAL.sol:LiquidationProtocol",
								"label": "borrowedAmount",
								"offset": 0,
								"slot": "4",
								"type": "t_uint256"
							},
							{
								"astId": 1186,
								"contract": "contracts/ACTUAL.sol:LiquidationProtocol",
								"label": "interestRate",
								"offset": 0,
								"slot": "5",
								"type": "t_uint256"
							},
							{
								"astId": 1188,
								"contract": "contracts/ACTUAL.sol:LiquidationProtocol",
								"label": "startTimestamp",
								"offset": 0,
								"slot": "6",
								"type": "t_uint256"
							},
							{
								"astId": 1190,
								"contract": "contracts/ACTUAL.sol:LiquidationProtocol",
								"label": "isActive",
								"offset": 0,
								"slot": "7",
								"type": "t_bool"
							}
						],
						"numberOfBytes": "256"
					},
					"t_struct(ProtocolConfig)1174_storage": {
						"encoding": "inplace",
						"label": "struct LiquidationProtocol.ProtocolConfig",
						"members": [
							{
								"astId": 1167,
								"contract": "contracts/ACTUAL.sol:LiquidationProtocol",
								"label": "liquidationThreshold",
								"offset": 0,
								"slot": "0",
								"type": "t_uint256"
							},
							{
								"astId": 1169,
								"contract": "contracts/ACTUAL.sol:LiquidationProtocol",
								"label": "maxLoanToValue",
								"offset": 0,
								"slot": "1",
								"type": "t_uint256"
							},
							{
								"astId": 1171,
								"contract": "contracts/ACTUAL.sol:LiquidationProtocol",
								"label": "baseBorrowRate",
								"offset": 0,
								"slot": "2",
								"type": "t_uint256"
							},
							{
								"astId": 1173,
								"contract": "contracts/ACTUAL.sol:LiquidationProtocol",
								"label": "liquidationPenalty",
								"offset": 0,
								"slot": "3",
								"type": "t_uint256"
							}
						],
						"numberOfBytes": "128"
					},
					"t_uint256": {
						"encoding": "inplace",
						"label": "uint256",
						"numberOfBytes": "32"
					}
				}
			},
			"userdoc": {
				"kind": "user",
				"methods": {},
				"version": 1
			}
		}
	}
}