{
	"contracts/InterestRateModel.sol": {
		"InterestRateModel": {
			"abi": [
				{
					"inputs": [
						{
							"internalType": "uint256",
							"name": "_baseRate",
							"type": "uint256"
						},
						{
							"internalType": "uint256",
							"name": "_multiplier",
							"type": "uint256"
						}
					],
					"stateMutability": "nonpayable",
					"type": "constructor"
				},
				{
					"inputs": [],
					"name": "baseRate",
					"outputs": [
						{
							"internalType": "uint256",
							"name": "",
							"type": "uint256"
						}
					],
					"stateMutability": "view",
					"type": "function"
				},
				{
					"inputs": [
						{
							"internalType": "uint256",
							"name": "totalLiquidity",
							"type": "uint256"
						},
						{
							"internalType": "uint256",
							"name": "totalBorrows",
							"type": "uint256"
						}
					],
					"name": "getBorrowRate",
					"outputs": [
						{
							"internalType": "uint256",
							"name": "",
							"type": "uint256"
						}
					],
					"stateMutability": "view",
					"type": "function"
				},
				{
					"inputs": [],
					"name": "multiplier",
					"outputs": [
						{
							"internalType": "uint256",
							"name": "",
							"type": "uint256"
						}
					],
					"stateMutability": "view",
					"type": "function"
				}
			],
			"devdoc": {
				"kind": "dev",
				"methods": {},
				"version": 1
			},
			"evm": {
				"assembly": "    /* \"contracts/InterestRateModel.sol\":58:664  contract InterestRateModel {... */\n  mstore(0x40, 0x80)\n    /* \"contracts/InterestRateModel.sol\":233:356  constructor(uint256 _baseRate, uint256 _multiplier) {... */\n  callvalue\n  dup1\n  iszero\n  tag_1\n  jumpi\n  0x00\n  dup1\n  revert\ntag_1:\n  pop\n  mload(0x40)\n  sub(codesize, bytecodeSize)\n  dup1\n  bytecodeSize\n  dup4\n  codecopy\n  dup2\n  dup2\n  add\n  0x40\n  mstore\n  dup2\n  add\n  swap1\n  tag_2\n  swap2\n  swap1\n  tag_3\n  jump\t// in\ntag_2:\n    /* \"contracts/InterestRateModel.sol\":306:315  _baseRate */\n  dup2\n    /* \"contracts/InterestRateModel.sol\":295:303  baseRate */\n  0x00\n    /* \"contracts/InterestRateModel.sol\":295:315  baseRate = _baseRate */\n  dup2\n  swap1\n  sstore\n  pop\n    /* \"contracts/InterestRateModel.sol\":338:349  _multiplier */\n  dup1\n    /* \"contracts/InterestRateModel.sol\":325:335  multiplier */\n  0x01\n    /* \"contracts/InterestRateModel.sol\":325:349  multiplier = _multiplier */\n  dup2\n  swap1\n  sstore\n  pop\n    /* \"contracts/InterestRateModel.sol\":233:356  constructor(uint256 _baseRate, uint256 _multiplier) {... */\n  pop\n  pop\n    /* \"contracts/InterestRateModel.sol\":58:664  contract InterestRateModel {... */\n  jump(tag_6)\n    /* \"#utility.yul\":88:205   */\ntag_8:\n    /* \"#utility.yul\":197:198   */\n  0x00\n    /* \"#utility.yul\":194:195   */\n  dup1\n    /* \"#utility.yul\":187:199   */\n  revert\n    /* \"#utility.yul\":334:411   */\ntag_10:\n    /* \"#utility.yul\":371:378   */\n  0x00\n    /* \"#utility.yul\":400:405   */\n  dup2\n    /* \"#utility.yul\":389:405   */\n  swap1\n  pop\n    /* \"#utility.yul\":334:411   */\n  swap2\n  swap1\n  pop\n  jump\t// out\n    /* \"#utility.yul\":417:539   */\ntag_11:\n    /* \"#utility.yul\":490:514   */\n  tag_19\n    /* \"#utility.yul\":508:513   */\n  dup2\n    /* \"#utility.yul\":490:514   */\n  tag_10\n  jump\t// in\ntag_19:\n    /* \"#utility.yul\":483:488   */\n  dup2\n    /* \"#utility.yul\":480:515   */\n  eq\n    /* \"#utility.yul\":470:533   */\n  tag_20\n  jumpi\n    /* \"#utility.yul\":529:530   */\n  0x00\n    /* \"#utility.yul\":526:527   */\n  dup1\n    /* \"#utility.yul\":519:531   */\n  revert\n    /* \"#utility.yul\":470:533   */\ntag_20:\n    /* \"#utility.yul\":417:539   */\n  pop\n  jump\t// out\n    /* \"#utility.yul\":545:688   */\ntag_12:\n    /* \"#utility.yul\":602:607   */\n  0x00\n    /* \"#utility.yul\":633:639   */\n  dup2\n    /* \"#utility.yul\":627:640   */\n  mload\n    /* \"#utility.yul\":618:640   */\n  swap1\n  pop\n    /* \"#utility.yul\":649:682   */\n  tag_22\n    /* \"#utility.yul\":676:681   */\n  dup2\n    /* \"#utility.yul\":649:682   */\n  tag_11\n  jump\t// in\ntag_22:\n    /* \"#utility.yul\":545:688   */\n  swap3\n  swap2\n  pop\n  pop\n  jump\t// out\n    /* \"#utility.yul\":694:1201   */\ntag_3:\n    /* \"#utility.yul\":773:779   */\n  0x00\n    /* \"#utility.yul\":781:787   */\n  dup1\n    /* \"#utility.yul\":830:832   */\n  0x40\n    /* \"#utility.yul\":818:827   */\n  dup4\n    /* \"#utility.yul\":809:816   */\n  dup6\n    /* \"#utility.yul\":805:828   */\n  sub\n    /* \"#utility.yul\":801:833   */\n  slt\n    /* \"#utility.yul\":798:917   */\n  iszero\n  tag_24\n  jumpi\n    /* \"#utility.yul\":836:915   */\n  tag_25\n  tag_8\n  jump\t// in\ntag_25:\n    /* \"#utility.yul\":798:917   */\ntag_24:\n    /* \"#utility.yul\":956:957   */\n  0x00\n    /* \"#utility.yul\":981:1045   */\n  tag_26\n    /* \"#utility.yul\":1037:1044   */\n  dup6\n    /* \"#utility.yul\":1028:1034   */\n  dup3\n    /* \"#utility.yul\":1017:1026   */\n  dup7\n    /* \"#utility.yul\":1013:1035   */\n  add\n    /* \"#utility.yul\":981:1045   */\n  tag_12\n  jump\t// in\ntag_26:\n    /* \"#utility.yul\":971:1045   */\n  swap3\n  pop\n    /* \"#utility.yul\":927:1055   */\n  pop\n    /* \"#utility.yul\":1094:1096   */\n  0x20\n    /* \"#utility.yul\":1120:1184   */\n  tag_27\n    /* \"#utility.yul\":1176:1183   */\n  dup6\n    /* \"#utility.yul\":1167:1173   */\n  dup3\n    /* \"#utility.yul\":1156:1165   */\n  dup7\n    /* \"#utility.yul\":1152:1174   */\n  add\n    /* \"#utility.yul\":1120:1184   */\n  tag_12\n  jump\t// in\ntag_27:\n    /* \"#utility.yul\":1110:1184   */\n  swap2\n  pop\n    /* \"#utility.yul\":1065:1194   */\n  pop\n    /* \"#utility.yul\":694:1201   */\n  swap3\n  pop\n  swap3\n  swap1\n  pop\n  jump\t// out\n    /* \"contracts/InterestRateModel.sol\":58:664  contract InterestRateModel {... */\ntag_6:\n  dataSize(sub_0)\n  dup1\n  dataOffset(sub_0)\n  0x00\n  codecopy\n  0x00\n  return\nstop\n\nsub_0: assembly {\n        /* \"contracts/InterestRateModel.sol\":58:664  contract InterestRateModel {... */\n      mstore(0x40, 0x80)\n      callvalue\n      dup1\n      iszero\n      tag_1\n      jumpi\n      0x00\n      dup1\n      revert\n    tag_1:\n      pop\n      jumpi(tag_2, lt(calldatasize, 0x04))\n      shr(0xe0, calldataload(0x00))\n      dup1\n      0x1b3ed722\n      eq\n      tag_3\n      jumpi\n      dup1\n      0x1f68f20a\n      eq\n      tag_4\n      jumpi\n      dup1\n      0xa5cdfa94\n      eq\n      tag_5\n      jumpi\n    tag_2:\n      0x00\n      dup1\n      revert\n        /* \"contracts/InterestRateModel.sol\":154:179  uint256 public multiplier */\n    tag_3:\n      tag_6\n      tag_7\n      jump\t// in\n    tag_6:\n      mload(0x40)\n      tag_8\n      swap2\n      swap1\n      tag_9\n      jump\t// in\n    tag_8:\n      mload(0x40)\n      dup1\n      swap2\n      sub\n      swap1\n      return\n        /* \"contracts/InterestRateModel.sol\":91:114  uint256 public baseRate */\n    tag_4:\n      tag_10\n      tag_11\n      jump\t// in\n    tag_10:\n      mload(0x40)\n      tag_12\n      swap2\n      swap1\n      tag_9\n      jump\t// in\n    tag_12:\n      mload(0x40)\n      dup1\n      swap2\n      sub\n      swap1\n      return\n        /* \"contracts/InterestRateModel.sol\":362:662  function getBorrowRate(uint256 totalLiquidity, uint256 totalBorrows) external view returns (uint256) {... */\n    tag_5:\n      tag_13\n      0x04\n      dup1\n      calldatasize\n      sub\n      dup2\n      add\n      swap1\n      tag_14\n      swap2\n      swap1\n      tag_15\n      jump\t// in\n    tag_14:\n      tag_16\n      jump\t// in\n    tag_13:\n      mload(0x40)\n      tag_17\n      swap2\n      swap1\n      tag_9\n      jump\t// in\n    tag_17:\n      mload(0x40)\n      dup1\n      swap2\n      sub\n      swap1\n      return\n        /* \"contracts/InterestRateModel.sol\":154:179  uint256 public multiplier */\n    tag_7:\n      sload(0x01)\n      dup2\n      jump\t// out\n        /* \"contracts/InterestRateModel.sol\":91:114  uint256 public baseRate */\n    tag_11:\n      sload(0x00)\n      dup2\n      jump\t// out\n        /* \"contracts/InterestRateModel.sol\":362:662  function getBorrowRate(uint256 totalLiquidity, uint256 totalBorrows) external view returns (uint256) {... */\n    tag_16:\n        /* \"contracts/InterestRateModel.sol\":454:461  uint256 */\n      0x00\n        /* \"contracts/InterestRateModel.sol\":495:496  0 */\n      dup1\n        /* \"contracts/InterestRateModel.sol\":477:491  totalLiquidity */\n      dup4\n        /* \"contracts/InterestRateModel.sol\":477:496  totalLiquidity == 0 */\n      sub\n        /* \"contracts/InterestRateModel.sol\":473:513  if (totalLiquidity == 0) return baseRate */\n      tag_19\n      jumpi\n        /* \"contracts/InterestRateModel.sol\":505:513  baseRate */\n      sload(0x00)\n        /* \"contracts/InterestRateModel.sol\":498:513  return baseRate */\n      swap1\n      pop\n      jump(tag_18)\n        /* \"contracts/InterestRateModel.sol\":473:513  if (totalLiquidity == 0) return baseRate */\n    tag_19:\n        /* \"contracts/InterestRateModel.sol\":524:547  uint256 utilizationRate */\n      0x00\n        /* \"contracts/InterestRateModel.sol\":574:588  totalLiquidity */\n      dup4\n        /* \"contracts/InterestRateModel.sol\":566:570  1e18 */\n      0x0de0b6b3a7640000\n        /* \"contracts/InterestRateModel.sol\":551:563  totalBorrows */\n      dup5\n        /* \"contracts/InterestRateModel.sol\":551:570  totalBorrows * 1e18 */\n      tag_20\n      swap2\n      swap1\n      tag_21\n      jump\t// in\n    tag_20:\n        /* \"contracts/InterestRateModel.sol\":550:588  (totalBorrows * 1e18) / totalLiquidity */\n      tag_22\n      swap2\n      swap1\n      tag_23\n      jump\t// in\n    tag_22:\n        /* \"contracts/InterestRateModel.sol\":524:588  uint256 utilizationRate = (totalBorrows * 1e18) / totalLiquidity */\n      swap1\n      pop\n        /* \"contracts/InterestRateModel.sol\":650:654  1e18 */\n      0x0de0b6b3a7640000\n        /* \"contracts/InterestRateModel.sol\":636:646  multiplier */\n      sload(0x01)\n        /* \"contracts/InterestRateModel.sol\":618:633  utilizationRate */\n      dup3\n        /* \"contracts/InterestRateModel.sol\":618:646  utilizationRate * multiplier */\n      tag_24\n      swap2\n      swap1\n      tag_21\n      jump\t// in\n    tag_24:\n        /* \"contracts/InterestRateModel.sol\":617:654  (utilizationRate * multiplier) / 1e18 */\n      tag_25\n      swap2\n      swap1\n      tag_23\n      jump\t// in\n    tag_25:\n        /* \"contracts/InterestRateModel.sol\":605:613  baseRate */\n      sload(0x00)\n        /* \"contracts/InterestRateModel.sol\":605:655  baseRate + ((utilizationRate * multiplier) / 1e18) */\n      tag_26\n      swap2\n      swap1\n      tag_27\n      jump\t// in\n    tag_26:\n        /* \"contracts/InterestRateModel.sol\":598:655  return baseRate + ((utilizationRate * multiplier) / 1e18) */\n      swap2\n      pop\n      pop\n        /* \"contracts/InterestRateModel.sol\":362:662  function getBorrowRate(uint256 totalLiquidity, uint256 totalBorrows) external view returns (uint256) {... */\n    tag_18:\n      swap3\n      swap2\n      pop\n      pop\n      jump\t// out\n        /* \"#utility.yul\":7:84   */\n    tag_28:\n        /* \"#utility.yul\":44:51   */\n      0x00\n        /* \"#utility.yul\":73:78   */\n      dup2\n        /* \"#utility.yul\":62:78   */\n      swap1\n      pop\n        /* \"#utility.yul\":7:84   */\n      swap2\n      swap1\n      pop\n      jump\t// out\n        /* \"#utility.yul\":90:208   */\n    tag_29:\n        /* \"#utility.yul\":177:201   */\n      tag_40\n        /* \"#utility.yul\":195:200   */\n      dup2\n        /* \"#utility.yul\":177:201   */\n      tag_28\n      jump\t// in\n    tag_40:\n        /* \"#utility.yul\":172:175   */\n      dup3\n        /* \"#utility.yul\":165:202   */\n      mstore\n        /* \"#utility.yul\":90:208   */\n      pop\n      pop\n      jump\t// out\n        /* \"#utility.yul\":214:436   */\n    tag_9:\n        /* \"#utility.yul\":307:311   */\n      0x00\n        /* \"#utility.yul\":345:347   */\n      0x20\n        /* \"#utility.yul\":334:343   */\n      dup3\n        /* \"#utility.yul\":330:348   */\n      add\n        /* \"#utility.yul\":322:348   */\n      swap1\n      pop\n        /* \"#utility.yul\":358:429   */\n      tag_42\n        /* \"#utility.yul\":426:427   */\n      0x00\n        /* \"#utility.yul\":415:424   */\n      dup4\n        /* \"#utility.yul\":411:428   */\n      add\n        /* \"#utility.yul\":402:408   */\n      dup5\n        /* \"#utility.yul\":358:429   */\n      tag_29\n      jump\t// in\n    tag_42:\n        /* \"#utility.yul\":214:436   */\n      swap3\n      swap2\n      pop\n      pop\n      jump\t// out\n        /* \"#utility.yul\":523:640   */\n    tag_31:\n        /* \"#utility.yul\":632:633   */\n      0x00\n        /* \"#utility.yul\":629:630   */\n      dup1\n        /* \"#utility.yul\":622:634   */\n      revert\n        /* \"#utility.yul\":769:891   */\n    tag_33:\n        /* \"#utility.yul\":842:866   */\n      tag_47\n        /* \"#utility.yul\":860:865   */\n      dup2\n        /* \"#utility.yul\":842:866   */\n      tag_28\n      jump\t// in\n    tag_47:\n        /* \"#utility.yul\":835:840   */\n      dup2\n        /* \"#utility.yul\":832:867   */\n      eq\n        /* \"#utility.yul\":822:885   */\n      tag_48\n      jumpi\n        /* \"#utility.yul\":881:882   */\n      0x00\n        /* \"#utility.yul\":878:879   */\n      dup1\n        /* \"#utility.yul\":871:883   */\n      revert\n        /* \"#utility.yul\":822:885   */\n    tag_48:\n        /* \"#utility.yul\":769:891   */\n      pop\n      jump\t// out\n        /* \"#utility.yul\":897:1036   */\n    tag_34:\n        /* \"#utility.yul\":943:948   */\n      0x00\n        /* \"#utility.yul\":981:987   */\n      dup2\n        /* \"#utility.yul\":968:988   */\n      calldataload\n        /* \"#utility.yul\":959:988   */\n      swap1\n      pop\n        /* \"#utility.yul\":997:1030   */\n      tag_50\n        /* \"#utility.yul\":1024:1029   */\n      dup2\n        /* \"#utility.yul\":997:1030   */\n      tag_33\n      jump\t// in\n    tag_50:\n        /* \"#utility.yul\":897:1036   */\n      swap3\n      swap2\n      pop\n      pop\n      jump\t// out\n        /* \"#utility.yul\":1042:1516   */\n    tag_15:\n        /* \"#utility.yul\":1110:1116   */\n      0x00\n        /* \"#utility.yul\":1118:1124   */\n      dup1\n        /* \"#utility.yul\":1167:1169   */\n      0x40\n        /* \"#utility.yul\":1155:1164   */\n      dup4\n        /* \"#utility.yul\":1146:1153   */\n      dup6\n        /* \"#utility.yul\":1142:1165   */\n      sub\n        /* \"#utility.yul\":1138:1170   */\n      slt\n        /* \"#utility.yul\":1135:1254   */\n      iszero\n      tag_52\n      jumpi\n        /* \"#utility.yul\":1173:1252   */\n      tag_53\n      tag_31\n      jump\t// in\n    tag_53:\n        /* \"#utility.yul\":1135:1254   */\n    tag_52:\n        /* \"#utility.yul\":1293:1294   */\n      0x00\n        /* \"#utility.yul\":1318:1371   */\n      tag_54\n        /* \"#utility.yul\":1363:1370   */\n      dup6\n        /* \"#utility.yul\":1354:1360   */\n      dup3\n        /* \"#utility.yul\":1343:1352   */\n      dup7\n        /* \"#utility.yul\":1339:1361   */\n      add\n        /* \"#utility.yul\":1318:1371   */\n      tag_34\n      jump\t// in\n    tag_54:\n        /* \"#utility.yul\":1308:1371   */\n      swap3\n      pop\n        /* \"#utility.yul\":1264:1381   */\n      pop\n        /* \"#utility.yul\":1420:1422   */\n      0x20\n        /* \"#utility.yul\":1446:1499   */\n      tag_55\n        /* \"#utility.yul\":1491:1498   */\n      dup6\n        /* \"#utility.yul\":1482:1488   */\n      dup3\n        /* \"#utility.yul\":1471:1480   */\n      dup7\n        /* \"#utility.yul\":1467:1489   */\n      add\n        /* \"#utility.yul\":1446:1499   */\n      tag_34\n      jump\t// in\n    tag_55:\n        /* \"#utility.yul\":1436:1499   */\n      swap2\n      pop\n        /* \"#utility.yul\":1391:1509   */\n      pop\n        /* \"#utility.yul\":1042:1516   */\n      swap3\n      pop\n      swap3\n      swap1\n      pop\n      jump\t// out\n        /* \"#utility.yul\":1522:1702   */\n    tag_35:\n        /* \"#utility.yul\":1570:1647   */\n      0x4e487b7100000000000000000000000000000000000000000000000000000000\n        /* \"#utility.yul\":1567:1568   */\n      0x00\n        /* \"#utility.yul\":1560:1648   */\n      mstore\n        /* \"#utility.yul\":1667:1671   */\n      0x11\n        /* \"#utility.yul\":1664:1665   */\n      0x04\n        /* \"#utility.yul\":1657:1672   */\n      mstore\n        /* \"#utility.yul\":1691:1695   */\n      0x24\n        /* \"#utility.yul\":1688:1689   */\n      0x00\n        /* \"#utility.yul\":1681:1696   */\n      revert\n        /* \"#utility.yul\":1708:2118   */\n    tag_21:\n        /* \"#utility.yul\":1748:1755   */\n      0x00\n        /* \"#utility.yul\":1771:1791   */\n      tag_58\n        /* \"#utility.yul\":1789:1790   */\n      dup3\n        /* \"#utility.yul\":1771:1791   */\n      tag_28\n      jump\t// in\n    tag_58:\n        /* \"#utility.yul\":1766:1791   */\n      swap2\n      pop\n        /* \"#utility.yul\":1805:1825   */\n      tag_59\n        /* \"#utility.yul\":1823:1824   */\n      dup4\n        /* \"#utility.yul\":1805:1825   */\n      tag_28\n      jump\t// in\n    tag_59:\n        /* \"#utility.yul\":1800:1825   */\n      swap3\n      pop\n        /* \"#utility.yul\":1860:1861   */\n      dup3\n        /* \"#utility.yul\":1857:1858   */\n      dup3\n        /* \"#utility.yul\":1853:1862   */\n      mul\n        /* \"#utility.yul\":1882:1912   */\n      tag_60\n        /* \"#utility.yul\":1900:1911   */\n      dup2\n        /* \"#utility.yul\":1882:1912   */\n      tag_28\n      jump\t// in\n    tag_60:\n        /* \"#utility.yul\":1871:1912   */\n      swap2\n      pop\n        /* \"#utility.yul\":2061:2062   */\n      dup3\n        /* \"#utility.yul\":2052:2059   */\n      dup3\n        /* \"#utility.yul\":2048:2063   */\n      div\n        /* \"#utility.yul\":2045:2046   */\n      dup5\n        /* \"#utility.yul\":2042:2064   */\n      eq\n        /* \"#utility.yul\":2022:2023   */\n      dup4\n        /* \"#utility.yul\":2015:2024   */\n      iszero\n        /* \"#utility.yul\":1995:2078   */\n      or\n        /* \"#utility.yul\":1972:2111   */\n      tag_61\n      jumpi\n        /* \"#utility.yul\":2091:2109   */\n      tag_62\n      tag_35\n      jump\t// in\n    tag_62:\n        /* \"#utility.yul\":1972:2111   */\n    tag_61:\n        /* \"#utility.yul\":1756:2118   */\n      pop\n        /* \"#utility.yul\":1708:2118   */\n      swap3\n      swap2\n      pop\n      pop\n      jump\t// out\n        /* \"#utility.yul\":2124:2304   */\n    tag_36:\n        /* \"#utility.yul\":2172:2249   */\n      0x4e487b7100000000000000000000000000000000000000000000000000000000\n        /* \"#utility.yul\":2169:2170   */\n      0x00\n        /* \"#utility.yul\":2162:2250   */\n      mstore\n        /* \"#utility.yul\":2269:2273   */\n      0x12\n        /* \"#utility.yul\":2266:2267   */\n      0x04\n        /* \"#utility.yul\":2259:2274   */\n      mstore\n        /* \"#utility.yul\":2293:2297   */\n      0x24\n        /* \"#utility.yul\":2290:2291   */\n      0x00\n        /* \"#utility.yul\":2283:2298   */\n      revert\n        /* \"#utility.yul\":2310:2495   */\n    tag_23:\n        /* \"#utility.yul\":2350:2351   */\n      0x00\n        /* \"#utility.yul\":2367:2387   */\n      tag_65\n        /* \"#utility.yul\":2385:2386   */\n      dup3\n        /* \"#utility.yul\":2367:2387   */\n      tag_28\n      jump\t// in\n    tag_65:\n        /* \"#utility.yul\":2362:2387   */\n      swap2\n      pop\n        /* \"#utility.yul\":2401:2421   */\n      tag_66\n        /* \"#utility.yul\":2419:2420   */\n      dup4\n        /* \"#utility.yul\":2401:2421   */\n      tag_28\n      jump\t// in\n    tag_66:\n        /* \"#utility.yul\":2396:2421   */\n      swap3\n      pop\n        /* \"#utility.yul\":2440:2441   */\n      dup3\n        /* \"#utility.yul\":2430:2465   */\n      tag_67\n      jumpi\n        /* \"#utility.yul\":2445:2463   */\n      tag_68\n      tag_36\n      jump\t// in\n    tag_68:\n        /* \"#utility.yul\":2430:2465   */\n    tag_67:\n        /* \"#utility.yul\":2487:2488   */\n      dup3\n        /* \"#utility.yul\":2484:2485   */\n      dup3\n        /* \"#utility.yul\":2480:2489   */\n      div\n        /* \"#utility.yul\":2475:2489   */\n      swap1\n      pop\n        /* \"#utility.yul\":2310:2495   */\n      swap3\n      swap2\n      pop\n      pop\n      jump\t// out\n        /* \"#utility.yul\":2501:2692   */\n    tag_27:\n        /* \"#utility.yul\":2541:2544   */\n      0x00\n        /* \"#utility.yul\":2560:2580   */\n      tag_70\n        /* \"#utility.yul\":2578:2579   */\n      dup3\n        /* \"#utility.yul\":2560:2580   */\n      tag_28\n      jump\t// in\n    tag_70:\n        /* \"#utility.yul\":2555:2580   */\n      swap2\n      pop\n        /* \"#utility.yul\":2594:2614   */\n      tag_71\n        /* \"#utility.yul\":2612:2613   */\n      dup4\n        /* \"#utility.yul\":2594:2614   */\n      tag_28\n      jump\t// in\n    tag_71:\n        /* \"#utility.yul\":2589:2614   */\n      swap3\n      pop\n        /* \"#utility.yul\":2637:2638   */\n      dup3\n        /* \"#utility.yul\":2634:2635   */\n      dup3\n        /* \"#utility.yul\":2630:2639   */\n      add\n        /* \"#utility.yul\":2623:2639   */\n      swap1\n      pop\n        /* \"#utility.yul\":2658:2661   */\n      dup1\n        /* \"#utility.yul\":2655:2656   */\n      dup3\n        /* \"#utility.yul\":2652:2662   */\n      gt\n        /* \"#utility.yul\":2649:2685   */\n      iszero\n      tag_72\n      jumpi\n        /* \"#utility.yul\":2665:2683   */\n      tag_73\n      tag_35\n      jump\t// in\n    tag_73:\n        /* \"#utility.yul\":2649:2685   */\n    tag_72:\n        /* \"#utility.yul\":2501:2692   */\n      swap3\n      swap2\n      pop\n      pop\n      jump\t// out\n\n    auxdata: 0xa26469706673582212203b43c25b22e943a0b0d017b6cc10ebb56a013e55d85cdf93badfedffb0ad6a6264736f6c634300081a0033\n}\n",
				"bytecode": {
					"linkReferences": {},
					"object": "6080604052348015600e575f80fd5b506040516103ac3803806103ac8339818101604052810190602e91906073565b815f8190555080600181905550505060aa565b5f80fd5b5f819050919050565b6055816045565b8114605e575f80fd5b50565b5f81519050606d81604e565b92915050565b5f806040838503121560865760856041565b5b5f6091858286016061565b925050602060a0858286016061565b9150509250929050565b6102f5806100b75f395ff3fe608060405234801561000f575f80fd5b506004361061003f575f3560e01c80631b3ed722146100435780631f68f20a14610061578063a5cdfa941461007f575b5f80fd5b61004b6100af565b604051610058919061013c565b60405180910390f35b6100696100b5565b604051610076919061013c565b60405180910390f35b61009960048036038101906100949190610183565b6100ba565b6040516100a6919061013c565b60405180910390f35b60015481565b5f5481565b5f8083036100cb575f54905061011e565b5f83670de0b6b3a7640000846100e191906101ee565b6100eb919061025c565b9050670de0b6b3a76400006001548261010491906101ee565b61010e919061025c565b5f5461011a919061028c565b9150505b92915050565b5f819050919050565b61013681610124565b82525050565b5f60208201905061014f5f83018461012d565b92915050565b5f80fd5b61016281610124565b811461016c575f80fd5b50565b5f8135905061017d81610159565b92915050565b5f806040838503121561019957610198610155565b5b5f6101a68582860161016f565b92505060206101b78582860161016f565b9150509250929050565b7f4e487b71000000000000000000000000000000000000000000000000000000005f52601160045260245ffd5b5f6101f882610124565b915061020383610124565b925082820261021181610124565b91508282048414831517610228576102276101c1565b5b5092915050565b7f4e487b71000000000000000000000000000000000000000000000000000000005f52601260045260245ffd5b5f61026682610124565b915061027183610124565b9250826102815761028061022f565b5b828204905092915050565b5f61029682610124565b91506102a183610124565b92508282019050808211156102b9576102b86101c1565b5b9291505056fea26469706673582212203b43c25b22e943a0b0d017b6cc10ebb56a013e55d85cdf93badfedffb0ad6a6264736f6c634300081a0033",
					"opcodes": "PUSH1 0x80 PUSH1 0x40 MSTORE CALLVALUE DUP1 ISZERO PUSH1 0xE JUMPI PUSH0 DUP1 REVERT JUMPDEST POP PUSH1 0x40 MLOAD PUSH2 0x3AC CODESIZE SUB DUP1 PUSH2 0x3AC DUP4 CODECOPY DUP2 DUP2 ADD PUSH1 0x40 MSTORE DUP2 ADD SWAP1 PUSH1 0x2E SWAP2 SWAP1 PUSH1 0x73 JUMP JUMPDEST DUP2 PUSH0 DUP2 SWAP1 SSTORE POP DUP1 PUSH1 0x1 DUP2 SWAP1 SSTORE POP POP POP PUSH1 0xAA JUMP JUMPDEST PUSH0 DUP1 REVERT JUMPDEST PUSH0 DUP2 SWAP1 POP SWAP2 SWAP1 POP JUMP JUMPDEST PUSH1 0x55 DUP2 PUSH1 0x45 JUMP JUMPDEST DUP2 EQ PUSH1 0x5E JUMPI PUSH0 DUP1 REVERT JUMPDEST POP JUMP JUMPDEST PUSH0 DUP2 MLOAD SWAP1 POP PUSH1 0x6D DUP2 PUSH1 0x4E JUMP JUMPDEST SWAP3 SWAP2 POP POP JUMP JUMPDEST PUSH0 DUP1 PUSH1 0x40 DUP4 DUP6 SUB SLT ISZERO PUSH1 0x86 JUMPI PUSH1 0x85 PUSH1 0x41 JUMP JUMPDEST JUMPDEST PUSH0 PUSH1 0x91 DUP6 DUP3 DUP7 ADD PUSH1 0x61 JUMP JUMPDEST SWAP3 POP POP PUSH1 0x20 PUSH1 0xA0 DUP6 DUP3 DUP7 ADD PUSH1 0x61 JUMP JUMPDEST SWAP2 POP POP SWAP3 POP SWAP3 SWAP1 POP JUMP JUMPDEST PUSH2 0x2F5 DUP1 PUSH2 0xB7 PUSH0 CODECOPY PUSH0 RETURN INVALID PUSH1 0x80 PUSH1 0x40 MSTORE CALLVALUE DUP1 ISZERO PUSH2 0xF JUMPI PUSH0 DUP1 REVERT JUMPDEST POP PUSH1 0x4 CALLDATASIZE LT PUSH2 0x3F JUMPI PUSH0 CALLDATALOAD PUSH1 0xE0 SHR DUP1 PUSH4 0x1B3ED722 EQ PUSH2 0x43 JUMPI DUP1 PUSH4 0x1F68F20A EQ PUSH2 0x61 JUMPI DUP1 PUSH4 0xA5CDFA94 EQ PUSH2 0x7F JUMPI JUMPDEST PUSH0 DUP1 REVERT JUMPDEST PUSH2 0x4B PUSH2 0xAF JUMP JUMPDEST PUSH1 0x40 MLOAD PUSH2 0x58 SWAP2 SWAP1 PUSH2 0x13C JUMP JUMPDEST PUSH1 0x40 MLOAD DUP1 SWAP2 SUB SWAP1 RETURN JUMPDEST PUSH2 0x69 PUSH2 0xB5 JUMP JUMPDEST PUSH1 0x40 MLOAD PUSH2 0x76 SWAP2 SWAP1 PUSH2 0x13C JUMP JUMPDEST PUSH1 0x40 MLOAD DUP1 SWAP2 SUB SWAP1 RETURN JUMPDEST PUSH2 0x99 PUSH1 0x4 DUP1 CALLDATASIZE SUB DUP2 ADD SWAP1 PUSH2 0x94 SWAP2 SWAP1 PUSH2 0x183 JUMP JUMPDEST PUSH2 0xBA JUMP JUMPDEST PUSH1 0x40 MLOAD PUSH2 0xA6 SWAP2 SWAP1 PUSH2 0x13C JUMP JUMPDEST PUSH1 0x40 MLOAD DUP1 SWAP2 SUB SWAP1 RETURN JUMPDEST PUSH1 0x1 SLOAD DUP2 JUMP JUMPDEST PUSH0 SLOAD DUP2 JUMP JUMPDEST PUSH0 DUP1 DUP4 SUB PUSH2 0xCB JUMPI PUSH0 SLOAD SWAP1 POP PUSH2 0x11E JUMP JUMPDEST PUSH0 DUP4 PUSH8 0xDE0B6B3A7640000 DUP5 PUSH2 0xE1 SWAP2 SWAP1 PUSH2 0x1EE JUMP JUMPDEST PUSH2 0xEB SWAP2 SWAP1 PUSH2 0x25C JUMP JUMPDEST SWAP1 POP PUSH8 0xDE0B6B3A7640000 PUSH1 0x1 SLOAD DUP3 PUSH2 0x104 SWAP2 SWAP1 PUSH2 0x1EE JUMP JUMPDEST PUSH2 0x10E SWAP2 SWAP1 PUSH2 0x25C JUMP JUMPDEST PUSH0 SLOAD PUSH2 0x11A SWAP2 SWAP1 PUSH2 0x28C JUMP JUMPDEST SWAP2 POP POP JUMPDEST SWAP3 SWAP2 POP POP JUMP JUMPDEST PUSH0 DUP2 SWAP1 POP SWAP2 SWAP1 POP JUMP JUMPDEST PUSH2 0x136 DUP2 PUSH2 0x124 JUMP JUMPDEST DUP3 MSTORE POP POP JUMP JUMPDEST PUSH0 PUSH1 0x20 DUP3 ADD SWAP1 POP PUSH2 0x14F PUSH0 DUP4 ADD DUP5 PUSH2 0x12D JUMP JUMPDEST SWAP3 SWAP2 POP POP JUMP JUMPDEST PUSH0 DUP1 REVERT JUMPDEST PUSH2 0x162 DUP2 PUSH2 0x124 JUMP JUMPDEST DUP2 EQ PUSH2 0x16C JUMPI PUSH0 DUP1 REVERT JUMPDEST POP JUMP JUMPDEST PUSH0 DUP2 CALLDATALOAD SWAP1 POP PUSH2 0x17D DUP2 PUSH2 0x159 JUMP JUMPDEST SWAP3 SWAP2 POP POP JUMP JUMPDEST PUSH0 DUP1 PUSH1 0x40 DUP4 DUP6 SUB SLT ISZERO PUSH2 0x199 JUMPI PUSH2 0x198 PUSH2 0x155 JUMP JUMPDEST JUMPDEST PUSH0 PUSH2 0x1A6 DUP6 DUP3 DUP7 ADD PUSH2 0x16F JUMP JUMPDEST SWAP3 POP POP PUSH1 0x20 PUSH2 0x1B7 DUP6 DUP3 DUP7 ADD PUSH2 0x16F JUMP JUMPDEST SWAP2 POP POP SWAP3 POP SWAP3 SWAP1 POP JUMP JUMPDEST PUSH32 0x4E487B7100000000000000000000000000000000000000000000000000000000 PUSH0 MSTORE PUSH1 0x11 PUSH1 0x4 MSTORE PUSH1 0x24 PUSH0 REVERT JUMPDEST PUSH0 PUSH2 0x1F8 DUP3 PUSH2 0x124 JUMP JUMPDEST SWAP2 POP PUSH2 0x203 DUP4 PUSH2 0x124 JUMP JUMPDEST SWAP3 POP DUP3 DUP3 MUL PUSH2 0x211 DUP2 PUSH2 0x124 JUMP JUMPDEST SWAP2 POP DUP3 DUP3 DIV DUP5 EQ DUP4 ISZERO OR PUSH2 0x228 JUMPI PUSH2 0x227 PUSH2 0x1C1 JUMP JUMPDEST JUMPDEST POP SWAP3 SWAP2 POP POP JUMP JUMPDEST PUSH32 0x4E487B7100000000000000000000000000000000000000000000000000000000 PUSH0 MSTORE PUSH1 0x12 PUSH1 0x4 MSTORE PUSH1 0x24 PUSH0 REVERT JUMPDEST PUSH0 PUSH2 0x266 DUP3 PUSH2 0x124 JUMP JUMPDEST SWAP2 POP PUSH2 0x271 DUP4 PUSH2 0x124 JUMP JUMPDEST SWAP3 POP DUP3 PUSH2 0x281 JUMPI PUSH2 0x280 PUSH2 0x22F JUMP JUMPDEST JUMPDEST DUP3 DUP3 DIV SWAP1 POP SWAP3 SWAP2 POP POP JUMP JUMPDEST PUSH0 PUSH2 0x296 DUP3 PUSH2 0x124 JUMP JUMPDEST SWAP2 POP PUSH2 0x2A1 DUP4 PUSH2 0x124 JUMP JUMPDEST SWAP3 POP DUP3 DUP3 ADD SWAP1 POP DUP1 DUP3 GT ISZERO PUSH2 0x2B9 JUMPI PUSH2 0x2B8 PUSH2 0x1C1 JUMP JUMPDEST JUMPDEST SWAP3 SWAP2 POP POP JUMP INVALID LOG2 PUSH5 0x6970667358 0x22 SLT KECCAK256 EXTCODESIZE NUMBER 0xC2 JUMPDEST 0x22 0xE9 NUMBER LOG0 0xB0 0xD0 OR 0xB6 0xCC LT 0xEB 0xB5 PUSH11 0x13E55D85CDF93BADFEDFF 0xB0 0xAD PUSH11 0x6264736F6C634300081A00 CALLER "
				},
				"gasEstimates": {
					"creation": {
						"codeDepositCost": "151400",
						"executionCost": "infinite",
						"totalCost": "infinite"
					},
					"external": {
						"baseRate()": "2424",
						"getBorrowRate(uint256,uint256)": "infinite",
						"multiplier()": "2403"
					}
				},
				"methodIdentifiers": {
					"baseRate()": "1f68f20a",
					"getBorrowRate(uint256,uint256)": "a5cdfa94",
					"multiplier()": "1b3ed722"
				}
			},
			"storageLayout": {
				"storage": [
					{
						"astId": 3,
						"contract": "contracts/InterestRateModel.sol:InterestRateModel",
						"label": "baseRate",
						"offset": 0,
						"slot": "0",
						"type": "t_uint256"
					},
					{
						"astId": 5,
						"contract": "contracts/InterestRateModel.sol:InterestRateModel",
						"label": "multiplier",
						"offset": 0,
						"slot": "1",
						"type": "t_uint256"
					}
				],
				"types": {
					"t_uint256": {
						"encoding": "inplace",
						"label": "uint256",
						"numberOfBytes": "32"
					}
				}
			},
			"userdoc": {
				"kind": "user",
				"methods": {},
				"version": 1
			}
		}
	}
}