{
	"data": {
		"bytecode": {
			"linkReferences": {},
			"object": "6080604052348015600e575f80fd5b506130008061001c5f395ff3fe608060405234801561000f575f80fd5b506004361061018c575f3560e01c806379502c55116100dc578063c0c53b8b11610095578063e1ec3c681161006f578063e1ec3c6814610450578063e9cbd82214610487578063fbf37739146104a5578063fc528482146104c15761018c565b8063c0c53b8b146103fa578063d11a57ec14610416578063d547741f146104345761018c565b806379502c55146103475780637cdd1263146103685780638456cb591461038457806387c514591461038e57806391d14854146103ac578063a217fddf146103dc5761018c565b806336568abe11610149578063501ed22c11610123578063501ed22c146102ba578063571a26a0146102d65780635c975abb1461030b57806375b238fc146103295761018c565b806336568abe146102785780633f4ba83a14610294578063415f12401461029e5761018c565b806301ffc9a7146101905780631a465fe1146101c0578063248a9ca3146101de5780632b92a07d1461020e5780632f2ff15d1461023e578063364bc15a1461025a575b5f80fd5b6101aa60048036038101906101a591906120e4565b6104df565b6040516101b79190612129565b60405180910390f35b6101c8610558565b6040516101d591906121bc565b60405180910390f35b6101f860048036038101906101f39190612208565b61057d565b6040516102059190612242565b60405180910390f35b61022860048036038101906102239190612296565b6105a7565b60405161023591906122ec565b60405180910390f35b61025860048036038101906102539190612305565b6105c7565b005b6102626105e9565b60405161026f9190612242565b60405180910390f35b610292600480360381019061028d9190612305565b61060d565b005b61029c610688565b005b6102b860048036038101906102b3919061236d565b6106bd565b005b6102d460048036038101906102cf9190612398565b610a9d565b005b6102f060048036038101906102eb919061236d565b610af5565b6040516103029695949392919061240b565b60405180910390f35b610313610b58565b6040516103209190612129565b60405180910390f35b610331610b6c565b60405161033e9190612242565b60405180910390f35b61034f610b90565b60405161035f949392919061246a565b60405180910390f35b610382600480360381019061037d919061236d565b610bad565b005b61038c610e96565b005b610396610ecb565b6040516103a391906122ec565b60405180910390f35b6103c660048036038101906103c19190612305565b610ed1565b6040516103d39190612129565b60405180910390f35b6103e4610f42565b6040516103f19190612242565b60405180910390f35b610414600480360381019061040f91906124ad565b610f48565b005b61041e6111e4565b60405161042b9190612242565b60405180910390f35b61044e60048036038101906104499190612305565b611208565b005b61046a6004803603810190610465919061236d565b61122a565b60405161047e9897969594939291906124fd565b60405180910390f35b61048f6112d7565b60405161049c91906121bc565b60405180910390f35b6104bf60048036038101906104ba9190612579565b6112fc565b005b6104c96117b6565b6040516104d691906122ec565b60405180910390f35b5f7f7965db0b000000000000000000000000000000000000000000000000000000007bffffffffffffffffffffffffffffffffffffffffffffffffffffffff1916827bffffffffffffffffffffffffffffffffffffffffffffffffffffffff191614806105515750610550826117bc565b5b9050919050565b60685f9054906101000a900473ffffffffffffffffffffffffffffffffffffffff1681565b5f80610587611825565b9050805f015f8481526020019081526020015f2060010154915050919050565b6066602052815f5260405f20602052805f5260405f205f91509150505481565b6105d08261057d565b6105d98161184c565b6105e38383611860565b50505050565b7ffc8737ab85eb45125971625a9ebdb75cc78e01d5c1fa80c4c6e5203f47bc4fab81565b610615611958565b73ffffffffffffffffffffffffffffffffffffffff168173ffffffffffffffffffffffffffffffffffffffff1614610679576040517f6697b23200000000000000000000000000000000000000000000000000000000815260040160405180910390fd5b610683828261195f565b505050565b7fa49807205ce4d355092ef5a8a18f56e8913cf4a201fbe287825b095693c217756106b28161184c565b6106ba611a57565b50565b6106c5611ab7565b6106cd611b01565b5f60645f8381526020019081526020015f209050806007015f9054906101000a900460ff16610731576040517f08c379a000000000000000000000000000000000000000000000000000000000815260040161072890612637565b60405180910390fd5b5f61088782604051806101000160405290815f82015f9054906101000a900473ffffffffffffffffffffffffffffffffffffffff1673ffffffffffffffffffffffffffffffffffffffff1673ffffffffffffffffffffffffffffffffffffffff168152602001600182015f9054906101000a900473ffffffffffffffffffffffffffffffffffffffff1673ffffffffffffffffffffffffffffffffffffffff1673ffffffffffffffffffffffffffffffffffffffff168152602001600282015f9054906101000a900473ffffffffffffffffffffffffffffffffffffffff1673ffffffffffffffffffffffffffffffffffffffff1673ffffffffffffffffffffffffffffffffffffffff16815260200160038201548152602001600482015481526020016005820154815260200160068201548152602001600782015f9054906101000a900460ff161515151581525050611b50565b9050806108c9576040517f08c379a00000000000000000000000000000000000000000000000000000000081526004016108c09061269f565b60405180910390fd5b5f610a1f83604051806101000160405290815f82015f9054906101000a900473ffffffffffffffffffffffffffffffffffffffff1673ffffffffffffffffffffffffffffffffffffffff1673ffffffffffffffffffffffffffffffffffffffff168152602001600182015f9054906101000a900473ffffffffffffffffffffffffffffffffffffffff1673ffffffffffffffffffffffffffffffffffffffff1673ffffffffffffffffffffffffffffffffffffffff168152602001600282015f9054906101000a900473ffffffffffffffffffffffffffffffffffffffff1673ffffffffffffffffffffffffffffffffffffffff1673ffffffffffffffffffffffffffffffffffffffff16815260200160038201548152602001600482015481526020016005820154815260200160068201548152602001600782015f9054906101000a900460ff161515151581525050611b9a565b90505f836007015f6101000a81548160ff0219169083151502179055503373ffffffffffffffffffffffffffffffffffffffff16847f0256bdf47e9aff5784070d6cab332d79f81fc6b8c8ed875565982a423a389e3a8560030154604051610a8791906122ec565b60405180910390a3505050610a9a611d2f565b50565b7fa49807205ce4d355092ef5a8a18f56e8913cf4a201fbe287825b095693c21775610ac78161184c565b8460695f01819055508360696001018190555082606960020181905550816069600301819055505050505050565b6065602052805f5260405f205f91509050805f015f9054906101000a900473ffffffffffffffffffffffffffffffffffffffff1690806001015490806002015490806003015490806004015490806005015f9054906101000a900460ff16905086565b5f805f9054906101000a900460ff16905090565b7fa49807205ce4d355092ef5a8a18f56e8913cf4a201fbe287825b095693c2177581565b6069805f0154908060010154908060020154908060030154905084565b610bb5611b01565b5f60655f8381526020019081526020015f209050806005015f9054906101000a900460ff16610c19576040517f08c379a0000000000000000000000000000000000000000000000000000000008152600401610c1090612707565b60405180910390fd5b5f610cc4826040518060c00160405290815f82015f9054906101000a900473ffffffffffffffffffffffffffffffffffffffff1673ffffffffffffffffffffffffffffffffffffffff1673ffffffffffffffffffffffffffffffffffffffff16815260200160018201548152602001600282015481526020016003820154815260200160048201548152602001600582015f9054906101000a900460ff161515151581525050611d39565b90505f826001015482610cd79190612752565b905060675f9054906101000a900473ffffffffffffffffffffffffffffffffffffffff1673ffffffffffffffffffffffffffffffffffffffff166323b872dd3330846040518463ffffffff1660e01b8152600401610d3793929190612793565b6020604051808303815f875af1158015610d53573d5f803e3d5ffd5b505050506040513d601f19601f82011682018060405250810190610d7791906127f2565b50825f015f9054906101000a900473ffffffffffffffffffffffffffffffffffffffff1673ffffffffffffffffffffffffffffffffffffffff1663a9059cbb3385600101546040518363ffffffff1660e01b8152600401610dd992919061281d565b6020604051808303815f875af1158015610df5573d5f803e3d5ffd5b505050506040513d601f19601f82011682018060405250810190610e1991906127f2565b505f836005015f6101000a81548160ff0219169083151502179055503373ffffffffffffffffffffffffffffffffffffffff16847fea6c5b56c46f5549d8e8438a15cd82bd9a1e42e16cabc76d05a0ba91e06539bf8560010154604051610e8091906122ec565b60405180910390a3505050610e93611d2f565b50565b7fa49807205ce4d355092ef5a8a18f56e8913cf4a201fbe287825b095693c21775610ec08161184c565b610ec8611d96565b50565b606d5481565b5f80610edb611825565b9050805f015f8581526020019081526020015f205f015f8473ffffffffffffffffffffffffffffffffffffffff1673ffffffffffffffffffffffffffffffffffffffff1681526020019081526020015f205f9054906101000a900460ff1691505092915050565b5f801b81565b5f610f51611df7565b90505f815f0160089054906101000a900460ff161590505f825f015f9054906101000a900467ffffffffffffffff1690505f808267ffffffffffffffff16148015610f995750825b90505f60018367ffffffffffffffff16148015610fcc57505f3073ffffffffffffffffffffffffffffffffffffffff163b145b905081158015610fda575080155b15611011576040517ff92ee8a900000000000000000000000000000000000000000000000000000000815260040160405180910390fd5b6001855f015f6101000a81548167ffffffffffffffff021916908367ffffffffffffffff160217905550831561105e576001855f0160086101000a81548160ff0219169083151502179055505b611066611e1e565b61106e611e28565b611076611e3a565b6110825f801b87611860565b506110ad7fa49807205ce4d355092ef5a8a18f56e8913cf4a201fbe287825b095693c2177587611860565b508760675f6101000a81548173ffffffffffffffffffffffffffffffffffffffff021916908373ffffffffffffffffffffffffffffffffffffffff1602179055508660685f6101000a81548173ffffffffffffffffffffffffffffffffffffffff021916908373ffffffffffffffffffffffffffffffffffffffff160217905550604051806080016040528060508152602001604681526020016101f481526020016103e881525060695f820151815f015560208201518160010155604082015181600201556060820151816003015590505083156111da575f855f0160086101000a81548160ff0219169083151502179055507fc7f505b2f371ae2175ee4913f4499e1f2633a7b5936321eed1cdaeb6115181d260016040516111d19190612890565b60405180910390a15b5050505050505050565b7fe1dcbdb91df27212a29bc27177c840cf2f819ecf2187432e1fac86c2dd5dfca981565b6112118261057d565b61121a8161184c565b611224838361195f565b50505050565b6064602052805f5260405f205f91509050805f015f9054906101000a900473ffffffffffffffffffffffffffffffffffffffff1690806001015f9054906101000a900473ffffffffffffffffffffffffffffffffffffffff1690806002015f9054906101000a900473ffffffffffffffffffffffffffffffffffffffff1690806003015490806004015490806005015490806006015490806007015f9054906101000a900460ff16905088565b60675f9054906101000a900473ffffffffffffffffffffffffffffffffffffffff1681565b611304611ab7565b61130c611b01565b5f821161134e576040517f08c379a0000000000000000000000000000000000000000000000000000000008152600401611345906128f3565b60405180910390fd5b5f8111611390576040517f08c379a00000000000000000000000000000000000000000000000000000000081526004016113879061295b565b60405180910390fd5b5f73ffffffffffffffffffffffffffffffffffffffff168373ffffffffffffffffffffffffffffffffffffffff16036113fe576040517f08c379a00000000000000000000000000000000000000000000000000000000081526004016113f5906129c3565b60405180910390fd5b8373ffffffffffffffffffffffffffffffffffffffff166323b872dd3330856040518463ffffffff1660e01b815260040161143b93929190612793565b6020604051808303815f875af1158015611457573d5f803e3d5ffd5b505050506040513d601f19601f8201168201806040525081019061147b91906127f2565b505f611488858585611e4c565b90505f60646069600101548361149e9190612752565b6114a89190612a0e565b9050808311156114ed576040517f08c379a00000000000000000000000000000000000000000000000000000000081526004016114e490612aae565b60405180910390fd5b5f606d5f81548092919061150090612acc565b9190505590506040518061010001604052803373ffffffffffffffffffffffffffffffffffffffff1681526020018873ffffffffffffffffffffffffffffffffffffffff1681526020018773ffffffffffffffffffffffffffffffffffffffff16815260200186815260200185815260200160696002015481526020014281526020016001151581525060645f8381526020019081526020015f205f820151815f015f6101000a81548173ffffffffffffffffffffffffffffffffffffffff021916908373ffffffffffffffffffffffffffffffffffffffff1602179055506020820151816001015f6101000a81548173ffffffffffffffffffffffffffffffffffffffff021916908373ffffffffffffffffffffffffffffffffffffffff1602179055506040820151816002015f6101000a81548173ffffffffffffffffffffffffffffffffffffffff021916908373ffffffffffffffffffffffffffffffffffffffff160217905550606082015181600301556080820151816004015560a0820151816005015560c0820151816006015560e0820151816007015f6101000a81548160ff02191690831515021790555090505060675f9054906101000a900473ffffffffffffffffffffffffffffffffffffffff1673ffffffffffffffffffffffffffffffffffffffff1663a9059cbb33866040518363ffffffff1660e01b815260040161171192919061281d565b6020604051808303815f875af115801561172d573d5f803e3d5ffd5b505050506040513d601f19601f8201168201806040525081019061175191906127f2565b503373ffffffffffffffffffffffffffffffffffffffff16817fd62d0078daaad723b2ab43c15be6e72d2e7bf915e6314eb46555234b40f5fdf289888860405161179d93929190612b13565b60405180910390a35050506117b0611d2f565b50505050565b606e5481565b5f7f01ffc9a7000000000000000000000000000000000000000000000000000000007bffffffffffffffffffffffffffffffffffffffffffffffffffffffff1916827bffffffffffffffffffffffffffffffffffffffffffffffffffffffff1916149050919050565b5f7f02dd7bc7dec4dceedda775e58dd541e08a116c6c53815c0bd028192f7b626800905090565b61185d81611858611958565b611f5f565b50565b5f8061186a611825565b90506118768484610ed1565b61194d576001815f015f8681526020019081526020015f205f015f8573ffffffffffffffffffffffffffffffffffffffff1673ffffffffffffffffffffffffffffffffffffffff1681526020019081526020015f205f6101000a81548160ff0219169083151502179055506118e9611958565b73ffffffffffffffffffffffffffffffffffffffff168373ffffffffffffffffffffffffffffffffffffffff16857f2f8788117e7eff1d82e926ec794901d17c78024a50270940304540a733656f0d60405160405180910390a46001915050611952565b5f9150505b92915050565b5f33905090565b5f80611969611825565b90506119758484610ed1565b15611a4c575f815f015f8681526020019081526020015f205f015f8573ffffffffffffffffffffffffffffffffffffffff1673ffffffffffffffffffffffffffffffffffffffff1681526020019081526020015f205f6101000a81548160ff0219169083151502179055506119e8611958565b73ffffffffffffffffffffffffffffffffffffffff168373ffffffffffffffffffffffffffffffffffffffff16857ff6391f5c32d9c69d2a47ea670b442974b53935d1edc7fd64eb21e047a839171b60405160405180910390a46001915050611a51565b5f9150505b92915050565b611a5f611fb0565b5f805f6101000a81548160ff0219169083151502179055507f5db9ee0a495bf2e6ff9c91a7834c1ba4fdd244a5e8aa4e537bd38aeae4b073aa611aa0611958565b604051611aad9190612b48565b60405180910390a1565b611abf610b58565b15611aff576040517f08c379a0000000000000000000000000000000000000000000000000000000008152600401611af690612bab565b60405180910390fd5b565b600260325403611b46576040517f08c379a0000000000000000000000000000000000000000000000000000000008152600401611b3d90612c13565b60405180910390fd5b6002603281905550565b5f80611b69836020015184604001518560600151611e4c565b90505f83608001519050606460695f015482611b859190612752565b611b8f9190612a0e565b821092505050919050565b5f80611bb3836020015184604001518560600151611e4c565b90505f606e5f815480929190611bc890612acc565b9190505590506040518060c00160405280856020015173ffffffffffffffffffffffffffffffffffffffff1681526020018560600151815260200183815260200160646069600301546064611c1d9190612c31565b85611c289190612752565b611c329190612a0e565b81526020014281526020016001151581525060655f8381526020019081526020015f205f820151815f015f6101000a81548173ffffffffffffffffffffffffffffffffffffffff021916908373ffffffffffffffffffffffffffffffffffffffff1602179055506020820151816001015560408201518160020155606082015181600301556080820151816004015560a0820151816005015f6101000a81548160ff021916908315150217905550905050807fd7d053b3d3fc9e8145896f8940adeb377f6735866f2161ef1660dae9f049247585602001518660600151604051611d1d92919061281d565b60405180910390a28092505050919050565b6001603281905550565b5f80826080015142611d4b9190612c31565b90505f620151808285606001518660400151611d679190612c31565b611d719190612752565b611d7b9190612a0e565b9050808460400151611d8d9190612c31565b92505050919050565b611d9e611ab7565b60015f806101000a81548160ff0219169083151502179055507f62e78cea01bee320cd4e420270b5ea74000d11b0c9f74754ebdbfc544b05a258611de0611958565b604051611ded9190612b48565b60405180910390a1565b5f7ff0c57e16840df040f15088dc2f81fe391c3923bec73e23a9662efc9c229c6a00905090565b611e26611ff9565b565b611e30611ff9565b611e38612039565b565b611e42611ff9565b611e4a61205b565b565b5f808390505f8173ffffffffffffffffffffffffffffffffffffffff1663feaf968c6040518163ffffffff1660e01b815260040160a060405180830381865afa158015611e9b573d5f803e3d5ffd5b505050506040513d601f19601f82011682018060405250810190611ebf9190612cea565b5050509150508173ffffffffffffffffffffffffffffffffffffffff1663313ce5676040518163ffffffff1660e01b8152600401602060405180830381865afa158015611f0e573d5f803e3d5ffd5b505050506040513d601f19601f82011682018060405250810190611f329190612d97565b600a611f3e9190612ef1565b8482611f4a9190612752565b611f549190612a0e565b925050509392505050565b611f698282610ed1565b611fac5780826040517fe2517d3f000000000000000000000000000000000000000000000000000000008152600401611fa3929190612f3b565b60405180910390fd5b5050565b611fb8610b58565b611ff7576040517f08c379a0000000000000000000000000000000000000000000000000000000008152600401611fee90612fac565b60405180910390fd5b565b61200161206d565b612037576040517fd7e6bcf800000000000000000000000000000000000000000000000000000000815260040160405180910390fd5b565b612041611ff9565b5f805f6101000a81548160ff021916908315150217905550565b612063611ff9565b6001603281905550565b5f612076611df7565b5f0160089054906101000a900460ff16905090565b5f80fd5b5f7fffffffff0000000000000000000000000000000000000000000000000000000082169050919050565b6120c38161208f565b81146120cd575f80fd5b50565b5f813590506120de816120ba565b92915050565b5f602082840312156120f9576120f861208b565b5b5f612106848285016120d0565b91505092915050565b5f8115159050919050565b6121238161210f565b82525050565b5f60208201905061213c5f83018461211a565b92915050565b5f73ffffffffffffffffffffffffffffffffffffffff82169050919050565b5f819050919050565b5f61218461217f61217a84612142565b612161565b612142565b9050919050565b5f6121958261216a565b9050919050565b5f6121a68261218b565b9050919050565b6121b68161219c565b82525050565b5f6020820190506121cf5f8301846121ad565b92915050565b5f819050919050565b6121e7816121d5565b81146121f1575f80fd5b50565b5f81359050612202816121de565b92915050565b5f6020828403121561221d5761221c61208b565b5b5f61222a848285016121f4565b91505092915050565b61223c816121d5565b82525050565b5f6020820190506122555f830184612233565b92915050565b5f61226582612142565b9050919050565b6122758161225b565b811461227f575f80fd5b50565b5f813590506122908161226c565b92915050565b5f80604083850312156122ac576122ab61208b565b5b5f6122b985828601612282565b92505060206122ca85828601612282565b9150509250929050565b5f819050919050565b6122e6816122d4565b82525050565b5f6020820190506122ff5f8301846122dd565b92915050565b5f806040838503121561231b5761231a61208b565b5b5f612328858286016121f4565b925050602061233985828601612282565b9150509250929050565b61234c816122d4565b8114612356575f80fd5b50565b5f8135905061236781612343565b92915050565b5f602082840312156123825761238161208b565b5b5f61238f84828501612359565b91505092915050565b5f805f80608085870312156123b0576123af61208b565b5b5f6123bd87828801612359565b94505060206123ce87828801612359565b93505060406123df87828801612359565b92505060606123f087828801612359565b91505092959194509250565b6124058161225b565b82525050565b5f60c08201905061241e5f8301896123fc565b61242b60208301886122dd565b61243860408301876122dd565b61244560608301866122dd565b61245260808301856122dd565b61245f60a083018461211a565b979650505050505050565b5f60808201905061247d5f8301876122dd565b61248a60208301866122dd565b61249760408301856122dd565b6124a460608301846122dd565b95945050505050565b5f805f606084860312156124c4576124c361208b565b5b5f6124d186828701612282565b93505060206124e286828701612282565b92505060406124f386828701612282565b9150509250925092565b5f610100820190506125115f83018b6123fc565b61251e602083018a6123fc565b61252b60408301896123fc565b61253860608301886122dd565b61254560808301876122dd565b61255260a08301866122dd565b61255f60c08301856122dd565b61256c60e083018461211a565b9998505050505050505050565b5f805f80608085870312156125915761259061208b565b5b5f61259e87828801612282565b94505060206125af87828801612282565b93505060406125c087828801612359565b92505060606125d187828801612359565b91505092959194509250565b5f82825260208201905092915050565b7f4c6f616e206e6f742061637469766500000000000000000000000000000000005f82015250565b5f612621600f836125dd565b915061262c826125ed565b602082019050919050565b5f6020820190508181035f83015261264e81612615565b9050919050565b7f4c6f616e206e6f74206c6971756964617461626c6500000000000000000000005f82015250565b5f6126896015836125dd565b915061269482612655565b602082019050919050565b5f6020820190508181035f8301526126b68161267d565b9050919050565b7f41756374696f6e206e6f742061637469766500000000000000000000000000005f82015250565b5f6126f16012836125dd565b91506126fc826126bd565b602082019050919050565b5f6020820190508181035f83015261271e816126e5565b9050919050565b7f4e487b71000000000000000000000000000000000000000000000000000000005f52601160045260245ffd5b5f61275c826122d4565b9150612767836122d4565b9250828202612775816122d4565b9150828204841483151761278c5761278b612725565b5b5092915050565b5f6060820190506127a65f8301866123fc565b6127b360208301856123fc565b6127c060408301846122dd565b949350505050565b6127d18161210f565b81146127db575f80fd5b50565b5f815190506127ec816127c8565b92915050565b5f602082840312156128075761280661208b565b5b5f612814848285016127de565b91505092915050565b5f6040820190506128305f8301856123fc565b61283d60208301846122dd565b9392505050565b5f819050919050565b5f67ffffffffffffffff82169050919050565b5f61287a61287561287084612844565b612161565b61284d565b9050919050565b61288a81612860565b82525050565b5f6020820190506128a35f830184612881565b92915050565b7f496e76616c696420636f6c6c61746572616c20616d6f756e74000000000000005f82015250565b5f6128dd6019836125dd565b91506128e8826128a9565b602082019050919050565b5f6020820190508181035f83015261290a816128d1565b9050919050565b7f496e76616c696420626f72726f7720616d6f756e7400000000000000000000005f82015250565b5f6129456015836125dd565b915061295082612911565b602082019050919050565b5f6020820190508181035f83015261297281612939565b9050919050565b7f496e76616c6964207072696365206665656400000000000000000000000000005f82015250565b5f6129ad6012836125dd565b91506129b882612979565b602082019050919050565b5f6020820190508181035f8301526129da816129a1565b9050919050565b7f4e487b71000000000000000000000000000000000000000000000000000000005f52601260045260245ffd5b5f612a18826122d4565b9150612a23836122d4565b925082612a3357612a326129e1565b5b828204905092915050565b7f426f72726f7720616d6f756e74206578636565647320636f6c6c61746572616c5f8201527f2076616c75650000000000000000000000000000000000000000000000000000602082015250565b5f612a986026836125dd565b9150612aa382612a3e565b604082019050919050565b5f6020820190508181035f830152612ac581612a8c565b9050919050565b5f612ad6826122d4565b91507fffffffffffffffffffffffffffffffffffffffffffffffffffffffffffffffff8203612b0857612b07612725565b5b600182019050919050565b5f606082019050612b265f8301866123fc565b612b3360208301856122dd565b612b4060408301846122dd565b949350505050565b5f602082019050612b5b5f8301846123fc565b92915050565b7f5061757361626c653a20706175736564000000000000000000000000000000005f82015250565b5f612b956010836125dd565b9150612ba082612b61565b602082019050919050565b5f6020820190508181035f830152612bc281612b89565b9050919050565b7f5265656e7472616e637947756172643a207265656e7472616e742063616c6c005f82015250565b5f612bfd601f836125dd565b9150612c0882612bc9565b602082019050919050565b5f6020820190508181035f830152612c2a81612bf1565b9050919050565b5f612c3b826122d4565b9150612c46836122d4565b9250828203905081811115612c5e57612c5d612725565b5b92915050565b5f69ffffffffffffffffffff82169050919050565b612c8281612c64565b8114612c8c575f80fd5b50565b5f81519050612c9d81612c79565b92915050565b5f819050919050565b612cb581612ca3565b8114612cbf575f80fd5b50565b5f81519050612cd081612cac565b92915050565b5f81519050612ce481612343565b92915050565b5f805f805f60a08688031215612d0357612d0261208b565b5b5f612d1088828901612c8f565b9550506020612d2188828901612cc2565b9450506040612d3288828901612cd6565b9350506060612d4388828901612cd6565b9250506080612d5488828901612c8f565b9150509295509295909350565b5f60ff82169050919050565b612d7681612d61565b8114612d80575f80fd5b50565b5f81519050612d9181612d6d565b92915050565b5f60208284031215612dac57612dab61208b565b5b5f612db984828501612d83565b91505092915050565b5f8160011c9050919050565b5f808291508390505b6001851115612e1757808604811115612df357612df2612725565b5b6001851615612e025780820291505b8081029050612e1085612dc2565b9450612dd7565b94509492505050565b5f82612e2f5760019050612eea565b81612e3c575f9050612eea565b8160018114612e525760028114612e5c57612e8b565b6001915050612eea565b60ff841115612e6e57612e6d612725565b5b8360020a915084821115612e8557612e84612725565b5b50612eea565b5060208310610133831016604e8410600b8410161715612ec05782820a905083811115612ebb57612eba612725565b5b612eea565b612ecd8484846001612dce565b92509050818404811115612ee457612ee3612725565b5b81810290505b9392505050565b5f612efb826122d4565b9150612f0683612d61565b9250612f337fffffffffffffffffffffffffffffffffffffffffffffffffffffffffffffffff8484612e20565b905092915050565b5f604082019050612f4e5f8301856123fc565b612f5b6020830184612233565b9392505050565b7f5061757361626c653a206e6f74207061757365640000000000000000000000005f82015250565b5f612f966014836125dd565b9150612fa182612f62565b602082019050919050565b5f6020820190508181035f830152612fc381612f8a565b905091905056fea26469706673582212200d66c2b67d00f3ecca64c02828f06bec6e5e71485a46245bd5d68910bedf685d64736f6c634300081a0033",
			"opcodes": "PUSH1 0x80 PUSH1 0x40 MSTORE CALLVALUE DUP1 ISZERO PUSH1 0xE JUMPI PUSH0 DUP1 REVERT JUMPDEST POP PUSH2 0x3000 DUP1 PUSH2 0x1C PUSH0 CODECOPY PUSH0 RETURN INVALID PUSH1 0x80 PUSH1 0x40 MSTORE CALLVALUE DUP1 ISZERO PUSH2 0xF JUMPI PUSH0 DUP1 REVERT JUMPDEST POP PUSH1 0x4 CALLDATASIZE LT PUSH2 0x18C JUMPI PUSH0 CALLDATALOAD PUSH1 0xE0 SHR DUP1 PUSH4 0x79502C55 GT PUSH2 0xDC JUMPI DUP1 PUSH4 0xC0C53B8B GT PUSH2 0x95 JUMPI DUP1 PUSH4 0xE1EC3C68 GT PUSH2 0x6F JUMPI DUP1 PUSH4 0xE1EC3C68 EQ PUSH2 0x450 JUMPI DUP1 PUSH4 0xE9CBD822 EQ PUSH2 0x487 JUMPI DUP1 PUSH4 0xFBF37739 EQ PUSH2 0x4A5 JUMPI DUP1 PUSH4 0xFC528482 EQ PUSH2 0x4C1 JUMPI PUSH2 0x18C JUMP JUMPDEST DUP1 PUSH4 0xC0C53B8B EQ PUSH2 0x3FA JUMPI DUP1 PUSH4 0xD11A57EC EQ PUSH2 0x416 JUMPI DUP1 PUSH4 0xD547741F EQ PUSH2 0x434 JUMPI PUSH2 0x18C JUMP JUMPDEST DUP1 PUSH4 0x79502C55 EQ PUSH2 0x347 JUMPI DUP1 PUSH4 0x7CDD1263 EQ PUSH2 0x368 JUMPI DUP1 PUSH4 0x8456CB59 EQ PUSH2 0x384 JUMPI DUP1 PUSH4 0x87C51459 EQ PUSH2 0x38E JUMPI DUP1 PUSH4 0x91D14854 EQ PUSH2 0x3AC JUMPI DUP1 PUSH4 0xA217FDDF EQ PUSH2 0x3DC JUMPI PUSH2 0x18C JUMP JUMPDEST DUP1 PUSH4 0x36568ABE GT PUSH2 0x149 JUMPI DUP1 PUSH4 0x501ED22C GT PUSH2 0x123 JUMPI DUP1 PUSH4 0x501ED22C EQ PUSH2 0x2BA JUMPI DUP1 PUSH4 0x571A26A0 EQ PUSH2 0x2D6 JUMPI DUP1 PUSH4 0x5C975ABB EQ PUSH2 0x30B JUMPI DUP1 PUSH4 0x75B238FC EQ PUSH2 0x329 JUMPI PUSH2 0x18C JUMP JUMPDEST DUP1 PUSH4 0x36568ABE EQ PUSH2 0x278 JUMPI DUP1 PUSH4 0x3F4BA83A EQ PUSH2 0x294 JUMPI DUP1 PUSH4 0x415F1240 EQ PUSH2 0x29E JUMPI PUSH2 0x18C JUMP JUMPDEST DUP1 PUSH4 0x1FFC9A7 EQ PUSH2 0x190 JUMPI DUP1 PUSH4 0x1A465FE1 EQ PUSH2 0x1C0 JUMPI DUP1 PUSH4 0x248A9CA3 EQ PUSH2 0x1DE JUMPI DUP1 PUSH4 0x2B92A07D EQ PUSH2 0x20E JUMPI DUP1 PUSH4 0x2F2FF15D EQ PUSH2 0x23E JUMPI DUP1 PUSH4 0x364BC15A EQ PUSH2 0x25A JUMPI JUMPDEST PUSH0 DUP1 REVERT JUMPDEST PUSH2 0x1AA PUSH1 0x4 DUP1 CALLDATASIZE SUB DUP2 ADD SWAP1 PUSH2 0x1A5 SWAP2 SWAP1 PUSH2 0x20E4 JUMP JUMPDEST PUSH2 0x4DF JUMP JUMPDEST PUSH1 0x40 MLOAD PUSH2 0x1B7 SWAP2 SWAP1 PUSH2 0x2129 JUMP JUMPDEST PUSH1 0x40 MLOAD DUP1 SWAP2 SUB SWAP1 RETURN JUMPDEST PUSH2 0x1C8 PUSH2 0x558 JUMP JUMPDEST PUSH1 0x40 MLOAD PUSH2 0x1D5 SWAP2 SWAP1 PUSH2 0x21BC JUMP JUMPDEST PUSH1 0x40 MLOAD DUP1 SWAP2 SUB SWAP1 RETURN JUMPDEST PUSH2 0x1F8 PUSH1 0x4 DUP1 CALLDATASIZE SUB DUP2 ADD SWAP1 PUSH2 0x1F3 SWAP2 SWAP1 PUSH2 0x2208 JUMP JUMPDEST PUSH2 0x57D JUMP JUMPDEST PUSH1 0x40 MLOAD PUSH2 0x205 SWAP2 SWAP1 PUSH2 0x2242 JUMP JUMPDEST PUSH1 0x40 MLOAD DUP1 SWAP2 SUB SWAP1 RETURN JUMPDEST PUSH2 0x228 PUSH1 0x4 DUP1 CALLDATASIZE SUB DUP2 ADD SWAP1 PUSH2 0x223 SWAP2 SWAP1 PUSH2 0x2296 JUMP JUMPDEST PUSH2 0x5A7 JUMP JUMPDEST PUSH1 0x40 MLOAD PUSH2 0x235 SWAP2 SWAP1 PUSH2 0x22EC JUMP JUMPDEST PUSH1 0x40 MLOAD DUP1 SWAP2 SUB SWAP1 RETURN JUMPDEST PUSH2 0x258 PUSH1 0x4 DUP1 CALLDATASIZE SUB DUP2 ADD SWAP1 PUSH2 0x253 SWAP2 SWAP1 PUSH2 0x2305 JUMP JUMPDEST PUSH2 0x5C7 JUMP JUMPDEST STOP JUMPDEST PUSH2 0x262 PUSH2 0x5E9 JUMP JUMPDEST PUSH1 0x40 MLOAD PUSH2 0x26F SWAP2 SWAP1 PUSH2 0x2242 JUMP JUMPDEST PUSH1 0x40 MLOAD DUP1 SWAP2 SUB SWAP1 RETURN JUMPDEST PUSH2 0x292 PUSH1 0x4 DUP1 CALLDATASIZE SUB DUP2 ADD SWAP1 PUSH2 0x28D SWAP2 SWAP1 PUSH2 0x2305 JUMP JUMPDEST PUSH2 0x60D JUMP JUMPDEST STOP JUMPDEST PUSH2 0x29C PUSH2 0x688 JUMP JUMPDEST STOP JUMPDEST PUSH2 0x2B8 PUSH1 0x4 DUP1 CALLDATASIZE SUB DUP2 ADD SWAP1 PUSH2 0x2B3 SWAP2 SWAP1 PUSH2 0x236D JUMP JUMPDEST PUSH2 0x6BD JUMP JUMPDEST STOP JUMPDEST PUSH2 0x2D4 PUSH1 0x4 DUP1 CALLDATASIZE SUB DUP2 ADD SWAP1 PUSH2 0x2CF SWAP2 SWAP1 PUSH2 0x2398 JUMP JUMPDEST PUSH2 0xA9D JUMP JUMPDEST STOP JUMPDEST PUSH2 0x2F0 PUSH1 0x4 DUP1 CALLDATASIZE SUB DUP2 ADD SWAP1 PUSH2 0x2EB SWAP2 SWAP1 PUSH2 0x236D JUMP JUMPDEST PUSH2 0xAF5 JUMP JUMPDEST PUSH1 0x40 MLOAD PUSH2 0x302 SWAP7 SWAP6 SWAP5 SWAP4 SWAP3 SWAP2 SWAP1 PUSH2 0x240B JUMP JUMPDEST PUSH1 0x40 MLOAD DUP1 SWAP2 SUB SWAP1 RETURN JUMPDEST PUSH2 0x313 PUSH2 0xB58 JUMP JUMPDEST PUSH1 0x40 MLOAD PUSH2 0x320 SWAP2 SWAP1 PUSH2 0x2129 JUMP JUMPDEST PUSH1 0x40 MLOAD DUP1 SWAP2 SUB SWAP1 RETURN JUMPDEST PUSH2 0x331 PUSH2 0xB6C JUMP JUMPDEST PUSH1 0x40 MLOAD PUSH2 0x33E SWAP2 SWAP1 PUSH2 0x2242 JUMP JUMPDEST PUSH1 0x40 MLOAD DUP1 SWAP2 SUB SWAP1 RETURN JUMPDEST PUSH2 0x34F PUSH2 0xB90 JUMP JUMPDEST PUSH1 0x40 MLOAD PUSH2 0x35F SWAP5 SWAP4 SWAP3 SWAP2 SWAP1 PUSH2 0x246A JUMP JUMPDEST PUSH1 0x40 MLOAD DUP1 SWAP2 SUB SWAP1 RETURN JUMPDEST PUSH2 0x382 PUSH1 0x4 DUP1 CALLDATASIZE SUB DUP2 ADD SWAP1 PUSH2 0x37D SWAP2 SWAP1 PUSH2 0x236D JUMP JUMPDEST PUSH2 0xBAD JUMP JUMPDEST STOP JUMPDEST PUSH2 0x38C PUSH2 0xE96 JUMP JUMPDEST STOP JUMPDEST PUSH2 0x396 PUSH2 0xECB JUMP JUMPDEST PUSH1 0x40 MLOAD PUSH2 0x3A3 SWAP2 SWAP1 PUSH2 0x22EC JUMP JUMPDEST PUSH1 0x40 MLOAD DUP1 SWAP2 SUB SWAP1 RETURN JUMPDEST PUSH2 0x3C6 PUSH1 0x4 DUP1 CALLDATASIZE SUB DUP2 ADD SWAP1 PUSH2 0x3C1 SWAP2 SWAP1 PUSH2 0x2305 JUMP JUMPDEST PUSH2 0xED1 JUMP JUMPDEST PUSH1 0x40 MLOAD PUSH2 0x3D3 SWAP2 SWAP1 PUSH2 0x2129 JUMP JUMPDEST PUSH1 0x40 MLOAD DUP1 SWAP2 SUB SWAP1 RETURN JUMPDEST PUSH2 0x3E4 PUSH2 0xF42 JUMP JUMPDEST PUSH1 0x40 MLOAD PUSH2 0x3F1 SWAP2 SWAP1 PUSH2 0x2242 JUMP JUMPDEST PUSH1 0x40 MLOAD DUP1 SWAP2 SUB SWAP1 RETURN JUMPDEST PUSH2 0x414 PUSH1 0x4 DUP1 CALLDATASIZE SUB DUP2 ADD SWAP1 PUSH2 0x40F SWAP2 SWAP1 PUSH2 0x24AD JUMP JUMPDEST PUSH2 0xF48 JUMP JUMPDEST STOP JUMPDEST PUSH2 0x41E PUSH2 0x11E4 JUMP JUMPDEST PUSH1 0x40 MLOAD PUSH2 0x42B SWAP2 SWAP1 PUSH2 0x2242 JUMP JUMPDEST PUSH1 0x40 MLOAD DUP1 SWAP2 SUB SWAP1 RETURN JUMPDEST PUSH2 0x44E PUSH1 0x4 DUP1 CALLDATASIZE SUB DUP2 ADD SWAP1 PUSH2 0x449 SWAP2 SWAP1 PUSH2 0x2305 JUMP JUMPDEST PUSH2 0x1208 JUMP JUMPDEST STOP JUMPDEST PUSH2 0x46A PUSH1 0x4 DUP1 CALLDATASIZE SUB DUP2 ADD SWAP1 PUSH2 0x465 SWAP2 SWAP1 PUSH2 0x236D JUMP JUMPDEST PUSH2 0x122A JUMP JUMPDEST PUSH1 0x40 MLOAD PUSH2 0x47E SWAP9 SWAP8 SWAP7 SWAP6 SWAP5 SWAP4 SWAP3 SWAP2 SWAP1 PUSH2 0x24FD JUMP JUMPDEST PUSH1 0x40 MLOAD DUP1 SWAP2 SUB SWAP1 RETURN JUMPDEST PUSH2 0x48F PUSH2 0x12D7 JUMP JUMPDEST PUSH1 0x40 MLOAD PUSH2 0x49C SWAP2 SWAP1 PUSH2 0x21BC JUMP JUMPDEST PUSH1 0x40 MLOAD DUP1 SWAP2 SUB SWAP1 RETURN JUMPDEST PUSH2 0x4BF PUSH1 0x4 DUP1 CALLDATASIZE SUB DUP2 ADD SWAP1 PUSH2 0x4BA SWAP2 SWAP1 PUSH2 0x2579 JUMP JUMPDEST PUSH2 0x12FC JUMP JUMPDEST STOP JUMPDEST PUSH2 0x4C9 PUSH2 0x17B6 JUMP JUMPDEST PUSH1 0x40 MLOAD PUSH2 0x4D6 SWAP2 SWAP1 PUSH2 0x22EC JUMP JUMPDEST PUSH1 0x40 MLOAD DUP1 SWAP2 SUB SWAP1 RETURN JUMPDEST PUSH0 PUSH32 0x7965DB0B00000000000000000000000000000000000000000000000000000000 PUSH28 0xFFFFFFFFFFFFFFFFFFFFFFFFFFFFFFFFFFFFFFFFFFFFFFFFFFFFFFFF NOT AND DUP3 PUSH28 0xFFFFFFFFFFFFFFFFFFFFFFFFFFFFFFFFFFFFFFFFFFFFFFFFFFFFFFFF NOT AND EQ DUP1 PUSH2 0x551 JUMPI POP PUSH2 0x550 DUP3 PUSH2 0x17BC JUMP JUMPDEST JUMPDEST SWAP1 POP SWAP2 SWAP1 POP JUMP JUMPDEST PUSH1 0x68 PUSH0 SWAP1 SLOAD SWAP1 PUSH2 0x100 EXP SWAP1 DIV PUSH20 0xFFFFFFFFFFFFFFFFFFFFFFFFFFFFFFFFFFFFFFFF AND DUP2 JUMP JUMPDEST PUSH0 DUP1 PUSH2 0x587 PUSH2 0x1825 JUMP JUMPDEST SWAP1 POP DUP1 PUSH0 ADD PUSH0 DUP5 DUP2 MSTORE PUSH1 0x20 ADD SWAP1 DUP2 MSTORE PUSH1 0x20 ADD PUSH0 KECCAK256 PUSH1 0x1 ADD SLOAD SWAP2 POP POP SWAP2 SWAP1 POP JUMP JUMPDEST PUSH1 0x66 PUSH1 0x20 MSTORE DUP2 PUSH0 MSTORE PUSH1 0x40 PUSH0 KECCAK256 PUSH1 0x20 MSTORE DUP1 PUSH0 MSTORE PUSH1 0x40 PUSH0 KECCAK256 PUSH0 SWAP2 POP SWAP2 POP POP SLOAD DUP2 JUMP JUMPDEST PUSH2 0x5D0 DUP3 PUSH2 0x57D JUMP JUMPDEST PUSH2 0x5D9 DUP2 PUSH2 0x184C JUMP JUMPDEST PUSH2 0x5E3 DUP4 DUP4 PUSH2 0x1860 JUMP JUMPDEST POP POP POP POP JUMP JUMPDEST PUSH32 0xFC8737AB85EB45125971625A9EBDB75CC78E01D5C1FA80C4C6E5203F47BC4FAB DUP2 JUMP JUMPDEST PUSH2 0x615 PUSH2 0x1958 JUMP JUMPDEST PUSH20 0xFFFFFFFFFFFFFFFFFFFFFFFFFFFFFFFFFFFFFFFF AND DUP2 PUSH20 0xFFFFFFFFFFFFFFFFFFFFFFFFFFFFFFFFFFFFFFFF AND EQ PUSH2 0x679 JUMPI PUSH1 0x40 MLOAD PUSH32 0x6697B23200000000000000000000000000000000000000000000000000000000 DUP2 MSTORE PUSH1 0x4 ADD PUSH1 0x40 MLOAD DUP1 SWAP2 SUB SWAP1 REVERT JUMPDEST PUSH2 0x683 DUP3 DUP3 PUSH2 0x195F JUMP JUMPDEST POP POP POP JUMP JUMPDEST PUSH32 0xA49807205CE4D355092EF5A8A18F56E8913CF4A201FBE287825B095693C21775 PUSH2 0x6B2 DUP2 PUSH2 0x184C JUMP JUMPDEST PUSH2 0x6BA PUSH2 0x1A57 JUMP JUMPDEST POP JUMP JUMPDEST PUSH2 0x6C5 PUSH2 0x1AB7 JUMP JUMPDEST PUSH2 0x6CD PUSH2 0x1B01 JUMP JUMPDEST PUSH0 PUSH1 0x64 PUSH0 DUP4 DUP2 MSTORE PUSH1 0x20 ADD SWAP1 DUP2 MSTORE PUSH1 0x20 ADD PUSH0 KECCAK256 SWAP1 POP DUP1 PUSH1 0x7 ADD PUSH0 SWAP1 SLOAD SWAP1 PUSH2 0x100 EXP SWAP1 DIV PUSH1 0xFF AND PUSH2 0x731 JUMPI PUSH1 0x40 MLOAD PUSH32 0x8C379A000000000000000000000000000000000000000000000000000000000 DUP2 MSTORE PUSH1 0x4 ADD PUSH2 0x728 SWAP1 PUSH2 0x2637 JUMP JUMPDEST PUSH1 0x40 MLOAD DUP1 SWAP2 SUB SWAP1 REVERT JUMPDEST PUSH0 PUSH2 0x887 DUP3 PUSH1 0x40 MLOAD DUP1 PUSH2 0x100 ADD PUSH1 0x40 MSTORE SWAP1 DUP2 PUSH0 DUP3 ADD PUSH0 SWAP1 SLOAD SWAP1 PUSH2 0x100 EXP SWAP1 DIV PUSH20 0xFFFFFFFFFFFFFFFFFFFFFFFFFFFFFFFFFFFFFFFF AND PUSH20 0xFFFFFFFFFFFFFFFFFFFFFFFFFFFFFFFFFFFFFFFF AND PUSH20 0xFFFFFFFFFFFFFFFFFFFFFFFFFFFFFFFFFFFFFFFF AND DUP2 MSTORE PUSH1 0x20 ADD PUSH1 0x1 DUP3 ADD PUSH0 SWAP1 SLOAD SWAP1 PUSH2 0x100 EXP SWAP1 DIV PUSH20 0xFFFFFFFFFFFFFFFFFFFFFFFFFFFFFFFFFFFFFFFF AND PUSH20 0xFFFFFFFFFFFFFFFFFFFFFFFFFFFFFFFFFFFFFFFF AND PUSH20 0xFFFFFFFFFFFFFFFFFFFFFFFFFFFFFFFFFFFFFFFF AND DUP2 MSTORE PUSH1 0x20 ADD PUSH1 0x2 DUP3 ADD PUSH0 SWAP1 SLOAD SWAP1 PUSH2 0x100 EXP SWAP1 DIV PUSH20 0xFFFFFFFFFFFFFFFFFFFFFFFFFFFFFFFFFFFFFFFF AND PUSH20 0xFFFFFFFFFFFFFFFFFFFFFFFFFFFFFFFFFFFFFFFF AND PUSH20 0xFFFFFFFFFFFFFFFFFFFFFFFFFFFFFFFFFFFFFFFF AND DUP2 MSTORE PUSH1 0x20 ADD PUSH1 0x3 DUP3 ADD SLOAD DUP2 MSTORE PUSH1 0x20 ADD PUSH1 0x4 DUP3 ADD SLOAD DUP2 MSTORE PUSH1 0x20 ADD PUSH1 0x5 DUP3 ADD SLOAD DUP2 MSTORE PUSH1 0x20 ADD PUSH1 0x6 DUP3 ADD SLOAD DUP2 MSTORE PUSH1 0x20 ADD PUSH1 0x7 DUP3 ADD PUSH0 SWAP1 SLOAD SWAP1 PUSH2 0x100 EXP SWAP1 DIV PUSH1 0xFF AND ISZERO ISZERO ISZERO ISZERO DUP2 MSTORE POP POP PUSH2 0x1B50 JUMP JUMPDEST SWAP1 POP DUP1 PUSH2 0x8C9 JUMPI PUSH1 0x40 MLOAD PUSH32 0x8C379A000000000000000000000000000000000000000000000000000000000 DUP2 MSTORE PUSH1 0x4 ADD PUSH2 0x8C0 SWAP1 PUSH2 0x269F JUMP JUMPDEST PUSH1 0x40 MLOAD DUP1 SWAP2 SUB SWAP1 REVERT JUMPDEST PUSH0 PUSH2 0xA1F DUP4 PUSH1 0x40 MLOAD DUP1 PUSH2 0x100 ADD PUSH1 0x40 MSTORE SWAP1 DUP2 PUSH0 DUP3 ADD PUSH0 SWAP1 SLOAD SWAP1 PUSH2 0x100 EXP SWAP1 DIV PUSH20 0xFFFFFFFFFFFFFFFFFFFFFFFFFFFFFFFFFFFFFFFF AND PUSH20 0xFFFFFFFFFFFFFFFFFFFFFFFFFFFFFFFFFFFFFFFF AND PUSH20 0xFFFFFFFFFFFFFFFFFFFFFFFFFFFFFFFFFFFFFFFF AND DUP2 MSTORE PUSH1 0x20 ADD PUSH1 0x1 DUP3 ADD PUSH0 SWAP1 SLOAD SWAP1 PUSH2 0x100 EXP SWAP1 DIV PUSH20 0xFFFFFFFFFFFFFFFFFFFFFFFFFFFFFFFFFFFFFFFF AND PUSH20 0xFFFFFFFFFFFFFFFFFFFFFFFFFFFFFFFFFFFFFFFF AND PUSH20 0xFFFFFFFFFFFFFFFFFFFFFFFFFFFFFFFFFFFFFFFF AND DUP2 MSTORE PUSH1 0x20 ADD PUSH1 0x2 DUP3 ADD PUSH0 SWAP1 SLOAD SWAP1 PUSH2 0x100 EXP SWAP1 DIV PUSH20 0xFFFFFFFFFFFFFFFFFFFFFFFFFFFFFFFFFFFFFFFF AND PUSH20 0xFFFFFFFFFFFFFFFFFFFFFFFFFFFFFFFFFFFFFFFF AND PUSH20 0xFFFFFFFFFFFFFFFFFFFFFFFFFFFFFFFFFFFFFFFF AND DUP2 MSTORE PUSH1 0x20 ADD PUSH1 0x3 DUP3 ADD SLOAD DUP2 MSTORE PUSH1 0x20 ADD PUSH1 0x4 DUP3 ADD SLOAD DUP2 MSTORE PUSH1 0x20 ADD PUSH1 0x5 DUP3 ADD SLOAD DUP2 MSTORE PUSH1 0x20 ADD PUSH1 0x6 DUP3 ADD SLOAD DUP2 MSTORE PUSH1 0x20 ADD PUSH1 0x7 DUP3 ADD PUSH0 SWAP1 SLOAD SWAP1 PUSH2 0x100 EXP SWAP1 DIV PUSH1 0xFF AND ISZERO ISZERO ISZERO ISZERO DUP2 MSTORE POP POP PUSH2 0x1B9A JUMP JUMPDEST SWAP1 POP PUSH0 DUP4 PUSH1 0x7 ADD PUSH0 PUSH2 0x100 EXP DUP2 SLOAD DUP2 PUSH1 0xFF MUL NOT AND SWAP1 DUP4 ISZERO ISZERO MUL OR SWAP1 SSTORE POP CALLER PUSH20 0xFFFFFFFFFFFFFFFFFFFFFFFFFFFFFFFFFFFFFFFF AND DUP5 PUSH32 0x256BDF47E9AFF5784070D6CAB332D79F81FC6B8C8ED875565982A423A389E3A DUP6 PUSH1 0x3 ADD SLOAD PUSH1 0x40 MLOAD PUSH2 0xA87 SWAP2 SWAP1 PUSH2 0x22EC JUMP JUMPDEST PUSH1 0x40 MLOAD DUP1 SWAP2 SUB SWAP1 LOG3 POP POP POP PUSH2 0xA9A PUSH2 0x1D2F JUMP JUMPDEST POP JUMP JUMPDEST PUSH32 0xA49807205CE4D355092EF5A8A18F56E8913CF4A201FBE287825B095693C21775 PUSH2 0xAC7 DUP2 PUSH2 0x184C JUMP JUMPDEST DUP5 PUSH1 0x69 PUSH0 ADD DUP2 SWAP1 SSTORE POP DUP4 PUSH1 0x69 PUSH1 0x1 ADD DUP2 SWAP1 SSTORE POP DUP3 PUSH1 0x69 PUSH1 0x2 ADD DUP2 SWAP1 SSTORE POP DUP2 PUSH1 0x69 PUSH1 0x3 ADD DUP2 SWAP1 SSTORE POP POP POP POP POP POP JUMP JUMPDEST PUSH1 0x65 PUSH1 0x20 MSTORE DUP1 PUSH0 MSTORE PUSH1 0x40 PUSH0 KECCAK256 PUSH0 SWAP2 POP SWAP1 POP DUP1 PUSH0 ADD PUSH0 SWAP1 SLOAD SWAP1 PUSH2 0x100 EXP SWAP1 DIV PUSH20 0xFFFFFFFFFFFFFFFFFFFFFFFFFFFFFFFFFFFFFFFF AND SWAP1 DUP1 PUSH1 0x1 ADD SLOAD SWAP1 DUP1 PUSH1 0x2 ADD SLOAD SWAP1 DUP1 PUSH1 0x3 ADD SLOAD SWAP1 DUP1 PUSH1 0x4 ADD SLOAD SWAP1 DUP1 PUSH1 0x5 ADD PUSH0 SWAP1 SLOAD SWAP1 PUSH2 0x100 EXP SWAP1 DIV PUSH1 0xFF AND SWAP1 POP DUP7 JUMP JUMPDEST PUSH0 DUP1 PUSH0 SWAP1 SLOAD SWAP1 PUSH2 0x100 EXP SWAP1 DIV PUSH1 0xFF AND SWAP1 POP SWAP1 JUMP JUMPDEST PUSH32 0xA49807205CE4D355092EF5A8A18F56E8913CF4A201FBE287825B095693C21775 DUP2 JUMP JUMPDEST PUSH1 0x69 DUP1 PUSH0 ADD SLOAD SWAP1 DUP1 PUSH1 0x1 ADD SLOAD SWAP1 DUP1 PUSH1 0x2 ADD SLOAD SWAP1 DUP1 PUSH1 0x3 ADD SLOAD SWAP1 POP DUP5 JUMP JUMPDEST PUSH2 0xBB5 PUSH2 0x1B01 JUMP JUMPDEST PUSH0 PUSH1 0x65 PUSH0 DUP4 DUP2 MSTORE PUSH1 0x20 ADD SWAP1 DUP2 MSTORE PUSH1 0x20 ADD PUSH0 KECCAK256 SWAP1 POP DUP1 PUSH1 0x5 ADD PUSH0 SWAP1 SLOAD SWAP1 PUSH2 0x100 EXP SWAP1 DIV PUSH1 0xFF AND PUSH2 0xC19 JUMPI PUSH1 0x40 MLOAD PUSH32 0x8C379A000000000000000000000000000000000000000000000000000000000 DUP2 MSTORE PUSH1 0x4 ADD PUSH2 0xC10 SWAP1 PUSH2 0x2707 JUMP JUMPDEST PUSH1 0x40 MLOAD DUP1 SWAP2 SUB SWAP1 REVERT JUMPDEST PUSH0 PUSH2 0xCC4 DUP3 PUSH1 0x40 MLOAD DUP1 PUSH1 0xC0 ADD PUSH1 0x40 MSTORE SWAP1 DUP2 PUSH0 DUP3 ADD PUSH0 SWAP1 SLOAD SWAP1 PUSH2 0x100 EXP SWAP1 DIV PUSH20 0xFFFFFFFFFFFFFFFFFFFFFFFFFFFFFFFFFFFFFFFF AND PUSH20 0xFFFFFFFFFFFFFFFFFFFFFFFFFFFFFFFFFFFFFFFF AND PUSH20 0xFFFFFFFFFFFFFFFFFFFFFFFFFFFFFFFFFFFFFFFF AND DUP2 MSTORE PUSH1 0x20 ADD PUSH1 0x1 DUP3 ADD SLOAD DUP2 MSTORE PUSH1 0x20 ADD PUSH1 0x2 DUP3 ADD SLOAD DUP2 MSTORE PUSH1 0x20 ADD PUSH1 0x3 DUP3 ADD SLOAD DUP2 MSTORE PUSH1 0x20 ADD PUSH1 0x4 DUP3 ADD SLOAD DUP2 MSTORE PUSH1 0x20 ADD PUSH1 0x5 DUP3 ADD PUSH0 SWAP1 SLOAD SWAP1 PUSH2 0x100 EXP SWAP1 DIV PUSH1 0xFF AND ISZERO ISZERO ISZERO ISZERO DUP2 MSTORE POP POP PUSH2 0x1D39 JUMP JUMPDEST SWAP1 POP PUSH0 DUP3 PUSH1 0x1 ADD SLOAD DUP3 PUSH2 0xCD7 SWAP2 SWAP1 PUSH2 0x2752 JUMP JUMPDEST SWAP1 POP PUSH1 0x67 PUSH0 SWAP1 SLOAD SWAP1 PUSH2 0x100 EXP SWAP1 DIV PUSH20 0xFFFFFFFFFFFFFFFFFFFFFFFFFFFFFFFFFFFFFFFF AND PUSH20 0xFFFFFFFFFFFFFFFFFFFFFFFFFFFFFFFFFFFFFFFF AND PUSH4 0x23B872DD CALLER ADDRESS DUP5 PUSH1 0x40 MLOAD DUP5 PUSH4 0xFFFFFFFF AND PUSH1 0xE0 SHL DUP2 MSTORE PUSH1 0x4 ADD PUSH2 0xD37 SWAP4 SWAP3 SWAP2 SWAP1 PUSH2 0x2793 JUMP JUMPDEST PUSH1 0x20 PUSH1 0x40 MLOAD DUP1 DUP4 SUB DUP2 PUSH0 DUP8 GAS CALL ISZERO DUP1 ISZERO PUSH2 0xD53 JUMPI RETURNDATASIZE PUSH0 DUP1 RETURNDATACOPY RETURNDATASIZE PUSH0 REVERT JUMPDEST POP POP POP POP PUSH1 0x40 MLOAD RETURNDATASIZE PUSH1 0x1F NOT PUSH1 0x1F DUP3 ADD AND DUP3 ADD DUP1 PUSH1 0x40 MSTORE POP DUP2 ADD SWAP1 PUSH2 0xD77 SWAP2 SWAP1 PUSH2 0x27F2 JUMP JUMPDEST POP DUP3 PUSH0 ADD PUSH0 SWAP1 SLOAD SWAP1 PUSH2 0x100 EXP SWAP1 DIV PUSH20 0xFFFFFFFFFFFFFFFFFFFFFFFFFFFFFFFFFFFFFFFF AND PUSH20 0xFFFFFFFFFFFFFFFFFFFFFFFFFFFFFFFFFFFFFFFF AND PUSH4 0xA9059CBB CALLER DUP6 PUSH1 0x1 ADD SLOAD PUSH1 0x40 MLOAD DUP4 PUSH4 0xFFFFFFFF AND PUSH1 0xE0 SHL DUP2 MSTORE PUSH1 0x4 ADD PUSH2 0xDD9 SWAP3 SWAP2 SWAP1 PUSH2 0x281D JUMP JUMPDEST PUSH1 0x20 PUSH1 0x40 MLOAD DUP1 DUP4 SUB DUP2 PUSH0 DUP8 GAS CALL ISZERO DUP1 ISZERO PUSH2 0xDF5 JUMPI RETURNDATASIZE PUSH0 DUP1 RETURNDATACOPY RETURNDATASIZE PUSH0 REVERT JUMPDEST POP POP POP POP PUSH1 0x40 MLOAD RETURNDATASIZE PUSH1 0x1F NOT PUSH1 0x1F DUP3 ADD AND DUP3 ADD DUP1 PUSH1 0x40 MSTORE POP DUP2 ADD SWAP1 PUSH2 0xE19 SWAP2 SWAP1 PUSH2 0x27F2 JUMP JUMPDEST POP PUSH0 DUP4 PUSH1 0x5 ADD PUSH0 PUSH2 0x100 EXP DUP2 SLOAD DUP2 PUSH1 0xFF MUL NOT AND SWAP1 DUP4 ISZERO ISZERO MUL OR SWAP1 SSTORE POP CALLER PUSH20 0xFFFFFFFFFFFFFFFFFFFFFFFFFFFFFFFFFFFFFFFF AND DUP5 PUSH32 0xEA6C5B56C46F5549D8E8438A15CD82BD9A1E42E16CABC76D05A0BA91E06539BF DUP6 PUSH1 0x1 ADD SLOAD PUSH1 0x40 MLOAD PUSH2 0xE80 SWAP2 SWAP1 PUSH2 0x22EC JUMP JUMPDEST PUSH1 0x40 MLOAD DUP1 SWAP2 SUB SWAP1 LOG3 POP POP POP PUSH2 0xE93 PUSH2 0x1D2F JUMP JUMPDEST POP JUMP JUMPDEST PUSH32 0xA49807205CE4D355092EF5A8A18F56E8913CF4A201FBE287825B095693C21775 PUSH2 0xEC0 DUP2 PUSH2 0x184C JUMP JUMPDEST PUSH2 0xEC8 PUSH2 0x1D96 JUMP JUMPDEST POP JUMP JUMPDEST PUSH1 0x6D SLOAD DUP2 JUMP JUMPDEST PUSH0 DUP1 PUSH2 0xEDB PUSH2 0x1825 JUMP JUMPDEST SWAP1 POP DUP1 PUSH0 ADD PUSH0 DUP6 DUP2 MSTORE PUSH1 0x20 ADD SWAP1 DUP2 MSTORE PUSH1 0x20 ADD PUSH0 KECCAK256 PUSH0 ADD PUSH0 DUP5 PUSH20 0xFFFFFFFFFFFFFFFFFFFFFFFFFFFFFFFFFFFFFFFF AND PUSH20 0xFFFFFFFFFFFFFFFFFFFFFFFFFFFFFFFFFFFFFFFF AND DUP2 MSTORE PUSH1 0x20 ADD SWAP1 DUP2 MSTORE PUSH1 0x20 ADD PUSH0 KECCAK256 PUSH0 SWAP1 SLOAD SWAP1 PUSH2 0x100 EXP SWAP1 DIV PUSH1 0xFF AND SWAP2 POP POP SWAP3 SWAP2 POP POP JUMP JUMPDEST PUSH0 DUP1 SHL DUP2 JUMP JUMPDEST PUSH0 PUSH2 0xF51 PUSH2 0x1DF7 JUMP JUMPDEST SWAP1 POP PUSH0 DUP2 PUSH0 ADD PUSH1 0x8 SWAP1 SLOAD SWAP1 PUSH2 0x100 EXP SWAP1 DIV PUSH1 0xFF AND ISZERO SWAP1 POP PUSH0 DUP3 PUSH0 ADD PUSH0 SWAP1 SLOAD SWAP1 PUSH2 0x100 EXP SWAP1 DIV PUSH8 0xFFFFFFFFFFFFFFFF AND SWAP1 POP PUSH0 DUP1 DUP3 PUSH8 0xFFFFFFFFFFFFFFFF AND EQ DUP1 ISZERO PUSH2 0xF99 JUMPI POP DUP3 JUMPDEST SWAP1 POP PUSH0 PUSH1 0x1 DUP4 PUSH8 0xFFFFFFFFFFFFFFFF AND EQ DUP1 ISZERO PUSH2 0xFCC JUMPI POP PUSH0 ADDRESS PUSH20 0xFFFFFFFFFFFFFFFFFFFFFFFFFFFFFFFFFFFFFFFF AND EXTCODESIZE EQ JUMPDEST SWAP1 POP DUP2 ISZERO DUP1 ISZERO PUSH2 0xFDA JUMPI POP DUP1 ISZERO JUMPDEST ISZERO PUSH2 0x1011 JUMPI PUSH1 0x40 MLOAD PUSH32 0xF92EE8A900000000000000000000000000000000000000000000000000000000 DUP2 MSTORE PUSH1 0x4 ADD PUSH1 0x40 MLOAD DUP1 SWAP2 SUB SWAP1 REVERT JUMPDEST PUSH1 0x1 DUP6 PUSH0 ADD PUSH0 PUSH2 0x100 EXP DUP2 SLOAD DUP2 PUSH8 0xFFFFFFFFFFFFFFFF MUL NOT AND SWAP1 DUP4 PUSH8 0xFFFFFFFFFFFFFFFF AND MUL OR SWAP1 SSTORE POP DUP4 ISZERO PUSH2 0x105E JUMPI PUSH1 0x1 DUP6 PUSH0 ADD PUSH1 0x8 PUSH2 0x100 EXP DUP2 SLOAD DUP2 PUSH1 0xFF MUL NOT AND SWAP1 DUP4 ISZERO ISZERO MUL OR SWAP1 SSTORE POP JUMPDEST PUSH2 0x1066 PUSH2 0x1E1E JUMP JUMPDEST PUSH2 0x106E PUSH2 0x1E28 JUMP JUMPDEST PUSH2 0x1076 PUSH2 0x1E3A JUMP JUMPDEST PUSH2 0x1082 PUSH0 DUP1 SHL DUP8 PUSH2 0x1860 JUMP JUMPDEST POP PUSH2 0x10AD PUSH32 0xA49807205CE4D355092EF5A8A18F56E8913CF4A201FBE287825B095693C21775 DUP8 PUSH2 0x1860 JUMP JUMPDEST POP DUP8 PUSH1 0x67 PUSH0 PUSH2 0x100 EXP DUP2 SLOAD DUP2 PUSH20 0xFFFFFFFFFFFFFFFFFFFFFFFFFFFFFFFFFFFFFFFF MUL NOT AND SWAP1 DUP4 PUSH20 0xFFFFFFFFFFFFFFFFFFFFFFFFFFFFFFFFFFFFFFFF AND MUL OR SWAP1 SSTORE POP DUP7 PUSH1 0x68 PUSH0 PUSH2 0x100 EXP DUP2 SLOAD DUP2 PUSH20 0xFFFFFFFFFFFFFFFFFFFFFFFFFFFFFFFFFFFFFFFF MUL NOT AND SWAP1 DUP4 PUSH20 0xFFFFFFFFFFFFFFFFFFFFFFFFFFFFFFFFFFFFFFFF AND MUL OR SWAP1 SSTORE POP PUSH1 0x40 MLOAD DUP1 PUSH1 0x80 ADD PUSH1 0x40 MSTORE DUP1 PUSH1 0x50 DUP2 MSTORE PUSH1 0x20 ADD PUSH1 0x46 DUP2 MSTORE PUSH1 0x20 ADD PUSH2 0x1F4 DUP2 MSTORE PUSH1 0x20 ADD PUSH2 0x3E8 DUP2 MSTORE POP PUSH1 0x69 PUSH0 DUP3 ADD MLOAD DUP2 PUSH0 ADD SSTORE PUSH1 0x20 DUP3 ADD MLOAD DUP2 PUSH1 0x1 ADD SSTORE PUSH1 0x40 DUP3 ADD MLOAD DUP2 PUSH1 0x2 ADD SSTORE PUSH1 0x60 DUP3 ADD MLOAD DUP2 PUSH1 0x3 ADD SSTORE SWAP1 POP POP DUP4 ISZERO PUSH2 0x11DA JUMPI PUSH0 DUP6 PUSH0 ADD PUSH1 0x8 PUSH2 0x100 EXP DUP2 SLOAD DUP2 PUSH1 0xFF MUL NOT AND SWAP1 DUP4 ISZERO ISZERO MUL OR SWAP1 SSTORE POP PUSH32 0xC7F505B2F371AE2175EE4913F4499E1F2633A7B5936321EED1CDAEB6115181D2 PUSH1 0x1 PUSH1 0x40 MLOAD PUSH2 0x11D1 SWAP2 SWAP1 PUSH2 0x2890 JUMP JUMPDEST PUSH1 0x40 MLOAD DUP1 SWAP2 SUB SWAP1 LOG1 JUMPDEST POP POP POP POP POP POP POP POP JUMP JUMPDEST PUSH32 0xE1DCBDB91DF27212A29BC27177C840CF2F819ECF2187432E1FAC86C2DD5DFCA9 DUP2 JUMP JUMPDEST PUSH2 0x1211 DUP3 PUSH2 0x57D JUMP JUMPDEST PUSH2 0x121A DUP2 PUSH2 0x184C JUMP JUMPDEST PUSH2 0x1224 DUP4 DUP4 PUSH2 0x195F JUMP JUMPDEST POP POP POP POP JUMP JUMPDEST PUSH1 0x64 PUSH1 0x20 MSTORE DUP1 PUSH0 MSTORE PUSH1 0x40 PUSH0 KECCAK256 PUSH0 SWAP2 POP SWAP1 POP DUP1 PUSH0 ADD PUSH0 SWAP1 SLOAD SWAP1 PUSH2 0x100 EXP SWAP1 DIV PUSH20 0xFFFFFFFFFFFFFFFFFFFFFFFFFFFFFFFFFFFFFFFF AND SWAP1 DUP1 PUSH1 0x1 ADD PUSH0 SWAP1 SLOAD SWAP1 PUSH2 0x100 EXP SWAP1 DIV PUSH20 0xFFFFFFFFFFFFFFFFFFFFFFFFFFFFFFFFFFFFFFFF AND SWAP1 DUP1 PUSH1 0x2 ADD PUSH0 SWAP1 SLOAD SWAP1 PUSH2 0x100 EXP SWAP1 DIV PUSH20 0xFFFFFFFFFFFFFFFFFFFFFFFFFFFFFFFFFFFFFFFF AND SWAP1 DUP1 PUSH1 0x3 ADD SLOAD SWAP1 DUP1 PUSH1 0x4 ADD SLOAD SWAP1 DUP1 PUSH1 0x5 ADD SLOAD SWAP1 DUP1 PUSH1 0x6 ADD SLOAD SWAP1 DUP1 PUSH1 0x7 ADD PUSH0 SWAP1 SLOAD SWAP1 PUSH2 0x100 EXP SWAP1 DIV PUSH1 0xFF AND SWAP1 POP DUP9 JUMP JUMPDEST PUSH1 0x67 PUSH0 SWAP1 SLOAD SWAP1 PUSH2 0x100 EXP SWAP1 DIV PUSH20 0xFFFFFFFFFFFFFFFFFFFFFFFFFFFFFFFFFFFFFFFF AND DUP2 JUMP JUMPDEST PUSH2 0x1304 PUSH2 0x1AB7 JUMP JUMPDEST PUSH2 0x130C PUSH2 0x1B01 JUMP JUMPDEST PUSH0 DUP3 GT PUSH2 0x134E JUMPI PUSH1 0x40 MLOAD PUSH32 0x8C379A000000000000000000000000000000000000000000000000000000000 DUP2 MSTORE PUSH1 0x4 ADD PUSH2 0x1345 SWAP1 PUSH2 0x28F3 JUMP JUMPDEST PUSH1 0x40 MLOAD DUP1 SWAP2 SUB SWAP1 REVERT JUMPDEST PUSH0 DUP2 GT PUSH2 0x1390 JUMPI PUSH1 0x40 MLOAD PUSH32 0x8C379A000000000000000000000000000000000000000000000000000000000 DUP2 MSTORE PUSH1 0x4 ADD PUSH2 0x1387 SWAP1 PUSH2 0x295B JUMP JUMPDEST PUSH1 0x40 MLOAD DUP1 SWAP2 SUB SWAP1 REVERT JUMPDEST PUSH0 PUSH20 0xFFFFFFFFFFFFFFFFFFFFFFFFFFFFFFFFFFFFFFFF AND DUP4 PUSH20 0xFFFFFFFFFFFFFFFFFFFFFFFFFFFFFFFFFFFFFFFF AND SUB PUSH2 0x13FE JUMPI PUSH1 0x40 MLOAD PUSH32 0x8C379A000000000000000000000000000000000000000000000000000000000 DUP2 MSTORE PUSH1 0x4 ADD PUSH2 0x13F5 SWAP1 PUSH2 0x29C3 JUMP JUMPDEST PUSH1 0x40 MLOAD DUP1 SWAP2 SUB SWAP1 REVERT JUMPDEST DUP4 PUSH20 0xFFFFFFFFFFFFFFFFFFFFFFFFFFFFFFFFFFFFFFFF AND PUSH4 0x23B872DD CALLER ADDRESS DUP6 PUSH1 0x40 MLOAD DUP5 PUSH4 0xFFFFFFFF AND PUSH1 0xE0 SHL DUP2 MSTORE PUSH1 0x4 ADD PUSH2 0x143B SWAP4 SWAP3 SWAP2 SWAP1 PUSH2 0x2793 JUMP JUMPDEST PUSH1 0x20 PUSH1 0x40 MLOAD DUP1 DUP4 SUB DUP2 PUSH0 DUP8 GAS CALL ISZERO DUP1 ISZERO PUSH2 0x1457 JUMPI RETURNDATASIZE PUSH0 DUP1 RETURNDATACOPY RETURNDATASIZE PUSH0 REVERT JUMPDEST POP POP POP POP PUSH1 0x40 MLOAD RETURNDATASIZE PUSH1 0x1F NOT PUSH1 0x1F DUP3 ADD AND DUP3 ADD DUP1 PUSH1 0x40 MSTORE POP DUP2 ADD SWAP1 PUSH2 0x147B SWAP2 SWAP1 PUSH2 0x27F2 JUMP JUMPDEST POP PUSH0 PUSH2 0x1488 DUP6 DUP6 DUP6 PUSH2 0x1E4C JUMP JUMPDEST SWAP1 POP PUSH0 PUSH1 0x64 PUSH1 0x69 PUSH1 0x1 ADD SLOAD DUP4 PUSH2 0x149E SWAP2 SWAP1 PUSH2 0x2752 JUMP JUMPDEST PUSH2 0x14A8 SWAP2 SWAP1 PUSH2 0x2A0E JUMP JUMPDEST SWAP1 POP DUP1 DUP4 GT ISZERO PUSH2 0x14ED JUMPI PUSH1 0x40 MLOAD PUSH32 0x8C379A000000000000000000000000000000000000000000000000000000000 DUP2 MSTORE PUSH1 0x4 ADD PUSH2 0x14E4 SWAP1 PUSH2 0x2AAE JUMP JUMPDEST PUSH1 0x40 MLOAD DUP1 SWAP2 SUB SWAP1 REVERT JUMPDEST PUSH0 PUSH1 0x6D PUSH0 DUP2 SLOAD DUP1 SWAP3 SWAP2 SWAP1 PUSH2 0x1500 SWAP1 PUSH2 0x2ACC JUMP JUMPDEST SWAP2 SWAP1 POP SSTORE SWAP1 POP PUSH1 0x40 MLOAD DUP1 PUSH2 0x100 ADD PUSH1 0x40 MSTORE DUP1 CALLER PUSH20 0xFFFFFFFFFFFFFFFFFFFFFFFFFFFFFFFFFFFFFFFF AND DUP2 MSTORE PUSH1 0x20 ADD DUP9 PUSH20 0xFFFFFFFFFFFFFFFFFFFFFFFFFFFFFFFFFFFFFFFF AND DUP2 MSTORE PUSH1 0x20 ADD DUP8 PUSH20 0xFFFFFFFFFFFFFFFFFFFFFFFFFFFFFFFFFFFFFFFF AND DUP2 MSTORE PUSH1 0x20 ADD DUP7 DUP2 MSTORE PUSH1 0x20 ADD DUP6 DUP2 MSTORE PUSH1 0x20 ADD PUSH1 0x69 PUSH1 0x2 ADD SLOAD DUP2 MSTORE PUSH1 0x20 ADD TIMESTAMP DUP2 MSTORE PUSH1 0x20 ADD PUSH1 0x1 ISZERO ISZERO DUP2 MSTORE POP PUSH1 0x64 PUSH0 DUP4 DUP2 MSTORE PUSH1 0x20 ADD SWAP1 DUP2 MSTORE PUSH1 0x20 ADD PUSH0 KECCAK256 PUSH0 DUP3 ADD MLOAD DUP2 PUSH0 ADD PUSH0 PUSH2 0x100 EXP DUP2 SLOAD DUP2 PUSH20 0xFFFFFFFFFFFFFFFFFFFFFFFFFFFFFFFFFFFFFFFF MUL NOT AND SWAP1 DUP4 PUSH20 0xFFFFFFFFFFFFFFFFFFFFFFFFFFFFFFFFFFFFFFFF AND MUL OR SWAP1 SSTORE POP PUSH1 0x20 DUP3 ADD MLOAD DUP2 PUSH1 0x1 ADD PUSH0 PUSH2 0x100 EXP DUP2 SLOAD DUP2 PUSH20 0xFFFFFFFFFFFFFFFFFFFFFFFFFFFFFFFFFFFFFFFF MUL NOT AND SWAP1 DUP4 PUSH20 0xFFFFFFFFFFFFFFFFFFFFFFFFFFFFFFFFFFFFFFFF AND MUL OR SWAP1 SSTORE POP PUSH1 0x40 DUP3 ADD MLOAD DUP2 PUSH1 0x2 ADD PUSH0 PUSH2 0x100 EXP DUP2 SLOAD DUP2 PUSH20 0xFFFFFFFFFFFFFFFFFFFFFFFFFFFFFFFFFFFFFFFF MUL NOT AND SWAP1 DUP4 PUSH20 0xFFFFFFFFFFFFFFFFFFFFFFFFFFFFFFFFFFFFFFFF AND MUL OR SWAP1 SSTORE POP PUSH1 0x60 DUP3 ADD MLOAD DUP2 PUSH1 0x3 ADD SSTORE PUSH1 0x80 DUP3 ADD MLOAD DUP2 PUSH1 0x4 ADD SSTORE PUSH1 0xA0 DUP3 ADD MLOAD DUP2 PUSH1 0x5 ADD SSTORE PUSH1 0xC0 DUP3 ADD MLOAD DUP2 PUSH1 0x6 ADD SSTORE PUSH1 0xE0 DUP3 ADD MLOAD DUP2 PUSH1 0x7 ADD PUSH0 PUSH2 0x100 EXP DUP2 SLOAD DUP2 PUSH1 0xFF MUL NOT AND SWAP1 DUP4 ISZERO ISZERO MUL OR SWAP1 SSTORE POP SWAP1 POP POP PUSH1 0x67 PUSH0 SWAP1 SLOAD SWAP1 PUSH2 0x100 EXP SWAP1 DIV PUSH20 0xFFFFFFFFFFFFFFFFFFFFFFFFFFFFFFFFFFFFFFFF AND PUSH20 0xFFFFFFFFFFFFFFFFFFFFFFFFFFFFFFFFFFFFFFFF AND PUSH4 0xA9059CBB CALLER DUP7 PUSH1 0x40 MLOAD DUP4 PUSH4 0xFFFFFFFF AND PUSH1 0xE0 SHL DUP2 MSTORE PUSH1 0x4 ADD PUSH2 0x1711 SWAP3 SWAP2 SWAP1 PUSH2 0x281D JUMP JUMPDEST PUSH1 0x20 PUSH1 0x40 MLOAD DUP1 DUP4 SUB DUP2 PUSH0 DUP8 GAS CALL ISZERO DUP1 ISZERO PUSH2 0x172D JUMPI RETURNDATASIZE PUSH0 DUP1 RETURNDATACOPY RETURNDATASIZE PUSH0 REVERT JUMPDEST POP POP POP POP PUSH1 0x40 MLOAD RETURNDATASIZE PUSH1 0x1F NOT PUSH1 0x1F DUP3 ADD AND DUP3 ADD DUP1 PUSH1 0x40 MSTORE POP DUP2 ADD SWAP1 PUSH2 0x1751 SWAP2 SWAP1 PUSH2 0x27F2 JUMP JUMPDEST POP CALLER PUSH20 0xFFFFFFFFFFFFFFFFFFFFFFFFFFFFFFFFFFFFFFFF AND DUP2 PUSH32 0xD62D0078DAAAD723B2AB43C15BE6E72D2E7BF915E6314EB46555234B40F5FDF2 DUP10 DUP9 DUP9 PUSH1 0x40 MLOAD PUSH2 0x179D SWAP4 SWAP3 SWAP2 SWAP1 PUSH2 0x2B13 JUMP JUMPDEST PUSH1 0x40 MLOAD DUP1 SWAP2 SUB SWAP1 LOG3 POP POP POP PUSH2 0x17B0 PUSH2 0x1D2F JUMP JUMPDEST POP POP POP POP JUMP JUMPDEST PUSH1 0x6E SLOAD DUP2 JUMP JUMPDEST PUSH0 PUSH32 0x1FFC9A700000000000000000000000000000000000000000000000000000000 PUSH28 0xFFFFFFFFFFFFFFFFFFFFFFFFFFFFFFFFFFFFFFFFFFFFFFFFFFFFFFFF NOT AND DUP3 PUSH28 0xFFFFFFFFFFFFFFFFFFFFFFFFFFFFFFFFFFFFFFFFFFFFFFFFFFFFFFFF NOT AND EQ SWAP1 POP SWAP2 SWAP1 POP JUMP JUMPDEST PUSH0 PUSH32 0x2DD7BC7DEC4DCEEDDA775E58DD541E08A116C6C53815C0BD028192F7B626800 SWAP1 POP SWAP1 JUMP JUMPDEST PUSH2 0x185D DUP2 PUSH2 0x1858 PUSH2 0x1958 JUMP JUMPDEST PUSH2 0x1F5F JUMP JUMPDEST POP JUMP JUMPDEST PUSH0 DUP1 PUSH2 0x186A PUSH2 0x1825 JUMP JUMPDEST SWAP1 POP PUSH2 0x1876 DUP5 DUP5 PUSH2 0xED1 JUMP JUMPDEST PUSH2 0x194D JUMPI PUSH1 0x1 DUP2 PUSH0 ADD PUSH0 DUP7 DUP2 MSTORE PUSH1 0x20 ADD SWAP1 DUP2 MSTORE PUSH1 0x20 ADD PUSH0 KECCAK256 PUSH0 ADD PUSH0 DUP6 PUSH20 0xFFFFFFFFFFFFFFFFFFFFFFFFFFFFFFFFFFFFFFFF AND PUSH20 0xFFFFFFFFFFFFFFFFFFFFFFFFFFFFFFFFFFFFFFFF AND DUP2 MSTORE PUSH1 0x20 ADD SWAP1 DUP2 MSTORE PUSH1 0x20 ADD PUSH0 KECCAK256 PUSH0 PUSH2 0x100 EXP DUP2 SLOAD DUP2 PUSH1 0xFF MUL NOT AND SWAP1 DUP4 ISZERO ISZERO MUL OR SWAP1 SSTORE POP PUSH2 0x18E9 PUSH2 0x1958 JUMP JUMPDEST PUSH20 0xFFFFFFFFFFFFFFFFFFFFFFFFFFFFFFFFFFFFFFFF AND DUP4 PUSH20 0xFFFFFFFFFFFFFFFFFFFFFFFFFFFFFFFFFFFFFFFF AND DUP6 PUSH32 0x2F8788117E7EFF1D82E926EC794901D17C78024A50270940304540A733656F0D PUSH1 0x40 MLOAD PUSH1 0x40 MLOAD DUP1 SWAP2 SUB SWAP1 LOG4 PUSH1 0x1 SWAP2 POP POP PUSH2 0x1952 JUMP JUMPDEST PUSH0 SWAP2 POP POP JUMPDEST SWAP3 SWAP2 POP POP JUMP JUMPDEST PUSH0 CALLER SWAP1 POP SWAP1 JUMP JUMPDEST PUSH0 DUP1 PUSH2 0x1969 PUSH2 0x1825 JUMP JUMPDEST SWAP1 POP PUSH2 0x1975 DUP5 DUP5 PUSH2 0xED1 JUMP JUMPDEST ISZERO PUSH2 0x1A4C JUMPI PUSH0 DUP2 PUSH0 ADD PUSH0 DUP7 DUP2 MSTORE PUSH1 0x20 ADD SWAP1 DUP2 MSTORE PUSH1 0x20 ADD PUSH0 KECCAK256 PUSH0 ADD PUSH0 DUP6 PUSH20 0xFFFFFFFFFFFFFFFFFFFFFFFFFFFFFFFFFFFFFFFF AND PUSH20 0xFFFFFFFFFFFFFFFFFFFFFFFFFFFFFFFFFFFFFFFF AND DUP2 MSTORE PUSH1 0x20 ADD SWAP1 DUP2 MSTORE PUSH1 0x20 ADD PUSH0 KECCAK256 PUSH0 PUSH2 0x100 EXP DUP2 SLOAD DUP2 PUSH1 0xFF MUL NOT AND SWAP1 DUP4 ISZERO ISZERO MUL OR SWAP1 SSTORE POP PUSH2 0x19E8 PUSH2 0x1958 JUMP JUMPDEST PUSH20 0xFFFFFFFFFFFFFFFFFFFFFFFFFFFFFFFFFFFFFFFF AND DUP4 PUSH20 0xFFFFFFFFFFFFFFFFFFFFFFFFFFFFFFFFFFFFFFFF AND DUP6 PUSH32 0xF6391F5C32D9C69D2A47EA670B442974B53935D1EDC7FD64EB21E047A839171B PUSH1 0x40 MLOAD PUSH1 0x40 MLOAD DUP1 SWAP2 SUB SWAP1 LOG4 PUSH1 0x1 SWAP2 POP POP PUSH2 0x1A51 JUMP JUMPDEST PUSH0 SWAP2 POP POP JUMPDEST SWAP3 SWAP2 POP POP JUMP JUMPDEST PUSH2 0x1A5F PUSH2 0x1FB0 JUMP JUMPDEST PUSH0 DUP1 PUSH0 PUSH2 0x100 EXP DUP2 SLOAD DUP2 PUSH1 0xFF MUL NOT AND SWAP1 DUP4 ISZERO ISZERO MUL OR SWAP1 SSTORE POP PUSH32 0x5DB9EE0A495BF2E6FF9C91A7834C1BA4FDD244A5E8AA4E537BD38AEAE4B073AA PUSH2 0x1AA0 PUSH2 0x1958 JUMP JUMPDEST PUSH1 0x40 MLOAD PUSH2 0x1AAD SWAP2 SWAP1 PUSH2 0x2B48 JUMP JUMPDEST PUSH1 0x40 MLOAD DUP1 SWAP2 SUB SWAP1 LOG1 JUMP JUMPDEST PUSH2 0x1ABF PUSH2 0xB58 JUMP JUMPDEST ISZERO PUSH2 0x1AFF JUMPI PUSH1 0x40 MLOAD PUSH32 0x8C379A000000000000000000000000000000000000000000000000000000000 DUP2 MSTORE PUSH1 0x4 ADD PUSH2 0x1AF6 SWAP1 PUSH2 0x2BAB JUMP JUMPDEST PUSH1 0x40 MLOAD DUP1 SWAP2 SUB SWAP1 REVERT JUMPDEST JUMP JUMPDEST PUSH1 0x2 PUSH1 0x32 SLOAD SUB PUSH2 0x1B46 JUMPI PUSH1 0x40 MLOAD PUSH32 0x8C379A000000000000000000000000000000000000000000000000000000000 DUP2 MSTORE PUSH1 0x4 ADD PUSH2 0x1B3D SWAP1 PUSH2 0x2C13 JUMP JUMPDEST PUSH1 0x40 MLOAD DUP1 SWAP2 SUB SWAP1 REVERT JUMPDEST PUSH1 0x2 PUSH1 0x32 DUP2 SWAP1 SSTORE POP JUMP JUMPDEST PUSH0 DUP1 PUSH2 0x1B69 DUP4 PUSH1 0x20 ADD MLOAD DUP5 PUSH1 0x40 ADD MLOAD DUP6 PUSH1 0x60 ADD MLOAD PUSH2 0x1E4C JUMP JUMPDEST SWAP1 POP PUSH0 DUP4 PUSH1 0x80 ADD MLOAD SWAP1 POP PUSH1 0x64 PUSH1 0x69 PUSH0 ADD SLOAD DUP3 PUSH2 0x1B85 SWAP2 SWAP1 PUSH2 0x2752 JUMP JUMPDEST PUSH2 0x1B8F SWAP2 SWAP1 PUSH2 0x2A0E JUMP JUMPDEST DUP3 LT SWAP3 POP POP POP SWAP2 SWAP1 POP JUMP JUMPDEST PUSH0 DUP1 PUSH2 0x1BB3 DUP4 PUSH1 0x20 ADD MLOAD DUP5 PUSH1 0x40 ADD MLOAD DUP6 PUSH1 0x60 ADD MLOAD PUSH2 0x1E4C JUMP JUMPDEST SWAP1 POP PUSH0 PUSH1 0x6E PUSH0 DUP2 SLOAD DUP1 SWAP3 SWAP2 SWAP1 PUSH2 0x1BC8 SWAP1 PUSH2 0x2ACC JUMP JUMPDEST SWAP2 SWAP1 POP SSTORE SWAP1 POP PUSH1 0x40 MLOAD DUP1 PUSH1 0xC0 ADD PUSH1 0x40 MSTORE DUP1 DUP6 PUSH1 0x20 ADD MLOAD PUSH20 0xFFFFFFFFFFFFFFFFFFFFFFFFFFFFFFFFFFFFFFFF AND DUP2 MSTORE PUSH1 0x20 ADD DUP6 PUSH1 0x60 ADD MLOAD DUP2 MSTORE PUSH1 0x20 ADD DUP4 DUP2 MSTORE PUSH1 0x20 ADD PUSH1 0x64 PUSH1 0x69 PUSH1 0x3 ADD SLOAD PUSH1 0x64 PUSH2 0x1C1D SWAP2 SWAP1 PUSH2 0x2C31 JUMP JUMPDEST DUP6 PUSH2 0x1C28 SWAP2 SWAP1 PUSH2 0x2752 JUMP JUMPDEST PUSH2 0x1C32 SWAP2 SWAP1 PUSH2 0x2A0E JUMP JUMPDEST DUP2 MSTORE PUSH1 0x20 ADD TIMESTAMP DUP2 MSTORE PUSH1 0x20 ADD PUSH1 0x1 ISZERO ISZERO DUP2 MSTORE POP PUSH1 0x65 PUSH0 DUP4 DUP2 MSTORE PUSH1 0x20 ADD SWAP1 DUP2 MSTORE PUSH1 0x20 ADD PUSH0 KECCAK256 PUSH0 DUP3 ADD MLOAD DUP2 PUSH0 ADD PUSH0 PUSH2 0x100 EXP DUP2 SLOAD DUP2 PUSH20 0xFFFFFFFFFFFFFFFFFFFFFFFFFFFFFFFFFFFFFFFF MUL NOT AND SWAP1 DUP4 PUSH20 0xFFFFFFFFFFFFFFFFFFFFFFFFFFFFFFFFFFFFFFFF AND MUL OR SWAP1 SSTORE POP PUSH1 0x20 DUP3 ADD MLOAD DUP2 PUSH1 0x1 ADD SSTORE PUSH1 0x40 DUP3 ADD MLOAD DUP2 PUSH1 0x2 ADD SSTORE PUSH1 0x60 DUP3 ADD MLOAD DUP2 PUSH1 0x3 ADD SSTORE PUSH1 0x80 DUP3 ADD MLOAD DUP2 PUSH1 0x4 ADD SSTORE PUSH1 0xA0 DUP3 ADD MLOAD DUP2 PUSH1 0x5 ADD PUSH0 PUSH2 0x100 EXP DUP2 SLOAD DUP2 PUSH1 0xFF MUL NOT AND SWAP1 DUP4 ISZERO ISZERO MUL OR SWAP1 SSTORE POP SWAP1 POP POP DUP1 PUSH32 0xD7D053B3D3FC9E8145896F8940ADEB377F6735866F2161EF1660DAE9F0492475 DUP6 PUSH1 0x20 ADD MLOAD DUP7 PUSH1 0x60 ADD MLOAD PUSH1 0x40 MLOAD PUSH2 0x1D1D SWAP3 SWAP2 SWAP1 PUSH2 0x281D JUMP JUMPDEST PUSH1 0x40 MLOAD DUP1 SWAP2 SUB SWAP1 LOG2 DUP1 SWAP3 POP POP POP SWAP2 SWAP1 POP JUMP JUMPDEST PUSH1 0x1 PUSH1 0x32 DUP2 SWAP1 SSTORE POP JUMP JUMPDEST PUSH0 DUP1 DUP3 PUSH1 0x80 ADD MLOAD TIMESTAMP PUSH2 0x1D4B SWAP2 SWAP1 PUSH2 0x2C31 JUMP JUMPDEST SWAP1 POP PUSH0 PUSH3 0x15180 DUP3 DUP6 PUSH1 0x60 ADD MLOAD DUP7 PUSH1 0x40 ADD MLOAD PUSH2 0x1D67 SWAP2 SWAP1 PUSH2 0x2C31 JUMP JUMPDEST PUSH2 0x1D71 SWAP2 SWAP1 PUSH2 0x2752 JUMP JUMPDEST PUSH2 0x1D7B SWAP2 SWAP1 PUSH2 0x2A0E JUMP JUMPDEST SWAP1 POP DUP1 DUP5 PUSH1 0x40 ADD MLOAD PUSH2 0x1D8D SWAP2 SWAP1 PUSH2 0x2C31 JUMP JUMPDEST SWAP3 POP POP POP SWAP2 SWAP1 POP JUMP JUMPDEST PUSH2 0x1D9E PUSH2 0x1AB7 JUMP JUMPDEST PUSH1 0x1 PUSH0 DUP1 PUSH2 0x100 EXP DUP2 SLOAD DUP2 PUSH1 0xFF MUL NOT AND SWAP1 DUP4 ISZERO ISZERO MUL OR SWAP1 SSTORE POP PUSH32 0x62E78CEA01BEE320CD4E420270B5EA74000D11B0C9F74754EBDBFC544B05A258 PUSH2 0x1DE0 PUSH2 0x1958 JUMP JUMPDEST PUSH1 0x40 MLOAD PUSH2 0x1DED SWAP2 SWAP1 PUSH2 0x2B48 JUMP JUMPDEST PUSH1 0x40 MLOAD DUP1 SWAP2 SUB SWAP1 LOG1 JUMP JUMPDEST PUSH0 PUSH32 0xF0C57E16840DF040F15088DC2F81FE391C3923BEC73E23A9662EFC9C229C6A00 SWAP1 POP SWAP1 JUMP JUMPDEST PUSH2 0x1E26 PUSH2 0x1FF9 JUMP JUMPDEST JUMP JUMPDEST PUSH2 0x1E30 PUSH2 0x1FF9 JUMP JUMPDEST PUSH2 0x1E38 PUSH2 0x2039 JUMP JUMPDEST JUMP JUMPDEST PUSH2 0x1E42 PUSH2 0x1FF9 JUMP JUMPDEST PUSH2 0x1E4A PUSH2 0x205B JUMP JUMPDEST JUMP JUMPDEST PUSH0 DUP1 DUP4 SWAP1 POP PUSH0 DUP2 PUSH20 0xFFFFFFFFFFFFFFFFFFFFFFFFFFFFFFFFFFFFFFFF AND PUSH4 0xFEAF968C PUSH1 0x40 MLOAD DUP2 PUSH4 0xFFFFFFFF AND PUSH1 0xE0 SHL DUP2 MSTORE PUSH1 0x4 ADD PUSH1 0xA0 PUSH1 0x40 MLOAD DUP1 DUP4 SUB DUP2 DUP7 GAS STATICCALL ISZERO DUP1 ISZERO PUSH2 0x1E9B JUMPI RETURNDATASIZE PUSH0 DUP1 RETURNDATACOPY RETURNDATASIZE PUSH0 REVERT JUMPDEST POP POP POP POP PUSH1 0x40 MLOAD RETURNDATASIZE PUSH1 0x1F NOT PUSH1 0x1F DUP3 ADD AND DUP3 ADD DUP1 PUSH1 0x40 MSTORE POP DUP2 ADD SWAP1 PUSH2 0x1EBF SWAP2 SWAP1 PUSH2 0x2CEA JUMP JUMPDEST POP POP POP SWAP2 POP POP DUP2 PUSH20 0xFFFFFFFFFFFFFFFFFFFFFFFFFFFFFFFFFFFFFFFF AND PUSH4 0x313CE567 PUSH1 0x40 MLOAD DUP2 PUSH4 0xFFFFFFFF AND PUSH1 0xE0 SHL DUP2 MSTORE PUSH1 0x4 ADD PUSH1 0x20 PUSH1 0x40 MLOAD DUP1 DUP4 SUB DUP2 DUP7 GAS STATICCALL ISZERO DUP1 ISZERO PUSH2 0x1F0E JUMPI RETURNDATASIZE PUSH0 DUP1 RETURNDATACOPY RETURNDATASIZE PUSH0 REVERT JUMPDEST POP POP POP POP PUSH1 0x40 MLOAD RETURNDATASIZE PUSH1 0x1F NOT PUSH1 0x1F DUP3 ADD AND DUP3 ADD DUP1 PUSH1 0x40 MSTORE POP DUP2 ADD SWAP1 PUSH2 0x1F32 SWAP2 SWAP1 PUSH2 0x2D97 JUMP JUMPDEST PUSH1 0xA PUSH2 0x1F3E SWAP2 SWAP1 PUSH2 0x2EF1 JUMP JUMPDEST DUP5 DUP3 PUSH2 0x1F4A SWAP2 SWAP1 PUSH2 0x2752 JUMP JUMPDEST PUSH2 0x1F54 SWAP2 SWAP1 PUSH2 0x2A0E JUMP JUMPDEST SWAP3 POP POP POP SWAP4 SWAP3 POP POP POP JUMP JUMPDEST PUSH2 0x1F69 DUP3 DUP3 PUSH2 0xED1 JUMP JUMPDEST PUSH2 0x1FAC JUMPI DUP1 DUP3 PUSH1 0x40 MLOAD PUSH32 0xE2517D3F00000000000000000000000000000000000000000000000000000000 DUP2 MSTORE PUSH1 0x4 ADD PUSH2 0x1FA3 SWAP3 SWAP2 SWAP1 PUSH2 0x2F3B JUMP JUMPDEST PUSH1 0x40 MLOAD DUP1 SWAP2 SUB SWAP1 REVERT JUMPDEST POP POP JUMP JUMPDEST PUSH2 0x1FB8 PUSH2 0xB58 JUMP JUMPDEST PUSH2 0x1FF7 JUMPI PUSH1 0x40 MLOAD PUSH32 0x8C379A000000000000000000000000000000000000000000000000000000000 DUP2 MSTORE PUSH1 0x4 ADD PUSH2 0x1FEE SWAP1 PUSH2 0x2FAC JUMP JUMPDEST PUSH1 0x40 MLOAD DUP1 SWAP2 SUB SWAP1 REVERT JUMPDEST JUMP JUMPDEST PUSH2 0x2001 PUSH2 0x206D JUMP JUMPDEST PUSH2 0x2037 JUMPI PUSH1 0x40 MLOAD PUSH32 0xD7E6BCF800000000000000000000000000000000000000000000000000000000 DUP2 MSTORE PUSH1 0x4 ADD PUSH1 0x40 MLOAD DUP1 SWAP2 SUB SWAP1 REVERT JUMPDEST JUMP JUMPDEST PUSH2 0x2041 PUSH2 0x1FF9 JUMP JUMPDEST PUSH0 DUP1 PUSH0 PUSH2 0x100 EXP DUP2 SLOAD DUP2 PUSH1 0xFF MUL NOT AND SWAP1 DUP4 ISZERO ISZERO MUL OR SWAP1 SSTORE POP JUMP JUMPDEST PUSH2 0x2063 PUSH2 0x1FF9 JUMP JUMPDEST PUSH1 0x1 PUSH1 0x32 DUP2 SWAP1 SSTORE POP JUMP JUMPDEST PUSH0 PUSH2 0x2076 PUSH2 0x1DF7 JUMP JUMPDEST PUSH0 ADD PUSH1 0x8 SWAP1 SLOAD SWAP1 PUSH2 0x100 EXP SWAP1 DIV PUSH1 0xFF AND SWAP1 POP SWAP1 JUMP JUMPDEST PUSH0 DUP1 REVERT JUMPDEST PUSH0 PUSH32 0xFFFFFFFF00000000000000000000000000000000000000000000000000000000 DUP3 AND SWAP1 POP SWAP2 SWAP1 POP JUMP JUMPDEST PUSH2 0x20C3 DUP2 PUSH2 0x208F JUMP JUMPDEST DUP2 EQ PUSH2 0x20CD JUMPI PUSH0 DUP1 REVERT JUMPDEST POP JUMP JUMPDEST PUSH0 DUP2 CALLDATALOAD SWAP1 POP PUSH2 0x20DE DUP2 PUSH2 0x20BA JUMP JUMPDEST SWAP3 SWAP2 POP POP JUMP JUMPDEST PUSH0 PUSH1 0x20 DUP3 DUP5 SUB SLT ISZERO PUSH2 0x20F9 JUMPI PUSH2 0x20F8 PUSH2 0x208B JUMP JUMPDEST JUMPDEST PUSH0 PUSH2 0x2106 DUP5 DUP3 DUP6 ADD PUSH2 0x20D0 JUMP JUMPDEST SWAP2 POP POP SWAP3 SWAP2 POP POP JUMP JUMPDEST PUSH0 DUP2 ISZERO ISZERO SWAP1 POP SWAP2 SWAP1 POP JUMP JUMPDEST PUSH2 0x2123 DUP2 PUSH2 0x210F JUMP JUMPDEST DUP3 MSTORE POP POP JUMP JUMPDEST PUSH0 PUSH1 0x20 DUP3 ADD SWAP1 POP PUSH2 0x213C PUSH0 DUP4 ADD DUP5 PUSH2 0x211A JUMP JUMPDEST SWAP3 SWAP2 POP POP JUMP JUMPDEST PUSH0 PUSH20 0xFFFFFFFFFFFFFFFFFFFFFFFFFFFFFFFFFFFFFFFF DUP3 AND SWAP1 POP SWAP2 SWAP1 POP JUMP JUMPDEST PUSH0 DUP2 SWAP1 POP SWAP2 SWAP1 POP JUMP JUMPDEST PUSH0 PUSH2 0x2184 PUSH2 0x217F PUSH2 0x217A DUP5 PUSH2 0x2142 JUMP JUMPDEST PUSH2 0x2161 JUMP JUMPDEST PUSH2 0x2142 JUMP JUMPDEST SWAP1 POP SWAP2 SWAP1 POP JUMP JUMPDEST PUSH0 PUSH2 0x2195 DUP3 PUSH2 0x216A JUMP JUMPDEST SWAP1 POP SWAP2 SWAP1 POP JUMP JUMPDEST PUSH0 PUSH2 0x21A6 DUP3 PUSH2 0x218B JUMP JUMPDEST SWAP1 POP SWAP2 SWAP1 POP JUMP JUMPDEST PUSH2 0x21B6 DUP2 PUSH2 0x219C JUMP JUMPDEST DUP3 MSTORE POP POP JUMP JUMPDEST PUSH0 PUSH1 0x20 DUP3 ADD SWAP1 POP PUSH2 0x21CF PUSH0 DUP4 ADD DUP5 PUSH2 0x21AD JUMP JUMPDEST SWAP3 SWAP2 POP POP JUMP JUMPDEST PUSH0 DUP2 SWAP1 POP SWAP2 SWAP1 POP JUMP JUMPDEST PUSH2 0x21E7 DUP2 PUSH2 0x21D5 JUMP JUMPDEST DUP2 EQ PUSH2 0x21F1 JUMPI PUSH0 DUP1 REVERT JUMPDEST POP JUMP JUMPDEST PUSH0 DUP2 CALLDATALOAD SWAP1 POP PUSH2 0x2202 DUP2 PUSH2 0x21DE JUMP JUMPDEST SWAP3 SWAP2 POP POP JUMP JUMPDEST PUSH0 PUSH1 0x20 DUP3 DUP5 SUB SLT ISZERO PUSH2 0x221D JUMPI PUSH2 0x221C PUSH2 0x208B JUMP JUMPDEST JUMPDEST PUSH0 PUSH2 0x222A DUP5 DUP3 DUP6 ADD PUSH2 0x21F4 JUMP JUMPDEST SWAP2 POP POP SWAP3 SWAP2 POP POP JUMP JUMPDEST PUSH2 0x223C DUP2 PUSH2 0x21D5 JUMP JUMPDEST DUP3 MSTORE POP POP JUMP JUMPDEST PUSH0 PUSH1 0x20 DUP3 ADD SWAP1 POP PUSH2 0x2255 PUSH0 DUP4 ADD DUP5 PUSH2 0x2233 JUMP JUMPDEST SWAP3 SWAP2 POP POP JUMP JUMPDEST PUSH0 PUSH2 0x2265 DUP3 PUSH2 0x2142 JUMP JUMPDEST SWAP1 POP SWAP2 SWAP1 POP JUMP JUMPDEST PUSH2 0x2275 DUP2 PUSH2 0x225B JUMP JUMPDEST DUP2 EQ PUSH2 0x227F JUMPI PUSH0 DUP1 REVERT JUMPDEST POP JUMP JUMPDEST PUSH0 DUP2 CALLDATALOAD SWAP1 POP PUSH2 0x2290 DUP2 PUSH2 0x226C JUMP JUMPDEST SWAP3 SWAP2 POP POP JUMP JUMPDEST PUSH0 DUP1 PUSH1 0x40 DUP4 DUP6 SUB SLT ISZERO PUSH2 0x22AC JUMPI PUSH2 0x22AB PUSH2 0x208B JUMP JUMPDEST JUMPDEST PUSH0 PUSH2 0x22B9 DUP6 DUP3 DUP7 ADD PUSH2 0x2282 JUMP JUMPDEST SWAP3 POP POP PUSH1 0x20 PUSH2 0x22CA DUP6 DUP3 DUP7 ADD PUSH2 0x2282 JUMP JUMPDEST SWAP2 POP POP SWAP3 POP SWAP3 SWAP1 POP JUMP JUMPDEST PUSH0 DUP2 SWAP1 POP SWAP2 SWAP1 POP JUMP JUMPDEST PUSH2 0x22E6 DUP2 PUSH2 0x22D4 JUMP JUMPDEST DUP3 MSTORE POP POP JUMP JUMPDEST PUSH0 PUSH1 0x20 DUP3 ADD SWAP1 POP PUSH2 0x22FF PUSH0 DUP4 ADD DUP5 PUSH2 0x22DD JUMP JUMPDEST SWAP3 SWAP2 POP POP JUMP JUMPDEST PUSH0 DUP1 PUSH1 0x40 DUP4 DUP6 SUB SLT ISZERO PUSH2 0x231B JUMPI PUSH2 0x231A PUSH2 0x208B JUMP JUMPDEST JUMPDEST PUSH0 PUSH2 0x2328 DUP6 DUP3 DUP7 ADD PUSH2 0x21F4 JUMP JUMPDEST SWAP3 POP POP PUSH1 0x20 PUSH2 0x2339 DUP6 DUP3 DUP7 ADD PUSH2 0x2282 JUMP JUMPDEST SWAP2 POP POP SWAP3 POP SWAP3 SWAP1 POP JUMP JUMPDEST PUSH2 0x234C DUP2 PUSH2 0x22D4 JUMP JUMPDEST DUP2 EQ PUSH2 0x2356 JUMPI PUSH0 DUP1 REVERT JUMPDEST POP JUMP JUMPDEST PUSH0 DUP2 CALLDATALOAD SWAP1 POP PUSH2 0x2367 DUP2 PUSH2 0x2343 JUMP JUMPDEST SWAP3 SWAP2 POP POP JUMP JUMPDEST PUSH0 PUSH1 0x20 DUP3 DUP5 SUB SLT ISZERO PUSH2 0x2382 JUMPI PUSH2 0x2381 PUSH2 0x208B JUMP JUMPDEST JUMPDEST PUSH0 PUSH2 0x238F DUP5 DUP3 DUP6 ADD PUSH2 0x2359 JUMP JUMPDEST SWAP2 POP POP SWAP3 SWAP2 POP POP JUMP JUMPDEST PUSH0 DUP1 PUSH0 DUP1 PUSH1 0x80 DUP6 DUP8 SUB SLT ISZERO PUSH2 0x23B0 JUMPI PUSH2 0x23AF PUSH2 0x208B JUMP JUMPDEST JUMPDEST PUSH0 PUSH2 0x23BD DUP8 DUP3 DUP9 ADD PUSH2 0x2359 JUMP JUMPDEST SWAP5 POP POP PUSH1 0x20 PUSH2 0x23CE DUP8 DUP3 DUP9 ADD PUSH2 0x2359 JUMP JUMPDEST SWAP4 POP POP PUSH1 0x40 PUSH2 0x23DF DUP8 DUP3 DUP9 ADD PUSH2 0x2359 JUMP JUMPDEST SWAP3 POP POP PUSH1 0x60 PUSH2 0x23F0 DUP8 DUP3 DUP9 ADD PUSH2 0x2359 JUMP JUMPDEST SWAP2 POP POP SWAP3 SWAP6 SWAP2 SWAP5 POP SWAP3 POP JUMP JUMPDEST PUSH2 0x2405 DUP2 PUSH2 0x225B JUMP JUMPDEST DUP3 MSTORE POP POP JUMP JUMPDEST PUSH0 PUSH1 0xC0 DUP3 ADD SWAP1 POP PUSH2 0x241E PUSH0 DUP4 ADD DUP10 PUSH2 0x23FC JUMP JUMPDEST PUSH2 0x242B PUSH1 0x20 DUP4 ADD DUP9 PUSH2 0x22DD JUMP JUMPDEST PUSH2 0x2438 PUSH1 0x40 DUP4 ADD DUP8 PUSH2 0x22DD JUMP JUMPDEST PUSH2 0x2445 PUSH1 0x60 DUP4 ADD DUP7 PUSH2 0x22DD JUMP JUMPDEST PUSH2 0x2452 PUSH1 0x80 DUP4 ADD DUP6 PUSH2 0x22DD JUMP JUMPDEST PUSH2 0x245F PUSH1 0xA0 DUP4 ADD DUP5 PUSH2 0x211A JUMP JUMPDEST SWAP8 SWAP7 POP POP POP POP POP POP POP JUMP JUMPDEST PUSH0 PUSH1 0x80 DUP3 ADD SWAP1 POP PUSH2 0x247D PUSH0 DUP4 ADD DUP8 PUSH2 0x22DD JUMP JUMPDEST PUSH2 0x248A PUSH1 0x20 DUP4 ADD DUP7 PUSH2 0x22DD JUMP JUMPDEST PUSH2 0x2497 PUSH1 0x40 DUP4 ADD DUP6 PUSH2 0x22DD JUMP JUMPDEST PUSH2 0x24A4 PUSH1 0x60 DUP4 ADD DUP5 PUSH2 0x22DD JUMP JUMPDEST SWAP6 SWAP5 POP POP POP POP POP JUMP JUMPDEST PUSH0 DUP1 PUSH0 PUSH1 0x60 DUP5 DUP7 SUB SLT ISZERO PUSH2 0x24C4 JUMPI PUSH2 0x24C3 PUSH2 0x208B JUMP JUMPDEST JUMPDEST PUSH0 PUSH2 0x24D1 DUP7 DUP3 DUP8 ADD PUSH2 0x2282 JUMP JUMPDEST SWAP4 POP POP PUSH1 0x20 PUSH2 0x24E2 DUP7 DUP3 DUP8 ADD PUSH2 0x2282 JUMP JUMPDEST SWAP3 POP POP PUSH1 0x40 PUSH2 0x24F3 DUP7 DUP3 DUP8 ADD PUSH2 0x2282 JUMP JUMPDEST SWAP2 POP POP SWAP3 POP SWAP3 POP SWAP3 JUMP JUMPDEST PUSH0 PUSH2 0x100 DUP3 ADD SWAP1 POP PUSH2 0x2511 PUSH0 DUP4 ADD DUP12 PUSH2 0x23FC JUMP JUMPDEST PUSH2 0x251E PUSH1 0x20 DUP4 ADD DUP11 PUSH2 0x23FC JUMP JUMPDEST PUSH2 0x252B PUSH1 0x40 DUP4 ADD DUP10 PUSH2 0x23FC JUMP JUMPDEST PUSH2 0x2538 PUSH1 0x60 DUP4 ADD DUP9 PUSH2 0x22DD JUMP JUMPDEST PUSH2 0x2545 PUSH1 0x80 DUP4 ADD DUP8 PUSH2 0x22DD JUMP JUMPDEST PUSH2 0x2552 PUSH1 0xA0 DUP4 ADD DUP7 PUSH2 0x22DD JUMP JUMPDEST PUSH2 0x255F PUSH1 0xC0 DUP4 ADD DUP6 PUSH2 0x22DD JUMP JUMPDEST PUSH2 0x256C PUSH1 0xE0 DUP4 ADD DUP5 PUSH2 0x211A JUMP JUMPDEST SWAP10 SWAP9 POP POP POP POP POP POP POP POP POP JUMP JUMPDEST PUSH0 DUP1 PUSH0 DUP1 PUSH1 0x80 DUP6 DUP8 SUB SLT ISZERO PUSH2 0x2591 JUMPI PUSH2 0x2590 PUSH2 0x208B JUMP JUMPDEST JUMPDEST PUSH0 PUSH2 0x259E DUP8 DUP3 DUP9 ADD PUSH2 0x2282 JUMP JUMPDEST SWAP5 POP POP PUSH1 0x20 PUSH2 0x25AF DUP8 DUP3 DUP9 ADD PUSH2 0x2282 JUMP JUMPDEST SWAP4 POP POP PUSH1 0x40 PUSH2 0x25C0 DUP8 DUP3 DUP9 ADD PUSH2 0x2359 JUMP JUMPDEST SWAP3 POP POP PUSH1 0x60 PUSH2 0x25D1 DUP8 DUP3 DUP9 ADD PUSH2 0x2359 JUMP JUMPDEST SWAP2 POP POP SWAP3 SWAP6 SWAP2 SWAP5 POP SWAP3 POP JUMP JUMPDEST PUSH0 DUP3 DUP3 MSTORE PUSH1 0x20 DUP3 ADD SWAP1 POP SWAP3 SWAP2 POP POP JUMP JUMPDEST PUSH32 0x4C6F616E206E6F74206163746976650000000000000000000000000000000000 PUSH0 DUP3 ADD MSTORE POP JUMP JUMPDEST PUSH0 PUSH2 0x2621 PUSH1 0xF DUP4 PUSH2 0x25DD JUMP JUMPDEST SWAP2 POP PUSH2 0x262C DUP3 PUSH2 0x25ED JUMP JUMPDEST PUSH1 0x20 DUP3 ADD SWAP1 POP SWAP2 SWAP1 POP JUMP JUMPDEST PUSH0 PUSH1 0x20 DUP3 ADD SWAP1 POP DUP2 DUP2 SUB PUSH0 DUP4 ADD MSTORE PUSH2 0x264E DUP2 PUSH2 0x2615 JUMP JUMPDEST SWAP1 POP SWAP2 SWAP1 POP JUMP JUMPDEST PUSH32 0x4C6F616E206E6F74206C6971756964617461626C650000000000000000000000 PUSH0 DUP3 ADD MSTORE POP JUMP JUMPDEST PUSH0 PUSH2 0x2689 PUSH1 0x15 DUP4 PUSH2 0x25DD JUMP JUMPDEST SWAP2 POP PUSH2 0x2694 DUP3 PUSH2 0x2655 JUMP JUMPDEST PUSH1 0x20 DUP3 ADD SWAP1 POP SWAP2 SWAP1 POP JUMP JUMPDEST PUSH0 PUSH1 0x20 DUP3 ADD SWAP1 POP DUP2 DUP2 SUB PUSH0 DUP4 ADD MSTORE PUSH2 0x26B6 DUP2 PUSH2 0x267D JUMP JUMPDEST SWAP1 POP SWAP2 SWAP1 POP JUMP JUMPDEST PUSH32 0x41756374696F6E206E6F74206163746976650000000000000000000000000000 PUSH0 DUP3 ADD MSTORE POP JUMP JUMPDEST PUSH0 PUSH2 0x26F1 PUSH1 0x12 DUP4 PUSH2 0x25DD JUMP JUMPDEST SWAP2 POP PUSH2 0x26FC DUP3 PUSH2 0x26BD JUMP JUMPDEST PUSH1 0x20 DUP3 ADD SWAP1 POP SWAP2 SWAP1 POP JUMP JUMPDEST PUSH0 PUSH1 0x20 DUP3 ADD SWAP1 POP DUP2 DUP2 SUB PUSH0 DUP4 ADD MSTORE PUSH2 0x271E DUP2 PUSH2 0x26E5 JUMP JUMPDEST SWAP1 POP SWAP2 SWAP1 POP JUMP JUMPDEST PUSH32 0x4E487B7100000000000000000000000000000000000000000000000000000000 PUSH0 MSTORE PUSH1 0x11 PUSH1 0x4 MSTORE PUSH1 0x24 PUSH0 REVERT JUMPDEST PUSH0 PUSH2 0x275C DUP3 PUSH2 0x22D4 JUMP JUMPDEST SWAP2 POP PUSH2 0x2767 DUP4 PUSH2 0x22D4 JUMP JUMPDEST SWAP3 POP DUP3 DUP3 MUL PUSH2 0x2775 DUP2 PUSH2 0x22D4 JUMP JUMPDEST SWAP2 POP DUP3 DUP3 DIV DUP5 EQ DUP4 ISZERO OR PUSH2 0x278C JUMPI PUSH2 0x278B PUSH2 0x2725 JUMP JUMPDEST JUMPDEST POP SWAP3 SWAP2 POP POP JUMP JUMPDEST PUSH0 PUSH1 0x60 DUP3 ADD SWAP1 POP PUSH2 0x27A6 PUSH0 DUP4 ADD DUP7 PUSH2 0x23FC JUMP JUMPDEST PUSH2 0x27B3 PUSH1 0x20 DUP4 ADD DUP6 PUSH2 0x23FC JUMP JUMPDEST PUSH2 0x27C0 PUSH1 0x40 DUP4 ADD DUP5 PUSH2 0x22DD JUMP JUMPDEST SWAP5 SWAP4 POP POP POP POP JUMP JUMPDEST PUSH2 0x27D1 DUP2 PUSH2 0x210F JUMP JUMPDEST DUP2 EQ PUSH2 0x27DB JUMPI PUSH0 DUP1 REVERT JUMPDEST POP JUMP JUMPDEST PUSH0 DUP2 MLOAD SWAP1 POP PUSH2 0x27EC DUP2 PUSH2 0x27C8 JUMP JUMPDEST SWAP3 SWAP2 POP POP JUMP JUMPDEST PUSH0 PUSH1 0x20 DUP3 DUP5 SUB SLT ISZERO PUSH2 0x2807 JUMPI PUSH2 0x2806 PUSH2 0x208B JUMP JUMPDEST JUMPDEST PUSH0 PUSH2 0x2814 DUP5 DUP3 DUP6 ADD PUSH2 0x27DE JUMP JUMPDEST SWAP2 POP POP SWAP3 SWAP2 POP POP JUMP JUMPDEST PUSH0 PUSH1 0x40 DUP3 ADD SWAP1 POP PUSH2 0x2830 PUSH0 DUP4 ADD DUP6 PUSH2 0x23FC JUMP JUMPDEST PUSH2 0x283D PUSH1 0x20 DUP4 ADD DUP5 PUSH2 0x22DD JUMP JUMPDEST SWAP4 SWAP3 POP POP POP JUMP JUMPDEST PUSH0 DUP2 SWAP1 POP SWAP2 SWAP1 POP JUMP JUMPDEST PUSH0 PUSH8 0xFFFFFFFFFFFFFFFF DUP3 AND SWAP1 POP SWAP2 SWAP1 POP JUMP JUMPDEST PUSH0 PUSH2 0x287A PUSH2 0x2875 PUSH2 0x2870 DUP5 PUSH2 0x2844 JUMP JUMPDEST PUSH2 0x2161 JUMP JUMPDEST PUSH2 0x284D JUMP JUMPDEST SWAP1 POP SWAP2 SWAP1 POP JUMP JUMPDEST PUSH2 0x288A DUP2 PUSH2 0x2860 JUMP JUMPDEST DUP3 MSTORE POP POP JUMP JUMPDEST PUSH0 PUSH1 0x20 DUP3 ADD SWAP1 POP PUSH2 0x28A3 PUSH0 DUP4 ADD DUP5 PUSH2 0x2881 JUMP JUMPDEST SWAP3 SWAP2 POP POP JUMP JUMPDEST PUSH32 0x496E76616C696420636F6C6C61746572616C20616D6F756E7400000000000000 PUSH0 DUP3 ADD MSTORE POP JUMP JUMPDEST PUSH0 PUSH2 0x28DD PUSH1 0x19 DUP4 PUSH2 0x25DD JUMP JUMPDEST SWAP2 POP PUSH2 0x28E8 DUP3 PUSH2 0x28A9 JUMP JUMPDEST PUSH1 0x20 DUP3 ADD SWAP1 POP SWAP2 SWAP1 POP JUMP JUMPDEST PUSH0 PUSH1 0x20 DUP3 ADD SWAP1 POP DUP2 DUP2 SUB PUSH0 DUP4 ADD MSTORE PUSH2 0x290A DUP2 PUSH2 0x28D1 JUMP JUMPDEST SWAP1 POP SWAP2 SWAP1 POP JUMP JUMPDEST PUSH32 0x496E76616C696420626F72726F7720616D6F756E740000000000000000000000 PUSH0 DUP3 ADD MSTORE POP JUMP JUMPDEST PUSH0 PUSH2 0x2945 PUSH1 0x15 DUP4 PUSH2 0x25DD JUMP JUMPDEST SWAP2 POP PUSH2 0x2950 DUP3 PUSH2 0x2911 JUMP JUMPDEST PUSH1 0x20 DUP3 ADD SWAP1 POP SWAP2 SWAP1 POP JUMP JUMPDEST PUSH0 PUSH1 0x20 DUP3 ADD SWAP1 POP DUP2 DUP2 SUB PUSH0 DUP4 ADD MSTORE PUSH2 0x2972 DUP2 PUSH2 0x2939 JUMP JUMPDEST SWAP1 POP SWAP2 SWAP1 POP JUMP JUMPDEST PUSH32 0x496E76616C696420707269636520666565640000000000000000000000000000 PUSH0 DUP3 ADD MSTORE POP JUMP JUMPDEST PUSH0 PUSH2 0x29AD PUSH1 0x12 DUP4 PUSH2 0x25DD JUMP JUMPDEST SWAP2 POP PUSH2 0x29B8 DUP3 PUSH2 0x2979 JUMP JUMPDEST PUSH1 0x20 DUP3 ADD SWAP1 POP SWAP2 SWAP1 POP JUMP JUMPDEST PUSH0 PUSH1 0x20 DUP3 ADD SWAP1 POP DUP2 DUP2 SUB PUSH0 DUP4 ADD MSTORE PUSH2 0x29DA DUP2 PUSH2 0x29A1 JUMP JUMPDEST SWAP1 POP SWAP2 SWAP1 POP JUMP JUMPDEST PUSH32 0x4E487B7100000000000000000000000000000000000000000000000000000000 PUSH0 MSTORE PUSH1 0x12 PUSH1 0x4 MSTORE PUSH1 0x24 PUSH0 REVERT JUMPDEST PUSH0 PUSH2 0x2A18 DUP3 PUSH2 0x22D4 JUMP JUMPDEST SWAP2 POP PUSH2 0x2A23 DUP4 PUSH2 0x22D4 JUMP JUMPDEST SWAP3 POP DUP3 PUSH2 0x2A33 JUMPI PUSH2 0x2A32 PUSH2 0x29E1 JUMP JUMPDEST JUMPDEST DUP3 DUP3 DIV SWAP1 POP SWAP3 SWAP2 POP POP JUMP JUMPDEST PUSH32 0x426F72726F7720616D6F756E74206578636565647320636F6C6C61746572616C PUSH0 DUP3 ADD MSTORE PUSH32 0x2076616C75650000000000000000000000000000000000000000000000000000 PUSH1 0x20 DUP3 ADD MSTORE POP JUMP JUMPDEST PUSH0 PUSH2 0x2A98 PUSH1 0x26 DUP4 PUSH2 0x25DD JUMP JUMPDEST SWAP2 POP PUSH2 0x2AA3 DUP3 PUSH2 0x2A3E JUMP JUMPDEST PUSH1 0x40 DUP3 ADD SWAP1 POP SWAP2 SWAP1 POP JUMP JUMPDEST PUSH0 PUSH1 0x20 DUP3 ADD SWAP1 POP DUP2 DUP2 SUB PUSH0 DUP4 ADD MSTORE PUSH2 0x2AC5 DUP2 PUSH2 0x2A8C JUMP JUMPDEST SWAP1 POP SWAP2 SWAP1 POP JUMP JUMPDEST PUSH0 PUSH2 0x2AD6 DUP3 PUSH2 0x22D4 JUMP JUMPDEST SWAP2 POP PUSH32 0xFFFFFFFFFFFFFFFFFFFFFFFFFFFFFFFFFFFFFFFFFFFFFFFFFFFFFFFFFFFFFFFF DUP3 SUB PUSH2 0x2B08 JUMPI PUSH2 0x2B07 PUSH2 0x2725 JUMP JUMPDEST JUMPDEST PUSH1 0x1 DUP3 ADD SWAP1 POP SWAP2 SWAP1 POP JUMP JUMPDEST PUSH0 PUSH1 0x60 DUP3 ADD SWAP1 POP PUSH2 0x2B26 PUSH0 DUP4 ADD DUP7 PUSH2 0x23FC JUMP JUMPDEST PUSH2 0x2B33 PUSH1 0x20 DUP4 ADD DUP6 PUSH2 0x22DD JUMP JUMPDEST PUSH2 0x2B40 PUSH1 0x40 DUP4 ADD DUP5 PUSH2 0x22DD JUMP JUMPDEST SWAP5 SWAP4 POP POP POP POP JUMP JUMPDEST PUSH0 PUSH1 0x20 DUP3 ADD SWAP1 POP PUSH2 0x2B5B PUSH0 DUP4 ADD DUP5 PUSH2 0x23FC JUMP JUMPDEST SWAP3 SWAP2 POP POP JUMP JUMPDEST PUSH32 0x5061757361626C653A2070617573656400000000000000000000000000000000 PUSH0 DUP3 ADD MSTORE POP JUMP JUMPDEST PUSH0 PUSH2 0x2B95 PUSH1 0x10 DUP4 PUSH2 0x25DD JUMP JUMPDEST SWAP2 POP PUSH2 0x2BA0 DUP3 PUSH2 0x2B61 JUMP JUMPDEST PUSH1 0x20 DUP3 ADD SWAP1 POP SWAP2 SWAP1 POP JUMP JUMPDEST PUSH0 PUSH1 0x20 DUP3 ADD SWAP1 POP DUP2 DUP2 SUB PUSH0 DUP4 ADD MSTORE PUSH2 0x2BC2 DUP2 PUSH2 0x2B89 JUMP JUMPDEST SWAP1 POP SWAP2 SWAP1 POP JUMP JUMPDEST PUSH32 0x5265656E7472616E637947756172643A207265656E7472616E742063616C6C00 PUSH0 DUP3 ADD MSTORE POP JUMP JUMPDEST PUSH0 PUSH2 0x2BFD PUSH1 0x1F DUP4 PUSH2 0x25DD JUMP JUMPDEST SWAP2 POP PUSH2 0x2C08 DUP3 PUSH2 0x2BC9 JUMP JUMPDEST PUSH1 0x20 DUP3 ADD SWAP1 POP SWAP2 SWAP1 POP JUMP JUMPDEST PUSH0 PUSH1 0x20 DUP3 ADD SWAP1 POP DUP2 DUP2 SUB PUSH0 DUP4 ADD MSTORE PUSH2 0x2C2A DUP2 PUSH2 0x2BF1 JUMP JUMPDEST SWAP1 POP SWAP2 SWAP1 POP JUMP JUMPDEST PUSH0 PUSH2 0x2C3B DUP3 PUSH2 0x22D4 JUMP JUMPDEST SWAP2 POP PUSH2 0x2C46 DUP4 PUSH2 0x22D4 JUMP JUMPDEST SWAP3 POP DUP3 DUP3 SUB SWAP1 POP DUP2 DUP2 GT ISZERO PUSH2 0x2C5E JUMPI PUSH2 0x2C5D PUSH2 0x2725 JUMP JUMPDEST JUMPDEST SWAP3 SWAP2 POP POP JUMP JUMPDEST PUSH0 PUSH10 0xFFFFFFFFFFFFFFFFFFFF DUP3 AND SWAP1 POP SWAP2 SWAP1 POP JUMP JUMPDEST PUSH2 0x2C82 DUP2 PUSH2 0x2C64 JUMP JUMPDEST DUP2 EQ PUSH2 0x2C8C JUMPI PUSH0 DUP1 REVERT JUMPDEST POP JUMP JUMPDEST PUSH0 DUP2 MLOAD SWAP1 POP PUSH2 0x2C9D DUP2 PUSH2 0x2C79 JUMP JUMPDEST SWAP3 SWAP2 POP POP JUMP JUMPDEST PUSH0 DUP2 SWAP1 POP SWAP2 SWAP1 POP JUMP JUMPDEST PUSH2 0x2CB5 DUP2 PUSH2 0x2CA3 JUMP JUMPDEST DUP2 EQ PUSH2 0x2CBF JUMPI PUSH0 DUP1 REVERT JUMPDEST POP JUMP JUMPDEST PUSH0 DUP2 MLOAD SWAP1 POP PUSH2 0x2CD0 DUP2 PUSH2 0x2CAC JUMP JUMPDEST SWAP3 SWAP2 POP POP JUMP JUMPDEST PUSH0 DUP2 MLOAD SWAP1 POP PUSH2 0x2CE4 DUP2 PUSH2 0x2343 JUMP JUMPDEST SWAP3 SWAP2 POP POP JUMP JUMPDEST PUSH0 DUP1 PUSH0 DUP1 PUSH0 PUSH1 0xA0 DUP7 DUP9 SUB SLT ISZERO PUSH2 0x2D03 JUMPI PUSH2 0x2D02 PUSH2 0x208B JUMP JUMPDEST JUMPDEST PUSH0 PUSH2 0x2D10 DUP9 DUP3 DUP10 ADD PUSH2 0x2C8F JUMP JUMPDEST SWAP6 POP POP PUSH1 0x20 PUSH2 0x2D21 DUP9 DUP3 DUP10 ADD PUSH2 0x2CC2 JUMP JUMPDEST SWAP5 POP POP PUSH1 0x40 PUSH2 0x2D32 DUP9 DUP3 DUP10 ADD PUSH2 0x2CD6 JUMP JUMPDEST SWAP4 POP POP PUSH1 0x60 PUSH2 0x2D43 DUP9 DUP3 DUP10 ADD PUSH2 0x2CD6 JUMP JUMPDEST SWAP3 POP POP PUSH1 0x80 PUSH2 0x2D54 DUP9 DUP3 DUP10 ADD PUSH2 0x2C8F JUMP JUMPDEST SWAP2 POP POP SWAP3 SWAP6 POP SWAP3 SWAP6 SWAP1 SWAP4 POP JUMP JUMPDEST PUSH0 PUSH1 0xFF DUP3 AND SWAP1 POP SWAP2 SWAP1 POP JUMP JUMPDEST PUSH2 0x2D76 DUP2 PUSH2 0x2D61 JUMP JUMPDEST DUP2 EQ PUSH2 0x2D80 JUMPI PUSH0 DUP1 REVERT JUMPDEST POP JUMP JUMPDEST PUSH0 DUP2 MLOAD SWAP1 POP PUSH2 0x2D91 DUP2 PUSH2 0x2D6D JUMP JUMPDEST SWAP3 SWAP2 POP POP JUMP JUMPDEST PUSH0 PUSH1 0x20 DUP3 DUP5 SUB SLT ISZERO PUSH2 0x2DAC JUMPI PUSH2 0x2DAB PUSH2 0x208B JUMP JUMPDEST JUMPDEST PUSH0 PUSH2 0x2DB9 DUP5 DUP3 DUP6 ADD PUSH2 0x2D83 JUMP JUMPDEST SWAP2 POP POP SWAP3 SWAP2 POP POP JUMP JUMPDEST PUSH0 DUP2 PUSH1 0x1 SHR SWAP1 POP SWAP2 SWAP1 POP JUMP JUMPDEST PUSH0 DUP1 DUP3 SWAP2 POP DUP4 SWAP1 POP JUMPDEST PUSH1 0x1 DUP6 GT ISZERO PUSH2 0x2E17 JUMPI DUP1 DUP7 DIV DUP2 GT ISZERO PUSH2 0x2DF3 JUMPI PUSH2 0x2DF2 PUSH2 0x2725 JUMP JUMPDEST JUMPDEST PUSH1 0x1 DUP6 AND ISZERO PUSH2 0x2E02 JUMPI DUP1 DUP3 MUL SWAP2 POP JUMPDEST DUP1 DUP2 MUL SWAP1 POP PUSH2 0x2E10 DUP6 PUSH2 0x2DC2 JUMP JUMPDEST SWAP5 POP PUSH2 0x2DD7 JUMP JUMPDEST SWAP5 POP SWAP5 SWAP3 POP POP POP JUMP JUMPDEST PUSH0 DUP3 PUSH2 0x2E2F JUMPI PUSH1 0x1 SWAP1 POP PUSH2 0x2EEA JUMP JUMPDEST DUP2 PUSH2 0x2E3C JUMPI PUSH0 SWAP1 POP PUSH2 0x2EEA JUMP JUMPDEST DUP2 PUSH1 0x1 DUP2 EQ PUSH2 0x2E52 JUMPI PUSH1 0x2 DUP2 EQ PUSH2 0x2E5C JUMPI PUSH2 0x2E8B JUMP JUMPDEST PUSH1 0x1 SWAP2 POP POP PUSH2 0x2EEA JUMP JUMPDEST PUSH1 0xFF DUP5 GT ISZERO PUSH2 0x2E6E JUMPI PUSH2 0x2E6D PUSH2 0x2725 JUMP JUMPDEST JUMPDEST DUP4 PUSH1 0x2 EXP SWAP2 POP DUP5 DUP3 GT ISZERO PUSH2 0x2E85 JUMPI PUSH2 0x2E84 PUSH2 0x2725 JUMP JUMPDEST JUMPDEST POP PUSH2 0x2EEA JUMP JUMPDEST POP PUSH1 0x20 DUP4 LT PUSH2 0x133 DUP4 LT AND PUSH1 0x4E DUP5 LT PUSH1 0xB DUP5 LT AND OR ISZERO PUSH2 0x2EC0 JUMPI DUP3 DUP3 EXP SWAP1 POP DUP4 DUP2 GT ISZERO PUSH2 0x2EBB JUMPI PUSH2 0x2EBA PUSH2 0x2725 JUMP JUMPDEST JUMPDEST PUSH2 0x2EEA JUMP JUMPDEST PUSH2 0x2ECD DUP5 DUP5 DUP5 PUSH1 0x1 PUSH2 0x2DCE JUMP JUMPDEST SWAP3 POP SWAP1 POP DUP2 DUP5 DIV DUP2 GT ISZERO PUSH2 0x2EE4 JUMPI PUSH2 0x2EE3 PUSH2 0x2725 JUMP JUMPDEST JUMPDEST DUP2 DUP2 MUL SWAP1 POP JUMPDEST SWAP4 SWAP3 POP POP POP JUMP JUMPDEST PUSH0 PUSH2 0x2EFB DUP3 PUSH2 0x22D4 JUMP JUMPDEST SWAP2 POP PUSH2 0x2F06 DUP4 PUSH2 0x2D61 JUMP JUMPDEST SWAP3 POP PUSH2 0x2F33 PUSH32 0xFFFFFFFFFFFFFFFFFFFFFFFFFFFFFFFFFFFFFFFFFFFFFFFFFFFFFFFFFFFFFFFF DUP5 DUP5 PUSH2 0x2E20 JUMP JUMPDEST SWAP1 POP SWAP3 SWAP2 POP POP JUMP JUMPDEST PUSH0 PUSH1 0x40 DUP3 ADD SWAP1 POP PUSH2 0x2F4E PUSH0 DUP4 ADD DUP6 PUSH2 0x23FC JUMP JUMPDEST PUSH2 0x2F5B PUSH1 0x20 DUP4 ADD DUP5 PUSH2 0x2233 JUMP JUMPDEST SWAP4 SWAP3 POP POP POP JUMP JUMPDEST PUSH32 0x5061757361626C653A206E6F7420706175736564000000000000000000000000 PUSH0 DUP3 ADD MSTORE POP JUMP JUMPDEST PUSH0 PUSH2 0x2F96 PUSH1 0x14 DUP4 PUSH2 0x25DD JUMP JUMPDEST SWAP2 POP PUSH2 0x2FA1 DUP3 PUSH2 0x2F62 JUMP JUMPDEST PUSH1 0x20 DUP3 ADD SWAP1 POP SWAP2 SWAP1 POP JUMP JUMPDEST PUSH0 PUSH1 0x20 DUP3 ADD SWAP1 POP DUP2 DUP2 SUB PUSH0 DUP4 ADD MSTORE PUSH2 0x2FC3 DUP2 PUSH2 0x2F8A JUMP JUMPDEST SWAP1 POP SWAP2 SWAP1 POP JUMP INVALID LOG2 PUSH5 0x6970667358 0x22 SLT KECCAK256 0xD PUSH7 0xC2B67D00F3ECCA PUSH5 0xC02828F06B 0xEC PUSH15 0x5E71485A46245BD5D68910BEDF685D PUSH5 0x736F6C6343 STOP ADDMOD BYTE STOP CALLER "
		},
		"gasEstimates": {
			"creation": {
				"codeDepositCost": "2457600",
				"executionCost": "2641",
				"totalCost": "2460241"
			},
			"external": {
				"ADMIN_ROLE()": "436",
				"DEFAULT_ADMIN_ROLE()": "463",
				"KEEPER_ROLE()": "459",
				"TREASURY_ROLE()": "392",
				"auctions(uint256)": "infinite",
				"borrow(address,address,uint256,uint256)": "infinite",
				"config()": "infinite",
				"getRoleAdmin(bytes32)": "infinite",
				"grantRole(bytes32,address)": "infinite",
				"hasRole(bytes32,address)": "3285",
				"initialize(address,address,address)": "infinite",
				"liquidate(uint256)": "infinite",
				"loans(uint256)": "infinite",
				"nextAuctionId()": "2535",
				"nextLoanId()": "2514",
				"pause()": "infinite",
				"paused()": "2562",
				"protocolToken()": "infinite",
				"purchaseCollateral(uint256)": "infinite",
				"renounceRole(bytes32,address)": "infinite",
				"revokeRole(bytes32,address)": "infinite",
				"stablecoin()": "infinite",
				"supportsInterface(bytes4)": "741",
				"unpause()": "infinite",
				"updateProtocolConfig(uint256,uint256,uint256,uint256)": "infinite",
				"userCollateral(address,address)": "infinite"
			},
			"internal": {
				"_calculateCurrentAuctionPrice(struct LiquidationProtocol.Auction memory)": "infinite",
				"_checkLiquidation(struct LiquidationProtocol.Loan memory)": "infinite",
				"_getCollateralValue(address,address,uint256)": "infinite",
				"_startLiquidationAuction(struct LiquidationProtocol.Loan memory)": "infinite"
			}
		},
		"methodIdentifiers": {
			"ADMIN_ROLE()": "75b238fc",
			"DEFAULT_ADMIN_ROLE()": "a217fddf",
			"KEEPER_ROLE()": "364bc15a",
			"TREASURY_ROLE()": "d11a57ec",
			"auctions(uint256)": "571a26a0",
			"borrow(address,address,uint256,uint256)": "fbf37739",
			"config()": "79502c55",
			"getRoleAdmin(bytes32)": "248a9ca3",
			"grantRole(bytes32,address)": "2f2ff15d",
			"hasRole(bytes32,address)": "91d14854",
			"initialize(address,address,address)": "c0c53b8b",
			"liquidate(uint256)": "415f1240",
			"loans(uint256)": "e1ec3c68",
			"nextAuctionId()": "fc528482",
			"nextLoanId()": "87c51459",
			"pause()": "8456cb59",
			"paused()": "5c975abb",
			"protocolToken()": "1a465fe1",
			"purchaseCollateral(uint256)": "7cdd1263",
			"renounceRole(bytes32,address)": "36568abe",
			"revokeRole(bytes32,address)": "d547741f",
			"stablecoin()": "e9cbd822",
			"supportsInterface(bytes4)": "01ffc9a7",
			"unpause()": "3f4ba83a",
			"updateProtocolConfig(uint256,uint256,uint256,uint256)": "501ed22c",
			"userCollateral(address,address)": "2b92a07d"
		}
	},
	"abi": [
		{
			"inputs": [],
			"name": "AccessControlBadConfirmation",
			"type": "error"
		},
		{
			"inputs": [
				{
					"internalType": "address",
					"name": "account",
					"type": "address"
				},
				{
					"internalType": "bytes32",
					"name": "neededRole",
					"type": "bytes32"
				}
			],
			"name": "AccessControlUnauthorizedAccount",
			"type": "error"
		},
		{
			"inputs": [],
			"name": "InvalidInitialization",
			"type": "error"
		},
		{
			"inputs": [],
			"name": "NotInitializing",
			"type": "error"
		},
		{
			"anonymous": false,
			"inputs": [
				{
					"indexed": true,
					"internalType": "uint256",
					"name": "auctionId",
					"type": "uint256"
				},
				{
					"indexed": false,
					"internalType": "address",
					"name": "collateralToken",
					"type": "address"
				},
				{
					"indexed": false,
					"internalType": "uint256",
					"name": "collateralAmount",
					"type": "uint256"
				}
			],
			"name": "AuctionStarted",
			"type": "event"
		},
		{
			"anonymous": false,
			"inputs": [
				{
					"indexed": true,
					"internalType": "uint256",
					"name": "auctionId",
					"type": "uint256"
				},
				{
					"indexed": true,
					"internalType": "address",
					"name": "buyer",
					"type": "address"
				},
				{
					"indexed": false,
					"internalType": "uint256",
					"name": "collateralAmount",
					"type": "uint256"
				}
			],
			"name": "CollateralPurchased",
			"type": "event"
		},
		{
			"anonymous": false,
			"inputs": [
				{
					"indexed": false,
					"internalType": "uint64",
					"name": "version",
					"type": "uint64"
				}
			],
			"name": "Initialized",
			"type": "event"
		},
		{
			"anonymous": false,
			"inputs": [
				{
					"indexed": true,
					"internalType": "uint256",
					"name": "loanId",
					"type": "uint256"
				},
				{
					"indexed": true,
					"internalType": "address",
					"name": "borrower",
					"type": "address"
				},
				{
					"indexed": false,
					"internalType": "address",
					"name": "collateralToken",
					"type": "address"
				},
				{
					"indexed": false,
					"internalType": "uint256",
					"name": "collateralAmount",
					"type": "uint256"
				},
				{
					"indexed": false,
					"internalType": "uint256",
					"name": "borrowedAmount",
					"type": "uint256"
				}
			],
			"name": "LoanCreated",
			"type": "event"
		},
		{
			"anonymous": false,
			"inputs": [
				{
					"indexed": true,
					"internalType": "uint256",
					"name": "loanId",
					"type": "uint256"
				},
				{
					"indexed": true,
					"internalType": "address",
					"name": "liquidator",
					"type": "address"
				},
				{
					"indexed": false,
					"internalType": "uint256",
					"name": "collateralLiquidated",
					"type": "uint256"
				}
			],
			"name": "LoanLiquidated",
			"type": "event"
		},
		{
			"anonymous": false,
			"inputs": [
				{
					"indexed": false,
					"internalType": "address",
					"name": "account",
					"type": "address"
				}
			],
			"name": "Paused",
			"type": "event"
		},
		{
			"anonymous": false,
			"inputs": [
				{
					"indexed": true,
					"internalType": "bytes32",
					"name": "role",
					"type": "bytes32"
				},
				{
					"indexed": true,
					"internalType": "bytes32",
					"name": "previousAdminRole",
					"type": "bytes32"
				},
				{
					"indexed": true,
					"internalType": "bytes32",
					"name": "newAdminRole",
					"type": "bytes32"
				}
			],
			"name": "RoleAdminChanged",
			"type": "event"
		},
		{
			"anonymous": false,
			"inputs": [
				{
					"indexed": true,
					"internalType": "bytes32",
					"name": "role",
					"type": "bytes32"
				},
				{
					"indexed": true,
					"internalType": "address",
					"name": "account",
					"type": "address"
				},
				{
					"indexed": true,
					"internalType": "address",
					"name": "sender",
					"type": "address"
				}
			],
			"name": "RoleGranted",
			"type": "event"
		},
		{
			"anonymous": false,
			"inputs": [
				{
					"indexed": true,
					"internalType": "bytes32",
					"name": "role",
					"type": "bytes32"
				},
				{
					"indexed": true,
					"internalType": "address",
					"name": "account",
					"type": "address"
				},
				{
					"indexed": true,
					"internalType": "address",
					"name": "sender",
					"type": "address"
				}
			],
			"name": "RoleRevoked",
			"type": "event"
		},
		{
			"anonymous": false,
			"inputs": [
				{
					"indexed": false,
					"internalType": "address",
					"name": "account",
					"type": "address"
				}
			],
			"name": "Unpaused",
			"type": "event"
		},
		{
			"inputs": [],
			"name": "ADMIN_ROLE",
			"outputs": [
				{
					"internalType": "bytes32",
					"name": "",
					"type": "bytes32"
				}
			],
			"stateMutability": "view",
			"type": "function"
		},
		{
			"inputs": [],
			"name": "DEFAULT_ADMIN_ROLE",
			"outputs": [
				{
					"internalType": "bytes32",
					"name": "",
					"type": "bytes32"
				}
			],
			"stateMutability": "view",
			"type": "function"
		},
		{
			"inputs": [],
			"name": "KEEPER_ROLE",
			"outputs": [
				{
					"internalType": "bytes32",
					"name": "",
					"type": "bytes32"
				}
			],
			"stateMutability": "view",
			"type": "function"
		},
		{
			"inputs": [],
			"name": "TREASURY_ROLE",
			"outputs": [
				{
					"internalType": "bytes32",
					"name": "",
					"type": "bytes32"
				}
			],
			"stateMutability": "view",
			"type": "function"
		},
		{
			"inputs": [
				{
					"internalType": "uint256",
					"name": "",
					"type": "uint256"
				}
			],
			"name": "auctions",
			"outputs": [
				{
					"internalType": "address",
					"name": "collateralToken",
					"type": "address"
				},
				{
					"internalType": "uint256",
					"name": "collateralAmount",
					"type": "uint256"
				},
				{
					"internalType": "uint256",
					"name": "startPrice",
					"type": "uint256"
				},
				{
					"internalType": "uint256",
					"name": "minimumPrice",
					"type": "uint256"
				},
				{
					"internalType": "uint256",
					"name": "startTimestamp",
					"type": "uint256"
				},
				{
					"internalType": "bool",
					"name": "isActive",
					"type": "bool"
				}
			],
			"stateMutability": "view",
			"type": "function"
		},
		{
			"inputs": [
				{
					"internalType": "address",
					"name": "collateralToken",
					"type": "address"
				},
				{
					"internalType": "address",
					"name": "priceFeed",
					"type": "address"
				},
				{
					"internalType": "uint256",
					"name": "collateralAmount",
					"type": "uint256"
				},
				{
					"internalType": "uint256",
					"name": "borrowAmount",
					"type": "uint256"
				}
			],
			"name": "borrow",
			"outputs": [],
			"stateMutability": "nonpayable",
			"type": "function"
		},
		{
			"inputs": [],
			"name": "config",
			"outputs": [
				{
					"internalType": "uint256",
					"name": "liquidationThreshold",
					"type": "uint256"
				},
				{
					"internalType": "uint256",
					"name": "maxLoanToValue",
					"type": "uint256"
				},
				{
					"internalType": "uint256",
					"name": "baseBorrowRate",
					"type": "uint256"
				},
				{
					"internalType": "uint256",
					"name": "liquidationPenalty",
					"type": "uint256"
				}
			],
			"stateMutability": "view",
			"type": "function"
		},
		{
			"inputs": [
				{
					"internalType": "bytes32",
					"name": "role",
					"type": "bytes32"
				}
			],
			"name": "getRoleAdmin",
			"outputs": [
				{
					"internalType": "bytes32",
					"name": "",
					"type": "bytes32"
				}
			],
			"stateMutability": "view",
			"type": "function"
		},
		{
			"inputs": [
				{
					"internalType": "bytes32",
					"name": "role",
					"type": "bytes32"
				},
				{
					"internalType": "address",
					"name": "account",
					"type": "address"
				}
			],
			"name": "grantRole",
			"outputs": [],
			"stateMutability": "nonpayable",
			"type": "function"
		},
		{
			"inputs": [
				{
					"internalType": "bytes32",
					"name": "role",
					"type": "bytes32"
				},
				{
					"internalType": "address",
					"name": "account",
					"type": "address"
				}
			],
			"name": "hasRole",
			"outputs": [
				{
					"internalType": "bool",
					"name": "",
					"type": "bool"
				}
			],
			"stateMutability": "view",
			"type": "function"
		},
		{
			"inputs": [
				{
					"internalType": "address",
					"name": "_stablecoin",
					"type": "address"
				},
				{
					"internalType": "address",
					"name": "_protocolToken",
					"type": "address"
				},
				{
					"internalType": "address",
					"name": "_admin",
					"type": "address"
				}
			],
			"name": "initialize",
			"outputs": [],
			"stateMutability": "nonpayable",
			"type": "function"
		},
		{
			"inputs": [
				{
					"internalType": "uint256",
					"name": "loanId",
					"type": "uint256"
				}
			],
			"name": "liquidate",
			"outputs": [],
			"stateMutability": "nonpayable",
			"type": "function"
		},
		{
			"inputs": [
				{
					"internalType": "uint256",
					"name": "",
					"type": "uint256"
				}
			],
			"name": "loans",
			"outputs": [
				{
					"internalType": "address",
					"name": "borrower",
					"type": "address"
				},
				{
					"internalType": "address",
					"name": "collateralToken",
					"type": "address"
				},
				{
					"internalType": "address",
					"name": "priceFeed",
					"type": "address"
				},
				{
					"internalType": "uint256",
					"name": "collateralAmount",
					"type": "uint256"
				},
				{
					"internalType": "uint256",
					"name": "borrowedAmount",
					"type": "uint256"
				},
				{
					"internalType": "uint256",
					"name": "interestRate",
					"type": "uint256"
				},
				{
					"internalType": "uint256",
					"name": "startTimestamp",
					"type": "uint256"
				},
				{
					"internalType": "bool",
					"name": "isActive",
					"type": "bool"
				}
			],
			"stateMutability": "view",
			"type": "function"
		},
		{
			"inputs": [],
			"name": "nextAuctionId",
			"outputs": [
				{
					"internalType": "uint256",
					"name": "",
					"type": "uint256"
				}
			],
			"stateMutability": "view",
			"type": "function"
		},
		{
			"inputs": [],
			"name": "nextLoanId",
			"outputs": [
				{
					"internalType": "uint256",
					"name": "",
					"type": "uint256"
				}
			],
			"stateMutability": "view",
			"type": "function"
		},
		{
			"inputs": [],
			"name": "pause",
			"outputs": [],
			"stateMutability": "nonpayable",
			"type": "function"
		},
		{
			"inputs": [],
			"name": "paused",
			"outputs": [
				{
					"internalType": "bool",
					"name": "",
					"type": "bool"
				}
			],
			"stateMutability": "view",
			"type": "function"
		},
		{
			"inputs": [],
			"name": "protocolToken",
			"outputs": [
				{
					"internalType": "contract IERC20",
					"name": "",
					"type": "address"
				}
			],
			"stateMutability": "view",
			"type": "function"
		},
		{
			"inputs": [
				{
					"internalType": "uint256",
					"name": "auctionId",
					"type": "uint256"
				}
			],
			"name": "purchaseCollateral",
			"outputs": [],
			"stateMutability": "nonpayable",
			"type": "function"
		},
		{
			"inputs": [
				{
					"internalType": "bytes32",
					"name": "role",
					"type": "bytes32"
				},
				{
					"internalType": "address",
					"name": "callerConfirmation",
					"type": "address"
				}
			],
			"name": "renounceRole",
			"outputs": [],
			"stateMutability": "nonpayable",
			"type": "function"
		},
		{
			"inputs": [
				{
					"internalType": "bytes32",
					"name": "role",
					"type": "bytes32"
				},
				{
					"internalType": "address",
					"name": "account",
					"type": "address"
				}
			],
			"name": "revokeRole",
			"outputs": [],
			"stateMutability": "nonpayable",
			"type": "function"
		},
		{
			"inputs": [],
			"name": "stablecoin",
			"outputs": [
				{
					"internalType": "contract IERC20",
					"name": "",
					"type": "address"
				}
			],
			"stateMutability": "view",
			"type": "function"
		},
		{
			"inputs": [
				{
					"internalType": "bytes4",
					"name": "interfaceId",
					"type": "bytes4"
				}
			],
			"name": "supportsInterface",
			"outputs": [
				{
					"internalType": "bool",
					"name": "",
					"type": "bool"
				}
			],
			"stateMutability": "view",
			"type": "function"
		},
		{
			"inputs": [],
			"name": "unpause",
			"outputs": [],
			"stateMutability": "nonpayable",
			"type": "function"
		},
		{
			"inputs": [
				{
					"internalType": "uint256",
					"name": "_liquidationThreshold",
					"type": "uint256"
				},
				{
					"internalType": "uint256",
					"name": "_maxLoanToValue",
					"type": "uint256"
				},
				{
					"internalType": "uint256",
					"name": "_baseBorrowRate",
					"type": "uint256"
				},
				{
					"internalType": "uint256",
					"name": "_liquidationPenalty",
					"type": "uint256"
				}
			],
			"name": "updateProtocolConfig",
			"outputs": [],
			"stateMutability": "nonpayable",
			"type": "function"
		},
		{
			"inputs": [
				{
					"internalType": "address",
					"name": "",
					"type": "address"
				},
				{
					"internalType": "address",
					"name": "",
					"type": "address"
				}
			],
			"name": "userCollateral",
			"outputs": [
				{
					"internalType": "uint256",
					"name": "",
					"type": "uint256"
				}
			],
			"stateMutability": "view",
			"type": "function"
		}
	]
}