{
	"data": {
		"bytecode": {
			"linkReferences": {},
			"object": "60e060405234801561000f575f80fd5b5060405161064a38038061064a83398181016040528101906100319190610088565b82608081815250508160a081815250508060c081815250505050506100d8565b5f80fd5b5f819050919050565b61006781610055565b8114610071575f80fd5b50565b5f815190506100828161005e565b92915050565b5f805f6060848603121561009f5761009e610051565b5b5f6100ac86828701610074565b93505060206100bd86828701610074565b92505060406100ce86828701610074565b9150509250925092565b60805160a05160c0516105256101255f395f818161023801526102ff01525f81816101b00152818161026e01526102db01525f8181610138015281816101e6015261028f01526105255ff3fe608060405234801561000f575f80fd5b5060043610610060575f3560e01c806317319873146100645780631f68f20a1461008257806366c57dca146100a0578063a15f30ac146100d0578063a62b75a8146100ee578063d0134cb71461010c575b5f80fd5b61006c61012a565b6040516100799190610339565b60405180910390f35b61008a610136565b6040516100979190610339565b60405180910390f35b6100ba60048036038101906100b59190610380565b61015a565b6040516100c79190610339565b60405180910390f35b6100d86102cd565b6040516100e59190610339565b60405180910390f35b6100f66102d9565b6040516101039190610339565b60405180910390f35b6101146102fd565b6040516101219190610339565b60405180910390f35b6702c68af0bb14000081565b7f000000000000000000000000000000000000000000000000000000000000000081565b5f805f831461019257828461016f91906103eb565b670de0b6b3a764000084610183919061041e565b61018d919061048c565b610194565b5f5b9050670b1a2bc2ec500000811161021657670b1a2bc2ec5000007f0000000000000000000000000000000000000000000000000000000000000000826101da919061041e565b6101e4919061048c565b7f000000000000000000000000000000000000000000000000000000000000000061020f91906103eb565b91506102c6565b5f670b1a2bc2ec5000008261022b91906104bc565b90506702c68af0bb1400007f000000000000000000000000000000000000000000000000000000000000000082610262919061041e565b61026c919061048c565b7f00000000000000000000000000000000000000000000000000000000000000007f00000000000000000000000000000000000000000000000000000000000000006102b891906103eb565b6102c291906103eb565b9250505b5092915050565b670b1a2bc2ec50000081565b7f000000000000000000000000000000000000000000000000000000000000000081565b7f000000000000000000000000000000000000000000000000000000000000000081565b5f819050919050565b61033381610321565b82525050565b5f60208201905061034c5f83018461032a565b92915050565b5f80fd5b61035f81610321565b8114610369575f80fd5b50565b5f8135905061037a81610356565b92915050565b5f806040838503121561039657610395610352565b5b5f6103a38582860161036c565b92505060206103b48582860161036c565b9150509250929050565b7f4e487b71000000000000000000000000000000000000000000000000000000005f52601160045260245ffd5b5f6103f582610321565b915061040083610321565b9250828201905080821115610418576104176103be565b5b92915050565b5f61042882610321565b915061043383610321565b925082820261044181610321565b91508282048414831517610458576104576103be565b5b5092915050565b7f4e487b71000000000000000000000000000000000000000000000000000000005f52601260045260245ffd5b5f61049682610321565b91506104a183610321565b9250826104b1576104b061045f565b5b828204905092915050565b5f6104c682610321565b91506104d183610321565b92508282039050818111156104e9576104e86103be565b5b9291505056fea2646970667358221220b70b755956ed94b4291c6d3ead14ae05e373e8ea661f2f449ab18ed37b13754f64736f6c634300081a0033",
			"opcodes": "PUSH1 0xE0 PUSH1 0x40 MSTORE CALLVALUE DUP1 ISZERO PUSH2 0xF JUMPI PUSH0 DUP1 REVERT JUMPDEST POP PUSH1 0x40 MLOAD PUSH2 0x64A CODESIZE SUB DUP1 PUSH2 0x64A DUP4 CODECOPY DUP2 DUP2 ADD PUSH1 0x40 MSTORE DUP2 ADD SWAP1 PUSH2 0x31 SWAP2 SWAP1 PUSH2 0x88 JUMP JUMPDEST DUP3 PUSH1 0x80 DUP2 DUP2 MSTORE POP POP DUP2 PUSH1 0xA0 DUP2 DUP2 MSTORE POP POP DUP1 PUSH1 0xC0 DUP2 DUP2 MSTORE POP POP POP POP POP PUSH2 0xD8 JUMP JUMPDEST PUSH0 DUP1 REVERT JUMPDEST PUSH0 DUP2 SWAP1 POP SWAP2 SWAP1 POP JUMP JUMPDEST PUSH2 0x67 DUP2 PUSH2 0x55 JUMP JUMPDEST DUP2 EQ PUSH2 0x71 JUMPI PUSH0 DUP1 REVERT JUMPDEST POP JUMP JUMPDEST PUSH0 DUP2 MLOAD SWAP1 POP PUSH2 0x82 DUP2 PUSH2 0x5E JUMP JUMPDEST SWAP3 SWAP2 POP POP JUMP JUMPDEST PUSH0 DUP1 PUSH0 PUSH1 0x60 DUP5 DUP7 SUB SLT ISZERO PUSH2 0x9F JUMPI PUSH2 0x9E PUSH2 0x51 JUMP JUMPDEST JUMPDEST PUSH0 PUSH2 0xAC DUP7 DUP3 DUP8 ADD PUSH2 0x74 JUMP JUMPDEST SWAP4 POP POP PUSH1 0x20 PUSH2 0xBD DUP7 DUP3 DUP8 ADD PUSH2 0x74 JUMP JUMPDEST SWAP3 POP POP PUSH1 0x40 PUSH2 0xCE DUP7 DUP3 DUP8 ADD PUSH2 0x74 JUMP JUMPDEST SWAP2 POP POP SWAP3 POP SWAP3 POP SWAP3 JUMP JUMPDEST PUSH1 0x80 MLOAD PUSH1 0xA0 MLOAD PUSH1 0xC0 MLOAD PUSH2 0x525 PUSH2 0x125 PUSH0 CODECOPY PUSH0 DUP2 DUP2 PUSH2 0x238 ADD MSTORE PUSH2 0x2FF ADD MSTORE PUSH0 DUP2 DUP2 PUSH2 0x1B0 ADD MSTORE DUP2 DUP2 PUSH2 0x26E ADD MSTORE PUSH2 0x2DB ADD MSTORE PUSH0 DUP2 DUP2 PUSH2 0x138 ADD MSTORE DUP2 DUP2 PUSH2 0x1E6 ADD MSTORE PUSH2 0x28F ADD MSTORE PUSH2 0x525 PUSH0 RETURN INVALID PUSH1 0x80 PUSH1 0x40 MSTORE CALLVALUE DUP1 ISZERO PUSH2 0xF JUMPI PUSH0 DUP1 REVERT JUMPDEST POP PUSH1 0x4 CALLDATASIZE LT PUSH2 0x60 JUMPI PUSH0 CALLDATALOAD PUSH1 0xE0 SHR DUP1 PUSH4 0x17319873 EQ PUSH2 0x64 JUMPI DUP1 PUSH4 0x1F68F20A EQ PUSH2 0x82 JUMPI DUP1 PUSH4 0x66C57DCA EQ PUSH2 0xA0 JUMPI DUP1 PUSH4 0xA15F30AC EQ PUSH2 0xD0 JUMPI DUP1 PUSH4 0xA62B75A8 EQ PUSH2 0xEE JUMPI DUP1 PUSH4 0xD0134CB7 EQ PUSH2 0x10C JUMPI JUMPDEST PUSH0 DUP1 REVERT JUMPDEST PUSH2 0x6C PUSH2 0x12A JUMP JUMPDEST PUSH1 0x40 MLOAD PUSH2 0x79 SWAP2 SWAP1 PUSH2 0x339 JUMP JUMPDEST PUSH1 0x40 MLOAD DUP1 SWAP2 SUB SWAP1 RETURN JUMPDEST PUSH2 0x8A PUSH2 0x136 JUMP JUMPDEST PUSH1 0x40 MLOAD PUSH2 0x97 SWAP2 SWAP1 PUSH2 0x339 JUMP JUMPDEST PUSH1 0x40 MLOAD DUP1 SWAP2 SUB SWAP1 RETURN JUMPDEST PUSH2 0xBA PUSH1 0x4 DUP1 CALLDATASIZE SUB DUP2 ADD SWAP1 PUSH2 0xB5 SWAP2 SWAP1 PUSH2 0x380 JUMP JUMPDEST PUSH2 0x15A JUMP JUMPDEST PUSH1 0x40 MLOAD PUSH2 0xC7 SWAP2 SWAP1 PUSH2 0x339 JUMP JUMPDEST PUSH1 0x40 MLOAD DUP1 SWAP2 SUB SWAP1 RETURN JUMPDEST PUSH2 0xD8 PUSH2 0x2CD JUMP JUMPDEST PUSH1 0x40 MLOAD PUSH2 0xE5 SWAP2 SWAP1 PUSH2 0x339 JUMP JUMPDEST PUSH1 0x40 MLOAD DUP1 SWAP2 SUB SWAP1 RETURN JUMPDEST PUSH2 0xF6 PUSH2 0x2D9 JUMP JUMPDEST PUSH1 0x40 MLOAD PUSH2 0x103 SWAP2 SWAP1 PUSH2 0x339 JUMP JUMPDEST PUSH1 0x40 MLOAD DUP1 SWAP2 SUB SWAP1 RETURN JUMPDEST PUSH2 0x114 PUSH2 0x2FD JUMP JUMPDEST PUSH1 0x40 MLOAD PUSH2 0x121 SWAP2 SWAP1 PUSH2 0x339 JUMP JUMPDEST PUSH1 0x40 MLOAD DUP1 SWAP2 SUB SWAP1 RETURN JUMPDEST PUSH8 0x2C68AF0BB140000 DUP2 JUMP JUMPDEST PUSH32 0x0 DUP2 JUMP JUMPDEST PUSH0 DUP1 PUSH0 DUP4 EQ PUSH2 0x192 JUMPI DUP3 DUP5 PUSH2 0x16F SWAP2 SWAP1 PUSH2 0x3EB JUMP JUMPDEST PUSH8 0xDE0B6B3A7640000 DUP5 PUSH2 0x183 SWAP2 SWAP1 PUSH2 0x41E JUMP JUMPDEST PUSH2 0x18D SWAP2 SWAP1 PUSH2 0x48C JUMP JUMPDEST PUSH2 0x194 JUMP JUMPDEST PUSH0 JUMPDEST SWAP1 POP PUSH8 0xB1A2BC2EC500000 DUP2 GT PUSH2 0x216 JUMPI PUSH8 0xB1A2BC2EC500000 PUSH32 0x0 DUP3 PUSH2 0x1DA SWAP2 SWAP1 PUSH2 0x41E JUMP JUMPDEST PUSH2 0x1E4 SWAP2 SWAP1 PUSH2 0x48C JUMP JUMPDEST PUSH32 0x0 PUSH2 0x20F SWAP2 SWAP1 PUSH2 0x3EB JUMP JUMPDEST SWAP2 POP PUSH2 0x2C6 JUMP JUMPDEST PUSH0 PUSH8 0xB1A2BC2EC500000 DUP3 PUSH2 0x22B SWAP2 SWAP1 PUSH2 0x4BC JUMP JUMPDEST SWAP1 POP PUSH8 0x2C68AF0BB140000 PUSH32 0x0 DUP3 PUSH2 0x262 SWAP2 SWAP1 PUSH2 0x41E JUMP JUMPDEST PUSH2 0x26C SWAP2 SWAP1 PUSH2 0x48C JUMP JUMPDEST PUSH32 0x0 PUSH32 0x0 PUSH2 0x2B8 SWAP2 SWAP1 PUSH2 0x3EB JUMP JUMPDEST PUSH2 0x2C2 SWAP2 SWAP1 PUSH2 0x3EB JUMP JUMPDEST SWAP3 POP POP JUMPDEST POP SWAP3 SWAP2 POP POP JUMP JUMPDEST PUSH8 0xB1A2BC2EC500000 DUP2 JUMP JUMPDEST PUSH32 0x0 DUP2 JUMP JUMPDEST PUSH32 0x0 DUP2 JUMP JUMPDEST PUSH0 DUP2 SWAP1 POP SWAP2 SWAP1 POP JUMP JUMPDEST PUSH2 0x333 DUP2 PUSH2 0x321 JUMP JUMPDEST DUP3 MSTORE POP POP JUMP JUMPDEST PUSH0 PUSH1 0x20 DUP3 ADD SWAP1 POP PUSH2 0x34C PUSH0 DUP4 ADD DUP5 PUSH2 0x32A JUMP JUMPDEST SWAP3 SWAP2 POP POP JUMP JUMPDEST PUSH0 DUP1 REVERT JUMPDEST PUSH2 0x35F DUP2 PUSH2 0x321 JUMP JUMPDEST DUP2 EQ PUSH2 0x369 JUMPI PUSH0 DUP1 REVERT JUMPDEST POP JUMP JUMPDEST PUSH0 DUP2 CALLDATALOAD SWAP1 POP PUSH2 0x37A DUP2 PUSH2 0x356 JUMP JUMPDEST SWAP3 SWAP2 POP POP JUMP JUMPDEST PUSH0 DUP1 PUSH1 0x40 DUP4 DUP6 SUB SLT ISZERO PUSH2 0x396 JUMPI PUSH2 0x395 PUSH2 0x352 JUMP JUMPDEST JUMPDEST PUSH0 PUSH2 0x3A3 DUP6 DUP3 DUP7 ADD PUSH2 0x36C JUMP JUMPDEST SWAP3 POP POP PUSH1 0x20 PUSH2 0x3B4 DUP6 DUP3 DUP7 ADD PUSH2 0x36C JUMP JUMPDEST SWAP2 POP POP SWAP3 POP SWAP3 SWAP1 POP JUMP JUMPDEST PUSH32 0x4E487B7100000000000000000000000000000000000000000000000000000000 PUSH0 MSTORE PUSH1 0x11 PUSH1 0x4 MSTORE PUSH1 0x24 PUSH0 REVERT JUMPDEST PUSH0 PUSH2 0x3F5 DUP3 PUSH2 0x321 JUMP JUMPDEST SWAP2 POP PUSH2 0x400 DUP4 PUSH2 0x321 JUMP JUMPDEST SWAP3 POP DUP3 DUP3 ADD SWAP1 POP DUP1 DUP3 GT ISZERO PUSH2 0x418 JUMPI PUSH2 0x417 PUSH2 0x3BE JUMP JUMPDEST JUMPDEST SWAP3 SWAP2 POP POP JUMP JUMPDEST PUSH0 PUSH2 0x428 DUP3 PUSH2 0x321 JUMP JUMPDEST SWAP2 POP PUSH2 0x433 DUP4 PUSH2 0x321 JUMP JUMPDEST SWAP3 POP DUP3 DUP3 MUL PUSH2 0x441 DUP2 PUSH2 0x321 JUMP JUMPDEST SWAP2 POP DUP3 DUP3 DIV DUP5 EQ DUP4 ISZERO OR PUSH2 0x458 JUMPI PUSH2 0x457 PUSH2 0x3BE JUMP JUMPDEST JUMPDEST POP SWAP3 SWAP2 POP POP JUMP JUMPDEST PUSH32 0x4E487B7100000000000000000000000000000000000000000000000000000000 PUSH0 MSTORE PUSH1 0x12 PUSH1 0x4 MSTORE PUSH1 0x24 PUSH0 REVERT JUMPDEST PUSH0 PUSH2 0x496 DUP3 PUSH2 0x321 JUMP JUMPDEST SWAP2 POP PUSH2 0x4A1 DUP4 PUSH2 0x321 JUMP JUMPDEST SWAP3 POP DUP3 PUSH2 0x4B1 JUMPI PUSH2 0x4B0 PUSH2 0x45F JUMP JUMPDEST JUMPDEST DUP3 DUP3 DIV SWAP1 POP SWAP3 SWAP2 POP POP JUMP JUMPDEST PUSH0 PUSH2 0x4C6 DUP3 PUSH2 0x321 JUMP JUMPDEST SWAP2 POP PUSH2 0x4D1 DUP4 PUSH2 0x321 JUMP JUMPDEST SWAP3 POP DUP3 DUP3 SUB SWAP1 POP DUP2 DUP2 GT ISZERO PUSH2 0x4E9 JUMPI PUSH2 0x4E8 PUSH2 0x3BE JUMP JUMPDEST JUMPDEST SWAP3 SWAP2 POP POP JUMP INVALID LOG2 PUSH5 0x6970667358 0x22 SLT KECCAK256 0xB7 SIGNEXTEND PUSH22 0x5956ED94B4291C6D3EAD14AE05E373E8EA661F2F449A 0xB1 DUP15 0xD3 PUSH28 0x13754F64736F6C634300081A00330000000000000000000000000000 "
		},
		"gasEstimates": {
			"creation": {
				"codeDepositCost": "263400",
				"executionCost": "infinite",
				"totalCost": "infinite"
			},
			"external": {
				"EXCESS_UTILIZATION_RATE()": "303",
				"OPTIMAL_UTILIZATION_RATE()": "369",
				"baseRate()": "infinite",
				"calculateBorrowRate(uint256,uint256)": "infinite",
				"slope1()": "infinite",
				"slope2()": "infinite"
			}
		},
		"methodIdentifiers": {
			"EXCESS_UTILIZATION_RATE()": "17319873",
			"OPTIMAL_UTILIZATION_RATE()": "a15f30ac",
			"baseRate()": "1f68f20a",
			"calculateBorrowRate(uint256,uint256)": "66c57dca",
			"slope1()": "a62b75a8",
			"slope2()": "d0134cb7"
		}
	},
	"abi": [
		{
			"inputs": [
				{
					"internalType": "uint256",
					"name": "_baseRate",
					"type": "uint256"
				},
				{
					"internalType": "uint256",
					"name": "_slope1",
					"type": "uint256"
				},
				{
					"internalType": "uint256",
					"name": "_slope2",
					"type": "uint256"
				}
			],
			"stateMutability": "nonpayable",
			"type": "constructor"
		},
		{
			"inputs": [],
			"name": "EXCESS_UTILIZATION_RATE",
			"outputs": [
				{
					"internalType": "uint256",
					"name": "",
					"type": "uint256"
				}
			],
			"stateMutability": "view",
			"type": "function"
		},
		{
			"inputs": [],
			"name": "OPTIMAL_UTILIZATION_RATE",
			"outputs": [
				{
					"internalType": "uint256",
					"name": "",
					"type": "uint256"
				}
			],
			"stateMutability": "view",
			"type": "function"
		},
		{
			"inputs": [],
			"name": "baseRate",
			"outputs": [
				{
					"internalType": "uint256",
					"name": "",
					"type": "uint256"
				}
			],
			"stateMutability": "view",
			"type": "function"
		},
		{
			"inputs": [
				{
					"internalType": "uint256",
					"name": "availableLiquidity",
					"type": "uint256"
				},
				{
					"internalType": "uint256",
					"name": "totalBorrows",
					"type": "uint256"
				}
			],
			"name": "calculateBorrowRate",
			"outputs": [
				{
					"internalType": "uint256",
					"name": "borrowRate",
					"type": "uint256"
				}
			],
			"stateMutability": "view",
			"type": "function"
		},
		{
			"inputs": [],
			"name": "slope1",
			"outputs": [
				{
					"internalType": "uint256",
					"name": "",
					"type": "uint256"
				}
			],
			"stateMutability": "view",
			"type": "function"
		},
		{
			"inputs": [],
			"name": "slope2",
			"outputs": [
				{
					"internalType": "uint256",
					"name": "",
					"type": "uint256"
				}
			],
			"stateMutability": "view",
			"type": "function"
		}
	]
}